{"abi":[{"type":"constructor","inputs":[{"name":"factory","type":"address","internalType":"address"},{"name":"gameId","type":"uint8","internalType":"uint8"},{"name":"winningsCut","type":"uint8","internalType":"uint8"},{"name":"starCost","type":"uint256","internalType":"uint256"},{"name":"m1CashCost","type":"uint256","internalType":"uint256"},{"name":"dealer","type":"address","internalType":"address"},{"name":"initialHash","type":"bytes32","internalType":"bytes32"},{"name":"duration","type":"uint8","internalType":"uint8"}],"stateMutability":"nonpayable"},{"type":"function","name":"answerMatch","inputs":[{"name":"matchId","type":"uint8","internalType":"uint8"},{"name":"card","type":"uint8","internalType":"enum RestrictedRPSGame.Card"}],"outputs":[],"stateMutability":"nonpayable"},{"type":"function","name":"cancelMatch","inputs":[{"name":"matchId","type":"uint8","internalType":"uint8"}],"outputs":[],"stateMutability":"nonpayable"},{"type":"function","name":"closeGame","inputs":[],"outputs":[],"stateMutability":"nonpayable"},{"type":"function","name":"closeMatch","inputs":[{"name":"matchId","type":"uint8","internalType":"uint8"},{"name":"card","type":"uint8","internalType":"uint8"},{"name":"secret","type":"string","internalType":"string"}],"outputs":[],"stateMutability":"nonpayable"},{"type":"function","name":"computeCurrentRewardsForPlayer","inputs":[{"name":"playerId","type":"uint8","internalType":"uint8"}],"outputs":[{"name":"payout","type":"uint256","internalType":"uint256"}],"stateMutability":"nonpayable"},{"type":"function","name":"computeRewards","inputs":[],"outputs":[],"stateMutability":"nonpayable"},{"type":"function","name":"getBasicJoiningCost","inputs":[],"outputs":[{"name":"","type":"uint256","internalType":"uint256"}],"stateMutability":"view"},{"type":"function","name":"getDealer","inputs":[],"outputs":[{"name":"","type":"address","internalType":"address"}],"stateMutability":"view"},{"type":"function","name":"getDuration","inputs":[],"outputs":[{"name":"","type":"uint8","internalType":"uint8"}],"stateMutability":"view"},{"type":"function","name":"getEnd","inputs":[],"outputs":[{"name":"","type":"uint256","internalType":"uint256"}],"stateMutability":"view"},{"type":"function","name":"getGameId","inputs":[],"outputs":[{"name":"","type":"uint8","internalType":"uint8"}],"stateMutability":"view"},{"type":"function","name":"getGameInfo","inputs":[],"outputs":[{"name":"","type":"uint8","internalType":"uint8"},{"name":"","type":"uint8","internalType":"uint8"},{"name":"","type":"uint8","internalType":"uint8"},{"name":"","type":"uint256","internalType":"uint256"},{"name":"","type":"uint256","internalType":"uint256"},{"name":"","type":"uint256","internalType":"uint256"},{"name":"","type":"address[]","internalType":"address[]"}],"stateMutability":"view"},{"type":"function","name":"getInitialHash","inputs":[],"outputs":[{"name":"","type":"bytes32","internalType":"bytes32"}],"stateMutability":"view"},{"type":"function","name":"getMatch","inputs":[{"name":"matchId","type":"uint8","internalType":"uint8"}],"outputs":[{"name":"","type":"tuple","internalType":"struct RestrictedRPSGame.Match","components":[{"name":"player1","type":"uint8","internalType":"uint8"},{"name":"player2","type":"uint8","internalType":"uint8"},{"name":"player1Card","type":"uint8","internalType":"enum RestrictedRPSGame.Card"},{"name":"player2Card","type":"uint8","internalType":"enum RestrictedRPSGame.Card"},{"name":"player1Bet","type":"uint8","internalType":"uint8"},{"name":"player2Bet","type":"uint8","internalType":"uint8"},{"name":"result","type":"uint8","internalType":"enum RestrictedRPSGame.MatchState"},{"name":"player1Hash","type":"bytes32","internalType":"bytes32"}]}],"stateMutability":"view"},{"type":"function","name":"getMatches","inputs":[],"outputs":[{"name":"","type":"tuple[]","internalType":"struct RestrictedRPSGame.Match[]","components":[{"name":"player1","type":"uint8","internalType":"uint8"},{"name":"player2","type":"uint8","internalType":"uint8"},{"name":"player1Card","type":"uint8","internalType":"enum RestrictedRPSGame.Card"},{"name":"player2Card","type":"uint8","internalType":"enum RestrictedRPSGame.Card"},{"name":"player1Bet","type":"uint8","internalType":"uint8"},{"name":"player2Bet","type":"uint8","internalType":"uint8"},{"name":"result","type":"uint8","internalType":"enum RestrictedRPSGame.MatchState"},{"name":"player1Hash","type":"bytes32","internalType":"bytes32"}]}],"stateMutability":"view"},{"type":"function","name":"getNbrPlayers","inputs":[],"outputs":[{"name":"","type":"uint8","internalType":"uint8"}],"stateMutability":"view"},{"type":"function","name":"getPlayerId","inputs":[{"name":"playerAddress","type":"address","internalType":"address"}],"outputs":[{"name":"playerId","type":"int8","internalType":"int8"}],"stateMutability":"view"},{"type":"function","name":"getPlayerState","inputs":[{"name":"playerId","type":"uint8","internalType":"uint8"}],"outputs":[{"name":"","type":"tuple","internalType":"struct RestrictedRPSGame.PlayerState","components":[{"name":"player","type":"address","internalType":"address"},{"name":"paidAmount","type":"uint256","internalType":"uint256"},{"name":"rewards","type":"uint256","internalType":"uint256"},{"name":"nbrStars","type":"uint8","internalType":"uint8"},{"name":"nbrStarsLocked","type":"uint8","internalType":"uint8"},{"name":"nbrCards","type":"int8","internalType":"int8"},{"name":"nbrRockUsed","type":"int8","internalType":"int8"},{"name":"nbrPaperUsed","type":"int8","internalType":"int8"},{"name":"nbrScissorsUsed","type":"int8","internalType":"int8"},{"name":"nbrOfferedMatches","type":"uint8","internalType":"uint8"},{"name":"initialNbrRocks","type":"int8","internalType":"int8"},{"name":"initialNbrPapers","type":"int8","internalType":"int8"},{"name":"initialNbrScissors","type":"int8","internalType":"int8"},{"name":"cheated","type":"bool","internalType":"bool"}]}],"stateMutability":"view"},{"type":"function","name":"getPlayersState","inputs":[],"outputs":[{"name":"","type":"tuple[]","internalType":"struct RestrictedRPSGame.PlayerState[]","components":[{"name":"player","type":"address","internalType":"address"},{"name":"paidAmount","type":"uint256","internalType":"uint256"},{"name":"rewards","type":"uint256","internalType":"uint256"},{"name":"nbrStars","type":"uint8","internalType":"uint8"},{"name":"nbrStarsLocked","type":"uint8","internalType":"uint8"},{"name":"nbrCards","type":"int8","internalType":"int8"},{"name":"nbrRockUsed","type":"int8","internalType":"int8"},{"name":"nbrPaperUsed","type":"int8","internalType":"int8"},{"name":"nbrScissorsUsed","type":"int8","internalType":"int8"},{"name":"nbrOfferedMatches","type":"uint8","internalType":"uint8"},{"name":"initialNbrRocks","type":"int8","internalType":"int8"},{"name":"initialNbrPapers","type":"int8","internalType":"int8"},{"name":"initialNbrScissors","type":"int8","internalType":"int8"},{"name":"cheated","type":"bool","internalType":"bool"}]}],"stateMutability":"view"},{"type":"function","name":"getSeed","inputs":[],"outputs":[{"name":"","type":"uint256","internalType":"uint256"}],"stateMutability":"view"},{"type":"function","name":"getStarCost","inputs":[],"outputs":[{"name":"","type":"uint256","internalType":"uint256"}],"stateMutability":"view"},{"type":"function","name":"getState","inputs":[],"outputs":[{"name":"","type":"uint8","internalType":"enum RestrictedRPSGame.GameState"}],"stateMutability":"view"},{"type":"function","name":"isOpen","inputs":[],"outputs":[{"name":"","type":"bool","internalType":"bool"}],"stateMutability":"view"},{"type":"function","name":"joinGame","inputs":[{"name":"pub","type":"string","internalType":"string"}],"outputs":[{"name":"playerId","type":"uint8","internalType":"uint8"}],"stateMutability":"payable"},{"type":"function","name":"offerMatch","inputs":[{"name":"hashedCard","type":"bytes32","internalType":"bytes32"},{"name":"player1Bet","type":"uint8","internalType":"uint8"},{"name":"player2Bet","type":"uint8","internalType":"uint8"}],"outputs":[{"name":"matchId","type":"uint8","internalType":"uint8"}],"stateMutability":"nonpayable"},{"type":"function","name":"resetGame","inputs":[{"name":"winningsCut","type":"uint8","internalType":"uint8"},{"name":"starCost","type":"uint256","internalType":"uint256"},{"name":"m1CashCost","type":"uint256","internalType":"uint256"},{"name":"dealer","type":"address","internalType":"address"},{"name":"initialHash","type":"bytes32","internalType":"bytes32"},{"name":"duration","type":"uint8","internalType":"uint8"}],"outputs":[],"stateMutability":"nonpayable"},{"type":"function","name":"setPlayerHand","inputs":[{"name":"playerId","type":"uint8","internalType":"uint8"},{"name":"encryptedHand","type":"bytes","internalType":"bytes"}],"outputs":[],"stateMutability":"nonpayable"},{"type":"function","name":"setSeed","inputs":[{"name":"seed","type":"uint256","internalType":"uint256"}],"outputs":[],"stateMutability":"nonpayable"},{"type":"function","name":"verifyDealerHonesty","inputs":[{"name":"initialDeck","type":"bytes9","internalType":"bytes9"},{"name":"secret","type":"string","internalType":"string"}],"outputs":[{"name":"","type":"bool","internalType":"bool"}],"stateMutability":"nonpayable"},{"type":"function","name":"withdraw","inputs":[],"outputs":[],"stateMutability":"nonpayable"},{"type":"event","name":"DealerCheated","inputs":[{"name":"","type":"address","indexed":true,"internalType":"address"}],"anonymous":false},{"type":"event","name":"GameJoined","inputs":[{"name":"playerId","type":"uint8","indexed":true,"internalType":"uint8"},{"name":"player","type":"address","indexed":true,"internalType":"address"},{"name":"","type":"string","indexed":false,"internalType":"string"}],"anonymous":false},{"type":"event","name":"GameStarted","inputs":[],"anonymous":false},{"type":"event","name":"MatchAnswered","inputs":[{"name":"matchId","type":"uint256","indexed":true,"internalType":"uint256"},{"name":"player","type":"address","indexed":true,"internalType":"address"}],"anonymous":false},{"type":"event","name":"MatchCancelled","inputs":[{"name":"matchId","type":"uint256","indexed":true,"internalType":"uint256"},{"name":"player","type":"address","indexed":true,"internalType":"address"}],"anonymous":false},{"type":"event","name":"MatchClosed","inputs":[{"name":"matchId","type":"uint256","indexed":true,"internalType":"uint256"},{"name":"state","type":"uint8","indexed":true,"internalType":"uint8"}],"anonymous":false},{"type":"event","name":"MatchCreated","inputs":[{"name":"matchId","type":"uint256","indexed":true,"internalType":"uint256"},{"name":"player","type":"address","indexed":true,"internalType":"address"}],"anonymous":false},{"type":"event","name":"PlayerCheated","inputs":[{"name":"","type":"address","indexed":true,"internalType":"address"}],"anonymous":false},{"type":"event","name":"PlayerWasGivenHand","inputs":[{"name":"player","type":"address","indexed":true,"internalType":"address"},{"name":"encryptedHand","type":"bytes","indexed":false,"internalType":"bytes"}],"anonymous":false},{"type":"event","name":"SeedSet","inputs":[{"name":"seed","type":"uint256","indexed":false,"internalType":"uint256"}],"anonymous":false},{"type":"error","name":"RestrictedRPS_AnsweredMatchCannotBeCancelled","inputs":[]},{"type":"error","name":"RestrictedRPS_CannotAnswerYourOwnMatch","inputs":[]},{"type":"error","name":"RestrictedRPS_CannotResetOpenGame","inputs":[]},{"type":"error","name":"RestrictedRPS_DealerCannotJoin","inputs":[]},{"type":"error","name":"RestrictedRPS_DealerHonestyNotYetProven","inputs":[]},{"type":"error","name":"RestrictedRPS_DeckAndSecretNotMatchingInitialHash","inputs":[]},{"type":"error","name":"RestrictedRPS_GameFull","inputs":[]},{"type":"error","name":"RestrictedRPS_GameNotClosable","inputs":[]},{"type":"error","name":"RestrictedRPS_GameNotClosed","inputs":[]},{"type":"error","name":"RestrictedRPS_GameNotOpen","inputs":[]},{"type":"error","name":"RestrictedRPS_InvalidMatchId","inputs":[]},{"type":"error","name":"RestrictedRPS_InvalidPlayerId","inputs":[]},{"type":"error","name":"RestrictedRPS_MatchAlreadyPlayed","inputs":[]},{"type":"error","name":"RestrictedRPS_MatchNotAnswered","inputs":[]},{"type":"error","name":"RestrictedRPS_NotAPlayer","inputs":[]},{"type":"error","name":"RestrictedRPS_NotEnoughAvailableStars","inputs":[]},{"type":"error","name":"RestrictedRPS_NotExpectingSeed","inputs":[]},{"type":"error","name":"RestrictedRPS_NotTheRightPlayer","inputs":[]},{"type":"error","name":"RestrictedRPS_OnlyDealer","inputs":[]},{"type":"error","name":"RestrictedRPS_OnlyFactory","inputs":[]},{"type":"error","name":"RestrictedRPS_PlayerAlreadyJoined","inputs":[]},{"type":"error","name":"RestrictedRPS_PlayerBanned","inputs":[]},{"type":"error","name":"RestrictedRPS_PlayerHasOfferedTooManyMatches","inputs":[]},{"type":"error","name":"RestrictedRPS_SendMore","inputs":[]},{"type":"error","name":"RestrictedRPS_ThereIsStillPlayersWithCards","inputs":[]},{"type":"error","name":"RestrictedRPS_WrongCardHash","inputs":[]}],"bytecode":{"object":"0x60c06040523480156200001157600080fd5b50604051620045213803806200452183398101604081905262000034916200011f565b6001600160a01b03881660805260ff871660a0526200005886868686868662000066565b505050505050505062000208565b6000805460ff88811660ff1990921691909117825560018790556002869055600380546001600160a01b0387166001600160a01b031990911617905560048490556007805460059390935590831662ff00ff19909216821762010000179055620000d49062015180620001c2565b620000e59062ffffff1642620001ec565b600655505050505050565b80516001600160a01b03811681146200010857600080fd5b919050565b805160ff811681146200010857600080fd5b600080600080600080600080610100898b0312156200013d57600080fd5b6200014889620000f0565b97506200015860208a016200010d565b96506200016860408a016200010d565b955060608901519450608089015193506200018660a08a01620000f0565b925060c089015191506200019d60e08a016200010d565b90509295985092959890939650565b634e487b7160e01b600052601160045260246000fd5b62ffffff818116838216028082169190828114620001e457620001e4620001ac565b505092915050565b80820180821115620002025762000202620001ac565b92915050565b60805160a0516142c26200025f600039600081816104f40152610a7a01526000818161065b015281816107520152818161080b01528181611533015281816115bb01528181611ba0015261274801526142c26000f3fe6080604052600436106101cd5760003560e01c80636e328aab116100f7578063a6d3571d11610095578063c32a50f911610064578063c32a50f914610518578063c4ae16a814610538578063dc71e3b81461056b578063fcada10a1461058b57600080fd5b8063a6d3571d14610480578063ad2e8c9b146104ad578063b6b3b64e146104c5578063c0bd8351146104e557600080fd5b80637c1b7f8a116100d15780637c1b7f8a1461040e5780638fd4aa05146104235780639cf6d1af146104435780639f05a36d1461046b57600080fd5b80636e328aab146103c457806374cee9d1146103e4578063786b844b146103f957600080fd5b806332648d7e1161016f5780633d536a2e1161013e5780633d536a2e1461035357806347535d7b14610378578063525f50931461038d5780635e7303d4146103af57600080fd5b806332648d7e146102e95780633640f6131461030957806339e7357c146103295780633ccfd60b1461033e57600080fd5b80631865c57d116101ab5780631865c57d1461025257806323d808da146102785780632c70120e146102a55780633133888e146102c757600080fd5b80630f9361c3146101d257806315822f44146101fa5780631746bd1b1461022a575b600080fd5b3480156101de57600080fd5b506101e76105a8565b6040519081526020015b60405180910390f35b34801561020657600080fd5b5061021a610215366004613a3d565b6105bf565b60405190151581526020016101f1565b34801561023657600080fd5b5061023f61098e565b6040516101f19796959493929190613a8d565b34801561025e57600080fd5b5060075462010000900460ff166040516101f19190613b37565b34801561028457600080fd5b50610298610293366004613b60565b610abb565b6040516101f19190613c01565b3480156102b157600080fd5b506102ba610bfc565b6040516101f19190613c10565b3480156102d357600080fd5b506102e76102e2366004613c5f565b610dad565b005b3480156102f557600080fd5b506102e7610304366004613cb7565b610ea6565b34801561031557600080fd5b506102e7610324366004613b60565b6112b7565b34801561033557600080fd5b506005546101e7565b34801561034a57600080fd5b506102e7611528565b610366610361366004613d15565b611606565b60405160ff90911681526020016101f1565b34801561038457600080fd5b5061021a6119d1565b34801561039957600080fd5b506103a26119f7565b6040516101f19190613e47565b3480156103bb57600080fd5b506001546101e7565b3480156103d057600080fd5b506102e76103df366004613ea1565b611b95565b3480156103f057600080fd5b506004546101e7565b34801561040557600080fd5b506102e7611c5e565b34801561041a57600080fd5b506102e7611d1b565b34801561042f57600080fd5b506101e761043e366004613b60565b6120f5565b34801561044f57600080fd5b506003546040516001600160a01b0390911681526020016101f1565b34801561047757600080fd5b506006546101e7565b34801561048c57600080fd5b506104a061049b366004613b60565b61223c565b6040516101f19190613f00565b3480156104b957600080fd5b5060075460ff16610366565b3480156104d157600080fd5b506103666104e0366004613f0f565b61236f565b3480156104f157600080fd5b507f0000000000000000000000000000000000000000000000000000000000000000610366565b34801561052457600080fd5b506102e7610533366004613f4b565b61273d565b34801561054457600080fd5b50610558610553366004613f64565b612809565b60405160009190910b81526020016101f1565b34801561057757600080fd5b506102e7610586366004613f7f565b61287d565b34801561059757600080fd5b50600754610100900460ff16610366565b6001546000906105ba90600390613fd0565b905090565b6003546000906001600160a01b031633146105ed5760405163730d477360e11b815260040160405180910390fd5b6000838360405160200161060292919061400b565b604051602081830303815290604052805190602001209050806004541461063c5760405163a5ab2a5960e01b815260040160405180910390fd5b60405163f3304bbf60e01b81526001600160b81b0319851660048201527f00000000000000000000000000000000000000000000000000000000000000006001600160a01b03169063f3304bbf90602401602060405180830381865afa1580156106aa573d6000803e3d6000fd5b505050506040513d601f19601f820116820180604052508101906106ce919061403c565b610725576007805462ff00001916620200001790556003546040516001600160a01b03909116907ff06e016360df4c9b017c99214597c4e45c240c89602b99ee310848b7c630cbcc90600090a26000915050610988565b6005546040516340a2978360e11b81526001600160b81b03198616600482015260248101919091526000907f00000000000000000000000000000000000000000000000000000000000000006001600160a01b0316906381452f0690604401602060405180830381865afa1580156107a1573d6000803e3d6000fd5b505050506040513d601f19601f820116820180604052508101906107c5919061405e565b905060005b60075460ff6101009091048116908216101561096f576040516354e4130360e11b81526001600160b81b03198316600482015260ff821660248201526000907f00000000000000000000000000000000000000000000000000000000000000006001600160a01b03169063a9c8260690604401606060405180830381865afa15801561085a573d6000803e3d6000fd5b505050506040513d601f19601f8201168201806040525081019061087e919061407b565b8051909150600860ff84166006811061089957610899614109565b6004020160030160076101000a81548160ff021916908360000b60ff160217905550806001600381106108ce576108ce614109565b602002015160088360ff16600681106108e9576108e9614109565b6004020160030160086101000a81548160ff021916908360000b60ff1602179055508060026003811061091e5761091e614109565b602002015160088360ff166006811061093957610939614109565b6004020160030160096101000a81548160ff021916908360000b60ff1602179055505080806109679061411f565b9150506107ca565b50506007805462ff000019166203000017905550600190505b92915050565b60075460009081908190819081908190606090610100900460ff16828167ffffffffffffffff8111156109c3576109c361398a565b6040519080825280602002602001820160405280156109ec578160200160208202803683370190505b50905060005b8260ff168160ff161015610a685760088160ff1660068110610a1657610a16614109565b600402015482516001600160a01b0390911690839060ff8416908110610a3e57610a3e614109565b6001600160a01b039092166020928302919091019091015280610a608161411f565b9150506109f2565b506007546020546001546002546006547f00000000000000000000000000000000000000000000000000000000000000009e61010090950460ff9081169e509093169b5090995097509550909350915050565b610ac3613831565b602054829060ff90811690821610610aee576040516311eb888760e31b815260040160405180910390fd5b60218360ff1660788110610b0457610b04614109565b604080516101008082018352600293840294909401805460ff8082168452958104861660208401529194909392850192620100009092041690811115610b4c57610b4c613b11565b6002811115610b5d57610b5d613b11565b815281546020909101906301000000900460ff166002811115610b8257610b82613b11565b6002811115610b9357610b93613b11565b8152815460ff600160201b820481166020840152600160281b820481166040840152606090920191600160301b909104166005811115610bd557610bd5613b11565b6005811115610be657610be6613b11565b8152602001600182015481525050915050919050565b60205460609060ff1660008167ffffffffffffffff811115610c2057610c2061398a565b604051908082528060200260200182016040528015610c5957816020015b610c46613831565b815260200190600190039081610c3e5790505b50905060005b8260ff168160ff161015610da65760218160ff1660788110610c8357610c83614109565b604080516101008082018352600293840294909401805460ff8082168452958104861660208401529194909392850192620100009092041690811115610ccb57610ccb613b11565b6002811115610cdc57610cdc613b11565b815281546020909101906301000000900460ff166002811115610d0157610d01613b11565b6002811115610d1257610d12613b11565b8152815460ff600160201b820481166020840152600160281b820481166040840152606090920191600160301b909104166005811115610d5457610d54613b11565b6005811115610d6557610d65613b11565b8152602001600182015481525050828260ff1681518110610d8857610d88614109565b60200260200101819052508080610d9e9061411f565b915050610c5f565b5092915050565b600754829060ff610100909104811690821610610ddd57604051630e0a2aa160e11b815260040160405180910390fd5b6003546001600160a01b03163314610e085760405163730d477360e11b815260040160405180910390fd5b600660088460ff1660068110610e2057610e20614109565b6004020160030160026101000a81548160ff021916908360000b60ff16021790555060088360ff1660068110610e5857610e58614109565b60040201546040516001600160a01b03909116907f675e261a416100b60f1c071c20fd8b07e1e242d28313ee7638d4d44614a2d4e690610e9990859061416a565b60405180910390a2505050565b602054839060ff90811690821610610ed1576040516311eb888760e31b815260040160405180910390fd5b600060218560ff1660788110610ee957610ee9614109565b604080516101008082018352600293840294909401805460ff8082168452958104861660208401529194909392850192620100009092041690811115610f3157610f31613b11565b6002811115610f4257610f42613b11565b815281546020909101906301000000900460ff166002811115610f6757610f67613b11565b6002811115610f7857610f78613b11565b8152815460ff600160201b820481166020840152600160281b820481166040840152606090920191600160301b909104166005811115610fba57610fba613b11565b6005811115610fcb57610fcb613b11565b81526001918201546020909101529091508160c001516005811115610ff257610ff2613b11565b1461101057604051633018e60760e21b815260040160405180910390fd5b60008460f81b8460405160200161102892919061417d565b604051602081830303815290604052805190602001209050808260e001511461106457604051633b74e52960e11b815260040160405180910390fd5b60008560ff16600281111561107b5761107b613b11565b90508060218860ff166078811061109457611094614109565b6002020160000160026101000a81548160ff021916908360028111156110bc576110bc613b11565b0217905550606083015183516110d29083612b88565b6110e0846020015182612b88565b600060028360028111156110f6576110f6613b11565b60ff161115611116576111128986600001518760200151612d09565b5060055b600282600281111561112a5761112a613b11565b60ff16111561114a576111468986600001518760200151612fae565b5060045b81600281111561115c5761115c613b11565b83600281111561116e5761116e613b11565b0361118e576111868986600001518760200151613235565b506003611267565b60008360028111156111a2576111a2613b11565b1480156111c0575060028260028111156111be576111be613b11565b145b806111f8575060018360028111156111da576111da613b11565b1480156111f8575060008260028111156111f6576111f6613b11565b145b806112305750600283600281111561121257611212613b11565b1480156112305750600182600281111561122e5761122e613b11565b145b15611250576112488986600001518760200151612fae565b506004611267565b6112638986600001518760200151612d09565b5060055b80600581111561127957611279613b11565b60ff168960ff167f16ee0aa4913ca9b3502ba060565c5e7016a69fa5853154a2611b73f45f48383960405160405180910390a3505050505050505050565b602054819060ff908116908216106112e2576040516311eb888760e31b815260040160405180910390fd5b600060218360ff16607881106112fa576112fa614109565b604080516101008082018352600293840294909401805460ff808216845295810486166020840152919490939285019262010000909204169081111561134257611342613b11565b600281111561135357611353613b11565b815281546020909101906301000000900460ff16600281111561137857611378613b11565b600281111561138957611389613b11565b8152815460ff600160201b820481166020840152600160281b820481166040840152606090920191600160301b9091041660058111156113cb576113cb613b11565b60058111156113dc576113dc613b11565b815260019190910154602090910152805190915060006113fb33612809565b90508060000b8260000b14611423576040516334e24b8360e21b815260040160405180910390fd5b60c0830151600081600581111561143c5761143c613b11565b1461145a57604051637021339d60e11b815260040160405180910390fd5b836080015160088460ff166006811061147557611475614109565b6004020160030160018282829054906101000a900460ff1661149791906141ae565b92506101000a81548160ff021916908360ff160217905550600260218760ff16607881106114c7576114c7614109565b60020201805460ff60301b1916600160301b8360058111156114eb576114eb613b11565b0217905550604051339060ff8816907f34d66c87f348a9492b2a7fe1463b02de9cab509ca7872ee83878909d9805c3a890600090a3505050505050565b336001600160a01b037f0000000000000000000000000000000000000000000000000000000000000000161461157157604051633f9db83960e01b815260040160405180910390fd5b600560075462010000900460ff16600581111561159057611590613b11565b146115ae576040516368ac9bad60e01b815260040160405180910390fd5b6040516001600160a01b037f000000000000000000000000000000000000000000000000000000000000000016904780156108fc02916000818181858888f19350505050158015611603573d6000803e3d6000fd5b50565b6000336116116105a8565b3410156116315760405163e71ff98960e01b815260040160405180910390fd5b600060075462010000900460ff16600581111561165057611650613b11565b1461166e5760405163817b163760e01b815260040160405180910390fd5b6003546001600160a01b0380831691160361169c5760405163031ee3ed60e51b815260040160405180910390fd5b600754610100900460ff16915060066116b68360016141c7565b60ff1611156116d85760405163380d3cc160e11b815260040160405180910390fd5b60005b8260ff168160ff16101561174757816001600160a01b031660088260ff166006811061170957611709614109565b60040201546001600160a01b03160361173557604051639bec841d60e01b815260040160405180910390fd5b8061173f8161411f565b9150506116db565b50611750613875565b6001600160a01b03821681526003606082015234602082015280600860ff85166006811061178057611780614109565b6004020160008201518160000160006101000a8154816001600160a01b0302191690836001600160a01b03160217905550602082015181600101556040820151816002015560608201518160030160006101000a81548160ff021916908360ff16021790555060808201518160030160016101000a81548160ff021916908360ff16021790555060a08201518160030160026101000a81548160ff021916908360000b60ff16021790555060c08201518160030160036101000a81548160ff021916908360000b60ff16021790555060e08201518160030160046101000a81548160ff021916908360000b60ff1602179055506101008201518160030160056101000a81548160ff021916908360000b60ff1602179055506101208201518160030160066101000a81548160ff021916908360ff1602179055506101408201518160030160076101000a81548160ff021916908360000b60ff1602179055506101608201518160030160086101000a81548160ff021916908360000b60ff1602179055506101808201518160030160096101000a81548160ff021916908360000b60ff1602179055506101a082015181600301600a6101000a81548160ff0219169083151502179055509050506007600181819054906101000a900460ff168092919061196c9061411f565b91906101000a81548160ff021916908360ff16021790555050816001600160a01b03168360ff167fdc70164a0afb7ca145a827fd238ec265b666c335c24a0afa2a33aab37362b4e1866040516119c2919061416a565b60405180910390a35050919050565b60008060075462010000900460ff1660058111156119f1576119f1613b11565b14905090565b600754606090610100900460ff1660008167ffffffffffffffff811115611a2057611a2061398a565b604051908082528060200260200182016040528015611a5957816020015b611a46613875565b815260200190600190039081611a3e5790505b50905060005b8260ff168160ff161015610da65760088160ff1660068110611a8357611a83614109565b604080516101c0810182526004929092029290920180546001600160a01b031682526001810154602083015260028101549282019290925260039091015460ff808216606084015261010080830482166080850152620100008304600090810b60a086015263010000008404810b60c0860152600160201b8404810b60e0860152600160281b8404810b91850191909152600160301b83048216610120850152600160381b8304810b610140850152600160401b8304810b610160850152600160481b8304900b610180840152600160501b909104811615156101a0830152835184918416908110611b7757611b77614109565b60200260200101819052508080611b8d9061411f565b915050611a5f565b336001600160a01b037f00000000000000000000000000000000000000000000000000000000000000001614611bde57604051633f9db83960e01b815260040160405180910390fd5b600560075462010000900460ff166005811115611bfd57611bfd613b11565b14611c1b5760405163ad6418ff60e01b815260040160405180910390fd5b6020805460ff19169055611c31602160006138e9565b6007805461ff0019169055611c48600860006138f8565b611c56868686868686613412565b505050505050565b60075462010000900460ff166002816005811115611c7e57611c7e613b11565b1480611cb557506000816005811115611c9957611c99613b11565b148015611cb55750600654611cb190620151806141e0565b4210155b15611cd657611cc2613498565b506007805462ff0000191662050000179055565b600460075462010000900460ff166005811115611cf557611cf5613b11565b03611d0257611cc2613627565b60405163059546f560e21b815260040160405180910390fd5b600360075462010000900460ff166005811115611d3a57611d3a613b11565b14611d58576040516320ca0a1560e21b815260040160405180910390fd5b600754610100900460ff166000805b8260ff168160ff161015611f8a57600060088260ff1660068110611d8d57611d8d614109565b604080516101c0810182526004929092029290920180546001600160a01b031682526001810154602083015260028101549282019290925260039091015460ff808216606084015261010080830482166080850152620100008304600090810b60a0860181905263010000008504820b60c0870152600160201b8504820b60e0870152600160281b8504820b92860192909252600160301b84048316610120860152600160381b8404810b610140860152600160401b8404810b610160860152600160481b8404810b610180860152600160501b90930490911615156101a08401529192501380611e8c575080610140015160000b8160c0015160000b135b80611ea5575080610160015160000b8160e0015160000b135b80611ebf575080610180015160000b81610100015160000b135b15611f435780516040516001600160a01b03909116907f01c709aae484e2a477ef26450949077d5411b73db0d6b24d7db60381d60794cd90600090a282611f058161411f565b935050600160088360ff1660068110611f2057611f20614109565b60040201600301600a6101000a81548160ff021916908315150217905550611f77565b611f558160a0015182606001516137b6565b60088360ff1660068110611f6b57611f6b614109565b60040201600201819055505b5080611f828161411f565b915050611d67565b5060ff8116156120e05760005b8260ff168160ff1610156120de57600060088260ff1660068110611fbd57611fbd614109565b604080516101c0810182526004929092029290920180546001600160a01b031682526001810154602083015260028101549282019290925260039091015460ff808216606084015261010080830482166080850152620100008304600090810b60a086015263010000008404810b60c0860152600160201b8404810b60e0860152600160281b8404810b91850191909152600160301b83048216610120850152600160381b8304810b610140850152600160401b8304810b610160850152600160481b8304900b610180840152600160501b9091041615156101a082018190529091506120cb57806020015160088360ff16600681106120bf576120bf614109565b60040201600201819055505b50806120d68161411f565b915050611f97565b505b50506007805462ff0000191662040000179055565b600754600090829060ff61010090910481169082161061212857604051630e0a2aa160e11b815260040160405180910390fd5b600060088460ff166006811061214057612140614109565b604080516101c0810182526004929092029290920180546001600160a01b031682526001810154602083015260028101549282019290925260039091015460ff8082166060840181905261010080840483166080860152620100008404600090810b60a0870181905263010000008604820b60c0880152600160201b8604820b60e0880152600160281b8604820b92870192909252600160301b85048416610120870152600160381b8504810b610140870152600160401b8504810b610160870152600160481b8504900b610180860152600160501b90930490911615156101a08401529192509061223282826137b6565b9695505050505050565b612244613875565b600754829060ff61010090910481169082161061227457604051630e0a2aa160e11b815260040160405180910390fd5b60088360ff166006811061228a5761228a614109565b604080516101c0810182526004929092029290920180546001600160a01b031682526001810154602083015260028101549282019290925260039091015460ff808216606084015261010080830482166080850152620100008304600090810b60a086015263010000008404810b60c0860152600160201b8404810b60e0860152600160281b8404810b91850191909152600160301b83048216610120850152600160381b8304810b610140850152600160401b8304810b610160850152600160481b8304900b610180840152600160501b9091041615156101a08201529392505050565b6000612379613831565b600061238433612809565b90508060000b600019036123ab57604051637082284960e11b815260040160405180910390fd5b806000600860ff8316600681106123c4576123c4614109565b604080516101c0810182526004929092029290920180546001600160a01b0316825260018082015460208401526002820154938301939093526003015460ff808216606084015261010080830482166080850152620100008304600090810b60a086015263010000008404810b60c0860152600160201b8404810b60e0860152600160281b8404810b91850191909152600160301b830482166101208501819052600160381b8404820b610140860152600160401b8404820b610160860152600160481b8404820b610180860152600160501b90930490911615156101a084015291935090916124b491906141c7565b9050601460ff821611156124db57604051633fac4c7160e21b815260040160405180910390fd5b816060015160ff168260800151896124f391906141c7565b60ff16111561251557604051638ba4117960e01b815260040160405180910390fd5b60ff808416865260e086018a905287811660a08701528881166080870152602054169550846021876078811061254d5761254d614109565b82516002918202929092018054602085015160ff9081166101000261ffff1990921694169390931792909217808355604084015191839162ff0000191690620100009084908111156125a1576125a1613b11565b021790555060608201518154829063ff000000191663010000008360028111156125cd576125cd613b11565b02179055506080820151815460a084015160ff908116600160281b0265ff00000000001991909316600160201b021665ffff0000000019909116171780825560c083015190829060ff60301b1916600160301b83600581111561263257612632613b11565b021790555060e091909101516001909101556020805460ff169060006126578361411f565b91906101000a81548160ff021916908360ff160217905550508060088460ff166006811061268757612687614109565b6004020160030160066101000a81548160ff021916908360ff1602179055508760088460ff16600681106126bd576126bd614109565b6004020160030160018282829054906101000a900460ff166126df91906141c7565b92506101000a81548160ff021916908360ff160217905550336001600160a01b03168660ff167f18a47d8df22f178f89e665cc0fccf4ee175e91434c7b749c4a7607ffa4d33a6760405160405180910390a350505050509392505050565b336001600160a01b037f0000000000000000000000000000000000000000000000000000000000000000161461278657604051633f9db83960e01b815260040160405180910390fd5b600160075462010000900460ff1660058111156127a5576127a5613b11565b146127c257604051620e2aed60e31b815260040160405180910390fd5b60058190556007805462ff0000191690556040518181527fbda2e5fc778edfbed22cb985a005e7314108766bd66e86798f58611dcb9fb8b99060200160405180910390a150565b60075460001990610100900460ff1660005b8160ff168160ff16101561287657836001600160a01b031660088260ff166006811061284957612849614109565b60040201546001600160a01b03160361286457809250612876565b8061286e8161411f565b91505061281b565b5050919050565b602054829060ff908116908216106128a8576040516311eb888760e31b815260040160405180910390fd5b60006128b333612809565b90508060000b600019036128da57604051637082284960e11b815260040160405180910390fd5b806000602160ff8716607881106128f3576128f3614109565b60020201805490915060ff9081169083160361292257604051631deda49760e01b815260040160405180910390fd5b60008154600160301b900460ff16600581111561294157612941613b11565b1461295f576040516317c9510160e01b815260040160405180910390fd5b600060088360ff166006811061297757612977614109565b604080516101c0810182526004929092029290920180546001600160a01b031682526001810154602083015260028101549282019290925260039091015460ff80821660608401819052610100808404831660808601819052620100008504600090810b60a088015263010000008604810b60c0880152600160201b8604810b60e0880152600160281b808704820b93880193909352600160301b86048516610120880152600160381b8604810b610140880152600160401b8604810b610160880152600160481b8604900b610180870152600160501b909404831615156101a086015286549495509093612a709392919004166141c7565b60ff161115612a9257604051638ba4117960e01b815260040160405180910390fd5b815460ff84166101000261ff00198216811784558791849163ff000000191663ff00ff0019909116176301000000836002811115612ad257612ad2613b11565b0217905550815460ff60301b1916600160301b1780835560ff600160281b909104811690600890851660068110612b0b57612b0b614109565b6004020160030160018282829054906101000a900460ff16612b2d91906141c7565b92506101000a81548160ff021916908360ff160217905550336001600160a01b03168760ff167f01b120bec3d4ba9705e9f5f6c7aa115993959878ac9533a84cb359ffe642823060405160405180910390a350505050505050565b6000816002811115612b9c57612b9c613b11565b03612bf75760088260ff1660068110612bb757612bb7614109565b60040201600390810180546301000000900460000b91612bd6836141f3565b91906101000a81548160ff021916908360000b60ff16021790555050612cb5565b6001816002811115612c0b57612c0b613b11565b03612c4a5760088260ff1660068110612c2657612c26614109565b60040201600301600481819054906101000a900460000b80929190612bd6906141f3565b6002816002811115612c5e57612c5e613b11565b03612cb55760088260ff1660068110612c7957612c79614109565b600402016003018054600160281b900460000b906005612c98836141f3565b91906101000a81548160ff021916908360000b60ff160217905550505b60088260ff1660068110612ccb57612ccb614109565b60040201600301805462010000900460000b906002612ce983614209565b91906101000a81548160ff021916908360000b60ff160217905550505050565b600060218460ff1660788110612d2157612d21614109565b604080516101008082018352600293840294909401805460ff8082168452958104861660208401529194909392850192620100009092041690811115612d6957612d69613b11565b6002811115612d7a57612d7a613b11565b815281546020909101906301000000900460ff166002811115612d9f57612d9f613b11565b6002811115612db057612db0613b11565b8152815460ff600160201b820481166020840152600160281b820481166040840152606090920191600160301b909104166005811115612df257612df2613b11565b6005811115612e0357612e03613b11565b81526020016001820154815250509050600560218560ff1660788110612e2b57612e2b614109565b60020201805460ff60301b1916600160301b836005811115612e4f57612e4f613b11565b0217905550806080015160088460ff1660068110612e6f57612e6f614109565b6004020160030160018282829054906101000a900460ff16612e9191906141ae565b92506101000a81548160ff021916908360ff160217905550806080015160088460ff1660068110612ec457612ec4614109565b6004020160030160008282829054906101000a900460ff16612ee691906141ae565b92506101000a81548160ff021916908360ff1602179055508060a0015160088360ff1660068110612f1957612f19614109565b6004020160030160018282829054906101000a900460ff16612f3b91906141ae565b92506101000a81548160ff021916908360ff160217905550806080015160088360ff1660068110612f6e57612f6e614109565b6004020160030160008282829054906101000a900460ff16612f9091906141c7565b92506101000a81548160ff021916908360ff16021790555050505050565b600060218460ff1660788110612fc657612fc6614109565b604080516101008082018352600293840294909401805460ff808216845295810486166020840152919490939285019262010000909204169081111561300e5761300e613b11565b600281111561301f5761301f613b11565b815281546020909101906301000000900460ff16600281111561304457613044613b11565b600281111561305557613055613b11565b8152815460ff600160201b820481166020840152600160281b820481166040840152606090920191600160301b90910416600581111561309757613097613b11565b60058111156130a8576130a8613b11565b81526020016001820154815250509050600460218560ff16607881106130d0576130d0614109565b60020201805460ff60301b1916600160301b8360058111156130f4576130f4613b11565b0217905550806080015160088460ff166006811061311457613114614109565b6004020160030160018282829054906101000a900460ff1661313691906141ae565b92506101000a81548160ff021916908360ff1602179055508060a0015160088460ff166006811061316957613169614109565b6004020160030160008282829054906101000a900460ff1661318b91906141c7565b92506101000a81548160ff021916908360ff1602179055508060a0015160088360ff16600681106131be576131be614109565b6004020160030160018282829054906101000a900460ff166131e091906141ae565b92506101000a81548160ff021916908360ff1602179055508060a0015160088360ff166006811061321357613213614109565b6004020160030160008282829054906101000a900460ff16612f9091906141ae565b600060218460ff166078811061324d5761324d614109565b604080516101008082018352600293840294909401805460ff808216845295810486166020840152919490939285019262010000909204169081111561329557613295613b11565b60028111156132a6576132a6613b11565b815281546020909101906301000000900460ff1660028111156132cb576132cb613b11565b60028111156132dc576132dc613b11565b8152815460ff600160201b820481166020840152600160281b820481166040840152606090920191600160301b90910416600581111561331e5761331e613b11565b600581111561332f5761332f613b11565b81526020016001820154815250509050600360218560ff166078811061335757613357614109565b60020201805460ff60301b1916600160301b83600581111561337b5761337b613b11565b0217905550806080015160088460ff166006811061339b5761339b614109565b6004020160030160018282829054906101000a900460ff166133bd91906141ae565b92506101000a81548160ff021916908360ff1602179055508060a0015160088360ff16600681106133f0576133f0614109565b6004020160030160018282829054906101000a900460ff16612f9091906141ae565b6000805460ff88811660ff1990921691909117825560018790556002869055600380546001600160a01b0387166001600160a01b031990911617905560048490556007805460059390935590831662ff00ff1990921682176201000017905561347e9062015180614228565b61348d9062ffffff16426141e0565b600655505050505050565b600754610100900460ff1660005b8160ff168160ff16101561362357600060088260ff16600681106134cc576134cc614109565b604080516101c0810182526004929092029290920180546001600160a01b031680835260018201546020840181905260028301549484019490945260039091015460ff808216606085015261010080830482166080860152620100008304600090810b60a087015263010000008404810b60c0870152600160201b8404810b60e0870152600160281b8404810b91860191909152600160301b83048216610120860152600160381b8304810b610140860152600160401b8304810b610160860152600160481b8304810b610180860152600160501b909204811615156101a085015292945090916008908616600681106135c8576135c8614109565b6004020160010181905550806001600160a01b03166108fc839081150290604051600060405180830381858888f1935050505015801561360c573d6000803e3d6000fd5b50505050808061361b9061411f565b9150506134a6565b5050565b600754610100900460ff1660005b8160ff168160ff16101561362357600060088260ff166006811061365b5761365b614109565b604080516101c0810182526004929092029290920180546001600160a01b031680835260018201546020840152600282015493830184905260039091015460ff808216606085015261010080830482166080860152620100008304600090810b60a087015263010000008404810b60c0870152600160201b8404810b60e0870152600160281b8404810b91860191909152600160301b83048216610120860152600160381b8304810b610140860152600160401b8304810b610160860152600160481b8304810b610180860152600160501b909204811615156101a0850152929450909160089086166006811061375457613754614109565b600402016002018190555060008211156137a0576040516001600160a01b0382169083156108fc029084906000818181858888f1935050505015801561379e573d6000803e3d6000fd5b505b50505080806137ae9061411f565b915050613635565b6000808360000b12156137cb57506000610988565b8260000b6000146137e75760048260ff1611156137e757600491505b60006001548360ff166137fa9190613fd0565b6000549091506103e8906138119060ff168261424f565b61381f9061ffff1683613fd0565b613829919061426a565b949350505050565b6040805161010081018252600080825260208201819052918101829052606081018290526080810182905260a0810182905260c0810182905260e081019190915290565b604080516101c081018252600080825260208201819052918101829052606081018290526080810182905260a0810182905260c0810182905260e08101829052610100810182905261012081018290526101408101829052610160810182905261018081018290526101a081019190915290565b506116039060f0810190613907565b50611603906018810190613931565b5b8082111561392d57805466ffffffffffffff1916815560006001820155600201613908565b5090565b5b8082111561392d5780546001600160a01b031916815560006001820181905560028201556003810180546affffffffffffffffffffff19169055600401613932565b6001600160b81b03198116811461160357600080fd5b634e487b7160e01b600052604160045260246000fd5b600067ffffffffffffffff808411156139bb576139bb61398a565b604051601f8501601f19908116603f011681019082821181831017156139e3576139e361398a565b816040528093508581528686860111156139fc57600080fd5b858560208301376000602087830101525050509392505050565b600082601f830112613a2757600080fd5b613a36838335602085016139a0565b9392505050565b60008060408385031215613a5057600080fd5b8235613a5b81613974565b9150602083013567ffffffffffffffff811115613a7757600080fd5b613a8385828601613a16565b9150509250929050565b600060e0820160ff8a168352602060ff8a168185015260ff891660408501528760608501528660808501528560a085015260e060c085015281855180845261010086019150828701935060005b81811015613aff5784516001600160a01b031683529383019391830191600101613ada565b50909c9b505050505050505050505050565b634e487b7160e01b600052602160045260246000fd5b6006811061160357611603613b11565b60208101613b4483613b27565b91905290565b803560ff81168114613b5b57600080fd5b919050565b600060208284031215613b7257600080fd5b613a3682613b4a565b60038110613b8b57613b8b613b11565b9052565b60ff815116825260ff60208201511660208301526040810151613bb56040840182613b7b565b506060810151613bc86060840182613b7b565b5060ff608082015116608083015260ff60a08201511660a083015260c0810151613bf181613b27565b60c083015260e090810151910152565b61010081016109888284613b8f565b6020808252825182820181905260009190848201906040850190845b81811015613c5357613c3f838551613b8f565b928401926101009290920191600101613c2c565b50909695505050505050565b60008060408385031215613c7257600080fd5b613c7b83613b4a565b9150602083013567ffffffffffffffff811115613c9757600080fd5b8301601f81018513613ca857600080fd5b613a83858235602084016139a0565b600080600060608486031215613ccc57600080fd5b613cd584613b4a565b9250613ce360208501613b4a565b9150604084013567ffffffffffffffff811115613cff57600080fd5b613d0b86828701613a16565b9150509250925092565b600060208284031215613d2757600080fd5b813567ffffffffffffffff811115613d3e57600080fd5b61382984828501613a16565b80516001600160a01b0316825260208101516020830152604081015160408301526060810151613d7f606084018260ff169052565b506080810151613d94608084018260ff169052565b5060a0810151613da960a084018260000b9052565b5060c0810151613dbe60c084018260000b9052565b5060e0810151613dd360e084018260000b9052565b5061010080820151613de98285018260000b9052565b50506101208181015160ff169083015261014080820151600081900b82850152505061016080820151613e208285018260000b9052565b505061018080820151613e378285018260000b9052565b50506101a0908101511515910152565b6020808252825182820181905260009190848201906040850190845b81811015613c5357613e76838551613d4a565b928401926101c09290920191600101613e63565b80356001600160a01b0381168114613b5b57600080fd5b60008060008060008060c08789031215613eba57600080fd5b613ec387613b4a565b95506020870135945060408701359350613edf60608801613e8a565b925060808701359150613ef460a08801613b4a565b90509295509295509295565b6101c081016109888284613d4a565b600080600060608486031215613f2457600080fd5b83359250613f3460208501613b4a565b9150613f4260408501613b4a565b90509250925092565b600060208284031215613f5d57600080fd5b5035919050565b600060208284031215613f7657600080fd5b613a3682613e8a565b60008060408385031215613f9257600080fd5b613f9b83613b4a565b9150602083013560038110613faf57600080fd5b809150509250929050565b634e487b7160e01b600052601160045260246000fd5b808202811582820484141761098857610988613fba565b60005b83811015614002578181015183820152602001613fea565b50506000910152565b6001600160b81b031983168152815160009061402e816009850160208701613fe7565b919091016009019392505050565b60006020828403121561404e57600080fd5b81518015158114613a3657600080fd5b60006020828403121561407057600080fd5b8151613a3681613974565b60006060828403121561408d57600080fd5b82601f83011261409c57600080fd5b6040516060810181811067ffffffffffffffff821117156140bf576140bf61398a565b6040528060608401858111156140d457600080fd5b845b818110156140fe578051600081810b82146140ef578081fd5b508352602092830192016140d6565b509195945050505050565b634e487b7160e01b600052603260045260246000fd5b600060ff821660ff810361413557614135613fba565b60010192915050565b60008151808452614156816020860160208601613fe7565b601f01601f19169290920160200192915050565b602081526000613a36602083018461413e565b6001600160f81b03198316815281516000906141a0816001850160208701613fe7565b919091016001019392505050565b60ff828116828216039081111561098857610988613fba565b60ff818116838216019081111561098857610988613fba565b8082018082111561098857610988613fba565b60008160000b607f810361413557614135613fba565b600081810b6080810161421e5761421e613fba565b6000190192915050565b62ffffff81811683821602808216919082811461424757614247613fba565b505092915050565b61ffff828116828216039080821115610da657610da6613fba565b60008261428757634e487b7160e01b600052601260045260246000fd5b50049056fea2646970667358221220594db03a27672ca03aa242f772d557ec8a121a0bce3302082f6ca6333cdaa79164736f6c63430008130033","linkReferences":{}},"methodIdentifiers":{"answerMatch(uint8,uint8)":"dc71e3b8","cancelMatch(uint8)":"3640f613","closeGame()":"786b844b","closeMatch(uint8,uint8,string)":"32648d7e","computeCurrentRewardsForPlayer(uint8)":"8fd4aa05","computeRewards()":"7c1b7f8a","getBasicJoiningCost()":"0f9361c3","getDealer()":"9cf6d1af","getDuration()":"ad2e8c9b","getEnd()":"9f05a36d","getGameId()":"c0bd8351","getGameInfo()":"1746bd1b","getInitialHash()":"74cee9d1","getMatch(uint8)":"23d808da","getMatches()":"2c70120e","getNbrPlayers()":"fcada10a","getPlayerId(address)":"c4ae16a8","getPlayerState(uint8)":"a6d3571d","getPlayersState()":"525f5093","getSeed()":"39e7357c","getStarCost()":"5e7303d4","getState()":"1865c57d","isOpen()":"47535d7b","joinGame(string)":"3d536a2e","offerMatch(bytes32,uint8,uint8)":"b6b3b64e","resetGame(uint8,uint256,uint256,address,bytes32,uint8)":"6e328aab","setPlayerHand(uint8,bytes)":"3133888e","setSeed(uint256)":"c32a50f9","verifyDealerHonesty(bytes9,string)":"15822f44","withdraw()":"3ccfd60b"},"id":33}