{"abi":[{"type":"constructor","inputs":[{"name":"factory","type":"address","internalType":"address"},{"name":"gameId","type":"uint8","internalType":"uint8"},{"name":"winningsCut","type":"uint8","internalType":"uint8"},{"name":"starCost","type":"uint256","internalType":"uint256"},{"name":"m1CashCost","type":"uint256","internalType":"uint256"},{"name":"dealer","type":"address","internalType":"address"},{"name":"initialHash","type":"bytes32","internalType":"bytes32"},{"name":"duration","type":"uint8","internalType":"uint8"}],"stateMutability":"nonpayable"},{"type":"function","name":"answerMatch","inputs":[{"name":"matchId","type":"uint8","internalType":"uint8"},{"name":"card","type":"uint8","internalType":"enum RestrictedRPSGame.Card"}],"outputs":[],"stateMutability":"nonpayable"},{"type":"function","name":"cancelMatch","inputs":[{"name":"matchId","type":"uint8","internalType":"uint8"}],"outputs":[],"stateMutability":"nonpayable"},{"type":"function","name":"closeGame","inputs":[],"outputs":[],"stateMutability":"nonpayable"},{"type":"function","name":"closeMatch","inputs":[{"name":"matchId","type":"uint8","internalType":"uint8"},{"name":"card","type":"uint8","internalType":"uint8"},{"name":"secret","type":"string","internalType":"string"}],"outputs":[],"stateMutability":"nonpayable"},{"type":"function","name":"computeCurrentRewardsForPlayer","inputs":[{"name":"playerId","type":"uint8","internalType":"uint8"}],"outputs":[{"name":"payout","type":"uint256","internalType":"uint256"}],"stateMutability":"view"},{"type":"function","name":"computeRewards","inputs":[],"outputs":[],"stateMutability":"nonpayable"},{"type":"function","name":"getBasicJoiningCost","inputs":[],"outputs":[{"name":"","type":"uint256","internalType":"uint256"}],"stateMutability":"view"},{"type":"function","name":"getDealer","inputs":[],"outputs":[{"name":"","type":"address","internalType":"address"}],"stateMutability":"view"},{"type":"function","name":"getDuration","inputs":[],"outputs":[{"name":"","type":"uint8","internalType":"uint8"}],"stateMutability":"view"},{"type":"function","name":"getEnd","inputs":[],"outputs":[{"name":"","type":"uint256","internalType":"uint256"}],"stateMutability":"view"},{"type":"function","name":"getGameId","inputs":[],"outputs":[{"name":"","type":"uint8","internalType":"uint8"}],"stateMutability":"view"},{"type":"function","name":"getGameInfo","inputs":[],"outputs":[{"name":"","type":"uint8","internalType":"uint8"},{"name":"","type":"uint8","internalType":"uint8"},{"name":"","type":"uint8","internalType":"uint8"},{"name":"","type":"uint256","internalType":"uint256"},{"name":"","type":"uint256","internalType":"uint256"},{"name":"","type":"uint256","internalType":"uint256"},{"name":"","type":"address[]","internalType":"address[]"}],"stateMutability":"view"},{"type":"function","name":"getInitialHash","inputs":[],"outputs":[{"name":"","type":"bytes32","internalType":"bytes32"}],"stateMutability":"view"},{"type":"function","name":"getMatch","inputs":[{"name":"matchId","type":"uint8","internalType":"uint8"}],"outputs":[{"name":"","type":"tuple","internalType":"struct RestrictedRPSGame.Match","components":[{"name":"player1","type":"uint8","internalType":"uint8"},{"name":"player2","type":"uint8","internalType":"uint8"},{"name":"player1Card","type":"uint8","internalType":"enum RestrictedRPSGame.Card"},{"name":"player2Card","type":"uint8","internalType":"enum RestrictedRPSGame.Card"},{"name":"player1Bet","type":"uint8","internalType":"uint8"},{"name":"player2Bet","type":"uint8","internalType":"uint8"},{"name":"result","type":"uint8","internalType":"enum RestrictedRPSGame.MatchState"},{"name":"player1Hash","type":"bytes32","internalType":"bytes32"}]}],"stateMutability":"view"},{"type":"function","name":"getMatches","inputs":[],"outputs":[{"name":"","type":"tuple[]","internalType":"struct RestrictedRPSGame.Match[]","components":[{"name":"player1","type":"uint8","internalType":"uint8"},{"name":"player2","type":"uint8","internalType":"uint8"},{"name":"player1Card","type":"uint8","internalType":"enum RestrictedRPSGame.Card"},{"name":"player2Card","type":"uint8","internalType":"enum RestrictedRPSGame.Card"},{"name":"player1Bet","type":"uint8","internalType":"uint8"},{"name":"player2Bet","type":"uint8","internalType":"uint8"},{"name":"result","type":"uint8","internalType":"enum RestrictedRPSGame.MatchState"},{"name":"player1Hash","type":"bytes32","internalType":"bytes32"}]}],"stateMutability":"view"},{"type":"function","name":"getNbrPlayers","inputs":[],"outputs":[{"name":"","type":"uint8","internalType":"uint8"}],"stateMutability":"view"},{"type":"function","name":"getPlayerId","inputs":[{"name":"playerAddress","type":"address","internalType":"address"}],"outputs":[{"name":"playerId","type":"int8","internalType":"int8"}],"stateMutability":"view"},{"type":"function","name":"getPlayersState","inputs":[],"outputs":[{"name":"","type":"tuple[]","internalType":"struct RestrictedRPSGame.PlayerState[]","components":[{"name":"player","type":"address","internalType":"address"},{"name":"paidAmount","type":"uint256","internalType":"uint256"},{"name":"rewards","type":"uint256","internalType":"uint256"},{"name":"amountToPay","type":"uint256","internalType":"uint256"},{"name":"nbrStars","type":"uint8","internalType":"uint8"},{"name":"nbrStarsLocked","type":"uint8","internalType":"uint8"},{"name":"nbrCards","type":"int8","internalType":"int8"},{"name":"nbrRockUsed","type":"int8","internalType":"int8"},{"name":"nbrPaperUsed","type":"int8","internalType":"int8"},{"name":"nbrScissorsUsed","type":"int8","internalType":"int8"},{"name":"nbrOfferedMatches","type":"uint8","internalType":"uint8"},{"name":"initialNbrRocks","type":"int8","internalType":"int8"},{"name":"initialNbrPapers","type":"int8","internalType":"int8"},{"name":"initialNbrScissors","type":"int8","internalType":"int8"},{"name":"cheated","type":"bool","internalType":"bool"},{"name":"playerWasGivenCards","type":"bool","internalType":"bool"}]}],"stateMutability":"view"},{"type":"function","name":"getSeed","inputs":[],"outputs":[{"name":"","type":"uint256","internalType":"uint256"}],"stateMutability":"view"},{"type":"function","name":"getStarCost","inputs":[],"outputs":[{"name":"","type":"uint256","internalType":"uint256"}],"stateMutability":"view"},{"type":"function","name":"getState","inputs":[],"outputs":[{"name":"","type":"uint8","internalType":"enum RestrictedRPSGame.GameState"}],"stateMutability":"view"},{"type":"function","name":"isOpen","inputs":[],"outputs":[{"name":"","type":"bool","internalType":"bool"}],"stateMutability":"view"},{"type":"function","name":"isReadyToVerify","inputs":[],"outputs":[{"name":"","type":"bool","internalType":"bool"}],"stateMutability":"view"},{"type":"function","name":"joinGame","inputs":[{"name":"pub","type":"string","internalType":"string"}],"outputs":[{"name":"playerId","type":"uint8","internalType":"uint8"}],"stateMutability":"payable"},{"type":"function","name":"offerMatch","inputs":[{"name":"hashedCard","type":"bytes32","internalType":"bytes32"},{"name":"player1Bet","type":"uint8","internalType":"uint8"},{"name":"player2Bet","type":"uint8","internalType":"uint8"}],"outputs":[{"name":"matchId","type":"uint8","internalType":"uint8"}],"stateMutability":"nonpayable"},{"type":"function","name":"payPlayers","inputs":[],"outputs":[],"stateMutability":"nonpayable"},{"type":"function","name":"resetGame","inputs":[{"name":"winningsCut","type":"uint8","internalType":"uint8"},{"name":"starCost","type":"uint256","internalType":"uint256"},{"name":"m1CashCost","type":"uint256","internalType":"uint256"},{"name":"dealer","type":"address","internalType":"address"},{"name":"initialHash","type":"bytes32","internalType":"bytes32"},{"name":"duration","type":"uint8","internalType":"uint8"}],"outputs":[],"stateMutability":"nonpayable"},{"type":"function","name":"setPlayerHand","inputs":[{"name":"playerId","type":"uint8","internalType":"uint8"},{"name":"encryptedHand","type":"bytes","internalType":"bytes"}],"outputs":[],"stateMutability":"nonpayable"},{"type":"function","name":"setSeed","inputs":[{"name":"seed","type":"uint256","internalType":"uint256"}],"outputs":[],"stateMutability":"nonpayable"},{"type":"function","name":"verifyDealerHonesty","inputs":[{"name":"initialDeck","type":"bytes9","internalType":"bytes9"},{"name":"secret","type":"string","internalType":"string"}],"outputs":[{"name":"","type":"bool","internalType":"bool"}],"stateMutability":"nonpayable"},{"type":"function","name":"withdraw","inputs":[],"outputs":[],"stateMutability":"nonpayable"},{"type":"event","name":"ComputedRewards","inputs":[],"anonymous":false},{"type":"event","name":"DealerCheated","inputs":[{"name":"","type":"address","indexed":true,"internalType":"address"}],"anonymous":false},{"type":"event","name":"GameClosed","inputs":[{"name":"state","type":"uint8","indexed":true,"internalType":"uint8"}],"anonymous":false},{"type":"event","name":"GameJoined","inputs":[{"name":"playerId","type":"uint8","indexed":true,"internalType":"uint8"},{"name":"","type":"string","indexed":false,"internalType":"string"}],"anonymous":false},{"type":"event","name":"GameStarted","inputs":[],"anonymous":false},{"type":"event","name":"MatchAnswered","inputs":[{"name":"matchId","type":"uint256","indexed":true,"internalType":"uint256"},{"name":"player","type":"address","indexed":true,"internalType":"address"}],"anonymous":false},{"type":"event","name":"MatchCancelled","inputs":[{"name":"matchId","type":"uint256","indexed":true,"internalType":"uint256"},{"name":"player","type":"address","indexed":true,"internalType":"address"}],"anonymous":false},{"type":"event","name":"MatchClosed","inputs":[{"name":"matchId","type":"uint256","indexed":true,"internalType":"uint256"},{"name":"state","type":"uint8","indexed":true,"internalType":"uint8"}],"anonymous":false},{"type":"event","name":"MatchCreated","inputs":[{"name":"matchId","type":"uint256","indexed":true,"internalType":"uint256"},{"name":"player","type":"address","indexed":true,"internalType":"address"}],"anonymous":false},{"type":"event","name":"PlayerCheated","inputs":[{"name":"","type":"address","indexed":true,"internalType":"address"}],"anonymous":false},{"type":"event","name":"PlayerWasGivenHand","inputs":[{"name":"player","type":"address","indexed":true,"internalType":"address"},{"name":"encryptedHand","type":"bytes","indexed":false,"internalType":"bytes"}],"anonymous":false},{"type":"event","name":"SeedSet","inputs":[{"name":"seed","type":"uint256","indexed":false,"internalType":"uint256"}],"anonymous":false},{"type":"error","name":"RestrictedRPS_AnsweredMatchCannotBeCancelled","inputs":[]},{"type":"error","name":"RestrictedRPS_CannotAnswerYourOwnMatch","inputs":[]},{"type":"error","name":"RestrictedRPS_CannotResetOpenGame","inputs":[]},{"type":"error","name":"RestrictedRPS_DealerCannotJoin","inputs":[]},{"type":"error","name":"RestrictedRPS_DealerHonestyNotYetProven","inputs":[]},{"type":"error","name":"RestrictedRPS_DeckAndSecretNotMatchingInitialHash","inputs":[]},{"type":"error","name":"RestrictedRPS_GameFull","inputs":[]},{"type":"error","name":"RestrictedRPS_GameNotClosable","inputs":[]},{"type":"error","name":"RestrictedRPS_GameNotClosed","inputs":[]},{"type":"error","name":"RestrictedRPS_GameNotOpen","inputs":[]},{"type":"error","name":"RestrictedRPS_GameNotReadyToVerify","inputs":[]},{"type":"error","name":"RestrictedRPS_InvalidMatchId","inputs":[]},{"type":"error","name":"RestrictedRPS_MatchAlreadyPlayed","inputs":[]},{"type":"error","name":"RestrictedRPS_MatchNotAnswered","inputs":[]},{"type":"error","name":"RestrictedRPS_NotAPlayer","inputs":[]},{"type":"error","name":"RestrictedRPS_NotEnoughAvailableStars","inputs":[]},{"type":"error","name":"RestrictedRPS_NotExpectingSeed","inputs":[]},{"type":"error","name":"RestrictedRPS_NotTheRightPlayer","inputs":[]},{"type":"error","name":"RestrictedRPS_OnlyDealer","inputs":[]},{"type":"error","name":"RestrictedRPS_OnlyFactory","inputs":[]},{"type":"error","name":"RestrictedRPS_PlayerAlreadyJoined","inputs":[]},{"type":"error","name":"RestrictedRPS_PlayerBanned","inputs":[]},{"type":"error","name":"RestrictedRPS_PlayerHandAlreadyGiven","inputs":[]},{"type":"error","name":"RestrictedRPS_PlayerHasOfferedTooManyMatches","inputs":[]},{"type":"error","name":"RestrictedRPS_SendMore","inputs":[]},{"type":"error","name":"RestrictedRPS_WrongCardHash","inputs":[]}],"bytecode":{"object":"0x60c06040523480156200001157600080fd5b506040516200427d3803806200427d83398101604081905262000034916200011f565b6001600160a01b03881660805260ff871660a0526200005886868686868662000066565b505050505050505062000208565b6000805460ff88811660ff1990921691909117825560018790556002869055600380546001600160a01b0387166001600160a01b031990911617905560048490556007805460059390935590831662ff00ff19909216821762010000179055620000d49062015180620001c2565b620000e59062ffffff1642620001ec565b600655505050505050565b80516001600160a01b03811681146200010857600080fd5b919050565b805160ff811681146200010857600080fd5b600080600080600080600080610100898b0312156200013d57600080fd5b6200014889620000f0565b97506200015860208a016200010d565b96506200016860408a016200010d565b955060608901519450608089015193506200018660a08a01620000f0565b925060c089015191506200019d60e08a016200010d565b90509295985092959890939650565b634e487b7160e01b600052601160045260246000fd5b62ffffff818116838216028082169190828114620001e457620001e4620001ac565b505092915050565b80820180821115620002025762000202620001ac565b92915050565b60805160a05161401e6200025f600039600081816104e70152610aae01526000818161068d015281816107850152818161083e01528181611589015281816115d401528181611d280152612845015261401e6000f3fe6080604052600436106101d85760003560e01c80635e7303d411610102578063ad2e8c9b11610095578063c4ae16a811610064578063c4ae16a81461052b578063dc71e3b81461055e578063fc19b7451461057e578063fcada10a1461059357600080fd5b8063ad2e8c9b146104a0578063b6b3b64e146104b8578063c0bd8351146104d8578063c32a50f91461050b57600080fd5b80637c1b7f8a116100d15780637c1b7f8a1461042e5780638fd4aa05146104435780639cf6d1af146104635780639f05a36d1461048b57600080fd5b80635e7303d4146103cf5780636e328aab146103e457806374cee9d114610404578063786b844b1461041957600080fd5b806332648d7e1161017a5780633d536a2e116101495780633d536a2e1461035e57806347535d7b14610383578063525f50931461039857806357f33178146103ba57600080fd5b806332648d7e146102f45780633640f6131461031457806339e7357c146103345780633ccfd60b1461034957600080fd5b80631865c57d116101b65780631865c57d1461025d57806323d808da146102835780632c70120e146102b05780633133888e146102d257600080fd5b80630f9361c3146101dd57806315822f44146102055780631746bd1b14610235575b600080fd5b3480156101e957600080fd5b506101f26105b0565b6040519081526020015b60405180910390f35b34801561021157600080fd5b5061022561022036600461379a565b6105c7565b60405190151581526020016101fc565b34801561024157600080fd5b5061024a6109c2565b6040516101fc97969594939291906137ea565b34801561026957600080fd5b5060075462010000900460ff166040516101fc9190613884565b34801561028f57600080fd5b506102a361029e3660046138b4565b610aef565b6040516101fc919061395c565b3480156102bc57600080fd5b506102c5610c04565b6040516101fc919061396b565b3480156102de57600080fd5b506102f26102ed3660046139ba565b610db5565b005b34801561030057600080fd5b506102f261030f366004613a12565b610efc565b34801561032057600080fd5b506102f261032f3660046138b4565b6112fc565b34801561034057600080fd5b506005546101f2565b34801561035557600080fd5b506102f2611541565b61037161036c366004613a70565b61161f565b60405160ff90911681526020016101fc565b34801561038f57600080fd5b50610225611a0c565b3480156103a457600080fd5b506103ad611a32565b6040516101fc9190613aa5565b3480156103c657600080fd5b506102f2611bec565b3480156103db57600080fd5b506001546101f2565b3480156103f057600080fd5b506102f26103ff366004613c0c565b611d1d565b34801561041057600080fd5b506004546101f2565b34801561042557600080fd5b506102f2611de6565b34801561043a57600080fd5b506102f2611ee4565b34801561044f57600080fd5b506101f261045e3660046138b4565b612320565b34801561046f57600080fd5b506003546040516001600160a01b0390911681526020016101fc565b34801561049757600080fd5b506006546101f2565b3480156104ac57600080fd5b5060075460ff16610371565b3480156104c457600080fd5b506103716104d3366004613c6b565b612450565b3480156104e457600080fd5b507f0000000000000000000000000000000000000000000000000000000000000000610371565b34801561051757600080fd5b506102f2610526366004613ca7565b61283a565b34801561053757600080fd5b5061054b610546366004613cc0565b612906565b60405160009190910b81526020016101fc565b34801561056a57600080fd5b506102f2610579366004613cdb565b61297a565b34801561058a57600080fd5b50610225612c76565b34801561059f57600080fd5b50600754610100900460ff16610371565b6001546000906105c290600390613d2c565b905090565b6003546000906001600160a01b031633146105f55760405163730d477360e11b815260040160405180910390fd5b60006105ff612c76565b90508061061f5760405163288615b560e11b815260040160405180910390fd5b60008484604051602001610634929190613d67565b604051602081830303815290604052805190602001209050806004541461066e5760405163a5ab2a5960e01b815260040160405180910390fd5b60405163f3304bbf60e01b81526001600160b81b0319861660048201527f00000000000000000000000000000000000000000000000000000000000000006001600160a01b03169063f3304bbf90602401602060405180830381865afa1580156106dc573d6000803e3d6000fd5b505050506040513d601f19601f820116820180604052508101906107009190613d98565b610758576007805462ff00001916620200001790556003546040516001600160a01b03909116907ff06e016360df4c9b017c99214597c4e45c240c89602b99ee310848b7c630cbcc90600090a26000925050506109bc565b6005546040516340a2978360e11b81526001600160b81b03198716600482015260248101919091526000907f00000000000000000000000000000000000000000000000000000000000000006001600160a01b0316906381452f0690604401602060405180830381865afa1580156107d4573d6000803e3d6000fd5b505050506040513d601f19601f820116820180604052508101906107f89190613dba565b905060005b60075460ff610100909104811690821610156109a2576040516354e4130360e11b81526001600160b81b03198316600482015260ff821660248201526000907f00000000000000000000000000000000000000000000000000000000000000006001600160a01b03169063a9c8260690604401606060405180830381865afa15801561088d573d6000803e3d6000fd5b505050506040513d601f19601f820116820180604052508101906108b19190613dd7565b8051909150600860ff8416600681106108cc576108cc613e65565b6005020160040160076101000a81548160ff021916908360000b60ff1602179055508060016003811061090157610901613e65565b602002015160088360ff166006811061091c5761091c613e65565b6005020160040160086101000a81548160ff021916908360000b60ff1602179055508060026003811061095157610951613e65565b602002015160088360ff166006811061096c5761096c613e65565b6005020160040160096101000a81548160ff021916908360000b60ff16021790555050808061099a90613e7b565b9150506107fd565b50506007805462ff00001916620300001790555060019150505b92915050565b60075460009081908190819081908190606090610100900460ff16828167ffffffffffffffff8111156109f7576109f76136e7565b604051908082528060200260200182016040528015610a20578160200160208202803683370190505b50905060005b8260ff168160ff161015610a9c5760088160ff1660068110610a4a57610a4a613e65565b600502015482516001600160a01b0390911690839060ff8416908110610a7257610a72613e65565b6001600160a01b039092166020928302919091019091015280610a9481613e7b565b915050610a26565b506007546026546001546002546006547f00000000000000000000000000000000000000000000000000000000000000009e61010090950460ff9081169e509093169b5090995097509550909350915050565b610af7613576565b60278260ff1660788110610b0d57610b0d613e65565b604080516101008082018352600293840294909401805460ff8082168452958104861660208401529194909392850192620100009092041690811115610b5557610b5561386e565b6002811115610b6657610b6661386e565b815281546020909101906301000000900460ff166002811115610b8b57610b8b61386e565b6002811115610b9c57610b9c61386e565b8152815460ff600160201b820481166020840152600160281b820481166040840152606090920191600160301b909104166005811115610bde57610bde61386e565b6005811115610bef57610bef61386e565b81526020016001820154815250509050919050565b60265460609060ff1660008167ffffffffffffffff811115610c2857610c286136e7565b604051908082528060200260200182016040528015610c6157816020015b610c4e613576565b815260200190600190039081610c465790505b50905060005b8260ff168160ff161015610dae5760278160ff1660788110610c8b57610c8b613e65565b604080516101008082018352600293840294909401805460ff8082168452958104861660208401529194909392850192620100009092041690811115610cd357610cd361386e565b6002811115610ce457610ce461386e565b815281546020909101906301000000900460ff166002811115610d0957610d0961386e565b6002811115610d1a57610d1a61386e565b8152815460ff600160201b820481166020840152600160281b820481166040840152606090920191600160301b909104166005811115610d5c57610d5c61386e565b6005811115610d6d57610d6d61386e565b8152602001600182015481525050828260ff1681518110610d9057610d90613e65565b60200260200101819052508080610da690613e7b565b915050610c67565b5092915050565b6003546001600160a01b03163314610de05760405163730d477360e11b815260040160405180910390fd5b60088260ff1660068110610df657610df6613e65565b60050201600401600b9054906101000a900460ff1615610e295760405163fdf574e160e01b815260040160405180910390fd5b600660088360ff1660068110610e4157610e41613e65565b6005020160040160026101000a81548160ff021916908360000b60ff160217905550600160088360ff1660068110610e7b57610e7b613e65565b60050201600401600b6101000a81548160ff02191690831515021790555060088260ff1660068110610eaf57610eaf613e65565b60050201546040516001600160a01b03909116907f675e261a416100b60f1c071c20fd8b07e1e242d28313ee7638d4d44614a2d4e690610ef0908490613ec6565b60405180910390a25050565b600060278460ff1660788110610f1457610f14613e65565b604080516101008082018352600293840294909401805460ff8082168452958104861660208401529194909392850192620100009092041690811115610f5c57610f5c61386e565b6002811115610f6d57610f6d61386e565b815281546020909101906301000000900460ff166002811115610f9257610f9261386e565b6002811115610fa357610fa361386e565b8152815460ff600160201b820481166020840152600160281b820481166040840152606090920191600160301b909104166005811115610fe557610fe561386e565b6005811115610ff657610ff661386e565b81526001918201546020909101529091508160c00151600581111561101d5761101d61386e565b1461103b57604051633018e60760e21b815260040160405180910390fd5b60008360f81b83604051602001611053929190613ed9565b604051602081830303815290604052805190602001209050808260e001511461108f57604051633b74e52960e11b815260040160405180910390fd5b60008460ff1660028111156110a6576110a661386e565b90508060278760ff16607881106110bf576110bf613e65565b6002020160000160026101000a81548160ff021916908360028111156110e7576110e761386e565b0217905550606083015183516110fd9083612e50565b61110b846020015182612e50565b600060028360028111156111215761112161386e565b60ff16111561114757611147888660000151876020015188608001518960a00151612fd1565b600282600281111561115b5761115b61386e565b60ff16111561118157611181888660000151876020015188608001518960a0015161315d565b8160028111156111935761119361386e565b8360028111156111a5576111a561386e565b036111cc576111c7888660000151876020015188608001518960a001516132ca565b6112ad565b60008360028111156111e0576111e061386e565b1480156111fe575060028260028111156111fc576111fc61386e565b145b80611236575060018360028111156112185761121861386e565b148015611236575060008260028111156112345761123461386e565b145b8061126e575060028360028111156112505761125061386e565b14801561126e5750600182600281111561126c5761126c61386e565b145b15611290576111c7888660000151876020015188608001518960a0015161315d565b6112ad888660000151876020015188608001518960a00151612fd1565b8060058111156112bf576112bf61386e565b60ff168860ff167f16ee0aa4913ca9b3502ba060565c5e7016a69fa5853154a2611b73f45f48383960405160405180910390a35050505050505050565b600060278260ff166078811061131457611314613e65565b604080516101008082018352600293840294909401805460ff808216845295810486166020840152919490939285019262010000909204169081111561135c5761135c61386e565b600281111561136d5761136d61386e565b815281546020909101906301000000900460ff1660028111156113925761139261386e565b60028111156113a3576113a361386e565b8152815460ff600160201b820481166020840152600160281b820481166040840152606090920191600160301b9091041660058111156113e5576113e561386e565b60058111156113f6576113f661386e565b8152600191909101546020909101528051909150600061141533612906565b90508060000b8260000b1461143d576040516334e24b8360e21b815260040160405180910390fd5b60c083015160008160058111156114565761145661386e565b1461147457604051637021339d60e11b815260040160405180910390fd5b836080015160088460ff166006811061148f5761148f613e65565b6005020160040160018282829054906101000a900460ff166114b19190613f0a565b92506101000a81548160ff021916908360ff160217905550600260278660ff16607881106114e1576114e1613e65565b60020201805460ff60301b1916600160301b8360058111156115055761150561386e565b0217905550604051339060ff8716907f34d66c87f348a9492b2a7fe1463b02de9cab509ca7872ee83878909d9805c3a890600090a35050505050565b600660075462010000900460ff1660068111156115605761156061386e565b1461157e576040516368ac9bad60e01b815260040160405180910390fd5b336001600160a01b037f000000000000000000000000000000000000000000000000000000000000000016146115c757604051633f9db83960e01b815260040160405180910390fd5b6040516001600160a01b037f000000000000000000000000000000000000000000000000000000000000000016904780156108fc02916000818181858888f1935050505015801561161c573d6000803e3d6000fd5b50565b60003361162a6105b0565b34101561164a5760405163e71ff98960e01b815260040160405180910390fd5b600060075462010000900460ff1660068111156116695761166961386e565b146116875760405163817b163760e01b815260040160405180910390fd5b6003546001600160a01b038083169116036116b55760405163031ee3ed60e51b815260040160405180910390fd5b600754610100900460ff16915060066116cf836001613f23565b60ff1611156116f15760405163380d3cc160e11b815260040160405180910390fd5b60005b8260ff168160ff16101561176057816001600160a01b031660088260ff166006811061172257611722613e65565b60050201546001600160a01b03160361174e57604051639bec841d60e01b815260040160405180910390fd5b8061175881613e7b565b9150506116f4565b506117696135ba565b6001600160a01b03821681526003608082015234602082015280600860ff85166006811061179957611799613e65565b6005020160008201518160000160006101000a8154816001600160a01b0302191690836001600160a01b0316021790555060208201518160010155604082015181600201556060820151816003015560808201518160040160006101000a81548160ff021916908360ff16021790555060a08201518160040160016101000a81548160ff021916908360ff16021790555060c08201518160040160026101000a81548160ff021916908360000b60ff16021790555060e08201518160040160036101000a81548160ff021916908360000b60ff1602179055506101008201518160040160046101000a81548160ff021916908360000b60ff1602179055506101208201518160040160056101000a81548160ff021916908360000b60ff1602179055506101408201518160040160066101000a81548160ff021916908360ff1602179055506101608201518160040160076101000a81548160ff021916908360000b60ff1602179055506101808201518160040160086101000a81548160ff021916908360000b60ff1602179055506101a08201518160040160096101000a81548160ff021916908360000b60ff1602179055506101c082015181600401600a6101000a81548160ff0219169083151502179055506101e082015181600401600b6101000a81548160ff0219169083151502179055509050506007600181819054906101000a900460ff16809291906119b190613e7b565b91906101000a81548160ff021916908360ff160217905550508260ff167f022aa2048da12c13a5eebd6ac32259f1e3d71253e38114fa6a36d2d37990bfcb856040516119fd9190613ec6565b60405180910390a25050919050565b60008060075462010000900460ff166006811115611a2c57611a2c61386e565b14905090565b600754606090610100900460ff1660008167ffffffffffffffff811115611a5b57611a5b6136e7565b604051908082528060200260200182016040528015611a9457816020015b611a816135ba565b815260200190600190039081611a795790505b50905060005b8260ff168160ff161015610dae5760088160ff1660068110611abe57611abe613e65565b60408051610200810182526005929092029290920180546001600160a01b03168252600181015460208301526002810154928201929092526003820154606082015260049091015460ff8082166080840152610100808304821660a0850152620100008304600090810b60c086015263010000008404810b60e0860152600160201b8404810b91850191909152600160281b8304810b610120850152600160301b83048216610140850152600160381b8304810b610160850152600160401b8304810b610180850152600160481b8304900b6101a0840152600160501b8204811615156101c0840152600160581b909104811615156101e0830152835184918416908110611bce57611bce613e65565b60200260200101819052508080611be490613e7b565b915050611a9a565b600660075462010000900460ff166006811115611c0b57611c0b61386e565b14611c29576040516368ac9bad60e01b815260040160405180910390fd5b600754610100900460ff1660005b8160ff168160ff161015611d0857600060088260ff1660068110611c5d57611c5d613e65565b60050201600301549050600060088360ff1660068110611c7f57611c7f613e65565b60050201546001600160a01b031690508115611cf357600060088460ff1660068110611cad57611cad613e65565b6005020160030181905550806001600160a01b03166108fc839081150290604051600060405180830381858888f19350505050158015611cf1573d6000803e3d6000fd5b505b50508080611d0090613e7b565b915050611c37565b50506007805462ff0000191662060000179055565b336001600160a01b037f00000000000000000000000000000000000000000000000000000000000000001614611d6657604051633f9db83960e01b815260040160405180910390fd5b600660075462010000900460ff166006811115611d8557611d8561386e565b14611da35760405163ad6418ff60e01b815260040160405180910390fd5b6026805460ff19169055611db96027600061363e565b6007805461ff0019169055611dd06008600061364d565b611dde868686868686613395565b505050505050565b60075462010000900460ff166002816006811115611e0657611e0661386e565b1480611e3d57506000816006811115611e2157611e2161386e565b148015611e3d5750600654611e399062015180613f3c565b4210155b15611e9f57611e4a61341b565b6007805462ff0000191662050000179055806006811115611e6d57611e6d61386e565b60ff167f9908eaac0645df9d0704d06adc9e07337c951de2f06b5f2836151d48d5e4722f60405160405180910390a250565b600460075462010000900460ff166006811115611ebe57611ebe61386e565b03611ecb57611e4a61348d565b60405163059546f560e21b815260040160405180910390fd5b600360075462010000900460ff166006811115611f0357611f0361386e565b14611f21576040516320ca0a1560e21b815260040160405180910390fd5b600754610100900460ff166000805b8260ff168160ff16101561217057600060088260ff1660068110611f5657611f56613e65565b60408051610200810182526005929092029290920180546001600160a01b03168252600181015460208301526002810154928201929092526003820154606082015260049091015460ff8082166080840152610100808304821660a0850152620100008304600090810b60c0860181905263010000008504820b60e0870152600160201b8504820b92860192909252600160281b8404810b610120860152600160301b84048316610140860152600160381b8404810b610160860152600160401b8404810b610180860152600160481b8404810b6101a0860152600160501b8404831615156101c0860152600160581b90930490911615156101e08401529192501380612071575080610160015160000b8160e0015160000b135b8061208b575080610180015160000b81610100015160000b135b806120a55750806101a0015160000b81610120015160000b135b156121295780516040516001600160a01b03909116907f01c709aae484e2a477ef26450949077d5411b73db0d6b24d7db60381d60794cd90600090a2826120eb81613e7b565b935050600160088360ff166006811061210657612106613e65565b60050201600401600a6101000a81548160ff02191690831515021790555061215d565b61213b8160c0015182608001516134fb565b60088360ff166006811061215157612151613e65565b60050201600201819055505b508061216881613e7b565b915050611f30565b5060ff8116156122e25760005b8260ff168160ff1610156122e057600060088260ff16600681106121a3576121a3613e65565b60408051610200810182526005929092029290920180546001600160a01b03168252600181015460208301526002810154928201929092526003820154606082015260049091015460ff8082166080840152610100808304821660a0850152620100008304600090810b60c086015263010000008404810b60e0860152600160201b8404810b91850191909152600160281b8304810b610120850152600160301b83048216610140850152600160381b8304810b610160850152600160401b8304810b610180850152600160481b8304900b6101a0840152600160501b8204811615156101c08401819052600160581b9092041615156101e08301529091506122cd57806020015160088360ff16600681106122c1576122c1613e65565b60050201600201819055505b50806122d881613e7b565b91505061217d565b505b6007805462ff00001916620400001790556040517f4fe64a1db9b488a7580160b96d00df1e33928b44702c888eec276fb8cfdaaaa190600090a15050565b60008060088360ff166006811061233957612339613e65565b60408051610200810182526005929092029290920180546001600160a01b03168252600181015460208301526002810154928201929092526003820154606082015260049091015460ff80821660808401819052610100808404831660a0860152620100008404600090810b60c0870181905263010000008604820b60e0880152600160201b8604820b92870192909252600160281b8504810b610120870152600160301b85048416610140870152600160381b8504810b610160870152600160401b8504810b610180870152600160481b8504900b6101a0860152600160501b8404831615156101c0860152600160581b90930490911615156101e08401529192509061244782826134fb565b95945050505050565b600061245a613576565b600061246533612906565b90508060000b6000190361248c57604051637082284960e11b815260040160405180910390fd5b806000600860ff8316600681106124a5576124a5613e65565b60408051610200810182526005929092029290920180546001600160a01b031682526001808201546020840152600282015493830193909352600381015460608301526004015460ff8082166080840152610100808304821660a0850152620100008304600090810b60c086015263010000008404810b60e0860152600160201b8404810b91850191909152600160281b8304810b610120850152600160301b830482166101408501819052600160381b8404820b610160860152600160401b8404820b610180860152600160481b8404820b6101a0860152600160501b8404831615156101c0860152600160581b90930490911615156101e084015291935090916125b19190613f23565b9050601460ff821611156125d857604051633fac4c7160e21b815260040160405180910390fd5b816080015160ff168260a00151896125f09190613f23565b60ff16111561261257604051638ba4117960e01b815260040160405180910390fd5b60ff808416865260e086018a905287811660a08701528881166080870152602654169550846027876078811061264a5761264a613e65565b82516002918202929092018054602085015160ff9081166101000261ffff1990921694169390931792909217808355604084015191839162ff00001916906201000090849081111561269e5761269e61386e565b021790555060608201518154829063ff000000191663010000008360028111156126ca576126ca61386e565b02179055506080820151815460a084015160ff908116600160281b0265ff00000000001991909316600160201b021665ffff0000000019909116171780825560c083015190829060ff60301b1916600160301b83600581111561272f5761272f61386e565b021790555060e091909101516001909101556026805460ff1690600061275483613e7b565b91906101000a81548160ff021916908360ff160217905550508060088460ff166006811061278457612784613e65565b6005020160040160066101000a81548160ff021916908360ff1602179055508760088460ff16600681106127ba576127ba613e65565b6005020160040160018282829054906101000a900460ff166127dc9190613f23565b92506101000a81548160ff021916908360ff160217905550336001600160a01b03168660ff167f18a47d8df22f178f89e665cc0fccf4ee175e91434c7b749c4a7607ffa4d33a6760405160405180910390a350505050509392505050565b336001600160a01b037f0000000000000000000000000000000000000000000000000000000000000000161461288357604051633f9db83960e01b815260040160405180910390fd5b600160075462010000900460ff1660068111156128a2576128a261386e565b146128bf57604051620e2aed60e31b815260040160405180910390fd5b60058190556007805462ff0000191690556040518181527fbda2e5fc778edfbed22cb985a005e7314108766bd66e86798f58611dcb9fb8b99060200160405180910390a150565b60075460001990610100900460ff1660005b8160ff168160ff16101561297357836001600160a01b031660088260ff166006811061294657612946613e65565b60050201546001600160a01b03160361296157809250612973565b8061296b81613e7b565b915050612918565b5050919050565b600061298533612906565b90508060000b600019036129ac57604051637082284960e11b815260040160405180910390fd5b806000602760ff8616607881106129c5576129c5613e65565b60020201805490915060ff908116908316036129f457604051631deda49760e01b815260040160405180910390fd5b60008154600160301b900460ff166005811115612a1357612a1361386e565b14612a31576040516317c9510160e01b815260040160405180910390fd5b600060088360ff1660068110612a4957612a49613e65565b60408051610200810182526005929092029290920180546001600160a01b03168252600181015460208301526002810154928201929092526003820154606082015260049091015460ff80821660808401819052610100808404831660a08601819052620100008504600090810b60c088015263010000008604810b60e0880152600160201b8604810b92870192909252600160281b808604830b610120880152600160301b86048516610140880152600160381b8604830b610160880152600160401b8604830b610180880152600160481b860490920b6101a0870152600160501b8504841615156101c0870152600160581b909404831615156101e086015286549495509093612b5f939291900416613f23565b60ff161115612b8157604051638ba4117960e01b815260040160405180910390fd5b815460ff84166101000261ff00198216811784558691849163ff000000191663ff00ff0019909116176301000000836002811115612bc157612bc161386e565b0217905550815460ff60301b1916600160301b1780835560ff600160281b909104811690600890851660068110612bfa57612bfa613e65565b6005020160040160018282829054906101000a900460ff16612c1c9190613f23565b92506101000a81548160ff021916908360ff160217905550336001600160a01b03168660ff167f01b120bec3d4ba9705e9f5f6c7aa115993959878ac9533a84cb359ffe642823060405160405180910390a3505050505050565b60008060075462010000900460ff166006811115612c9657612c9661386e565b14612ca15750600090565b426006541015612cb15750600190565b600754610100900460ff16600603612e4a576040805160c081019091526000906008600683835b82821015612de857604080516102008101825260058402860180546001600160a01b031682526001808201546020808501919091526002830154948401949094526003820154606084015260049091015460ff8082166080850152610100808304821660a0860152620100008304600090810b60c087015263010000008404810b60e0870152600160201b8404810b91860191909152600160281b8304810b610120860152600160301b83048216610140860152600160381b8304810b610160860152600160401b8304810b610180860152600160481b8304900b6101a0850152600160501b8204811615156101c0850152600160581b9091041615156101e08301529083529092019101612cd8565b50505050905060005b60068160ff161015612e41576000828260ff1660068110612e1457612e14613e65565b602002015160c0015160000b1315612e2f5760009250505090565b80612e3981613e7b565b915050612df1565b50600191505090565b50600090565b6000816002811115612e6457612e6461386e565b03612ebf5760088260ff1660068110612e7f57612e7f613e65565b6005020160040180546301000000900460000b906003612e9e83613f4f565b91906101000a81548160ff021916908360000b60ff16021790555050612f7d565b6001816002811115612ed357612ed361386e565b03612f0d5760088260ff1660068110612eee57612eee613e65565b6005020160049081018054600160201b900460000b91612e9e83613f4f565b6002816002811115612f2157612f2161386e565b03612f7d5760088260ff1660068110612f3c57612f3c613e65565b60050201600401600581819054906101000a900460000b80929190612f6090613f4f565b91906101000a81548160ff021916908360000b60ff160217905550505b60088260ff1660068110612f9357612f93613e65565b60050201600401805462010000900460000b906002612fb183613f65565b91906101000a81548160ff021916908360000b60ff160217905550505050565b600560278660ff1660788110612fe957612fe9613e65565b60020201805460ff60301b1916600160301b83600581111561300d5761300d61386e565b02179055508160088560ff166006811061302957613029613e65565b6005020160040160018282829054906101000a900460ff1661304b9190613f0a565b92506101000a81548160ff021916908360ff1602179055508160088560ff166006811061307a5761307a613e65565b6005020160040160008282829054906101000a900460ff1661309c9190613f0a565b92506101000a81548160ff021916908360ff1602179055508060088460ff16600681106130cb576130cb613e65565b6005020160040160018282829054906101000a900460ff166130ed9190613f0a565b92506101000a81548160ff021916908360ff1602179055508160088460ff166006811061311c5761311c613e65565b6005020160040160008282829054906101000a900460ff1661313e9190613f23565b92506101000a81548160ff021916908360ff1602179055505050505050565b600460278660ff166078811061317557613175613e65565b60020201805460ff60301b1916600160301b8360058111156131995761319961386e565b02179055508160088560ff16600681106131b5576131b5613e65565b6005020160040160018282829054906101000a900460ff166131d79190613f0a565b92506101000a81548160ff021916908360ff1602179055508060088560ff166006811061320657613206613e65565b6005020160040160008282829054906101000a900460ff166132289190613f23565b92506101000a81548160ff021916908360ff1602179055508060088460ff166006811061325757613257613e65565b6005020160040160018282829054906101000a900460ff166132799190613f0a565b92506101000a81548160ff021916908360ff1602179055508060088460ff16600681106132a8576132a8613e65565b6005020160040160008282829054906101000a900460ff1661313e9190613f0a565b600360278660ff16607881106132e2576132e2613e65565b60020201805460ff60301b1916600160301b8360058111156133065761330661386e565b02179055508160088560ff166006811061332257613322613e65565b6005020160040160018282829054906101000a900460ff166133449190613f0a565b92506101000a81548160ff021916908360ff1602179055508060088460ff166006811061337357613373613e65565b6005020160040160018282829054906101000a900460ff1661313e9190613f0a565b6000805460ff88811660ff1990921691909117825560018790556002869055600380546001600160a01b0387166001600160a01b031990911617905560048490556007805460059390935590831662ff00ff199092168217620100001790556134019062015180613f84565b6134109062ffffff1642613f3c565b600655505050505050565b600754610100900460ff1660005b8160ff168160ff1610156134895760088160ff166006811061344d5761344d613e65565b600502016001015460088260ff166006811061346b5761346b613e65565b6005020160030181905550808061348190613e7b565b915050613429565b5050565b600754610100900460ff1660005b8160ff168160ff1610156134895760088160ff16600681106134bf576134bf613e65565b600502016002015460088260ff16600681106134dd576134dd613e65565b600502016003018190555080806134f390613e7b565b91505061349b565b6000808360000b1215613510575060006109bc565b8260000b60001461352c5760048260ff16111561352c57600491505b60006001548360ff1661353f9190613d2c565b6000549091506103e8906135569060ff1682613fab565b6135649061ffff1683613d2c565b61356e9190613fc6565b949350505050565b6040805161010081018252600080825260208201819052918101829052606081018290526080810182905260a0810182905260c0810182905260e081019190915290565b6040805161020081018252600080825260208201819052918101829052606081018290526080810182905260a0810182905260c0810182905260e08101829052610100810182905261012081018290526101408101829052610160810182905261018081018290526101a081018290526101c081018290526101e081019190915290565b5061161c9060f081019061365c565b5061161c90601e810190613686565b5b8082111561368257805466ffffffffffffff191681556000600182015560020161365d565b5090565b5b808211156136825780546001600160a01b03191681556000600182018190556002820181905560038201556004810180546bffffffffffffffffffffffff19169055600501613687565b6001600160b81b03198116811461161c57600080fd5b634e487b7160e01b600052604160045260246000fd5b600067ffffffffffffffff80841115613718576137186136e7565b604051601f8501601f19908116603f01168101908282118183101715613740576137406136e7565b8160405280935085815286868601111561375957600080fd5b858560208301376000602087830101525050509392505050565b600082601f83011261378457600080fd5b613793838335602085016136fd565b9392505050565b600080604083850312156137ad57600080fd5b82356137b8816136d1565b9150602083013567ffffffffffffffff8111156137d457600080fd5b6137e085828601613773565b9150509250929050565b600060e0820160ff8a168352602060ff8a168185015260ff891660408501528760608501528660808501528560a085015260e060c085015281855180845261010086019150828701935060005b8181101561385c5784516001600160a01b031683529383019391830191600101613837565b50909c9b505050505050505050505050565b634e487b7160e01b600052602160045260246000fd5b60208101600783106138985761389861386e565b91905290565b803560ff811681146138af57600080fd5b919050565b6000602082840312156138c657600080fd5b6137938261389e565b600381106138df576138df61386e565b9052565b60ff815116825260ff6020820151166020830152604081015161390960408401826138cf565b50606081015161391c60608401826138cf565b5060ff608082015116608083015260ff60a08201511660a083015260c08101516006811061394c5761394c61386e565b60c083015260e090810151910152565b61010081016109bc82846138e3565b6020808252825182820181905260009190848201906040850190845b818110156139ae5761399a8385516138e3565b928401926101009290920191600101613987565b50909695505050505050565b600080604083850312156139cd57600080fd5b6139d68361389e565b9150602083013567ffffffffffffffff8111156139f257600080fd5b8301601f81018513613a0357600080fd5b6137e0858235602084016136fd565b600080600060608486031215613a2757600080fd5b613a308461389e565b9250613a3e6020850161389e565b9150604084013567ffffffffffffffff811115613a5a57600080fd5b613a6686828701613773565b9150509250925092565b600060208284031215613a8257600080fd5b813567ffffffffffffffff811115613a9957600080fd5b61356e84828501613773565b602080825282518282018190526000919060409081850190868401855b82811015613be857815180516001600160a01b03168552868101518588015285810151868601526060808201519086015260808082015160ff811682880152505060a08181015160ff811687830152505060c080820151613b278288018260000b9052565b505060e080820151613b3d8288018260000b9052565b505061010080820151613b548288018260000b9052565b505061012080820151613b6b8288018260000b9052565b50506101408181015160ff169086015261016080820151600081900b82880152505061018080820151613ba28288018260000b9052565b50506101a080820151613bb98288018260000b9052565b50506101c0818101511515908601526101e0908101511515908501526102009093019290850190600101613ac2565b5091979650505050505050565b80356001600160a01b03811681146138af57600080fd5b60008060008060008060c08789031215613c2557600080fd5b613c2e8761389e565b95506020870135945060408701359350613c4a60608801613bf5565b925060808701359150613c5f60a0880161389e565b90509295509295509295565b600080600060608486031215613c8057600080fd5b83359250613c906020850161389e565b9150613c9e6040850161389e565b90509250925092565b600060208284031215613cb957600080fd5b5035919050565b600060208284031215613cd257600080fd5b61379382613bf5565b60008060408385031215613cee57600080fd5b613cf78361389e565b9150602083013560038110613d0b57600080fd5b809150509250929050565b634e487b7160e01b600052601160045260246000fd5b80820281158282048414176109bc576109bc613d16565b60005b83811015613d5e578181015183820152602001613d46565b50506000910152565b6001600160b81b0319831681528151600090613d8a816009850160208701613d43565b919091016009019392505050565b600060208284031215613daa57600080fd5b8151801515811461379357600080fd5b600060208284031215613dcc57600080fd5b8151613793816136d1565b600060608284031215613de957600080fd5b82601f830112613df857600080fd5b6040516060810181811067ffffffffffffffff82111715613e1b57613e1b6136e7565b604052806060840185811115613e3057600080fd5b845b81811015613e5a578051600081810b8214613e4b578081fd5b50835260209283019201613e32565b509195945050505050565b634e487b7160e01b600052603260045260246000fd5b600060ff821660ff8103613e9157613e91613d16565b60010192915050565b60008151808452613eb2816020860160208601613d43565b601f01601f19169290920160200192915050565b6020815260006137936020830184613e9a565b6001600160f81b0319831681528151600090613efc816001850160208701613d43565b919091016001019392505050565b60ff82811682821603908111156109bc576109bc613d16565b60ff81811683821601908111156109bc576109bc613d16565b808201808211156109bc576109bc613d16565b60008160000b607f8103613e9157613e91613d16565b600081810b60808101613f7a57613f7a613d16565b6000190192915050565b62ffffff818116838216028082169190828114613fa357613fa3613d16565b505092915050565b61ffff828116828216039080821115610dae57610dae613d16565b600082613fe357634e487b7160e01b600052601260045260246000fd5b50049056fea2646970667358221220e45c0ea91c3199f7766842f4b6793160b7df7814850029b3928b1dc29617c1a164736f6c63430008130033","linkReferences":{}},"methodIdentifiers":{"answerMatch(uint8,uint8)":"dc71e3b8","cancelMatch(uint8)":"3640f613","closeGame()":"786b844b","closeMatch(uint8,uint8,string)":"32648d7e","computeCurrentRewardsForPlayer(uint8)":"8fd4aa05","computeRewards()":"7c1b7f8a","getBasicJoiningCost()":"0f9361c3","getDealer()":"9cf6d1af","getDuration()":"ad2e8c9b","getEnd()":"9f05a36d","getGameId()":"c0bd8351","getGameInfo()":"1746bd1b","getInitialHash()":"74cee9d1","getMatch(uint8)":"23d808da","getMatches()":"2c70120e","getNbrPlayers()":"fcada10a","getPlayerId(address)":"c4ae16a8","getPlayersState()":"525f5093","getSeed()":"39e7357c","getStarCost()":"5e7303d4","getState()":"1865c57d","isOpen()":"47535d7b","isReadyToVerify()":"fc19b745","joinGame(string)":"3d536a2e","offerMatch(bytes32,uint8,uint8)":"b6b3b64e","payPlayers()":"57f33178","resetGame(uint8,uint256,uint256,address,bytes32,uint8)":"6e328aab","setPlayerHand(uint8,bytes)":"3133888e","setSeed(uint256)":"c32a50f9","verifyDealerHonesty(bytes9,string)":"15822f44","withdraw()":"3ccfd60b"},"id":33}