{"abi":[{"type":"constructor","inputs":[{"name":"factory","type":"address","internalType":"address"},{"name":"gameId","type":"uint8","internalType":"uint8"},{"name":"winningsCut","type":"uint8","internalType":"uint8"},{"name":"starCost","type":"uint256","internalType":"uint256"},{"name":"m1CashCost","type":"uint256","internalType":"uint256"},{"name":"dealer","type":"address","internalType":"address"},{"name":"initialHash","type":"bytes32","internalType":"bytes32"},{"name":"duration","type":"uint8","internalType":"uint8"}],"stateMutability":"nonpayable"},{"type":"function","name":"answerMatch","inputs":[{"name":"matchId","type":"uint8","internalType":"uint8"},{"name":"card","type":"uint8","internalType":"enum RestrictedRPSGame.Card"}],"outputs":[],"stateMutability":"nonpayable"},{"type":"function","name":"cancelMatch","inputs":[{"name":"matchId","type":"uint8","internalType":"uint8"}],"outputs":[],"stateMutability":"nonpayable"},{"type":"function","name":"closeGame","inputs":[],"outputs":[],"stateMutability":"nonpayable"},{"type":"function","name":"closeMatch","inputs":[{"name":"matchId","type":"uint8","internalType":"uint8"},{"name":"card","type":"uint8","internalType":"uint8"},{"name":"secret","type":"string","internalType":"string"}],"outputs":[],"stateMutability":"nonpayable"},{"type":"function","name":"computeCurrentRewardsForPlayer","inputs":[{"name":"playerId","type":"uint8","internalType":"uint8"}],"outputs":[{"name":"payout","type":"uint256","internalType":"uint256"}],"stateMutability":"view"},{"type":"function","name":"computeRewards","inputs":[],"outputs":[],"stateMutability":"nonpayable"},{"type":"function","name":"getBasicJoiningCost","inputs":[],"outputs":[{"name":"","type":"uint256","internalType":"uint256"}],"stateMutability":"view"},{"type":"function","name":"getDealer","inputs":[],"outputs":[{"name":"","type":"address","internalType":"address"}],"stateMutability":"view"},{"type":"function","name":"getDuration","inputs":[],"outputs":[{"name":"","type":"uint8","internalType":"uint8"}],"stateMutability":"view"},{"type":"function","name":"getEnd","inputs":[],"outputs":[{"name":"","type":"uint256","internalType":"uint256"}],"stateMutability":"view"},{"type":"function","name":"getGameId","inputs":[],"outputs":[{"name":"","type":"uint8","internalType":"uint8"}],"stateMutability":"view"},{"type":"function","name":"getGameInfo","inputs":[],"outputs":[{"name":"","type":"uint8","internalType":"uint8"},{"name":"","type":"uint8","internalType":"uint8"},{"name":"","type":"uint8","internalType":"uint8"},{"name":"","type":"uint256","internalType":"uint256"},{"name":"","type":"uint256","internalType":"uint256"},{"name":"","type":"uint256","internalType":"uint256"},{"name":"","type":"address[]","internalType":"address[]"}],"stateMutability":"view"},{"type":"function","name":"getInitialHash","inputs":[],"outputs":[{"name":"","type":"bytes32","internalType":"bytes32"}],"stateMutability":"view"},{"type":"function","name":"getMatches","inputs":[],"outputs":[{"name":"","type":"tuple[]","internalType":"struct RestrictedRPSGame.Match[]","components":[{"name":"player1","type":"uint8","internalType":"uint8"},{"name":"player2","type":"uint8","internalType":"uint8"},{"name":"player1Card","type":"uint8","internalType":"enum RestrictedRPSGame.Card"},{"name":"player2Card","type":"uint8","internalType":"enum RestrictedRPSGame.Card"},{"name":"player1Bet","type":"uint8","internalType":"uint8"},{"name":"player2Bet","type":"uint8","internalType":"uint8"},{"name":"result","type":"uint8","internalType":"enum RestrictedRPSGame.MatchState"},{"name":"player1Hash","type":"bytes32","internalType":"bytes32"}]}],"stateMutability":"view"},{"type":"function","name":"getNbrPlayers","inputs":[],"outputs":[{"name":"","type":"uint8","internalType":"uint8"}],"stateMutability":"view"},{"type":"function","name":"getPlayerId","inputs":[{"name":"playerAddress","type":"address","internalType":"address"}],"outputs":[{"name":"playerId","type":"int8","internalType":"int8"}],"stateMutability":"view"},{"type":"function","name":"getPlayerState","inputs":[{"name":"playerId","type":"uint8","internalType":"uint8"}],"outputs":[{"name":"","type":"tuple","internalType":"struct RestrictedRPSGame.PlayerState","components":[{"name":"player","type":"address","internalType":"address"},{"name":"paidAmount","type":"uint256","internalType":"uint256"},{"name":"rewards","type":"uint256","internalType":"uint256"},{"name":"amountToPay","type":"uint256","internalType":"uint256"},{"name":"nbrStars","type":"uint8","internalType":"uint8"},{"name":"nbrStarsLocked","type":"uint8","internalType":"uint8"},{"name":"nbrCards","type":"int8","internalType":"int8"},{"name":"nbrRockUsed","type":"int8","internalType":"int8"},{"name":"nbrPaperUsed","type":"int8","internalType":"int8"},{"name":"nbrScissorsUsed","type":"int8","internalType":"int8"},{"name":"nbrOfferedMatches","type":"uint8","internalType":"uint8"},{"name":"initialNbrRocks","type":"int8","internalType":"int8"},{"name":"initialNbrPapers","type":"int8","internalType":"int8"},{"name":"initialNbrScissors","type":"int8","internalType":"int8"},{"name":"cheated","type":"bool","internalType":"bool"}]}],"stateMutability":"view"},{"type":"function","name":"getPlayersState","inputs":[],"outputs":[{"name":"","type":"tuple[]","internalType":"struct RestrictedRPSGame.PlayerState[]","components":[{"name":"player","type":"address","internalType":"address"},{"name":"paidAmount","type":"uint256","internalType":"uint256"},{"name":"rewards","type":"uint256","internalType":"uint256"},{"name":"amountToPay","type":"uint256","internalType":"uint256"},{"name":"nbrStars","type":"uint8","internalType":"uint8"},{"name":"nbrStarsLocked","type":"uint8","internalType":"uint8"},{"name":"nbrCards","type":"int8","internalType":"int8"},{"name":"nbrRockUsed","type":"int8","internalType":"int8"},{"name":"nbrPaperUsed","type":"int8","internalType":"int8"},{"name":"nbrScissorsUsed","type":"int8","internalType":"int8"},{"name":"nbrOfferedMatches","type":"uint8","internalType":"uint8"},{"name":"initialNbrRocks","type":"int8","internalType":"int8"},{"name":"initialNbrPapers","type":"int8","internalType":"int8"},{"name":"initialNbrScissors","type":"int8","internalType":"int8"},{"name":"cheated","type":"bool","internalType":"bool"}]}],"stateMutability":"view"},{"type":"function","name":"getSeed","inputs":[],"outputs":[{"name":"","type":"uint256","internalType":"uint256"}],"stateMutability":"view"},{"type":"function","name":"getStarCost","inputs":[],"outputs":[{"name":"","type":"uint256","internalType":"uint256"}],"stateMutability":"view"},{"type":"function","name":"getState","inputs":[],"outputs":[{"name":"","type":"uint8","internalType":"enum RestrictedRPSGame.GameState"}],"stateMutability":"view"},{"type":"function","name":"isOpen","inputs":[],"outputs":[{"name":"","type":"bool","internalType":"bool"}],"stateMutability":"view"},{"type":"function","name":"isReadyToVerify","inputs":[],"outputs":[{"name":"","type":"bool","internalType":"bool"}],"stateMutability":"view"},{"type":"function","name":"joinGame","inputs":[{"name":"pub","type":"string","internalType":"string"}],"outputs":[{"name":"playerId","type":"uint8","internalType":"uint8"}],"stateMutability":"payable"},{"type":"function","name":"offerMatch","inputs":[{"name":"hashedCard","type":"bytes32","internalType":"bytes32"},{"name":"player1Bet","type":"uint8","internalType":"uint8"},{"name":"player2Bet","type":"uint8","internalType":"uint8"}],"outputs":[{"name":"matchId","type":"uint8","internalType":"uint8"}],"stateMutability":"nonpayable"},{"type":"function","name":"payPlayers","inputs":[],"outputs":[],"stateMutability":"nonpayable"},{"type":"function","name":"resetGame","inputs":[{"name":"winningsCut","type":"uint8","internalType":"uint8"},{"name":"starCost","type":"uint256","internalType":"uint256"},{"name":"m1CashCost","type":"uint256","internalType":"uint256"},{"name":"dealer","type":"address","internalType":"address"},{"name":"initialHash","type":"bytes32","internalType":"bytes32"},{"name":"duration","type":"uint8","internalType":"uint8"}],"outputs":[],"stateMutability":"nonpayable"},{"type":"function","name":"setPlayerHand","inputs":[{"name":"playerId","type":"uint8","internalType":"uint8"},{"name":"encryptedHand","type":"bytes","internalType":"bytes"}],"outputs":[],"stateMutability":"nonpayable"},{"type":"function","name":"setSeed","inputs":[{"name":"seed","type":"uint256","internalType":"uint256"}],"outputs":[],"stateMutability":"nonpayable"},{"type":"function","name":"verifyDealerHonesty","inputs":[{"name":"initialDeck","type":"bytes9","internalType":"bytes9"},{"name":"secret","type":"string","internalType":"string"}],"outputs":[{"name":"","type":"bool","internalType":"bool"}],"stateMutability":"nonpayable"},{"type":"function","name":"withdraw","inputs":[],"outputs":[],"stateMutability":"nonpayable"},{"type":"event","name":"ComputedRewards","inputs":[],"anonymous":false},{"type":"event","name":"DealerCheated","inputs":[{"name":"","type":"address","indexed":true,"internalType":"address"}],"anonymous":false},{"type":"event","name":"GameClosed","inputs":[{"name":"state","type":"uint8","indexed":true,"internalType":"uint8"}],"anonymous":false},{"type":"event","name":"GameJoined","inputs":[{"name":"playerId","type":"uint8","indexed":true,"internalType":"uint8"},{"name":"player","type":"address","indexed":true,"internalType":"address"},{"name":"","type":"string","indexed":false,"internalType":"string"}],"anonymous":false},{"type":"event","name":"GameStarted","inputs":[],"anonymous":false},{"type":"event","name":"MatchAnswered","inputs":[{"name":"matchId","type":"uint256","indexed":true,"internalType":"uint256"},{"name":"player","type":"address","indexed":true,"internalType":"address"}],"anonymous":false},{"type":"event","name":"MatchCancelled","inputs":[{"name":"matchId","type":"uint256","indexed":true,"internalType":"uint256"},{"name":"player","type":"address","indexed":true,"internalType":"address"}],"anonymous":false},{"type":"event","name":"MatchClosed","inputs":[{"name":"matchId","type":"uint256","indexed":true,"internalType":"uint256"},{"name":"state","type":"uint8","indexed":true,"internalType":"uint8"}],"anonymous":false},{"type":"event","name":"MatchCreated","inputs":[{"name":"matchId","type":"uint256","indexed":true,"internalType":"uint256"},{"name":"player","type":"address","indexed":true,"internalType":"address"}],"anonymous":false},{"type":"event","name":"PlayerCheated","inputs":[{"name":"","type":"address","indexed":true,"internalType":"address"}],"anonymous":false},{"type":"event","name":"PlayerWasGivenHand","inputs":[{"name":"player","type":"address","indexed":true,"internalType":"address"},{"name":"encryptedHand","type":"bytes","indexed":false,"internalType":"bytes"}],"anonymous":false},{"type":"event","name":"SeedSet","inputs":[{"name":"seed","type":"uint256","indexed":false,"internalType":"uint256"}],"anonymous":false},{"type":"error","name":"RestrictedRPS_AnsweredMatchCannotBeCancelled","inputs":[]},{"type":"error","name":"RestrictedRPS_CannotAnswerYourOwnMatch","inputs":[]},{"type":"error","name":"RestrictedRPS_CannotResetOpenGame","inputs":[]},{"type":"error","name":"RestrictedRPS_DealerCannotJoin","inputs":[]},{"type":"error","name":"RestrictedRPS_DealerHonestyNotYetProven","inputs":[]},{"type":"error","name":"RestrictedRPS_DeckAndSecretNotMatchingInitialHash","inputs":[]},{"type":"error","name":"RestrictedRPS_GameFull","inputs":[]},{"type":"error","name":"RestrictedRPS_GameNotClosable","inputs":[]},{"type":"error","name":"RestrictedRPS_GameNotClosed","inputs":[]},{"type":"error","name":"RestrictedRPS_GameNotOpen","inputs":[]},{"type":"error","name":"RestrictedRPS_GameNotReadyToVerify","inputs":[]},{"type":"error","name":"RestrictedRPS_InvalidMatchId","inputs":[]},{"type":"error","name":"RestrictedRPS_InvalidPlayerId","inputs":[]},{"type":"error","name":"RestrictedRPS_MatchAlreadyPlayed","inputs":[]},{"type":"error","name":"RestrictedRPS_MatchNotAnswered","inputs":[]},{"type":"error","name":"RestrictedRPS_NotAPlayer","inputs":[]},{"type":"error","name":"RestrictedRPS_NotEnoughAvailableStars","inputs":[]},{"type":"error","name":"RestrictedRPS_NotExpectingSeed","inputs":[]},{"type":"error","name":"RestrictedRPS_NotTheRightPlayer","inputs":[]},{"type":"error","name":"RestrictedRPS_OnlyDealer","inputs":[]},{"type":"error","name":"RestrictedRPS_OnlyFactory","inputs":[]},{"type":"error","name":"RestrictedRPS_PlayerAlreadyJoined","inputs":[]},{"type":"error","name":"RestrictedRPS_PlayerBanned","inputs":[]},{"type":"error","name":"RestrictedRPS_PlayerHasOfferedTooManyMatches","inputs":[]},{"type":"error","name":"RestrictedRPS_SendMore","inputs":[]},{"type":"error","name":"RestrictedRPS_WrongCardHash","inputs":[]}],"bytecode":{"object":"0x60c06040523480156200001157600080fd5b50604051620045923803806200459283398101604081905262000034916200011f565b6001600160a01b03881660805260ff871660a0526200005886868686868662000066565b505050505050505062000208565b6000805460ff88811660ff1990921691909117825560018790556002869055600380546001600160a01b0387166001600160a01b031990911617905560048490556007805460059390935590831662ff00ff19909216821762010000179055620000d49062015180620001c2565b620000e59062ffffff1642620001ec565b600655505050505050565b80516001600160a01b03811681146200010857600080fd5b919050565b805160ff811681146200010857600080fd5b600080600080600080600080610100898b0312156200013d57600080fd5b6200014889620000f0565b97506200015860208a016200010d565b96506200016860408a016200010d565b955060608901519450608089015193506200018660a08a01620000f0565b925060c089015191506200019d60e08a016200010d565b90509295985092959890939650565b634e487b7160e01b600052601160045260246000fd5b62ffffff818116838216028082169190828114620001e457620001e4620001ac565b505092915050565b80820180821115620002025762000202620001ac565b92915050565b60805160a0516143336200025f600039600081816104e70152610aae01526000818161068d015281816107850152818161083e01528181611463015281816114ae01528181611bc9015261281301526143336000f3fe6080604052600436106101d85760003560e01c80636e328aab11610102578063ad2e8c9b11610095578063c4ae16a811610064578063c4ae16a81461052b578063dc71e3b81461055e578063fc19b7451461057e578063fcada10a1461059357600080fd5b8063ad2e8c9b146104a0578063b6b3b64e146104b8578063c0bd8351146104d8578063c32a50f91461050b57600080fd5b80638fd4aa05116100d15780638fd4aa05146104165780639cf6d1af146104365780639f05a36d1461045e578063a6d3571d1461047357600080fd5b80636e328aab146103b757806374cee9d1146103d7578063786b844b146103ec5780637c1b7f8a1461040157600080fd5b80633640f6131161017a57806347535d7b1161014957806347535d7b14610356578063525f50931461036b57806357f331781461038d5780635e7303d4146103a257600080fd5b80633640f613146102e757806339e7357c146103075780633ccfd60b1461031c5780633d536a2e1461033157600080fd5b80631865c57d116101b65780631865c57d1461025d5780632c70120e146102835780633133888e146102a557806332648d7e146102c757600080fd5b80630f9361c3146101dd57806315822f44146102055780631746bd1b14610235575b600080fd5b3480156101e957600080fd5b506101f26105b0565b6040519081526020015b60405180910390f35b34801561021157600080fd5b50610225610220366004613a9e565b6105c7565b60405190151581526020016101fc565b34801561024157600080fd5b5061024a6109c2565b6040516101fc9796959493929190613aee565b34801561026957600080fd5b5060075462010000900460ff166040516101fc9190613b98565b34801561028f57600080fd5b50610298610aef565b6040516101fc9190613bc8565b3480156102b157600080fd5b506102c56102c0366004613c9d565b610ca0565b005b3480156102d357600080fd5b506102c56102e2366004613cf5565b610d99565b3480156102f357600080fd5b506102c5610302366004613d53565b6111aa565b34801561031357600080fd5b506005546101f2565b34801561032857600080fd5b506102c561141b565b61034461033f366004613d6e565b6114f9565b60405160ff90911681526020016101fc565b34801561036257600080fd5b506102256118cf565b34801561037757600080fd5b506103806118f5565b6040516101fc9190613eac565b34801561039957600080fd5b506102c5611a9e565b3480156103ae57600080fd5b506001546101f2565b3480156103c357600080fd5b506102c56103d2366004613f12565b611bbe565b3480156103e357600080fd5b506004546101f2565b3480156103f857600080fd5b506102c5611c87565b34801561040d57600080fd5b506102c5611d85565b34801561042257600080fd5b506101f2610431366004613d53565b61219f565b34801561044257600080fd5b506003546040516001600160a01b0390911681526020016101fc565b34801561046a57600080fd5b506006546101f2565b34801561047f57600080fd5b5061049361048e366004613d53565b6122f1565b6040516101fc9190613f71565b3480156104ac57600080fd5b5060075460ff16610344565b3480156104c457600080fd5b506103446104d3366004613f80565b61242f565b3480156104e457600080fd5b507f0000000000000000000000000000000000000000000000000000000000000000610344565b34801561051757600080fd5b506102c5610526366004613fbc565b612808565b34801561053757600080fd5b5061054b610546366004613fd5565b6128d4565b60405160009190910b81526020016101fc565b34801561056a57600080fd5b506102c5610579366004613ff0565b612948565b34801561058a57600080fd5b50610225612c5f565b34801561059f57600080fd5b50600754610100900460ff16610344565b6001546000906105c290600390614041565b905090565b6003546000906001600160a01b031633146105f55760405163730d477360e11b815260040160405180910390fd5b60006105ff612c5f565b90508061061f5760405163288615b560e11b815260040160405180910390fd5b6000848460405160200161063492919061407c565b604051602081830303815290604052805190602001209050806004541461066e5760405163a5ab2a5960e01b815260040160405180910390fd5b60405163f3304bbf60e01b81526001600160b81b0319861660048201527f00000000000000000000000000000000000000000000000000000000000000006001600160a01b03169063f3304bbf90602401602060405180830381865afa1580156106dc573d6000803e3d6000fd5b505050506040513d601f19601f8201168201806040525081019061070091906140ad565b610758576007805462ff00001916620200001790556003546040516001600160a01b03909116907ff06e016360df4c9b017c99214597c4e45c240c89602b99ee310848b7c630cbcc90600090a26000925050506109bc565b6005546040516340a2978360e11b81526001600160b81b03198716600482015260248101919091526000907f00000000000000000000000000000000000000000000000000000000000000006001600160a01b0316906381452f0690604401602060405180830381865afa1580156107d4573d6000803e3d6000fd5b505050506040513d601f19601f820116820180604052508101906107f891906140cf565b905060005b60075460ff610100909104811690821610156109a2576040516354e4130360e11b81526001600160b81b03198316600482015260ff821660248201526000907f00000000000000000000000000000000000000000000000000000000000000006001600160a01b03169063a9c8260690604401606060405180830381865afa15801561088d573d6000803e3d6000fd5b505050506040513d601f19601f820116820180604052508101906108b191906140ec565b8051909150600860ff8416600681106108cc576108cc61417a565b6005020160040160076101000a81548160ff021916908360000b60ff160217905550806001600381106109015761090161417a565b602002015160088360ff166006811061091c5761091c61417a565b6005020160040160086101000a81548160ff021916908360000b60ff160217905550806002600381106109515761095161417a565b602002015160088360ff166006811061096c5761096c61417a565b6005020160040160096101000a81548160ff021916908360000b60ff16021790555050808061099a90614190565b9150506107fd565b50506007805462ff00001916620300001790555060019150505b92915050565b60075460009081908190819081908190606090610100900460ff16828167ffffffffffffffff8111156109f7576109f76139eb565b604051908082528060200260200182016040528015610a20578160200160208202803683370190505b50905060005b8260ff168160ff161015610a9c5760088160ff1660068110610a4a57610a4a61417a565b600502015482516001600160a01b0390911690839060ff8416908110610a7257610a7261417a565b6001600160a01b039092166020928302919091019091015280610a9481614190565b915050610a26565b506007546026546001546002546006547f00000000000000000000000000000000000000000000000000000000000000009e61010090950460ff9081169e509093169b5090995097509550909350915050565b60265460609060ff1660008167ffffffffffffffff811115610b1357610b136139eb565b604051908082528060200260200182016040528015610b4c57816020015b610b39613883565b815260200190600190039081610b315790505b50905060005b8260ff168160ff161015610c995760278160ff1660788110610b7657610b7661417a565b604080516101008082018352600293840294909401805460ff8082168452958104861660208401529194909392850192620100009092041690811115610bbe57610bbe613b72565b6002811115610bcf57610bcf613b72565b815281546020909101906301000000900460ff166002811115610bf457610bf4613b72565b6002811115610c0557610c05613b72565b8152815460ff600160201b820481166020840152600160281b820481166040840152606090920191600160301b909104166005811115610c4757610c47613b72565b6005811115610c5857610c58613b72565b8152602001600182015481525050828260ff1681518110610c7b57610c7b61417a565b60200260200101819052508080610c9190614190565b915050610b52565b5092915050565b600754829060ff610100909104811690821610610cd057604051630e0a2aa160e11b815260040160405180910390fd5b6003546001600160a01b03163314610cfb5760405163730d477360e11b815260040160405180910390fd5b600660088460ff1660068110610d1357610d1361417a565b6005020160040160026101000a81548160ff021916908360000b60ff16021790555060088360ff1660068110610d4b57610d4b61417a565b60050201546040516001600160a01b03909116907f675e261a416100b60f1c071c20fd8b07e1e242d28313ee7638d4d44614a2d4e690610d8c9085906141db565b60405180910390a2505050565b602654839060ff90811690821610610dc4576040516311eb888760e31b815260040160405180910390fd5b600060278560ff1660788110610ddc57610ddc61417a565b604080516101008082018352600293840294909401805460ff8082168452958104861660208401529194909392850192620100009092041690811115610e2457610e24613b72565b6002811115610e3557610e35613b72565b815281546020909101906301000000900460ff166002811115610e5a57610e5a613b72565b6002811115610e6b57610e6b613b72565b8152815460ff600160201b820481166020840152600160281b820481166040840152606090920191600160301b909104166005811115610ead57610ead613b72565b6005811115610ebe57610ebe613b72565b81526001918201546020909101529091508160c001516005811115610ee557610ee5613b72565b14610f0357604051633018e60760e21b815260040160405180910390fd5b60008460f81b84604051602001610f1b9291906141ee565b604051602081830303815290604052805190602001209050808260e0015114610f5757604051633b74e52960e11b815260040160405180910390fd5b60008560ff166002811115610f6e57610f6e613b72565b90508060278860ff1660788110610f8757610f8761417a565b6002020160000160026101000a81548160ff02191690836002811115610faf57610faf613b72565b021790555060608301518351610fc59083612e1c565b610fd3846020015182612e1c565b60006002836002811115610fe957610fe9613b72565b60ff161115611009576110058986600001518760200151612f9d565b5060055b600282600281111561101d5761101d613b72565b60ff16111561103d576110398986600001518760200151613242565b5060045b81600281111561104f5761104f613b72565b83600281111561106157611061613b72565b036110815761107989866000015187602001516134c9565b50600361115a565b600083600281111561109557611095613b72565b1480156110b3575060028260028111156110b1576110b1613b72565b145b806110eb575060018360028111156110cd576110cd613b72565b1480156110eb575060008260028111156110e9576110e9613b72565b145b806111235750600283600281111561110557611105613b72565b1480156111235750600182600281111561112157611121613b72565b145b156111435761113b8986600001518760200151613242565b50600461115a565b6111568986600001518760200151612f9d565b5060055b80600581111561116c5761116c613b72565b60ff168960ff167f16ee0aa4913ca9b3502ba060565c5e7016a69fa5853154a2611b73f45f48383960405160405180910390a3505050505050505050565b602654819060ff908116908216106111d5576040516311eb888760e31b815260040160405180910390fd5b600060278360ff16607881106111ed576111ed61417a565b604080516101008082018352600293840294909401805460ff808216845295810486166020840152919490939285019262010000909204169081111561123557611235613b72565b600281111561124657611246613b72565b815281546020909101906301000000900460ff16600281111561126b5761126b613b72565b600281111561127c5761127c613b72565b8152815460ff600160201b820481166020840152600160281b820481166040840152606090920191600160301b9091041660058111156112be576112be613b72565b60058111156112cf576112cf613b72565b815260019190910154602090910152805190915060006112ee336128d4565b90508060000b8260000b14611316576040516334e24b8360e21b815260040160405180910390fd5b60c0830151600081600581111561132f5761132f613b72565b1461134d57604051637021339d60e11b815260040160405180910390fd5b836080015160088460ff16600681106113685761136861417a565b6005020160040160018282829054906101000a900460ff1661138a919061421f565b92506101000a81548160ff021916908360ff160217905550600260278760ff16607881106113ba576113ba61417a565b60020201805460ff60301b1916600160301b8360058111156113de576113de613b72565b0217905550604051339060ff8816907f34d66c87f348a9492b2a7fe1463b02de9cab509ca7872ee83878909d9805c3a890600090a3505050505050565b600560075462010000900460ff16600581111561143a5761143a613b72565b14611458576040516368ac9bad60e01b815260040160405180910390fd5b336001600160a01b037f000000000000000000000000000000000000000000000000000000000000000016146114a157604051633f9db83960e01b815260040160405180910390fd5b6040516001600160a01b037f000000000000000000000000000000000000000000000000000000000000000016904780156108fc02916000818181858888f193505050501580156114f6573d6000803e3d6000fd5b50565b6000336115046105b0565b3410156115245760405163e71ff98960e01b815260040160405180910390fd5b600060075462010000900460ff16600581111561154357611543613b72565b146115615760405163817b163760e01b815260040160405180910390fd5b6003546001600160a01b0380831691160361158f5760405163031ee3ed60e51b815260040160405180910390fd5b600754610100900460ff16915060066115a9836001614238565b60ff1611156115cb5760405163380d3cc160e11b815260040160405180910390fd5b60005b8260ff168160ff16101561163a57816001600160a01b031660088260ff16600681106115fc576115fc61417a565b60050201546001600160a01b03160361162857604051639bec841d60e01b815260040160405180910390fd5b8061163281614190565b9150506115ce565b506116436138c7565b6001600160a01b03821681526003608082015234602082015280600860ff8516600681106116735761167361417a565b6005020160008201518160000160006101000a8154816001600160a01b0302191690836001600160a01b0316021790555060208201518160010155604082015181600201556060820151816003015560808201518160040160006101000a81548160ff021916908360ff16021790555060a08201518160040160016101000a81548160ff021916908360ff16021790555060c08201518160040160026101000a81548160ff021916908360000b60ff16021790555060e08201518160040160036101000a81548160ff021916908360000b60ff1602179055506101008201518160040160046101000a81548160ff021916908360000b60ff1602179055506101208201518160040160056101000a81548160ff021916908360000b60ff1602179055506101408201518160040160066101000a81548160ff021916908360ff1602179055506101608201518160040160076101000a81548160ff021916908360000b60ff1602179055506101808201518160040160086101000a81548160ff021916908360000b60ff1602179055506101a08201518160040160096101000a81548160ff021916908360000b60ff1602179055506101c082015181600401600a6101000a81548160ff0219169083151502179055509050506007600181819054906101000a900460ff168092919061186a90614190565b91906101000a81548160ff021916908360ff16021790555050816001600160a01b03168360ff167fdc70164a0afb7ca145a827fd238ec265b666c335c24a0afa2a33aab37362b4e1866040516118c091906141db565b60405180910390a35050919050565b60008060075462010000900460ff1660058111156118ef576118ef613b72565b14905090565b600754606090610100900460ff1660008167ffffffffffffffff81111561191e5761191e6139eb565b60405190808252806020026020018201604052801561195757816020015b6119446138c7565b81526020019060019003908161193c5790505b50905060005b8260ff168160ff161015610c995760088160ff16600681106119815761198161417a565b604080516101e0810182526005929092029290920180546001600160a01b03168252600181015460208301526002810154928201929092526003820154606082015260049091015460ff8082166080840152610100808304821660a0850152620100008304600090810b60c086015263010000008404810b60e0860152600160201b8404810b91850191909152600160281b8304810b610120850152600160301b83048216610140850152600160381b8304810b610160850152600160401b8304810b610180850152600160481b8304900b6101a0840152600160501b909104811615156101c0830152835184918416908110611a8057611a8061417a565b60200260200101819052508080611a9690614190565b91505061195d565b600560075462010000900460ff166005811115611abd57611abd613b72565b14611adb576040516368ac9bad60e01b815260040160405180910390fd5b600754610100900460ff1660005b8160ff168160ff161015611bba57600060088260ff1660068110611b0f57611b0f61417a565b60050201600301549050600060088360ff1660068110611b3157611b3161417a565b60050201546001600160a01b031690508115611ba557600060088460ff1660068110611b5f57611b5f61417a565b6005020160030181905550806001600160a01b03166108fc839081150290604051600060405180830381858888f19350505050158015611ba3573d6000803e3d6000fd5b505b50508080611bb290614190565b915050611ae9565b5050565b336001600160a01b037f00000000000000000000000000000000000000000000000000000000000000001614611c0757604051633f9db83960e01b815260040160405180910390fd5b600560075462010000900460ff166005811115611c2657611c26613b72565b14611c445760405163ad6418ff60e01b815260040160405180910390fd5b6026805460ff19169055611c5a60276000613943565b6007805461ff0019169055611c7160086000613952565b611c7f8686868686866136a6565b505050505050565b60075462010000900460ff166002816005811115611ca757611ca7613b72565b1480611cde57506000816005811115611cc257611cc2613b72565b148015611cde5750600654611cda9062015180614251565b4210155b15611d4057611ceb61372c565b6007805462ff0000191662050000179055806005811115611d0e57611d0e613b72565b60ff167f9908eaac0645df9d0704d06adc9e07337c951de2f06b5f2836151d48d5e4722f60405160405180910390a250565b600460075462010000900460ff166005811115611d5f57611d5f613b72565b03611d6c57611ceb61379a565b60405163059546f560e21b815260040160405180910390fd5b600360075462010000900460ff166005811115611da457611da4613b72565b14611dc2576040516320ca0a1560e21b815260040160405180910390fd5b600754610100900460ff166000805b8260ff168160ff16101561200057600060088260ff1660068110611df757611df761417a565b604080516101e0810182526005929092029290920180546001600160a01b03168252600181015460208301526002810154928201929092526003820154606082015260049091015460ff8082166080840152610100808304821660a0850152620100008304600090810b60c0860181905263010000008504820b60e0870152600160201b8504820b92860192909252600160281b8404810b610120860152600160301b84048316610140860152600160381b8404810b610160860152600160401b8404810b610180860152600160481b8404810b6101a0860152600160501b90930490911615156101c08401529192501380611f01575080610160015160000b8160e0015160000b135b80611f1b575080610180015160000b81610100015160000b135b80611f355750806101a0015160000b81610120015160000b135b15611fb95780516040516001600160a01b03909116907f01c709aae484e2a477ef26450949077d5411b73db0d6b24d7db60381d60794cd90600090a282611f7b81614190565b935050600160088360ff1660068110611f9657611f9661417a565b60050201600401600a6101000a81548160ff021916908315150217905550611fed565b611fcb8160c001518260800151613808565b60088360ff1660068110611fe157611fe161417a565b60050201600201819055505b5080611ff881614190565b915050611dd1565b5060ff8116156121615760005b8260ff168160ff16101561215f57600060088260ff16600681106120335761203361417a565b604080516101e0810182526005929092029290920180546001600160a01b03168252600181015460208301526002810154928201929092526003820154606082015260049091015460ff8082166080840152610100808304821660a0850152620100008304600090810b60c086015263010000008404810b60e0860152600160201b8404810b91850191909152600160281b8304810b610120850152600160301b83048216610140850152600160381b8304810b610160850152600160401b8304810b610180850152600160481b8304900b6101a0840152600160501b9091041615156101c0820181905290915061214c57806020015160088360ff16600681106121405761214061417a565b60050201600201819055505b508061215781614190565b91505061200d565b505b6007805462ff00001916620400001790556040517f4fe64a1db9b488a7580160b96d00df1e33928b44702c888eec276fb8cfdaaaa190600090a15050565b600754600090829060ff6101009091048116908216106121d257604051630e0a2aa160e11b815260040160405180910390fd5b600060088460ff16600681106121ea576121ea61417a565b604080516101e0810182526005929092029290920180546001600160a01b03168252600181015460208301526002810154928201929092526003820154606082015260049091015460ff80821660808401819052610100808404831660a0860152620100008404600090810b60c0870181905263010000008604820b60e0880152600160201b8604820b92870192909252600160281b8504810b610120870152600160301b85048416610140870152600160381b8504810b610160870152600160401b8504810b610180870152600160481b8504900b6101a0860152600160501b90930490911615156101c0840152919250906122e78282613808565b9695505050505050565b6122f96138c7565b600754829060ff61010090910481169082161061232957604051630e0a2aa160e11b815260040160405180910390fd5b60088360ff166006811061233f5761233f61417a565b604080516101e0810182526005929092029290920180546001600160a01b03168252600181015460208301526002810154928201929092526003820154606082015260049091015460ff8082166080840152610100808304821660a0850152620100008304600090810b60c086015263010000008404810b60e0860152600160201b8404810b91850191909152600160281b8304810b610120850152600160301b83048216610140850152600160381b8304810b610160850152600160401b8304810b610180850152600160481b8304900b6101a0840152600160501b9091041615156101c08201529392505050565b6000612439613883565b6000612444336128d4565b90508060000b6000190361246b57604051637082284960e11b815260040160405180910390fd5b806000600860ff8316600681106124845761248461417a565b604080516101e0810182526005929092029290920180546001600160a01b031682526001808201546020840152600282015493830193909352600381015460608301526004015460ff8082166080840152610100808304821660a0850152620100008304600090810b60c086015263010000008404810b60e0860152600160201b8404810b91850191909152600160281b8304810b610120850152600160301b830482166101408501819052600160381b8404820b610160860152600160401b8404820b610180860152600160481b8404820b6101a0860152600160501b90930490911615156101c0840152919350909161257f9190614238565b9050601460ff821611156125a657604051633fac4c7160e21b815260040160405180910390fd5b816080015160ff168260a00151896125be9190614238565b60ff1611156125e057604051638ba4117960e01b815260040160405180910390fd5b60ff808416865260e086018a905287811660a0870152888116608087015260265416955084602787607881106126185761261861417a565b82516002918202929092018054602085015160ff9081166101000261ffff1990921694169390931792909217808355604084015191839162ff00001916906201000090849081111561266c5761266c613b72565b021790555060608201518154829063ff0000001916630100000083600281111561269857612698613b72565b02179055506080820151815460a084015160ff908116600160281b0265ff00000000001991909316600160201b021665ffff0000000019909116171780825560c083015190829060ff60301b1916600160301b8360058111156126fd576126fd613b72565b021790555060e091909101516001909101556026805460ff1690600061272283614190565b91906101000a81548160ff021916908360ff160217905550508060088460ff16600681106127525761275261417a565b6005020160040160066101000a81548160ff021916908360ff1602179055508760088460ff16600681106127885761278861417a565b6005020160040160018282829054906101000a900460ff166127aa9190614238565b92506101000a81548160ff021916908360ff160217905550336001600160a01b03168660ff167f18a47d8df22f178f89e665cc0fccf4ee175e91434c7b749c4a7607ffa4d33a6760405160405180910390a350505050509392505050565b336001600160a01b037f0000000000000000000000000000000000000000000000000000000000000000161461285157604051633f9db83960e01b815260040160405180910390fd5b600160075462010000900460ff16600581111561287057612870613b72565b1461288d57604051620e2aed60e31b815260040160405180910390fd5b60058190556007805462ff0000191690556040518181527fbda2e5fc778edfbed22cb985a005e7314108766bd66e86798f58611dcb9fb8b99060200160405180910390a150565b60075460001990610100900460ff1660005b8160ff168160ff16101561294157836001600160a01b031660088260ff16600681106129145761291461417a565b60050201546001600160a01b03160361292f57809250612941565b8061293981614190565b9150506128e6565b5050919050565b602654829060ff90811690821610612973576040516311eb888760e31b815260040160405180910390fd5b600061297e336128d4565b90508060000b600019036129a557604051637082284960e11b815260040160405180910390fd5b806000602760ff8716607881106129be576129be61417a565b60020201805490915060ff908116908316036129ed57604051631deda49760e01b815260040160405180910390fd5b60008154600160301b900460ff166005811115612a0c57612a0c613b72565b14612a2a576040516317c9510160e01b815260040160405180910390fd5b600060088360ff1660068110612a4257612a4261417a565b604080516101e0810182526005929092029290920180546001600160a01b03168252600181015460208301526002810154928201929092526003820154606082015260049091015460ff80821660808401819052610100808404831660a08601819052620100008504600090810b60c088015263010000008604810b60e0880152600160201b8604810b92870192909252600160281b808604830b610120880152600160301b86048516610140880152600160381b8604830b610160880152600160401b8604830b610180880152600160481b860490920b6101a0870152600160501b909404831615156101c086015286549495509093612b47939291900416614238565b60ff161115612b6957604051638ba4117960e01b815260040160405180910390fd5b815460ff84166101000261ff00198216811784558791849163ff000000191663ff00ff0019909116176301000000836002811115612ba957612ba9613b72565b0217905550815460ff60301b1916600160301b1780835560ff600160281b909104811690600890851660068110612be257612be261417a565b6005020160040160018282829054906101000a900460ff16612c049190614238565b92506101000a81548160ff021916908360ff160217905550336001600160a01b03168760ff167f01b120bec3d4ba9705e9f5f6c7aa115993959878ac9533a84cb359ffe642823060405160405180910390a350505050505050565b60008060075462010000900460ff166005811115612c7f57612c7f613b72565b14612c8a5750600090565b426006541115612e1657600754610100900460ff16600603612e16576040805160c081019091526000906008600683835b82821015612dba57604080516101e08101825260058402860180546001600160a01b031682526001808201546020808501919091526002830154948401949094526003820154606084015260049091015460ff8082166080850152610100808304821660a0860152620100008304600090810b60c087015263010000008404810b60e0870152600160201b8404810b91860191909152600160281b8304810b610120860152600160301b83048216610140860152600160381b8304810b610160860152600160401b8304810b610180860152600160481b8304900b6101a0850152600160501b9091041615156101c08301529083529092019101612cbb565b50505050905060005b60068160ff161015612e13576000828260ff1660068110612de657612de661417a565b602002015160c0015160000b1315612e015760009250505090565b80612e0b81614190565b915050612dc3565b50505b50600190565b6000816002811115612e3057612e30613b72565b03612e8b5760088260ff1660068110612e4b57612e4b61417a565b6005020160040180546301000000900460000b906003612e6a83614264565b91906101000a81548160ff021916908360000b60ff16021790555050612f49565b6001816002811115612e9f57612e9f613b72565b03612ed95760088260ff1660068110612eba57612eba61417a565b6005020160049081018054600160201b900460000b91612e6a83614264565b6002816002811115612eed57612eed613b72565b03612f495760088260ff1660068110612f0857612f0861417a565b60050201600401600581819054906101000a900460000b80929190612f2c90614264565b91906101000a81548160ff021916908360000b60ff160217905550505b60088260ff1660068110612f5f57612f5f61417a565b60050201600401805462010000900460000b906002612f7d8361427a565b91906101000a81548160ff021916908360000b60ff160217905550505050565b600060278460ff1660788110612fb557612fb561417a565b604080516101008082018352600293840294909401805460ff8082168452958104861660208401529194909392850192620100009092041690811115612ffd57612ffd613b72565b600281111561300e5761300e613b72565b815281546020909101906301000000900460ff16600281111561303357613033613b72565b600281111561304457613044613b72565b8152815460ff600160201b820481166020840152600160281b820481166040840152606090920191600160301b90910416600581111561308657613086613b72565b600581111561309757613097613b72565b81526020016001820154815250509050600560278560ff16607881106130bf576130bf61417a565b60020201805460ff60301b1916600160301b8360058111156130e3576130e3613b72565b0217905550806080015160088460ff16600681106131035761310361417a565b6005020160040160018282829054906101000a900460ff16613125919061421f565b92506101000a81548160ff021916908360ff160217905550806080015160088460ff16600681106131585761315861417a565b6005020160040160008282829054906101000a900460ff1661317a919061421f565b92506101000a81548160ff021916908360ff1602179055508060a0015160088360ff16600681106131ad576131ad61417a565b6005020160040160018282829054906101000a900460ff166131cf919061421f565b92506101000a81548160ff021916908360ff160217905550806080015160088360ff16600681106132025761320261417a565b6005020160040160008282829054906101000a900460ff166132249190614238565b92506101000a81548160ff021916908360ff16021790555050505050565b600060278460ff166078811061325a5761325a61417a565b604080516101008082018352600293840294909401805460ff80821684529581048616602084015291949093928501926201000090920416908111156132a2576132a2613b72565b60028111156132b3576132b3613b72565b815281546020909101906301000000900460ff1660028111156132d8576132d8613b72565b60028111156132e9576132e9613b72565b8152815460ff600160201b820481166020840152600160281b820481166040840152606090920191600160301b90910416600581111561332b5761332b613b72565b600581111561333c5761333c613b72565b81526020016001820154815250509050600460278560ff16607881106133645761336461417a565b60020201805460ff60301b1916600160301b83600581111561338857613388613b72565b0217905550806080015160088460ff16600681106133a8576133a861417a565b6005020160040160018282829054906101000a900460ff166133ca919061421f565b92506101000a81548160ff021916908360ff1602179055508060a0015160088460ff16600681106133fd576133fd61417a565b6005020160040160008282829054906101000a900460ff1661341f9190614238565b92506101000a81548160ff021916908360ff1602179055508060a0015160088360ff16600681106134525761345261417a565b6005020160040160018282829054906101000a900460ff16613474919061421f565b92506101000a81548160ff021916908360ff1602179055508060a0015160088360ff16600681106134a7576134a761417a565b6005020160040160008282829054906101000a900460ff16613224919061421f565b600060278460ff16607881106134e1576134e161417a565b604080516101008082018352600293840294909401805460ff808216845295810486166020840152919490939285019262010000909204169081111561352957613529613b72565b600281111561353a5761353a613b72565b815281546020909101906301000000900460ff16600281111561355f5761355f613b72565b600281111561357057613570613b72565b8152815460ff600160201b820481166020840152600160281b820481166040840152606090920191600160301b9091041660058111156135b2576135b2613b72565b60058111156135c3576135c3613b72565b81526020016001820154815250509050600360278560ff16607881106135eb576135eb61417a565b60020201805460ff60301b1916600160301b83600581111561360f5761360f613b72565b0217905550806080015160088460ff166006811061362f5761362f61417a565b6005020160040160018282829054906101000a900460ff16613651919061421f565b92506101000a81548160ff021916908360ff1602179055508060a0015160088360ff16600681106136845761368461417a565b6005020160040160018282829054906101000a900460ff16613224919061421f565b6000805460ff88811660ff1990921691909117825560018790556002869055600380546001600160a01b0387166001600160a01b031990911617905560048490556007805460059390935590831662ff00ff199092168217620100001790556137129062015180614299565b6137219062ffffff1642614251565b600655505050505050565b600754610100900460ff1660005b8160ff168160ff161015611bba5760088160ff166006811061375e5761375e61417a565b600502016001015460088260ff166006811061377c5761377c61417a565b6005020160030181905550808061379290614190565b91505061373a565b600754610100900460ff1660005b8160ff168160ff161015611bba5760088160ff16600681106137cc576137cc61417a565b600502016002015460088260ff16600681106137ea576137ea61417a565b6005020160030181905550808061380090614190565b9150506137a8565b6000808360000b121561381d575060006109bc565b8260000b6000146138395760048260ff16111561383957600491505b60006001548360ff1661384c9190614041565b6000549091506103e8906138639060ff16826142c0565b6138719061ffff1683614041565b61387b91906142db565b949350505050565b6040805161010081018252600080825260208201819052918101829052606081018290526080810182905260a0810182905260c0810182905260e081019190915290565b604080516101e081018252600080825260208201819052918101829052606081018290526080810182905260a0810182905260c0810182905260e08101829052610100810182905261012081018290526101408101829052610160810182905261018081018290526101a081018290526101c081019190915290565b506114f69060f0810190613961565b506114f690601e81019061398b565b5b8082111561398757805466ffffffffffffff1916815560006001820155600201613962565b5090565b5b808211156139875780546001600160a01b03191681556000600182018190556002820181905560038201556004810180546affffffffffffffffffffff1916905560050161398c565b6001600160b81b0319811681146114f657600080fd5b634e487b7160e01b600052604160045260246000fd5b600067ffffffffffffffff80841115613a1c57613a1c6139eb565b604051601f8501601f19908116603f01168101908282118183101715613a4457613a446139eb565b81604052809350858152868686011115613a5d57600080fd5b858560208301376000602087830101525050509392505050565b600082601f830112613a8857600080fd5b613a9783833560208501613a01565b9392505050565b60008060408385031215613ab157600080fd5b8235613abc816139d5565b9150602083013567ffffffffffffffff811115613ad857600080fd5b613ae485828601613a77565b9150509250929050565b600060e0820160ff8a168352602060ff8a168185015260ff891660408501528760608501528660808501528560a085015260e060c085015281855180845261010086019150828701935060005b81811015613b605784516001600160a01b031683529383019391830191600101613b3b565b50909c9b505050505050505050505050565b634e487b7160e01b600052602160045260246000fd5b600681106114f6576114f6613b72565b60208101613ba583613b88565b91905290565b60038110613bbb57613bbb613b72565b9052565b613bbb81613b88565b602080825282518282018190526000919060409081850190868401855b82811015613c7a57815160ff8082511686528088830151168887015286820151613c1188880182613bab565b50606080830151613c2482890182613bab565b50506080828101519091169086015260a080820151613c478288018260ff169052565b505060c080820151613c5b82880182613bbf565b505060e090810151908501526101009093019290850190600101613be5565b5091979650505050505050565b803560ff81168114613c9857600080fd5b919050565b60008060408385031215613cb057600080fd5b613cb983613c87565b9150602083013567ffffffffffffffff811115613cd557600080fd5b8301601f81018513613ce657600080fd5b613ae485823560208401613a01565b600080600060608486031215613d0a57600080fd5b613d1384613c87565b9250613d2160208501613c87565b9150604084013567ffffffffffffffff811115613d3d57600080fd5b613d4986828701613a77565b9150509250925092565b600060208284031215613d6557600080fd5b613a9782613c87565b600060208284031215613d8057600080fd5b813567ffffffffffffffff811115613d9757600080fd5b61387b84828501613a77565b80516001600160a01b031682526020810151602083015260408101516040830152606081015160608301526080810151613de2608084018260ff169052565b5060a0810151613df760a084018260ff169052565b5060c0810151613e0c60c084018260000b9052565b5060e0810151613e2160e084018260000b9052565b5061010080820151613e378285018260000b9052565b505061012080820151613e4e8285018260000b9052565b50506101408181015160ff169083015261016080820151600081900b82850152505061018080820151613e858285018260000b9052565b50506101a080820151613e9c8285018260000b9052565b50506101c0908101511515910152565b6020808252825182820181905260009190848201906040850190845b81811015613eef57613edb838551613da3565b928401926101e09290920191600101613ec8565b50909695505050505050565b80356001600160a01b0381168114613c9857600080fd5b60008060008060008060c08789031215613f2b57600080fd5b613f3487613c87565b95506020870135945060408701359350613f5060608801613efb565b925060808701359150613f6560a08801613c87565b90509295509295509295565b6101e081016109bc8284613da3565b600080600060608486031215613f9557600080fd5b83359250613fa560208501613c87565b9150613fb360408501613c87565b90509250925092565b600060208284031215613fce57600080fd5b5035919050565b600060208284031215613fe757600080fd5b613a9782613efb565b6000806040838503121561400357600080fd5b61400c83613c87565b915060208301356003811061402057600080fd5b809150509250929050565b634e487b7160e01b600052601160045260246000fd5b80820281158282048414176109bc576109bc61402b565b60005b8381101561407357818101518382015260200161405b565b50506000910152565b6001600160b81b031983168152815160009061409f816009850160208701614058565b919091016009019392505050565b6000602082840312156140bf57600080fd5b81518015158114613a9757600080fd5b6000602082840312156140e157600080fd5b8151613a97816139d5565b6000606082840312156140fe57600080fd5b82601f83011261410d57600080fd5b6040516060810181811067ffffffffffffffff82111715614130576141306139eb565b60405280606084018581111561414557600080fd5b845b8181101561416f578051600081810b8214614160578081fd5b50835260209283019201614147565b509195945050505050565b634e487b7160e01b600052603260045260246000fd5b600060ff821660ff81036141a6576141a661402b565b60010192915050565b600081518084526141c7816020860160208601614058565b601f01601f19169290920160200192915050565b602081526000613a9760208301846141af565b6001600160f81b0319831681528151600090614211816001850160208701614058565b919091016001019392505050565b60ff82811682821603908111156109bc576109bc61402b565b60ff81811683821601908111156109bc576109bc61402b565b808201808211156109bc576109bc61402b565b60008160000b607f81036141a6576141a661402b565b600081810b6080810161428f5761428f61402b565b6000190192915050565b62ffffff8181168382160280821691908281146142b8576142b861402b565b505092915050565b61ffff828116828216039080821115610c9957610c9961402b565b6000826142f857634e487b7160e01b600052601260045260246000fd5b50049056fea2646970667358221220a38ecd735c70b0b3f6301da29a279801f9afdbe781b55697c787fd55b9ba7dc164736f6c63430008130033","linkReferences":{}},"methodIdentifiers":{"answerMatch(uint8,uint8)":"dc71e3b8","cancelMatch(uint8)":"3640f613","closeGame()":"786b844b","closeMatch(uint8,uint8,string)":"32648d7e","computeCurrentRewardsForPlayer(uint8)":"8fd4aa05","computeRewards()":"7c1b7f8a","getBasicJoiningCost()":"0f9361c3","getDealer()":"9cf6d1af","getDuration()":"ad2e8c9b","getEnd()":"9f05a36d","getGameId()":"c0bd8351","getGameInfo()":"1746bd1b","getInitialHash()":"74cee9d1","getMatches()":"2c70120e","getNbrPlayers()":"fcada10a","getPlayerId(address)":"c4ae16a8","getPlayerState(uint8)":"a6d3571d","getPlayersState()":"525f5093","getSeed()":"39e7357c","getStarCost()":"5e7303d4","getState()":"1865c57d","isOpen()":"47535d7b","isReadyToVerify()":"fc19b745","joinGame(string)":"3d536a2e","offerMatch(bytes32,uint8,uint8)":"b6b3b64e","payPlayers()":"57f33178","resetGame(uint8,uint256,uint256,address,bytes32,uint8)":"6e328aab","setPlayerHand(uint8,bytes)":"3133888e","setSeed(uint256)":"c32a50f9","verifyDealerHonesty(bytes9,string)":"15822f44","withdraw()":"3ccfd60b"},"id":33}