{"abi":[{"type":"constructor","inputs":[{"name":"airnodeRrp","type":"address","internalType":"address"}],"stateMutability":"nonpayable"},{"type":"function","name":"airnodeRrp","inputs":[],"outputs":[{"name":"","type":"address","internalType":"contract IAirnodeRrpV0"}],"stateMutability":"view"},{"type":"function","name":"ban","inputs":[{"name":"user","type":"address","internalType":"address"}],"outputs":[],"stateMutability":"nonpayable"},{"type":"function","name":"createGame","inputs":[{"name":"initialHash","type":"bytes32","internalType":"bytes32"},{"name":"duration","type":"uint8","internalType":"uint8"}],"outputs":[{"name":"gameId","type":"uint8","internalType":"uint8"},{"name":"gameAddress","type":"address","internalType":"address"}],"stateMutability":"payable"},{"type":"function","name":"fulfillUint256","inputs":[{"name":"requestId","type":"bytes32","internalType":"bytes32"},{"name":"data","type":"bytes","internalType":"bytes"}],"outputs":[],"stateMutability":"nonpayable"},{"type":"function","name":"generateRandomNumberFromSeed","inputs":[{"name":"seed","type":"uint256","internalType":"uint256"},{"name":"range","type":"uint8","internalType":"uint8"}],"outputs":[{"name":"","type":"uint256","internalType":"uint256"}],"stateMutability":"pure"},{"type":"function","name":"getBasicJoiningCost","inputs":[],"outputs":[{"name":"","type":"uint256","internalType":"uint256"}],"stateMutability":"view"},{"type":"function","name":"getCard","inputs":[{"name":"deck","type":"bytes9","internalType":"bytes9"},{"name":"index","type":"uint8","internalType":"uint8"}],"outputs":[{"name":"","type":"uint8","internalType":"uint8"}],"stateMutability":"pure"},{"type":"function","name":"getGame","inputs":[{"name":"gameId","type":"uint256","internalType":"uint256"}],"outputs":[{"name":"","type":"address","internalType":"address"}],"stateMutability":"view"},{"type":"function","name":"getGames","inputs":[],"outputs":[{"name":"","type":"address[20]","internalType":"address[20]"}],"stateMutability":"view"},{"type":"function","name":"getNbrCardsOfPlayer","inputs":[{"name":"deck","type":"bytes9","internalType":"bytes9"},{"name":"playerId","type":"uint8","internalType":"uint8"}],"outputs":[{"name":"result","type":"int8[3]","internalType":"int8[3]"}],"stateMutability":"pure"},{"type":"function","name":"getOpenGames","inputs":[],"outputs":[{"name":"","type":"address[]","internalType":"address[]"}],"stateMutability":"view"},{"type":"function","name":"getRequestParameters","inputs":[],"outputs":[{"name":"","type":"address","internalType":"address"},{"name":"","type":"bytes32","internalType":"bytes32"},{"name":"","type":"address","internalType":"address"}],"stateMutability":"view"},{"type":"function","name":"isBanned","inputs":[{"name":"user","type":"address","internalType":"address"}],"outputs":[{"name":"","type":"bool","internalType":"bool"}],"stateMutability":"view"},{"type":"function","name":"isValidDeck","inputs":[{"name":"deck","type":"bytes9","internalType":"bytes9"}],"outputs":[{"name":"","type":"bool","internalType":"bool"}],"stateMutability":"pure"},{"type":"function","name":"owner","inputs":[],"outputs":[{"name":"","type":"address","internalType":"address"}],"stateMutability":"view"},{"type":"function","name":"renounceOwnership","inputs":[],"outputs":[],"stateMutability":"nonpayable"},{"type":"function","name":"requestToGameAddress","inputs":[{"name":"requestId","type":"bytes32","internalType":"bytes32"}],"outputs":[{"name":"gameAddress","type":"address","internalType":"address"}],"stateMutability":"view"},{"type":"function","name":"setCard","inputs":[{"name":"deck","type":"bytes9","internalType":"bytes9"},{"name":"index","type":"uint8","internalType":"uint8"},{"name":"card","type":"uint8","internalType":"uint8"}],"outputs":[{"name":"","type":"bytes9","internalType":"bytes9"}],"stateMutability":"pure"},{"type":"function","name":"setGameCreationFee","inputs":[{"name":"gameCreationFee","type":"uint256","internalType":"uint256"}],"outputs":[],"stateMutability":"nonpayable"},{"type":"function","name":"setRequestParameters","inputs":[{"name":"airnode","type":"address","internalType":"address"},{"name":"endpointId","type":"bytes32","internalType":"bytes32"},{"name":"sponsorWallet","type":"address","internalType":"address"}],"outputs":[],"stateMutability":"nonpayable"},{"type":"function","name":"setStarCost","inputs":[{"name":"starCost","type":"uint256","internalType":"uint256"}],"outputs":[],"stateMutability":"nonpayable"},{"type":"function","name":"setWinningsCut","inputs":[{"name":"winningsCut","type":"uint8","internalType":"uint8"}],"outputs":[],"stateMutability":"nonpayable"},{"type":"function","name":"shuffleDeck","inputs":[{"name":"deck","type":"bytes9","internalType":"bytes9"},{"name":"seed","type":"uint256","internalType":"uint256"}],"outputs":[{"name":"","type":"bytes9","internalType":"bytes9"}],"stateMutability":"pure"},{"type":"function","name":"transferOwnership","inputs":[{"name":"newOwner","type":"address","internalType":"address"}],"outputs":[],"stateMutability":"nonpayable"},{"type":"function","name":"unban","inputs":[{"name":"user","type":"address","internalType":"address"}],"outputs":[],"stateMutability":"nonpayable"},{"type":"function","name":"withdraw","inputs":[],"outputs":[],"stateMutability":"nonpayable"},{"type":"function","name":"withdrawGameCut","inputs":[{"name":"gameId","type":"uint8","internalType":"uint8"}],"outputs":[],"stateMutability":"nonpayable"},{"type":"event","name":"GameCreated","inputs":[{"name":"gameId","type":"uint256","indexed":true,"internalType":"uint256"},{"name":"gameAddress","type":"address","indexed":true,"internalType":"address"}],"anonymous":false},{"type":"event","name":"GameJoined","inputs":[{"name":"gameId","type":"uint256","indexed":true,"internalType":"uint256"},{"name":"player","type":"address","indexed":false,"internalType":"address"}],"anonymous":false},{"type":"event","name":"OwnershipTransferred","inputs":[{"name":"previousOwner","type":"address","indexed":true,"internalType":"address"},{"name":"newOwner","type":"address","indexed":true,"internalType":"address"}],"anonymous":false},{"type":"event","name":"ReceivedUint256","inputs":[{"name":"requestId","type":"bytes32","indexed":true,"internalType":"bytes32"},{"name":"response","type":"uint256","indexed":false,"internalType":"uint256"}],"anonymous":false},{"type":"event","name":"RequestedUint256","inputs":[{"name":"requestId","type":"bytes32","indexed":true,"internalType":"bytes32"}],"anonymous":false},{"type":"event","name":"WithdrawalRequested","inputs":[{"name":"airnode","type":"address","indexed":true,"internalType":"address"},{"name":"sponsorWallet","type":"address","indexed":true,"internalType":"address"}],"anonymous":false},{"type":"error","name":"GameDoesNotExist","inputs":[]},{"type":"error","name":"RestrictedRPSFactory_DurationTooLong","inputs":[]},{"type":"error","name":"RestrictedRPSFactory_InvalidGameId","inputs":[{"name":"gameId","type":"uint256","internalType":"uint256"}]},{"type":"error","name":"RestrictedRPSFactory_PlayerBanned","inputs":[{"name":"player","type":"address","internalType":"address"}]},{"type":"error","name":"RestrictedRPSFactory_SendMore","inputs":[]},{"type":"error","name":"RestrictedRPSFactory_TooManyOpenGames","inputs":[]}],"bytecode":{"object":"0x60a0604052600160058190556006805460ff1916821790556509184e72a00060078190556008556200003390601462000143565b601e805460ff191660ff929092169190911790553480156200005457600080fd5b506040516200619b3803806200619b833981016040819052620000779162000171565b80806200008433620000f3565b6001600160a01b0381166080819052604051632b77c09f60e21b81523060048201526001602482015263addf027c90604401600060405180830381600087803b158015620000d157600080fd5b505af1158015620000e6573d6000803e3d6000fd5b50505050505050620001a3565b600080546001600160a01b038381166001600160a01b0319831681178455604051919092169283917f8be0079c531659141344cd1fd0a4f28419497f9722a3daafe3b4186f6b6457e09190a35050565b60ff82811682821603908111156200016b57634e487b7160e01b600052601160045260246000fd5b92915050565b6000602082840312156200018457600080fd5b81516001600160a01b03811681146200019c57600080fd5b9392505050565b608051615fce620001cd60003960008181610378015281816107b801526113e40152615fce6000f3fe608060405260043610620001be5760003560e01c806381452f0611620000ff578063b9f145571162000095578063e75d7e3e116200006c578063e75d7e3e14620005d6578063f2fde38b14620005fd578063f3304bbf1462000622578063f6cca6e2146200064757600080fd5b8063b9f145571462000551578063c04c59471462000576578063e671cdae146200059d57600080fd5b806397c3ccd811620000d657806397c3ccd8146200048557806397f735d514620004aa578063a2f77bcc14620004f8578063a9c82606146200051d57600080fd5b806381452f0614620003fe57806381fea3b514620004235780638da5cb5b146200046557600080fd5b80635b282cba1162000175578063715018a6116200014c578063715018a6146200034c57806371bab666146200036457806371ca3053146200039a5780637bdf252514620003d957600080fd5b80635b282cba14620002af57806361ba206214620002d45780636e9b2dc0146200032757600080fd5b80630998537e14620001c35780630be7544914620001ea5780630f9361c3146200020f57806311aa10c7146200023a5780633718d90a14620002725780633ccfd60b1462000297575b600080fd5b348015620001d057600080fd5b50620001e8620001e23660046200150d565b6200066c565b005b348015620001f757600080fd5b50620001e8620002093660046200152b565b62000701565b3480156200021c57600080fd5b506200022762000710565b6040519081526020015b60405180910390f35b3480156200024757600080fd5b506200025f620002593660046200155e565b62000729565b60405160ff909116815260200162000231565b3480156200027f57600080fd5b50620001e86200029136600462001596565b620007ad565b348015620002a457600080fd5b50620001e86200090c565b348015620002bc57600080fd5b50620001e8620002ce3660046200150d565b62000954565b348015620002e157600080fd5b506200030e620002f33660046200152b565b6004602052600090815260409020546001600160a01b031681565b6040516001600160a01b03909116815260200162000231565b3480156200033457600080fd5b50620001e8620003463660046200152b565b62000974565b3480156200035957600080fd5b50620001e862000983565b3480156200037157600080fd5b506200030e7f000000000000000000000000000000000000000000000000000000000000000081565b348015620003a757600080fd5b50620003bf620003b936600462001617565b6200099b565b6040516001600160b81b0319909116815260200162000231565b348015620003e657600080fd5b50620001e8620003f836600462001679565b620009d8565b3480156200040b57600080fd5b50620003bf6200041d366004620016b1565b62000a16565b3480156200043057600080fd5b50600154600254600354604080516001600160a01b039485168152602081019390935292169181019190915260600162000231565b3480156200047257600080fd5b506000546001600160a01b03166200030e565b3480156200049257600080fd5b50620001e8620004a4366004620016de565b62000a9a565b348015620004b757600080fd5b50620004e7620004c9366004620016de565b6001600160a01b031660009081526009602052604090205460ff1690565b604051901515815260200162000231565b3480156200050557600080fd5b506200030e620005173660046200152b565b62000ac8565b3480156200052a57600080fd5b50620005426200053c3660046200155e565b62000af1565b604051620002319190620016fc565b3480156200055e57600080fd5b50620001e862000570366004620016de565b62000b8d565b3480156200058357600080fd5b506200058e62000bb8565b60405162000231919062001733565b620005b4620005ae36600462001770565b62000c01565b6040805160ff90931683526001600160a01b0390911660208301520162000231565b348015620005e357600080fd5b50620005ee62000f06565b60405162000231919062001796565b3480156200060a57600080fd5b50620001e86200061c366004620016de565b62001106565b3480156200062f57600080fd5b50620004e762000641366004620017e5565b62001182565b3480156200065457600080fd5b50620002276200066636600462001770565b62001296565b62000676620012d5565b6000600a8260ff166014811062000691576200069162001803565b0160009054906101000a90046001600160a01b03169050806001600160a01b0316633ccfd60b6040518163ffffffff1660e01b8152600401600060405180830381600087803b158015620006e457600080fd5b505af1158015620006f9573d6000803e3d6000fd5b505050505050565b6200070b620012d5565b600555565b60075460009062000724906003906200182f565b905090565b6000806200073a600260086200185f565b6200074690846200185f565b6200075390600862001884565b905060006002620007668160086200185f565b620007729086620018a0565b6200077e9190620018c5565b90508060ff16858360ff16600981106200079c576200079c62001803565b1a901c600316925050505b92915050565b336001600160a01b037f00000000000000000000000000000000000000000000000000000000000000001614620008245760405162461bcd60e51b8152602060048201526016602482015275043616c6c6572206e6f74204169726e6f6465205252560541b60448201526064015b60405180910390fd5b6000838152600460205260409020546001600160a01b0316806200085b57604051631fedf07560e01b815260040160405180910390fd5b60006200086b838501856200152b565b60405163c32a50f960e01b8152600481018290529091506001600160a01b0383169063c32a50f990602401600060405180830381600087803b158015620008b157600080fd5b505af1158015620008c6573d6000803e3d6000fd5b50505050847f1ca47bacd454c26163f84eff4aa514e291ba9fa67ad6029e39567c122bbed30f82604051620008fd91815260200190565b60405180910390a25050505050565b62000916620012d5565b600080546040516001600160a01b03909116914780156108fc02929091818181858888f1935050505015801562000951573d6000803e3d6000fd5b50565b6200095e620012d5565b6006805460ff191660ff92909216919091179055565b6200097e620012d5565b600755565b6200098d620012d5565b62000999600062001331565b565b600080620009ab600285620018c5565b600360b81b60ff9190911690811b199590951660b89390931b60ff60b81b1690941b919091179392505050565b620009e2620012d5565b600180546001600160a01b039485166001600160a01b03199182161790915560029290925560038054919093169116179055565b600060235b60ff81161562000a9257600062000a398462000666846001620018eb565b9050600062000a49868462000729565b9050600062000a59878462000729565b905062000a688785836200099b565b965062000a778784846200099b565b9650505050808062000a899062001907565b91505062000a1b565b509192915050565b62000aa4620012d5565b6001600160a01b03166000908152600960205260409020805460ff19166001179055565b6000600a826014811062000ae05762000ae062001803565b01546001600160a01b031692915050565b62000afb620014ab565b600062000b0a600684620018c5565b905060005b600660ff8216101562000b8557600062000b2a8284620018eb565b9050600062000b3a878362000729565b9050848160ff166003811062000b545762000b5462001803565b6020020180519062000b668262001927565b60000b90525082915062000b7c90508162001949565b91505062000b0f565b505092915050565b62000b97620012d5565b6001600160a01b03166000908152600960205260409020805460ff19169055565b62000bc2620014c9565b6040805161028081019182905290600a9060149082845b81546001600160a01b0316815260019091019060200180831162000bd9575050505050905090565b33600090815260096020526040812054819060ff161562000c3857604051634114689b60e11b81523360048201526024016200081b565b60055434101562000c5c5760405163e7781c5960e01b815260040160405180910390fd5b601e5460149062000c729060ff166001620018eb565b62000c7e9190620018a0565b9150600a8260ff166014811062000c995762000c9962001803565b01546001600160a01b03169050801562000dd957806005816001600160a01b0316631865c57d6040518163ffffffff1660e01b8152600401602060405180830381865afa15801562000cef573d6000803e3d6000fd5b505050506040513d601f19601f8201168201806040525081019062000d15919062001978565b600581111562000d295762000d2962001962565b1462000d4857604051630b37dc9160e01b815260040160405180910390fd5b600654600754600854604051636e328aab60e01b815260ff9384166004820152602481019290925260448201523360648201526084810187905290851660a48201526001600160a01b03821690636e328aab9060c401600060405180830381600087803b15801562000db957600080fd5b505af115801562000dce573d6000803e3d6000fd5b505050505062000eac565b60003083600660009054906101000a900460ff16600754600854338a8a60405162000e0490620014e8565b6001600160a01b03988916815260ff978816602082015295871660408701526060860194909452608085019290925290941660a083015260c0820193909352911660e082015261010001604051809103906000f08015801562000e6b573d6000803e3d6000fd5b50905080915081600a8460ff166014811062000e8b5762000e8b62001803565b0180546001600160a01b0319166001600160a01b0392909216919091179055505b601e805460ff191660ff841617905562000ec68162001381565b6040516001600160a01b0382169060ff8416907fc3e0f84839dc888c892a013d10c8f9d6dc05a21a879d0ce468ca558013e9121c90600090a39250929050565b6040805160148082526102a082019092526060916000919060208201610280803683370190505090506000805b601460ff8216101562001038576000600a8260ff166014811062000f5b5762000f5b62001803565b01546001600160a01b03169050801562001022576000819050806001600160a01b03166347535d7b6040518163ffffffff1660e01b8152600401602060405180830381865afa15801562000fb3573d6000803e3d6000fd5b505050506040513d601f19601f8201168201806040525081019062000fd99190620019b1565b15620010205781858560ff168151811062000ff85762000ff862001803565b6001600160a01b0390921660209283029190910190910152836200101c8162001949565b9450505b505b50806200102f8162001949565b91505062000f33565b5060008160ff1667ffffffffffffffff8111156200105a576200105a6200199b565b60405190808252806020026020018201604052801562001084578160200160208202803683370190505b50905060005b8260ff168160ff161015620010fe57838160ff1681518110620010b157620010b162001803565b6020026020010151828260ff1681518110620010d157620010d162001803565b6001600160a01b039092166020928302919091019091015280620010f58162001949565b9150506200108a565b509392505050565b62001110620012d5565b6001600160a01b038116620011775760405162461bcd60e51b815260206004820152602660248201527f4f776e61626c653a206e6577206f776e657220697320746865207a65726f206160448201526564647265737360d01b60648201526084016200081b565b620009518162001331565b60006200118e620014ab565b60005b6200119e600680620018c5565b60ff168160ff16101562001203576000620011ba858362000729565b9050828160ff1660038110620011d457620011d462001803565b60200201805190620011e68262001949565b60ff16905250819050620011fa8162001949565b91505062001191565b50600362001213600680620018c5565b6200121f91906200185f565b815160ff90811691161480156200125c5750600362001240600680620018c5565b6200124c91906200185f565b60ff16816001602002015160ff16145b80156200128f5750600362001273600680620018c5565b6200127f91906200185f565b60ff16816002602002015160ff16145b9392505050565b60008160ff1683604051602001620012b091815260200190565b6040516020818303038152906040528051906020012060001c6200128f9190620019d5565b6000546001600160a01b03163314620009995760405162461bcd60e51b815260206004820181905260248201527f4f776e61626c653a2063616c6c6572206973206e6f7420746865206f776e657260448201526064016200081b565b600080546001600160a01b038381166001600160a01b0319831681178455604051919092169283917f8be0079c531659141344cd1fd0a4f28419497f9722a3daafe3b4186f6b6457e09190a35050565b600154600254600354604051636e6be03f60e01b81526001600160a01b0393841660048201526024810192909252306044830181905290831660648301526084820152631b8c6c8560e11b60a482015260e060c4820152600060e48201819052917f00000000000000000000000000000000000000000000000000000000000000001690636e6be03f90610104016020604051808303816000875af11580156200142f573d6000803e3d6000fd5b505050506040513d601f19601f82011682018060405250810190620014559190620019ec565b60008181526004602052604080822080546001600160a01b0319166001600160a01b0387161790555191925082917fcba2da2f3c0c732a104019a3104936397dde7343964c1518ceb760052e4537b19190a25050565b60405180606001604052806003906020820280368337509192915050565b6040518061028001604052806014906020820280368337509192915050565b6145928062001a0783390190565b803560ff811681146200150857600080fd5b919050565b6000602082840312156200152057600080fd5b6200128f82620014f6565b6000602082840312156200153e57600080fd5b5035919050565b80356001600160b81b0319811681146200150857600080fd5b600080604083850312156200157257600080fd5b6200157d8362001545565b91506200158d60208401620014f6565b90509250929050565b600080600060408486031215620015ac57600080fd5b83359250602084013567ffffffffffffffff80821115620015cc57600080fd5b818601915086601f830112620015e157600080fd5b813581811115620015f157600080fd5b8760208285010111156200160457600080fd5b6020830194508093505050509250925092565b6000806000606084860312156200162d57600080fd5b620016388462001545565b92506200164860208501620014f6565b91506200165860408501620014f6565b90509250925092565b80356001600160a01b03811681146200150857600080fd5b6000806000606084860312156200168f57600080fd5b6200169a8462001661565b925060208401359150620016586040850162001661565b60008060408385031215620016c557600080fd5b620016d08362001545565b946020939093013593505050565b600060208284031215620016f157600080fd5b6200128f8262001661565b6060810181836000805b600381101562001729578251820b84526020938401939092019160010162001706565b5050505092915050565b6102808101818360005b6014811015620017675781516001600160a01b03168352602092830192909101906001016200173d565b50505092915050565b600080604083850312156200178457600080fd5b823591506200158d60208401620014f6565b6020808252825182820181905260009190848201906040850190845b81811015620017d95783516001600160a01b031683529284019291840191600101620017b2565b50909695505050505050565b600060208284031215620017f857600080fd5b6200128f8262001545565b634e487b7160e01b600052603260045260246000fd5b634e487b7160e01b600052601160045260246000fd5b8082028115828204841417620007a757620007a762001819565b634e487b7160e01b600052601260045260246000fd5b600060ff83168062001875576200187562001849565b8060ff84160491505092915050565b60ff8281168282160390811115620007a757620007a762001819565b600060ff831680620018b657620018b662001849565b8060ff84160691505092915050565b60ff8181168382160290811690818114620018e457620018e462001819565b5092915050565b60ff8181168382160190811115620007a757620007a762001819565b600060ff8216806200191d576200191d62001819565b6000190192915050565b60008160000b607f810362001940576200194062001819565b60010192915050565b600060ff821660ff810362001940576200194062001819565b634e487b7160e01b600052602160045260246000fd5b6000602082840312156200198b57600080fd5b8151600681106200128f57600080fd5b634e487b7160e01b600052604160045260246000fd5b600060208284031215620019c457600080fd5b815180151581146200128f57600080fd5b600082620019e757620019e762001849565b500690565b600060208284031215620019ff57600080fd5b505191905056fe60c06040523480156200001157600080fd5b50604051620045923803806200459283398101604081905262000034916200011f565b6001600160a01b03881660805260ff871660a0526200005886868686868662000066565b505050505050505062000208565b6000805460ff88811660ff1990921691909117825560018790556002869055600380546001600160a01b0387166001600160a01b031990911617905560048490556007805460059390935590831662ff00ff19909216821762010000179055620000d49062015180620001c2565b620000e59062ffffff1642620001ec565b600655505050505050565b80516001600160a01b03811681146200010857600080fd5b919050565b805160ff811681146200010857600080fd5b600080600080600080600080610100898b0312156200013d57600080fd5b6200014889620000f0565b97506200015860208a016200010d565b96506200016860408a016200010d565b955060608901519450608089015193506200018660a08a01620000f0565b925060c089015191506200019d60e08a016200010d565b90509295985092959890939650565b634e487b7160e01b600052601160045260246000fd5b62ffffff818116838216028082169190828114620001e457620001e4620001ac565b505092915050565b80820180821115620002025762000202620001ac565b92915050565b60805160a0516143336200025f600039600081816104e70152610aae01526000818161068d015281816107850152818161083e01528181611463015281816114ae01528181611bc9015261281301526143336000f3fe6080604052600436106101d85760003560e01c80636e328aab11610102578063ad2e8c9b11610095578063c4ae16a811610064578063c4ae16a81461052b578063dc71e3b81461055e578063fc19b7451461057e578063fcada10a1461059357600080fd5b8063ad2e8c9b146104a0578063b6b3b64e146104b8578063c0bd8351146104d8578063c32a50f91461050b57600080fd5b80638fd4aa05116100d15780638fd4aa05146104165780639cf6d1af146104365780639f05a36d1461045e578063a6d3571d1461047357600080fd5b80636e328aab146103b757806374cee9d1146103d7578063786b844b146103ec5780637c1b7f8a1461040157600080fd5b80633640f6131161017a57806347535d7b1161014957806347535d7b14610356578063525f50931461036b57806357f331781461038d5780635e7303d4146103a257600080fd5b80633640f613146102e757806339e7357c146103075780633ccfd60b1461031c5780633d536a2e1461033157600080fd5b80631865c57d116101b65780631865c57d1461025d5780632c70120e146102835780633133888e146102a557806332648d7e146102c757600080fd5b80630f9361c3146101dd57806315822f44146102055780631746bd1b14610235575b600080fd5b3480156101e957600080fd5b506101f26105b0565b6040519081526020015b60405180910390f35b34801561021157600080fd5b50610225610220366004613a9e565b6105c7565b60405190151581526020016101fc565b34801561024157600080fd5b5061024a6109c2565b6040516101fc9796959493929190613aee565b34801561026957600080fd5b5060075462010000900460ff166040516101fc9190613b98565b34801561028f57600080fd5b50610298610aef565b6040516101fc9190613bc8565b3480156102b157600080fd5b506102c56102c0366004613c9d565b610ca0565b005b3480156102d357600080fd5b506102c56102e2366004613cf5565b610d99565b3480156102f357600080fd5b506102c5610302366004613d53565b6111aa565b34801561031357600080fd5b506005546101f2565b34801561032857600080fd5b506102c561141b565b61034461033f366004613d6e565b6114f9565b60405160ff90911681526020016101fc565b34801561036257600080fd5b506102256118cf565b34801561037757600080fd5b506103806118f5565b6040516101fc9190613eac565b34801561039957600080fd5b506102c5611a9e565b3480156103ae57600080fd5b506001546101f2565b3480156103c357600080fd5b506102c56103d2366004613f12565b611bbe565b3480156103e357600080fd5b506004546101f2565b3480156103f857600080fd5b506102c5611c87565b34801561040d57600080fd5b506102c5611d85565b34801561042257600080fd5b506101f2610431366004613d53565b61219f565b34801561044257600080fd5b506003546040516001600160a01b0390911681526020016101fc565b34801561046a57600080fd5b506006546101f2565b34801561047f57600080fd5b5061049361048e366004613d53565b6122f1565b6040516101fc9190613f71565b3480156104ac57600080fd5b5060075460ff16610344565b3480156104c457600080fd5b506103446104d3366004613f80565b61242f565b3480156104e457600080fd5b507f0000000000000000000000000000000000000000000000000000000000000000610344565b34801561051757600080fd5b506102c5610526366004613fbc565b612808565b34801561053757600080fd5b5061054b610546366004613fd5565b6128d4565b60405160009190910b81526020016101fc565b34801561056a57600080fd5b506102c5610579366004613ff0565b612948565b34801561058a57600080fd5b50610225612c5f565b34801561059f57600080fd5b50600754610100900460ff16610344565b6001546000906105c290600390614041565b905090565b6003546000906001600160a01b031633146105f55760405163730d477360e11b815260040160405180910390fd5b60006105ff612c5f565b90508061061f5760405163288615b560e11b815260040160405180910390fd5b6000848460405160200161063492919061407c565b604051602081830303815290604052805190602001209050806004541461066e5760405163a5ab2a5960e01b815260040160405180910390fd5b60405163f3304bbf60e01b81526001600160b81b0319861660048201527f00000000000000000000000000000000000000000000000000000000000000006001600160a01b03169063f3304bbf90602401602060405180830381865afa1580156106dc573d6000803e3d6000fd5b505050506040513d601f19601f8201168201806040525081019061070091906140ad565b610758576007805462ff00001916620200001790556003546040516001600160a01b03909116907ff06e016360df4c9b017c99214597c4e45c240c89602b99ee310848b7c630cbcc90600090a26000925050506109bc565b6005546040516340a2978360e11b81526001600160b81b03198716600482015260248101919091526000907f00000000000000000000000000000000000000000000000000000000000000006001600160a01b0316906381452f0690604401602060405180830381865afa1580156107d4573d6000803e3d6000fd5b505050506040513d601f19601f820116820180604052508101906107f891906140cf565b905060005b60075460ff610100909104811690821610156109a2576040516354e4130360e11b81526001600160b81b03198316600482015260ff821660248201526000907f00000000000000000000000000000000000000000000000000000000000000006001600160a01b03169063a9c8260690604401606060405180830381865afa15801561088d573d6000803e3d6000fd5b505050506040513d601f19601f820116820180604052508101906108b191906140ec565b8051909150600860ff8416600681106108cc576108cc61417a565b6005020160040160076101000a81548160ff021916908360000b60ff160217905550806001600381106109015761090161417a565b602002015160088360ff166006811061091c5761091c61417a565b6005020160040160086101000a81548160ff021916908360000b60ff160217905550806002600381106109515761095161417a565b602002015160088360ff166006811061096c5761096c61417a565b6005020160040160096101000a81548160ff021916908360000b60ff16021790555050808061099a90614190565b9150506107fd565b50506007805462ff00001916620300001790555060019150505b92915050565b60075460009081908190819081908190606090610100900460ff16828167ffffffffffffffff8111156109f7576109f76139eb565b604051908082528060200260200182016040528015610a20578160200160208202803683370190505b50905060005b8260ff168160ff161015610a9c5760088160ff1660068110610a4a57610a4a61417a565b600502015482516001600160a01b0390911690839060ff8416908110610a7257610a7261417a565b6001600160a01b039092166020928302919091019091015280610a9481614190565b915050610a26565b506007546026546001546002546006547f00000000000000000000000000000000000000000000000000000000000000009e61010090950460ff9081169e509093169b5090995097509550909350915050565b60265460609060ff1660008167ffffffffffffffff811115610b1357610b136139eb565b604051908082528060200260200182016040528015610b4c57816020015b610b39613883565b815260200190600190039081610b315790505b50905060005b8260ff168160ff161015610c995760278160ff1660788110610b7657610b7661417a565b604080516101008082018352600293840294909401805460ff8082168452958104861660208401529194909392850192620100009092041690811115610bbe57610bbe613b72565b6002811115610bcf57610bcf613b72565b815281546020909101906301000000900460ff166002811115610bf457610bf4613b72565b6002811115610c0557610c05613b72565b8152815460ff600160201b820481166020840152600160281b820481166040840152606090920191600160301b909104166005811115610c4757610c47613b72565b6005811115610c5857610c58613b72565b8152602001600182015481525050828260ff1681518110610c7b57610c7b61417a565b60200260200101819052508080610c9190614190565b915050610b52565b5092915050565b600754829060ff610100909104811690821610610cd057604051630e0a2aa160e11b815260040160405180910390fd5b6003546001600160a01b03163314610cfb5760405163730d477360e11b815260040160405180910390fd5b600660088460ff1660068110610d1357610d1361417a565b6005020160040160026101000a81548160ff021916908360000b60ff16021790555060088360ff1660068110610d4b57610d4b61417a565b60050201546040516001600160a01b03909116907f675e261a416100b60f1c071c20fd8b07e1e242d28313ee7638d4d44614a2d4e690610d8c9085906141db565b60405180910390a2505050565b602654839060ff90811690821610610dc4576040516311eb888760e31b815260040160405180910390fd5b600060278560ff1660788110610ddc57610ddc61417a565b604080516101008082018352600293840294909401805460ff8082168452958104861660208401529194909392850192620100009092041690811115610e2457610e24613b72565b6002811115610e3557610e35613b72565b815281546020909101906301000000900460ff166002811115610e5a57610e5a613b72565b6002811115610e6b57610e6b613b72565b8152815460ff600160201b820481166020840152600160281b820481166040840152606090920191600160301b909104166005811115610ead57610ead613b72565b6005811115610ebe57610ebe613b72565b81526001918201546020909101529091508160c001516005811115610ee557610ee5613b72565b14610f0357604051633018e60760e21b815260040160405180910390fd5b60008460f81b84604051602001610f1b9291906141ee565b604051602081830303815290604052805190602001209050808260e0015114610f5757604051633b74e52960e11b815260040160405180910390fd5b60008560ff166002811115610f6e57610f6e613b72565b90508060278860ff1660788110610f8757610f8761417a565b6002020160000160026101000a81548160ff02191690836002811115610faf57610faf613b72565b021790555060608301518351610fc59083612e1c565b610fd3846020015182612e1c565b60006002836002811115610fe957610fe9613b72565b60ff161115611009576110058986600001518760200151612f9d565b5060055b600282600281111561101d5761101d613b72565b60ff16111561103d576110398986600001518760200151613242565b5060045b81600281111561104f5761104f613b72565b83600281111561106157611061613b72565b036110815761107989866000015187602001516134c9565b50600361115a565b600083600281111561109557611095613b72565b1480156110b3575060028260028111156110b1576110b1613b72565b145b806110eb575060018360028111156110cd576110cd613b72565b1480156110eb575060008260028111156110e9576110e9613b72565b145b806111235750600283600281111561110557611105613b72565b1480156111235750600182600281111561112157611121613b72565b145b156111435761113b8986600001518760200151613242565b50600461115a565b6111568986600001518760200151612f9d565b5060055b80600581111561116c5761116c613b72565b60ff168960ff167f16ee0aa4913ca9b3502ba060565c5e7016a69fa5853154a2611b73f45f48383960405160405180910390a3505050505050505050565b602654819060ff908116908216106111d5576040516311eb888760e31b815260040160405180910390fd5b600060278360ff16607881106111ed576111ed61417a565b604080516101008082018352600293840294909401805460ff808216845295810486166020840152919490939285019262010000909204169081111561123557611235613b72565b600281111561124657611246613b72565b815281546020909101906301000000900460ff16600281111561126b5761126b613b72565b600281111561127c5761127c613b72565b8152815460ff600160201b820481166020840152600160281b820481166040840152606090920191600160301b9091041660058111156112be576112be613b72565b60058111156112cf576112cf613b72565b815260019190910154602090910152805190915060006112ee336128d4565b90508060000b8260000b14611316576040516334e24b8360e21b815260040160405180910390fd5b60c0830151600081600581111561132f5761132f613b72565b1461134d57604051637021339d60e11b815260040160405180910390fd5b836080015160088460ff16600681106113685761136861417a565b6005020160040160018282829054906101000a900460ff1661138a919061421f565b92506101000a81548160ff021916908360ff160217905550600260278760ff16607881106113ba576113ba61417a565b60020201805460ff60301b1916600160301b8360058111156113de576113de613b72565b0217905550604051339060ff8816907f34d66c87f348a9492b2a7fe1463b02de9cab509ca7872ee83878909d9805c3a890600090a3505050505050565b600560075462010000900460ff16600581111561143a5761143a613b72565b14611458576040516368ac9bad60e01b815260040160405180910390fd5b336001600160a01b037f000000000000000000000000000000000000000000000000000000000000000016146114a157604051633f9db83960e01b815260040160405180910390fd5b6040516001600160a01b037f000000000000000000000000000000000000000000000000000000000000000016904780156108fc02916000818181858888f193505050501580156114f6573d6000803e3d6000fd5b50565b6000336115046105b0565b3410156115245760405163e71ff98960e01b815260040160405180910390fd5b600060075462010000900460ff16600581111561154357611543613b72565b146115615760405163817b163760e01b815260040160405180910390fd5b6003546001600160a01b0380831691160361158f5760405163031ee3ed60e51b815260040160405180910390fd5b600754610100900460ff16915060066115a9836001614238565b60ff1611156115cb5760405163380d3cc160e11b815260040160405180910390fd5b60005b8260ff168160ff16101561163a57816001600160a01b031660088260ff16600681106115fc576115fc61417a565b60050201546001600160a01b03160361162857604051639bec841d60e01b815260040160405180910390fd5b8061163281614190565b9150506115ce565b506116436138c7565b6001600160a01b03821681526003608082015234602082015280600860ff8516600681106116735761167361417a565b6005020160008201518160000160006101000a8154816001600160a01b0302191690836001600160a01b0316021790555060208201518160010155604082015181600201556060820151816003015560808201518160040160006101000a81548160ff021916908360ff16021790555060a08201518160040160016101000a81548160ff021916908360ff16021790555060c08201518160040160026101000a81548160ff021916908360000b60ff16021790555060e08201518160040160036101000a81548160ff021916908360000b60ff1602179055506101008201518160040160046101000a81548160ff021916908360000b60ff1602179055506101208201518160040160056101000a81548160ff021916908360000b60ff1602179055506101408201518160040160066101000a81548160ff021916908360ff1602179055506101608201518160040160076101000a81548160ff021916908360000b60ff1602179055506101808201518160040160086101000a81548160ff021916908360000b60ff1602179055506101a08201518160040160096101000a81548160ff021916908360000b60ff1602179055506101c082015181600401600a6101000a81548160ff0219169083151502179055509050506007600181819054906101000a900460ff168092919061186a90614190565b91906101000a81548160ff021916908360ff16021790555050816001600160a01b03168360ff167fdc70164a0afb7ca145a827fd238ec265b666c335c24a0afa2a33aab37362b4e1866040516118c091906141db565b60405180910390a35050919050565b60008060075462010000900460ff1660058111156118ef576118ef613b72565b14905090565b600754606090610100900460ff1660008167ffffffffffffffff81111561191e5761191e6139eb565b60405190808252806020026020018201604052801561195757816020015b6119446138c7565b81526020019060019003908161193c5790505b50905060005b8260ff168160ff161015610c995760088160ff16600681106119815761198161417a565b604080516101e0810182526005929092029290920180546001600160a01b03168252600181015460208301526002810154928201929092526003820154606082015260049091015460ff8082166080840152610100808304821660a0850152620100008304600090810b60c086015263010000008404810b60e0860152600160201b8404810b91850191909152600160281b8304810b610120850152600160301b83048216610140850152600160381b8304810b610160850152600160401b8304810b610180850152600160481b8304900b6101a0840152600160501b909104811615156101c0830152835184918416908110611a8057611a8061417a565b60200260200101819052508080611a9690614190565b91505061195d565b600560075462010000900460ff166005811115611abd57611abd613b72565b14611adb576040516368ac9bad60e01b815260040160405180910390fd5b600754610100900460ff1660005b8160ff168160ff161015611bba57600060088260ff1660068110611b0f57611b0f61417a565b60050201600301549050600060088360ff1660068110611b3157611b3161417a565b60050201546001600160a01b031690508115611ba557600060088460ff1660068110611b5f57611b5f61417a565b6005020160030181905550806001600160a01b03166108fc839081150290604051600060405180830381858888f19350505050158015611ba3573d6000803e3d6000fd5b505b50508080611bb290614190565b915050611ae9565b5050565b336001600160a01b037f00000000000000000000000000000000000000000000000000000000000000001614611c0757604051633f9db83960e01b815260040160405180910390fd5b600560075462010000900460ff166005811115611c2657611c26613b72565b14611c445760405163ad6418ff60e01b815260040160405180910390fd5b6026805460ff19169055611c5a60276000613943565b6007805461ff0019169055611c7160086000613952565b611c7f8686868686866136a6565b505050505050565b60075462010000900460ff166002816005811115611ca757611ca7613b72565b1480611cde57506000816005811115611cc257611cc2613b72565b148015611cde5750600654611cda9062015180614251565b4210155b15611d4057611ceb61372c565b6007805462ff0000191662050000179055806005811115611d0e57611d0e613b72565b60ff167f9908eaac0645df9d0704d06adc9e07337c951de2f06b5f2836151d48d5e4722f60405160405180910390a250565b600460075462010000900460ff166005811115611d5f57611d5f613b72565b03611d6c57611ceb61379a565b60405163059546f560e21b815260040160405180910390fd5b600360075462010000900460ff166005811115611da457611da4613b72565b14611dc2576040516320ca0a1560e21b815260040160405180910390fd5b600754610100900460ff166000805b8260ff168160ff16101561200057600060088260ff1660068110611df757611df761417a565b604080516101e0810182526005929092029290920180546001600160a01b03168252600181015460208301526002810154928201929092526003820154606082015260049091015460ff8082166080840152610100808304821660a0850152620100008304600090810b60c0860181905263010000008504820b60e0870152600160201b8504820b92860192909252600160281b8404810b610120860152600160301b84048316610140860152600160381b8404810b610160860152600160401b8404810b610180860152600160481b8404810b6101a0860152600160501b90930490911615156101c08401529192501380611f01575080610160015160000b8160e0015160000b135b80611f1b575080610180015160000b81610100015160000b135b80611f355750806101a0015160000b81610120015160000b135b15611fb95780516040516001600160a01b03909116907f01c709aae484e2a477ef26450949077d5411b73db0d6b24d7db60381d60794cd90600090a282611f7b81614190565b935050600160088360ff1660068110611f9657611f9661417a565b60050201600401600a6101000a81548160ff021916908315150217905550611fed565b611fcb8160c001518260800151613808565b60088360ff1660068110611fe157611fe161417a565b60050201600201819055505b5080611ff881614190565b915050611dd1565b5060ff8116156121615760005b8260ff168160ff16101561215f57600060088260ff16600681106120335761203361417a565b604080516101e0810182526005929092029290920180546001600160a01b03168252600181015460208301526002810154928201929092526003820154606082015260049091015460ff8082166080840152610100808304821660a0850152620100008304600090810b60c086015263010000008404810b60e0860152600160201b8404810b91850191909152600160281b8304810b610120850152600160301b83048216610140850152600160381b8304810b610160850152600160401b8304810b610180850152600160481b8304900b6101a0840152600160501b9091041615156101c0820181905290915061214c57806020015160088360ff16600681106121405761214061417a565b60050201600201819055505b508061215781614190565b91505061200d565b505b6007805462ff00001916620400001790556040517f4fe64a1db9b488a7580160b96d00df1e33928b44702c888eec276fb8cfdaaaa190600090a15050565b600754600090829060ff6101009091048116908216106121d257604051630e0a2aa160e11b815260040160405180910390fd5b600060088460ff16600681106121ea576121ea61417a565b604080516101e0810182526005929092029290920180546001600160a01b03168252600181015460208301526002810154928201929092526003820154606082015260049091015460ff80821660808401819052610100808404831660a0860152620100008404600090810b60c0870181905263010000008604820b60e0880152600160201b8604820b92870192909252600160281b8504810b610120870152600160301b85048416610140870152600160381b8504810b610160870152600160401b8504810b610180870152600160481b8504900b6101a0860152600160501b90930490911615156101c0840152919250906122e78282613808565b9695505050505050565b6122f96138c7565b600754829060ff61010090910481169082161061232957604051630e0a2aa160e11b815260040160405180910390fd5b60088360ff166006811061233f5761233f61417a565b604080516101e0810182526005929092029290920180546001600160a01b03168252600181015460208301526002810154928201929092526003820154606082015260049091015460ff8082166080840152610100808304821660a0850152620100008304600090810b60c086015263010000008404810b60e0860152600160201b8404810b91850191909152600160281b8304810b610120850152600160301b83048216610140850152600160381b8304810b610160850152600160401b8304810b610180850152600160481b8304900b6101a0840152600160501b9091041615156101c08201529392505050565b6000612439613883565b6000612444336128d4565b90508060000b6000190361246b57604051637082284960e11b815260040160405180910390fd5b806000600860ff8316600681106124845761248461417a565b604080516101e0810182526005929092029290920180546001600160a01b031682526001808201546020840152600282015493830193909352600381015460608301526004015460ff8082166080840152610100808304821660a0850152620100008304600090810b60c086015263010000008404810b60e0860152600160201b8404810b91850191909152600160281b8304810b610120850152600160301b830482166101408501819052600160381b8404820b610160860152600160401b8404820b610180860152600160481b8404820b6101a0860152600160501b90930490911615156101c0840152919350909161257f9190614238565b9050601460ff821611156125a657604051633fac4c7160e21b815260040160405180910390fd5b816080015160ff168260a00151896125be9190614238565b60ff1611156125e057604051638ba4117960e01b815260040160405180910390fd5b60ff808416865260e086018a905287811660a0870152888116608087015260265416955084602787607881106126185761261861417a565b82516002918202929092018054602085015160ff9081166101000261ffff1990921694169390931792909217808355604084015191839162ff00001916906201000090849081111561266c5761266c613b72565b021790555060608201518154829063ff0000001916630100000083600281111561269857612698613b72565b02179055506080820151815460a084015160ff908116600160281b0265ff00000000001991909316600160201b021665ffff0000000019909116171780825560c083015190829060ff60301b1916600160301b8360058111156126fd576126fd613b72565b021790555060e091909101516001909101556026805460ff1690600061272283614190565b91906101000a81548160ff021916908360ff160217905550508060088460ff16600681106127525761275261417a565b6005020160040160066101000a81548160ff021916908360ff1602179055508760088460ff16600681106127885761278861417a565b6005020160040160018282829054906101000a900460ff166127aa9190614238565b92506101000a81548160ff021916908360ff160217905550336001600160a01b03168660ff167f18a47d8df22f178f89e665cc0fccf4ee175e91434c7b749c4a7607ffa4d33a6760405160405180910390a350505050509392505050565b336001600160a01b037f0000000000000000000000000000000000000000000000000000000000000000161461285157604051633f9db83960e01b815260040160405180910390fd5b600160075462010000900460ff16600581111561287057612870613b72565b1461288d57604051620e2aed60e31b815260040160405180910390fd5b60058190556007805462ff0000191690556040518181527fbda2e5fc778edfbed22cb985a005e7314108766bd66e86798f58611dcb9fb8b99060200160405180910390a150565b60075460001990610100900460ff1660005b8160ff168160ff16101561294157836001600160a01b031660088260ff16600681106129145761291461417a565b60050201546001600160a01b03160361292f57809250612941565b8061293981614190565b9150506128e6565b5050919050565b602654829060ff90811690821610612973576040516311eb888760e31b815260040160405180910390fd5b600061297e336128d4565b90508060000b600019036129a557604051637082284960e11b815260040160405180910390fd5b806000602760ff8716607881106129be576129be61417a565b60020201805490915060ff908116908316036129ed57604051631deda49760e01b815260040160405180910390fd5b60008154600160301b900460ff166005811115612a0c57612a0c613b72565b14612a2a576040516317c9510160e01b815260040160405180910390fd5b600060088360ff1660068110612a4257612a4261417a565b604080516101e0810182526005929092029290920180546001600160a01b03168252600181015460208301526002810154928201929092526003820154606082015260049091015460ff80821660808401819052610100808404831660a08601819052620100008504600090810b60c088015263010000008604810b60e0880152600160201b8604810b92870192909252600160281b808604830b610120880152600160301b86048516610140880152600160381b8604830b610160880152600160401b8604830b610180880152600160481b860490920b6101a0870152600160501b909404831615156101c086015286549495509093612b47939291900416614238565b60ff161115612b6957604051638ba4117960e01b815260040160405180910390fd5b815460ff84166101000261ff00198216811784558791849163ff000000191663ff00ff0019909116176301000000836002811115612ba957612ba9613b72565b0217905550815460ff60301b1916600160301b1780835560ff600160281b909104811690600890851660068110612be257612be261417a565b6005020160040160018282829054906101000a900460ff16612c049190614238565b92506101000a81548160ff021916908360ff160217905550336001600160a01b03168760ff167f01b120bec3d4ba9705e9f5f6c7aa115993959878ac9533a84cb359ffe642823060405160405180910390a350505050505050565b60008060075462010000900460ff166005811115612c7f57612c7f613b72565b14612c8a5750600090565b426006541115612e1657600754610100900460ff16600603612e16576040805160c081019091526000906008600683835b82821015612dba57604080516101e08101825260058402860180546001600160a01b031682526001808201546020808501919091526002830154948401949094526003820154606084015260049091015460ff8082166080850152610100808304821660a0860152620100008304600090810b60c087015263010000008404810b60e0870152600160201b8404810b91860191909152600160281b8304810b610120860152600160301b83048216610140860152600160381b8304810b610160860152600160401b8304810b610180860152600160481b8304900b6101a0850152600160501b9091041615156101c08301529083529092019101612cbb565b50505050905060005b60068160ff161015612e13576000828260ff1660068110612de657612de661417a565b602002015160c0015160000b1315612e015760009250505090565b80612e0b81614190565b915050612dc3565b50505b50600190565b6000816002811115612e3057612e30613b72565b03612e8b5760088260ff1660068110612e4b57612e4b61417a565b6005020160040180546301000000900460000b906003612e6a83614264565b91906101000a81548160ff021916908360000b60ff16021790555050612f49565b6001816002811115612e9f57612e9f613b72565b03612ed95760088260ff1660068110612eba57612eba61417a565b6005020160049081018054600160201b900460000b91612e6a83614264565b6002816002811115612eed57612eed613b72565b03612f495760088260ff1660068110612f0857612f0861417a565b60050201600401600581819054906101000a900460000b80929190612f2c90614264565b91906101000a81548160ff021916908360000b60ff160217905550505b60088260ff1660068110612f5f57612f5f61417a565b60050201600401805462010000900460000b906002612f7d8361427a565b91906101000a81548160ff021916908360000b60ff160217905550505050565b600060278460ff1660788110612fb557612fb561417a565b604080516101008082018352600293840294909401805460ff8082168452958104861660208401529194909392850192620100009092041690811115612ffd57612ffd613b72565b600281111561300e5761300e613b72565b815281546020909101906301000000900460ff16600281111561303357613033613b72565b600281111561304457613044613b72565b8152815460ff600160201b820481166020840152600160281b820481166040840152606090920191600160301b90910416600581111561308657613086613b72565b600581111561309757613097613b72565b81526020016001820154815250509050600560278560ff16607881106130bf576130bf61417a565b60020201805460ff60301b1916600160301b8360058111156130e3576130e3613b72565b0217905550806080015160088460ff16600681106131035761310361417a565b6005020160040160018282829054906101000a900460ff16613125919061421f565b92506101000a81548160ff021916908360ff160217905550806080015160088460ff16600681106131585761315861417a565b6005020160040160008282829054906101000a900460ff1661317a919061421f565b92506101000a81548160ff021916908360ff1602179055508060a0015160088360ff16600681106131ad576131ad61417a565b6005020160040160018282829054906101000a900460ff166131cf919061421f565b92506101000a81548160ff021916908360ff160217905550806080015160088360ff16600681106132025761320261417a565b6005020160040160008282829054906101000a900460ff166132249190614238565b92506101000a81548160ff021916908360ff16021790555050505050565b600060278460ff166078811061325a5761325a61417a565b604080516101008082018352600293840294909401805460ff80821684529581048616602084015291949093928501926201000090920416908111156132a2576132a2613b72565b60028111156132b3576132b3613b72565b815281546020909101906301000000900460ff1660028111156132d8576132d8613b72565b60028111156132e9576132e9613b72565b8152815460ff600160201b820481166020840152600160281b820481166040840152606090920191600160301b90910416600581111561332b5761332b613b72565b600581111561333c5761333c613b72565b81526020016001820154815250509050600460278560ff16607881106133645761336461417a565b60020201805460ff60301b1916600160301b83600581111561338857613388613b72565b0217905550806080015160088460ff16600681106133a8576133a861417a565b6005020160040160018282829054906101000a900460ff166133ca919061421f565b92506101000a81548160ff021916908360ff1602179055508060a0015160088460ff16600681106133fd576133fd61417a565b6005020160040160008282829054906101000a900460ff1661341f9190614238565b92506101000a81548160ff021916908360ff1602179055508060a0015160088360ff16600681106134525761345261417a565b6005020160040160018282829054906101000a900460ff16613474919061421f565b92506101000a81548160ff021916908360ff1602179055508060a0015160088360ff16600681106134a7576134a761417a565b6005020160040160008282829054906101000a900460ff16613224919061421f565b600060278460ff16607881106134e1576134e161417a565b604080516101008082018352600293840294909401805460ff808216845295810486166020840152919490939285019262010000909204169081111561352957613529613b72565b600281111561353a5761353a613b72565b815281546020909101906301000000900460ff16600281111561355f5761355f613b72565b600281111561357057613570613b72565b8152815460ff600160201b820481166020840152600160281b820481166040840152606090920191600160301b9091041660058111156135b2576135b2613b72565b60058111156135c3576135c3613b72565b81526020016001820154815250509050600360278560ff16607881106135eb576135eb61417a565b60020201805460ff60301b1916600160301b83600581111561360f5761360f613b72565b0217905550806080015160088460ff166006811061362f5761362f61417a565b6005020160040160018282829054906101000a900460ff16613651919061421f565b92506101000a81548160ff021916908360ff1602179055508060a0015160088360ff16600681106136845761368461417a565b6005020160040160018282829054906101000a900460ff16613224919061421f565b6000805460ff88811660ff1990921691909117825560018790556002869055600380546001600160a01b0387166001600160a01b031990911617905560048490556007805460059390935590831662ff00ff199092168217620100001790556137129062015180614299565b6137219062ffffff1642614251565b600655505050505050565b600754610100900460ff1660005b8160ff168160ff161015611bba5760088160ff166006811061375e5761375e61417a565b600502016001015460088260ff166006811061377c5761377c61417a565b6005020160030181905550808061379290614190565b91505061373a565b600754610100900460ff1660005b8160ff168160ff161015611bba5760088160ff16600681106137cc576137cc61417a565b600502016002015460088260ff16600681106137ea576137ea61417a565b6005020160030181905550808061380090614190565b9150506137a8565b6000808360000b121561381d575060006109bc565b8260000b6000146138395760048260ff16111561383957600491505b60006001548360ff1661384c9190614041565b6000549091506103e8906138639060ff16826142c0565b6138719061ffff1683614041565b61387b91906142db565b949350505050565b6040805161010081018252600080825260208201819052918101829052606081018290526080810182905260a0810182905260c0810182905260e081019190915290565b604080516101e081018252600080825260208201819052918101829052606081018290526080810182905260a0810182905260c0810182905260e08101829052610100810182905261012081018290526101408101829052610160810182905261018081018290526101a081018290526101c081019190915290565b506114f69060f0810190613961565b506114f690601e81019061398b565b5b8082111561398757805466ffffffffffffff1916815560006001820155600201613962565b5090565b5b808211156139875780546001600160a01b03191681556000600182018190556002820181905560038201556004810180546affffffffffffffffffffff1916905560050161398c565b6001600160b81b0319811681146114f657600080fd5b634e487b7160e01b600052604160045260246000fd5b600067ffffffffffffffff80841115613a1c57613a1c6139eb565b604051601f8501601f19908116603f01168101908282118183101715613a4457613a446139eb565b81604052809350858152868686011115613a5d57600080fd5b858560208301376000602087830101525050509392505050565b600082601f830112613a8857600080fd5b613a9783833560208501613a01565b9392505050565b60008060408385031215613ab157600080fd5b8235613abc816139d5565b9150602083013567ffffffffffffffff811115613ad857600080fd5b613ae485828601613a77565b9150509250929050565b600060e0820160ff8a168352602060ff8a168185015260ff891660408501528760608501528660808501528560a085015260e060c085015281855180845261010086019150828701935060005b81811015613b605784516001600160a01b031683529383019391830191600101613b3b565b50909c9b505050505050505050505050565b634e487b7160e01b600052602160045260246000fd5b600681106114f6576114f6613b72565b60208101613ba583613b88565b91905290565b60038110613bbb57613bbb613b72565b9052565b613bbb81613b88565b602080825282518282018190526000919060409081850190868401855b82811015613c7a57815160ff8082511686528088830151168887015286820151613c1188880182613bab565b50606080830151613c2482890182613bab565b50506080828101519091169086015260a080820151613c478288018260ff169052565b505060c080820151613c5b82880182613bbf565b505060e090810151908501526101009093019290850190600101613be5565b5091979650505050505050565b803560ff81168114613c9857600080fd5b919050565b60008060408385031215613cb057600080fd5b613cb983613c87565b9150602083013567ffffffffffffffff811115613cd557600080fd5b8301601f81018513613ce657600080fd5b613ae485823560208401613a01565b600080600060608486031215613d0a57600080fd5b613d1384613c87565b9250613d2160208501613c87565b9150604084013567ffffffffffffffff811115613d3d57600080fd5b613d4986828701613a77565b9150509250925092565b600060208284031215613d6557600080fd5b613a9782613c87565b600060208284031215613d8057600080fd5b813567ffffffffffffffff811115613d9757600080fd5b61387b84828501613a77565b80516001600160a01b031682526020810151602083015260408101516040830152606081015160608301526080810151613de2608084018260ff169052565b5060a0810151613df760a084018260ff169052565b5060c0810151613e0c60c084018260000b9052565b5060e0810151613e2160e084018260000b9052565b5061010080820151613e378285018260000b9052565b505061012080820151613e4e8285018260000b9052565b50506101408181015160ff169083015261016080820151600081900b82850152505061018080820151613e858285018260000b9052565b50506101a080820151613e9c8285018260000b9052565b50506101c0908101511515910152565b6020808252825182820181905260009190848201906040850190845b81811015613eef57613edb838551613da3565b928401926101e09290920191600101613ec8565b50909695505050505050565b80356001600160a01b0381168114613c9857600080fd5b60008060008060008060c08789031215613f2b57600080fd5b613f3487613c87565b95506020870135945060408701359350613f5060608801613efb565b925060808701359150613f6560a08801613c87565b90509295509295509295565b6101e081016109bc8284613da3565b600080600060608486031215613f9557600080fd5b83359250613fa560208501613c87565b9150613fb360408501613c87565b90509250925092565b600060208284031215613fce57600080fd5b5035919050565b600060208284031215613fe757600080fd5b613a9782613efb565b6000806040838503121561400357600080fd5b61400c83613c87565b915060208301356003811061402057600080fd5b809150509250929050565b634e487b7160e01b600052601160045260246000fd5b80820281158282048414176109bc576109bc61402b565b60005b8381101561407357818101518382015260200161405b565b50506000910152565b6001600160b81b031983168152815160009061409f816009850160208701614058565b919091016009019392505050565b6000602082840312156140bf57600080fd5b81518015158114613a9757600080fd5b6000602082840312156140e157600080fd5b8151613a97816139d5565b6000606082840312156140fe57600080fd5b82601f83011261410d57600080fd5b6040516060810181811067ffffffffffffffff82111715614130576141306139eb565b60405280606084018581111561414557600080fd5b845b8181101561416f578051600081810b8214614160578081fd5b50835260209283019201614147565b509195945050505050565b634e487b7160e01b600052603260045260246000fd5b600060ff821660ff81036141a6576141a661402b565b60010192915050565b600081518084526141c7816020860160208601614058565b601f01601f19169290920160200192915050565b602081526000613a9760208301846141af565b6001600160f81b0319831681528151600090614211816001850160208701614058565b919091016001019392505050565b60ff82811682821603908111156109bc576109bc61402b565b60ff81811683821601908111156109bc576109bc61402b565b808201808211156109bc576109bc61402b565b60008160000b607f81036141a6576141a661402b565b600081810b6080810161428f5761428f61402b565b6000190192915050565b62ffffff8181168382160280821691908281146142b8576142b861402b565b505092915050565b61ffff828116828216039080821115610c9957610c9961402b565b6000826142f857634e487b7160e01b600052601260045260246000fd5b50049056fea2646970667358221220a38ecd735c70b0b3f6301da29a279801f9afdbe781b55697c787fd55b9ba7dc164736f6c63430008130033a2646970667358221220afdf4699108d744ab966572871649f98b1454688658e05b169fec5259c77d93064736f6c63430008130033","linkReferences":{}},"methodIdentifiers":{"airnodeRrp()":"71bab666","ban(address)":"97c3ccd8","createGame(bytes32,uint8)":"e671cdae","fulfillUint256(bytes32,bytes)":"3718d90a","generateRandomNumberFromSeed(uint256,uint8)":"f6cca6e2","getBasicJoiningCost()":"0f9361c3","getCard(bytes9,uint8)":"11aa10c7","getGame(uint256)":"a2f77bcc","getGames()":"c04c5947","getNbrCardsOfPlayer(bytes9,uint8)":"a9c82606","getOpenGames()":"e75d7e3e","getRequestParameters()":"81fea3b5","isBanned(address)":"97f735d5","isValidDeck(bytes9)":"f3304bbf","owner()":"8da5cb5b","renounceOwnership()":"715018a6","requestToGameAddress(bytes32)":"61ba2062","setCard(bytes9,uint8,uint8)":"71ca3053","setGameCreationFee(uint256)":"0be75449","setRequestParameters(address,bytes32,address)":"7bdf2525","setStarCost(uint256)":"6e9b2dc0","setWinningsCut(uint8)":"5b282cba","shuffleDeck(bytes9,uint256)":"81452f06","transferOwnership(address)":"f2fde38b","unban(address)":"b9f14557","withdraw()":"3ccfd60b","withdrawGameCut(uint8)":"0998537e"},"id":32}