{"abi":[{"type":"constructor","inputs":[{"name":"_factory","type":"address","internalType":"address"},{"name":"_gameId","type":"uint8","internalType":"uint8"},{"name":"_winningsCut","type":"uint8","internalType":"uint8"},{"name":"_starCost","type":"uint256","internalType":"uint256"},{"name":"_1MCashCost","type":"uint256","internalType":"uint256"},{"name":"_dealer","type":"address","internalType":"address"},{"name":"_initialHash","type":"bytes32","internalType":"bytes32"},{"name":"_duration","type":"uint8","internalType":"uint8"}],"stateMutability":"nonpayable"},{"type":"function","name":"answerMatch","inputs":[{"name":"_matchId","type":"uint8","internalType":"uint8"},{"name":"_card","type":"uint8","internalType":"enum RestrictedRPSGame.Card"}],"outputs":[],"stateMutability":"nonpayable"},{"type":"function","name":"cancelMatch","inputs":[{"name":"_matchId","type":"uint8","internalType":"uint8"}],"outputs":[],"stateMutability":"nonpayable"},{"type":"function","name":"closeMatch","inputs":[{"name":"_matchId","type":"uint8","internalType":"uint8"},{"name":"_card","type":"uint8","internalType":"uint8"},{"name":"_secret","type":"string","internalType":"string"}],"outputs":[],"stateMutability":"nonpayable"},{"type":"function","name":"getBasicJoiningCost","inputs":[],"outputs":[{"name":"","type":"uint256","internalType":"uint256"}],"stateMutability":"view"},{"type":"function","name":"getDealer","inputs":[],"outputs":[{"name":"","type":"address","internalType":"address"}],"stateMutability":"view"},{"type":"function","name":"getDuration","inputs":[],"outputs":[{"name":"","type":"uint8","internalType":"uint8"}],"stateMutability":"view"},{"type":"function","name":"getGameId","inputs":[],"outputs":[{"name":"","type":"uint8","internalType":"uint8"}],"stateMutability":"view"},{"type":"function","name":"getGameInfo","inputs":[],"outputs":[{"name":"","type":"uint8","internalType":"uint8"},{"name":"","type":"uint8","internalType":"uint8"},{"name":"","type":"uint8","internalType":"uint8"},{"name":"","type":"uint8","internalType":"uint8"},{"name":"","type":"uint256","internalType":"uint256"},{"name":"","type":"uint256","internalType":"uint256"},{"name":"","type":"address[]","internalType":"address[]"}],"stateMutability":"view"},{"type":"function","name":"getInitialHash","inputs":[],"outputs":[{"name":"","type":"bytes32","internalType":"bytes32"}],"stateMutability":"view"},{"type":"function","name":"getMatch","inputs":[{"name":"_matchId","type":"uint8","internalType":"uint8"}],"outputs":[{"name":"","type":"tuple","internalType":"struct RestrictedRPSGame.Match","components":[{"name":"player1","type":"uint8","internalType":"uint8"},{"name":"player2","type":"uint8","internalType":"uint8"},{"name":"player1Card","type":"uint8","internalType":"enum RestrictedRPSGame.Card"},{"name":"player2Card","type":"uint8","internalType":"enum RestrictedRPSGame.Card"},{"name":"player1Bet","type":"uint8","internalType":"uint8"},{"name":"player2Bet","type":"uint8","internalType":"uint8"},{"name":"result","type":"uint8","internalType":"enum RestrictedRPSGame.MatchState"},{"name":"player1Hash","type":"bytes32","internalType":"bytes32"}]}],"stateMutability":"view"},{"type":"function","name":"getMatches","inputs":[],"outputs":[{"name":"","type":"tuple[]","internalType":"struct RestrictedRPSGame.Match[]","components":[{"name":"player1","type":"uint8","internalType":"uint8"},{"name":"player2","type":"uint8","internalType":"uint8"},{"name":"player1Card","type":"uint8","internalType":"enum RestrictedRPSGame.Card"},{"name":"player2Card","type":"uint8","internalType":"enum RestrictedRPSGame.Card"},{"name":"player1Bet","type":"uint8","internalType":"uint8"},{"name":"player2Bet","type":"uint8","internalType":"uint8"},{"name":"result","type":"uint8","internalType":"enum RestrictedRPSGame.MatchState"},{"name":"player1Hash","type":"bytes32","internalType":"bytes32"}]}],"stateMutability":"view"},{"type":"function","name":"getNbrPlayers","inputs":[],"outputs":[{"name":"","type":"uint8","internalType":"uint8"}],"stateMutability":"view"},{"type":"function","name":"getPlayerId","inputs":[{"name":"playerAddress","type":"address","internalType":"address"}],"outputs":[{"name":"playerId","type":"int8","internalType":"int8"}],"stateMutability":"view"},{"type":"function","name":"getPlayerState","inputs":[{"name":"_playerId","type":"uint8","internalType":"uint8"}],"outputs":[{"name":"","type":"tuple","internalType":"struct RestrictedRPSGame.PlayerState","components":[{"name":"player","type":"address","internalType":"address"},{"name":"encryptedHand","type":"bytes32","internalType":"bytes32"},{"name":"nbrStars","type":"uint8","internalType":"uint8"},{"name":"nbrStarsLocked","type":"uint8","internalType":"uint8"},{"name":"nbrCards","type":"int8","internalType":"int8"},{"name":"nbrRockUsed","type":"int8","internalType":"int8"},{"name":"nbrPaperUsed","type":"int8","internalType":"int8"},{"name":"nbrScissorsUsed","type":"int8","internalType":"int8"},{"name":"nbrOfferedMatches","type":"uint8","internalType":"uint8"},{"name":"initialNbrRocks","type":"int8","internalType":"int8"},{"name":"initialNbrPapers","type":"int8","internalType":"int8"},{"name":"initialNbrScissors","type":"int8","internalType":"int8"}]}],"stateMutability":"view"},{"type":"function","name":"getPlayersState","inputs":[],"outputs":[{"name":"","type":"tuple[]","internalType":"struct RestrictedRPSGame.PlayerState[]","components":[{"name":"player","type":"address","internalType":"address"},{"name":"encryptedHand","type":"bytes32","internalType":"bytes32"},{"name":"nbrStars","type":"uint8","internalType":"uint8"},{"name":"nbrStarsLocked","type":"uint8","internalType":"uint8"},{"name":"nbrCards","type":"int8","internalType":"int8"},{"name":"nbrRockUsed","type":"int8","internalType":"int8"},{"name":"nbrPaperUsed","type":"int8","internalType":"int8"},{"name":"nbrScissorsUsed","type":"int8","internalType":"int8"},{"name":"nbrOfferedMatches","type":"uint8","internalType":"uint8"},{"name":"initialNbrRocks","type":"int8","internalType":"int8"},{"name":"initialNbrPapers","type":"int8","internalType":"int8"},{"name":"initialNbrScissors","type":"int8","internalType":"int8"}]}],"stateMutability":"view"},{"type":"function","name":"getState","inputs":[],"outputs":[{"name":"","type":"uint8","internalType":"enum RestrictedRPSGame.GameState"}],"stateMutability":"view"},{"type":"function","name":"isOpen","inputs":[],"outputs":[{"name":"","type":"bool","internalType":"bool"}],"stateMutability":"view"},{"type":"function","name":"joinGame","inputs":[{"name":"pub","type":"string","internalType":"string"}],"outputs":[{"name":"playerId","type":"uint8","internalType":"uint8"}],"stateMutability":"payable"},{"type":"function","name":"offerMatch","inputs":[{"name":"_hashedCard","type":"bytes32","internalType":"bytes32"},{"name":"_player1Bet","type":"uint8","internalType":"uint8"},{"name":"_player2Bet","type":"uint8","internalType":"uint8"}],"outputs":[{"name":"matchId","type":"uint8","internalType":"uint8"}],"stateMutability":"nonpayable"},{"type":"function","name":"resetGame","inputs":[{"name":"_winningsCut","type":"uint8","internalType":"uint8"},{"name":"_starCost","type":"uint256","internalType":"uint256"},{"name":"_1MCashCost","type":"uint256","internalType":"uint256"},{"name":"_dealer","type":"address","internalType":"address"},{"name":"_initialHash","type":"bytes32","internalType":"bytes32"},{"name":"_duration","type":"uint8","internalType":"uint8"}],"outputs":[],"stateMutability":"nonpayable"},{"type":"function","name":"setPlayerHand","inputs":[{"name":"_playerId","type":"uint8","internalType":"uint8"},{"name":"encryptedHand","type":"bytes","internalType":"bytes"}],"outputs":[],"stateMutability":"nonpayable"},{"type":"function","name":"setSeed","inputs":[{"name":"seed","type":"uint256","internalType":"uint256"}],"outputs":[],"stateMutability":"nonpayable"},{"type":"function","name":"verifyDealerHonesty","inputs":[{"name":"_initialDeck","type":"bytes9","internalType":"bytes9"},{"name":"_secret","type":"string","internalType":"string"}],"outputs":[{"name":"","type":"bool","internalType":"bool"}],"stateMutability":"nonpayable"},{"type":"function","name":"verifyGame","inputs":[],"outputs":[],"stateMutability":"nonpayable"},{"type":"function","name":"verifyPlayerHonesty","inputs":[{"name":"_playerId","type":"uint8","internalType":"uint8"}],"outputs":[{"name":"","type":"bool","internalType":"bool"}],"stateMutability":"nonpayable"},{"type":"function","name":"verifyPlayersHonesty","inputs":[],"outputs":[],"stateMutability":"nonpayable"},{"type":"event","name":"DealerCheated","inputs":[{"name":"","type":"address","indexed":true,"internalType":"address"}],"anonymous":false},{"type":"event","name":"GameJoined","inputs":[{"name":"playerId","type":"uint8","indexed":true,"internalType":"uint8"},{"name":"player","type":"address","indexed":true,"internalType":"address"},{"name":"","type":"string","indexed":false,"internalType":"string"}],"anonymous":false},{"type":"event","name":"GameStarted","inputs":[],"anonymous":false},{"type":"event","name":"MatchAnswered","inputs":[{"name":"matchId","type":"uint256","indexed":true,"internalType":"uint256"},{"name":"player","type":"address","indexed":true,"internalType":"address"}],"anonymous":false},{"type":"event","name":"MatchCancelled","inputs":[{"name":"matchId","type":"uint256","indexed":true,"internalType":"uint256"},{"name":"player","type":"address","indexed":true,"internalType":"address"}],"anonymous":false},{"type":"event","name":"MatchClosed","inputs":[{"name":"matchId","type":"uint256","indexed":true,"internalType":"uint256"},{"name":"state","type":"uint8","indexed":true,"internalType":"uint8"}],"anonymous":false},{"type":"event","name":"MatchCreated","inputs":[{"name":"matchId","type":"uint256","indexed":true,"internalType":"uint256"},{"name":"player","type":"address","indexed":true,"internalType":"address"}],"anonymous":false},{"type":"event","name":"PlayerCheated","inputs":[{"name":"","type":"address","indexed":true,"internalType":"address"}],"anonymous":false},{"type":"event","name":"PlayerWasGivenHand","inputs":[{"name":"player","type":"address","indexed":true,"internalType":"address"},{"name":"encryptedHand","type":"bytes","indexed":false,"internalType":"bytes"}],"anonymous":false},{"type":"event","name":"SeedSet","inputs":[{"name":"seed","type":"uint256","indexed":false,"internalType":"uint256"}],"anonymous":false},{"type":"error","name":"RestrictedRPS_AnsweredMatchCannotBeCancelled","inputs":[]},{"type":"error","name":"RestrictedRPS_CannotResetOpenGame","inputs":[]},{"type":"error","name":"RestrictedRPS_DealerCannotJoin","inputs":[]},{"type":"error","name":"RestrictedRPS_DeckAndSecretNotMatchingInitialHash","inputs":[]},{"type":"error","name":"RestrictedRPS_GameFull","inputs":[]},{"type":"error","name":"RestrictedRPS_GameNotOpen","inputs":[]},{"type":"error","name":"RestrictedRPS_InvalidMatchId","inputs":[]},{"type":"error","name":"RestrictedRPS_InvalidPlayerId","inputs":[]},{"type":"error","name":"RestrictedRPS_MatchAlreadyPlayed","inputs":[]},{"type":"error","name":"RestrictedRPS_MatchNotAnswered","inputs":[]},{"type":"error","name":"RestrictedRPS_NotAPlayer","inputs":[]},{"type":"error","name":"RestrictedRPS_NotEnoughAvailableStars","inputs":[]},{"type":"error","name":"RestrictedRPS_NotExpectingSeed","inputs":[]},{"type":"error","name":"RestrictedRPS_NotTheRightPlayer","inputs":[]},{"type":"error","name":"RestrictedRPS_OnlyDealer","inputs":[]},{"type":"error","name":"RestrictedRPS_OnlyFactory","inputs":[]},{"type":"error","name":"RestrictedRPS_PlayerAlreadyJoined","inputs":[]},{"type":"error","name":"RestrictedRPS_PlayerBanned","inputs":[]},{"type":"error","name":"RestrictedRPS_PlayerHasOfferedTooManyMatches","inputs":[]},{"type":"error","name":"RestrictedRPS_SendMore","inputs":[]},{"type":"error","name":"RestrictedRPS_WrongCardHash","inputs":[]}],"bytecode":{"object":"0x60c06040526000805461ff001916610a0017905560018055655af3107a40006002553480156200002e57600080fd5b506040516200394c3803806200394c833981016040819052620000519162000106565b6001600160a01b0388811660805260ff88811660a0526000805460018981556002899055600380549589166001600160a01b031990961695909517909455600486905560088054600584905586851662ff00ff19909116176201000017905561ffff19169189166101000260ff1916919091179091179055505050505050505062000193565b80516001600160a01b0381168114620000ef57600080fd5b919050565b805160ff81168114620000ef57600080fd5b600080600080600080600080610100898b0312156200012457600080fd5b6200012f89620000d7565b97506200013f60208a01620000f4565b96506200014f60408a01620000f4565b955060608901519450608089015193506200016d60a08a01620000d7565b925060c089015191506200018460e08a01620000f4565b90509295985092959890939650565b60805160a051613770620001dc6000396000818161044b01526109a00152600081816105b201528181610698015281816107510152818161197e015261212c01526137706000f3fe6080604052600436106101815760003560e01c806374cee9d1116100d1578063b1055add1161008a578063c32a50f911610064578063c32a50f91461046f578063c4ae16a81461048f578063dc71e3b8146104c2578063fcada10a146104e257600080fd5b8063b1055add14610410578063b6b3b64e1461041c578063c0bd83511461043c57600080fd5b806374cee9d1146103595780637bb054311461036e5780639cf6d1af1461038e578063a1455b68146103b6578063a6d3571d146103cb578063ad2e8c9b146103f857600080fd5b80633133888e1161013e5780633d536a2e116101185780633d536a2e146102dd57806347535d7b14610302578063525f5093146103175780636e328aab1461033957600080fd5b80633133888e1461027b57806332648d7e1461029d5780633640f613146102bd57600080fd5b80630f9361c31461018657806315822f44146101ae5780631746bd1b146101de5780631865c57d1461020657806323d808da1461022c5780632c70120e14610259575b600080fd5b34801561019257600080fd5b5061019b6104ff565b6040519081526020015b60405180910390f35b3480156101ba57600080fd5b506101ce6101c9366004612f76565b610516565b60405190151581526020016101a5565b3480156101ea57600080fd5b506101f36108c1565b6040516101a59796959493929190612fc6565b34801561021257600080fd5b5060085462010000900460ff166040516101a59190613075565b34801561023857600080fd5b5061024c61024736600461309e565b6109e3565b6040516101a59190613134565b34801561026557600080fd5b5061026e610b25565b6040516101a59190613143565b34801561028757600080fd5b5061029b610296366004613192565b610ccb565b005b3480156102a957600080fd5b5061029b6102b83660046131ea565b610dc4565b3480156102c957600080fd5b5061029b6102d836600461309e565b6111d5565b6102f06102eb366004613248565b611446565b60405160ff90911681526020016101a5565b34801561030e57600080fd5b506101ce6117d5565b34801561032357600080fd5b5061032c6117fb565b6040516101a5919061336c565b34801561034557600080fd5b5061029b6103543660046133c6565b611973565b34801561036557600080fd5b5060045461019b565b34801561037a57600080fd5b506101ce61038936600461309e565b611a99565b34801561039a57600080fd5b506003546040516001600160a01b0390911681526020016101a5565b3480156103c257600080fd5b5061029b611c30565b3480156103d757600080fd5b506103eb6103e636600461309e565b611c5e565b6040516101a59190613425565b34801561040457600080fd5b5060085460ff166102f0565b34801561029b57600080fd5b34801561042857600080fd5b506102f0610437366004613434565b611d72565b34801561044857600080fd5b507f00000000000000000000000000000000000000000000000000000000000000006102f0565b34801561047b57600080fd5b5061029b61048a366004613470565b612121565b34801561049b57600080fd5b506104af6104aa366004613489565b6121d1565b60405160009190910b81526020016101a5565b3480156104ce57600080fd5b5061029b6104dd3660046134a4565b61223b565b3480156104ee57600080fd5b50600854610100900460ff166102f0565b600154600090610511906003906134f5565b905090565b6003546000906001600160a01b031633146105445760405163730d477360e11b815260040160405180910390fd5b60008383604051602001610559929190613530565b60405160208183030381529060405280519060200120905080600454146105935760405163a5ab2a5960e01b815260040160405180910390fd5b60405163f3304bbf60e01b81526001600160b81b0319851660048201527f00000000000000000000000000000000000000000000000000000000000000006001600160a01b03169063f3304bbf90602401602060405180830381865afa158015610601573d6000803e3d6000fd5b505050506040513d601f19601f820116820180604052508101906106259190613561565b61066b576003546040516001600160a01b03909116907ff06e016360df4c9b017c99214597c4e45c240c89602b99ee310848b7c630cbcc90600090a260009150506108bb565b6005546040516340a2978360e11b81526001600160b81b03198616600482015260248101919091526000907f00000000000000000000000000000000000000000000000000000000000000006001600160a01b0316906381452f0690604401602060405180830381865afa1580156106e7573d6000803e3d6000fd5b505050506040513d601f19601f8201168201806040525081019061070b9190613583565b905060005b60085460ff610100909104811690821610156108b3576040516354e4130360e11b81526001600160b81b03198316600482015260ff821660248201526000907f00000000000000000000000000000000000000000000000000000000000000006001600160a01b03169063a9c8260690604401606060405180830381865afa1580156107a0573d6000803e3d6000fd5b505050506040513d601f19601f820116820180604052508101906107c491906135a0565b8051909150600960ff8416600681106107df576107df61362e565b6003020160020160076101000a81548160ff021916908360000b60ff160217905550806001600381106108145761081461362e565b602002015160098360ff166006811061082f5761082f61362e565b6003020160020160086101000a81548160ff021916908360000b60ff160217905550806001600381106108645761086461362e565b602002015160098360ff166006811061087f5761087f61362e565b60030201600201805469ff0000000000000000001916600160481b60ff939093169290920291909117905550600101610710565b506001925050505b92915050565b60085460009081908190819081908190606090610100900460ff16828167ffffffffffffffff8111156108f6576108f6612ec3565b60405190808252806020026020018201604052801561091f578160200160208202803683370190505b50905060005b8260ff168160ff1610156109915760098160ff16600681106109495761094961362e565b600302015482516001600160a01b0390911690839060ff84169081106109715761097161362e565b6001600160a01b0390921660209283029190910190910152600101610925565b50600854601b546001546002547f00000000000000000000000000000000000000000000000000000000000000009d60ff610100860481169e509384169c509290931699509750909550909350915050565b6109eb612d82565b601b54829060ff90811690821610610a16576040516311eb888760e31b815260040160405180910390fd5b601c8360ff1660788110610a2c57610a2c61362e565b604080516101008082018352600293840294909401805460ff8082168452958104861660208401529194909392850192620100009092041690811115610a7457610a7461304f565b6002811115610a8557610a8561304f565b815281546020909101906301000000900460ff166002811115610aaa57610aaa61304f565b6002811115610abb57610abb61304f565b8152815460ff600160201b820481166020840152600160281b820481166040840152606090920191600160301b909104166005811115610afd57610afd61304f565b6005811115610b0e57610b0e61304f565b815260200160018201548152505091505b50919050565b601b5460609060ff1660008167ffffffffffffffff811115610b4957610b49612ec3565b604051908082528060200260200182016040528015610b8257816020015b610b6f612d82565b815260200190600190039081610b675790505b50905060005b8260ff168160ff161015610cc457601c8160ff1660788110610bac57610bac61362e565b604080516101008082018352600293840294909401805460ff8082168452958104861660208401529194909392850192620100009092041690811115610bf457610bf461304f565b6002811115610c0557610c0561304f565b815281546020909101906301000000900460ff166002811115610c2a57610c2a61304f565b6002811115610c3b57610c3b61304f565b8152815460ff600160201b820481166020840152600160281b820481166040840152606090920191600160301b909104166005811115610c7d57610c7d61304f565b6005811115610c8e57610c8e61304f565b8152602001600182015481525050828260ff1681518110610cb157610cb161362e565b6020908102919091010152600101610b88565b5092915050565b600854829060ff610100909104811690821610610cfb57604051630e0a2aa160e11b815260040160405180910390fd5b6003546001600160a01b03163314610d265760405163730d477360e11b815260040160405180910390fd5b600660098460ff1660068110610d3e57610d3e61362e565b6003020160020160026101000a81548160ff021916908360000b60ff16021790555060098360ff1660068110610d7657610d7661362e565b60030201546040516001600160a01b03909116907f675e261a416100b60f1c071c20fd8b07e1e242d28313ee7638d4d44614a2d4e690610db7908590613670565b60405180910390a2505050565b601b54839060ff90811690821610610def576040516311eb888760e31b815260040160405180910390fd5b6000601c8560ff1660788110610e0757610e0761362e565b604080516101008082018352600293840294909401805460ff8082168452958104861660208401529194909392850192620100009092041690811115610e4f57610e4f61304f565b6002811115610e6057610e6061304f565b815281546020909101906301000000900460ff166002811115610e8557610e8561304f565b6002811115610e9657610e9661304f565b8152815460ff600160201b820481166020840152600160281b820481166040840152606090920191600160301b909104166005811115610ed857610ed861304f565b6005811115610ee957610ee961304f565b81526001918201546020909101529091508160c001516005811115610f1057610f1061304f565b14610f2e57604051633018e60760e21b815260040160405180910390fd5b60008460f81b84604051602001610f46929190613683565b604051602081830303815290604052805190602001209050808260e0015114610f8257604051633b74e52960e11b815260040160405180910390fd5b60008560ff166002811115610f9957610f9961304f565b905080601c8860ff1660788110610fb257610fb261362e565b6002020160000160026101000a81548160ff02191690836002811115610fda57610fda61304f565b021790555060608301518351610ff090836124f8565b610ffe8460200151826124f8565b600060028360028111156110145761101461304f565b60ff161115611034576110308986600001518760200151612679565b5060055b60028260028111156110485761104861304f565b60ff16111561106857611064898660000151876020015161291e565b5060045b81600281111561107a5761107a61304f565b83600281111561108c5761108c61304f565b036110ac576110a48986600001518760200151612ba5565b506003611185565b60008360028111156110c0576110c061304f565b1480156110de575060028260028111156110dc576110dc61304f565b145b80611116575060018360028111156110f8576110f861304f565b148015611116575060008260028111156111145761111461304f565b145b8061114e575060028360028111156111305761113061304f565b14801561114e5750600182600281111561114c5761114c61304f565b145b1561116e57611166898660000151876020015161291e565b506004611185565b6111818986600001518760200151612679565b5060055b8060058111156111975761119761304f565b60ff168960ff167f16ee0aa4913ca9b3502ba060565c5e7016a69fa5853154a2611b73f45f48383960405160405180910390a3505050505050505050565b601b54819060ff90811690821610611200576040516311eb888760e31b815260040160405180910390fd5b6000601c8360ff16607881106112185761121861362e565b604080516101008082018352600293840294909401805460ff80821684529581048616602084015291949093928501926201000090920416908111156112605761126061304f565b60028111156112715761127161304f565b815281546020909101906301000000900460ff1660028111156112965761129661304f565b60028111156112a7576112a761304f565b8152815460ff600160201b820481166020840152600160281b820481166040840152606090920191600160301b9091041660058111156112e9576112e961304f565b60058111156112fa576112fa61304f565b81526001919091015460209091015280519091506000611319336121d1565b90508060000b8260000b14611341576040516334e24b8360e21b815260040160405180910390fd5b60c0830151600081600581111561135a5761135a61304f565b1461137857604051637021339d60e11b815260040160405180910390fd5b836080015160098460ff16600681106113935761139361362e565b6003020160020160018282829054906101000a900460ff166113b591906136b4565b92506101000a81548160ff021916908360ff1602179055506002601c8760ff16607881106113e5576113e561362e565b60020201805460ff60301b1916600160301b8360058111156114095761140961304f565b0217905550604051339060ff8816907f34d66c87f348a9492b2a7fe1463b02de9cab509ca7872ee83878909d9805c3a890600090a3505050505050565b6000336114516104ff565b3410156114715760405163e71ff98960e01b815260040160405180910390fd5b600060085462010000900460ff1660028111156114905761149061304f565b146114ae5760405163817b163760e01b815260040160405180910390fd5b6003546001600160a01b038083169116036114dc5760405163031ee3ed60e51b815260040160405180910390fd5b600854610100900460ff16915060066114f68360016136cd565b60ff1611156115185760405163380d3cc160e11b815260040160405180910390fd5b60005b8260ff168160ff16101561157d57816001600160a01b031660098260ff16600681106115495761154961362e565b60030201546001600160a01b03160361157557604051639bec841d60e01b815260040160405180910390fd5b60010161151b565b50611586612dc6565b6001600160a01b03821681526003604082015280600960ff8516600681106115b0576115b061362e565b6003020160008201518160000160006101000a8154816001600160a01b0302191690836001600160a01b031602179055506020820151816001015560408201518160020160006101000a81548160ff021916908360ff16021790555060608201518160020160016101000a81548160ff021916908360ff16021790555060808201518160020160026101000a81548160ff021916908360000b60ff16021790555060a08201518160020160036101000a81548160ff021916908360000b60ff16021790555060c08201518160020160046101000a81548160ff021916908360000b60ff16021790555060e08201518160020160056101000a81548160ff021916908360000b60ff1602179055506101008201518160020160066101000a81548160ff021916908360ff1602179055506101208201518160020160076101000a81548160ff021916908360000b60ff1602179055506101408201518160020160086101000a81548160ff021916908360000b60ff1602179055506101608201518160020160096101000a81548160ff021916908360000b60ff1602179055509050506008600181819054906101000a900460ff1680929190611770906136e6565b91906101000a81548160ff021916908360ff16021790555050816001600160a01b03168360ff167fdc70164a0afb7ca145a827fd238ec265b666c335c24a0afa2a33aab37362b4e1866040516117c69190613670565b60405180910390a35050919050565b60008060085462010000900460ff1660028111156117f5576117f561304f565b14905090565b600854606090610100900460ff1660008167ffffffffffffffff81111561182457611824612ec3565b60405190808252806020026020018201604052801561185d57816020015b61184a612dc6565b8152602001906001900390816118425790505b50905060005b8260ff168160ff161015610cc45760098160ff16600681106118875761188761362e565b60408051610180810182526003929092029290920180546001600160a01b03168252600181015460208301526002015460ff8082169383019390935261010080820484166060840152620100008204600090810b608085015263010000008304810b60a0850152600160201b8304810b60c0850152600160281b8304810b60e0850152600160301b8304851691840191909152600160381b8204810b610120840152600160401b8204810b610140840152600160481b909104900b6101608201528351909184919084169081106119605761196061362e565b6020908102919091010152600101611863565b336001600160a01b037f000000000000000000000000000000000000000000000000000000000000000016146119bc57604051633f9db83960e01b815260040160405180910390fd5b600060085462010000900460ff1660028111156119db576119db61304f565b036119f95760405163ad6418ff60e01b815260040160405180910390fd5b601b805460ff19169055611a0f601c6000612e2a565b6008805461ff0019169055611a2660096000612e39565b6000805460018781556002879055600380546001600160a01b0388166001600160a01b0319909116179055600485905560088054600585905560ff80871662ff00ff1990921691909117620100001790915561ffff199092169189166101000260ff191691909117179055505050505050565b600854600090829060ff610100909104811690821610611acc57604051630e0a2aa160e11b815260040160405180910390fd5b600060098460ff1660068110611ae457611ae461362e565b60408051610180810182526003929092029290920180546001600160a01b03168252600181015460208301526002015460ff8082169383019390935261010080820484166060840152620100008204600090810b608085015263010000008304810b60a08501819052600160201b8404820b60c0860152600160281b8404820b60e0860152600160301b840490951691840191909152600160381b8204810b6101208401819052600160401b8304820b610140850152600160481b909204900b6101608301529092501280611bc7575080610140015160000b8160c0015160000b135b80611be0575080610160015160000b8160e0015160000b135b15611c265780516040516001600160a01b03909116907f01c709aae484e2a477ef26450949077d5411b73db0d6b24d7db60381d60794cd90600090a26000925050610b1f565b5060019392505050565b60005b60085460ff61010090910481169082161015611c5b57611c5281611a99565b50600101611c33565b50565b611c66612dc6565b600854829060ff610100909104811690821610611c9657604051630e0a2aa160e11b815260040160405180910390fd5b60098360ff1660068110611cac57611cac61362e565b60408051610180810182526003929092029290920180546001600160a01b03168252600181015460208301526002015460ff8082169383019390935261010080820484166060840152620100008204600090810b608085015263010000008304810b60a0850152600160201b8304810b60c0850152600160281b8304810b60e0850152600160301b830490941690830152600160381b8104830b610120830152600160401b8104830b610140830152600160481b900490910b6101608201529392505050565b6000611d7c612d82565b6000611d87336121d1565b90508060000b60001903611dae57604051637082284960e11b815260040160405180910390fd5b806000600960ff831660068110611dc757611dc761362e565b60408051610180810182526003929092029290920180546001600160a01b03168252600180820154602084015260029091015460ff8082169484019490945261010080820485166060850152620100008204600090810b608086015263010000008304810b60a0860152600160201b8304810b60c0860152600160281b8304810b60e0860152600160301b8304909516908401819052600160381b8204850b610120850152600160401b8204850b610140850152600160481b909104840b610160840152919350611e9891906136cd565b9050601460ff82161115611ebf57604051633fac4c7160e21b815260040160405180910390fd5b816040015160ff16826060015189611ed791906136cd565b60ff161115611ef957604051638ba4117960e01b815260040160405180910390fd5b60ff808416865260e086018a905287811660a08701528881166080870152601b5416955084601c8760788110611f3157611f3161362e565b82516002918202929092018054602085015160ff9081166101000261ffff1990921694169390931792909217808355604084015191839162ff000019169062010000908490811115611f8557611f8561304f565b021790555060608201518154829063ff00000019166301000000836002811115611fb157611fb161304f565b02179055506080820151815460a084015160ff908116600160281b0265ff00000000001991909316600160201b021665ffff0000000019909116171780825560c083015190829060ff60301b1916600160301b8360058111156120165761201661304f565b021790555060e09190910151600190910155601b805460ff1690600061203b836136e6565b91906101000a81548160ff021916908360ff160217905550508060098460ff166006811061206b5761206b61362e565b6003020160020160066101000a81548160ff021916908360ff1602179055508760098460ff16600681106120a1576120a161362e565b6003020160020160018282829054906101000a900460ff166120c391906136cd565b92506101000a81548160ff021916908360ff160217905550336001600160a01b03168660ff167f18a47d8df22f178f89e665cc0fccf4ee175e91434c7b749c4a7607ffa4d33a6760405160405180910390a350505050509392505050565b336001600160a01b037f0000000000000000000000000000000000000000000000000000000000000000161461216a57604051633f9db83960e01b815260040160405180910390fd5b60005460ff1661218c57604051620e2aed60e31b815260040160405180910390fd5b60058190556000805460ff191690556040518181527fbda2e5fc778edfbed22cb985a005e7314108766bd66e86798f58611dcb9fb8b99060200160405180910390a150565b60085460001990610100900460ff1660005b8160ff168160ff16101561223457836001600160a01b031660098260ff16600681106122115761221161362e565b60030201546001600160a01b03160361222c57809250612234565b6001016121e3565b5050919050565b601b54829060ff90811690821610612266576040516311eb888760e31b815260040160405180910390fd5b6000612271336121d1565b90508060000b6000190361229857604051637082284960e11b815260040160405180910390fd5b806000601c60ff8716607881106122b1576122b161362e565b60020201905060008154600160301b900460ff1660058111156122d6576122d661304f565b146122f4576040516317c9510160e01b815260040160405180910390fd5b600060098360ff166006811061230c5761230c61362e565b60408051610180810182526003929092029290920180546001600160a01b03168252600181015460208301526002015460ff808216938301849052610100808304821660608501819052620100008404600090810b608087015263010000008504810b60a0870152600160201b8504810b60c0870152600160281b808604820b60e0880152600160301b8604851693870193909352600160381b8504810b610120870152600160401b8504810b610140870152600160481b90940490930b61016085015286549395506123e09304166136cd565b60ff16111561240257604051638ba4117960e01b815260040160405180910390fd5b815460ff84166101000261ff00198216811784558791849163ff000000191663ff00ff00199091161763010000008360028111156124425761244261304f565b0217905550815460ff60301b1916600160301b1780835560ff600160281b90910481169060099085166006811061247b5761247b61362e565b6003020160020160018282829054906101000a900460ff1661249d91906136cd565b92506101000a81548160ff021916908360ff160217905550336001600160a01b03168760ff167f01b120bec3d4ba9705e9f5f6c7aa115993959878ac9533a84cb359ffe642823060405160405180910390a350505050505050565b600081600281111561250c5761250c61304f565b0361256c5760098260ff16600681106125275761252761362e565b60030201600201600381819054906101000a900460000b8092919061254b90613705565b91906101000a81548160ff021916908360000b60ff16021790555050612625565b60018160028111156125805761258061304f565b036125ba5760098260ff166006811061259b5761259b61362e565b600302016002018054600160201b900460000b90600461254b83613705565b60028160028111156125ce576125ce61304f565b036126255760098260ff16600681106125e9576125e961362e565b600302016002018054600160281b900460000b90600561260883613705565b91906101000a81548160ff021916908360000b60ff160217905550505b60098260ff166006811061263b5761263b61362e565b600302016002908101805462010000900460000b916126598361371b565b91906101000a81548160ff021916908360000b60ff160217905550505050565b6000601c8460ff16607881106126915761269161362e565b604080516101008082018352600293840294909401805460ff80821684529581048616602084015291949093928501926201000090920416908111156126d9576126d961304f565b60028111156126ea576126ea61304f565b815281546020909101906301000000900460ff16600281111561270f5761270f61304f565b60028111156127205761272061304f565b8152815460ff600160201b820481166020840152600160281b820481166040840152606090920191600160301b9091041660058111156127625761276261304f565b60058111156127735761277361304f565b815260200160018201548152505090506005601c8560ff166078811061279b5761279b61362e565b60020201805460ff60301b1916600160301b8360058111156127bf576127bf61304f565b0217905550806080015160098460ff16600681106127df576127df61362e565b6003020160020160018282829054906101000a900460ff1661280191906136b4565b92506101000a81548160ff021916908360ff160217905550806080015160098460ff16600681106128345761283461362e565b6003020160020160008282829054906101000a900460ff1661285691906136b4565b92506101000a81548160ff021916908360ff1602179055508060a0015160098360ff16600681106128895761288961362e565b6003020160020160018282829054906101000a900460ff166128ab91906136b4565b92506101000a81548160ff021916908360ff160217905550806080015160098360ff16600681106128de576128de61362e565b6003020160020160008282829054906101000a900460ff1661290091906136cd565b92506101000a81548160ff021916908360ff16021790555050505050565b6000601c8460ff16607881106129365761293661362e565b604080516101008082018352600293840294909401805460ff808216845295810486166020840152919490939285019262010000909204169081111561297e5761297e61304f565b600281111561298f5761298f61304f565b815281546020909101906301000000900460ff1660028111156129b4576129b461304f565b60028111156129c5576129c561304f565b8152815460ff600160201b820481166020840152600160281b820481166040840152606090920191600160301b909104166005811115612a0757612a0761304f565b6005811115612a1857612a1861304f565b815260200160018201548152505090506004601c8560ff1660788110612a4057612a4061362e565b60020201805460ff60301b1916600160301b836005811115612a6457612a6461304f565b0217905550806080015160098460ff1660068110612a8457612a8461362e565b6003020160020160018282829054906101000a900460ff16612aa691906136b4565b92506101000a81548160ff021916908360ff1602179055508060a0015160098460ff1660068110612ad957612ad961362e565b6003020160020160008282829054906101000a900460ff16612afb91906136cd565b92506101000a81548160ff021916908360ff1602179055508060a0015160098360ff1660068110612b2e57612b2e61362e565b6003020160020160018282829054906101000a900460ff16612b5091906136b4565b92506101000a81548160ff021916908360ff1602179055508060a0015160098360ff1660068110612b8357612b8361362e565b6003020160020160008282829054906101000a900460ff1661290091906136b4565b6000601c8460ff1660788110612bbd57612bbd61362e565b604080516101008082018352600293840294909401805460ff8082168452958104861660208401529194909392850192620100009092041690811115612c0557612c0561304f565b6002811115612c1657612c1661304f565b815281546020909101906301000000900460ff166002811115612c3b57612c3b61304f565b6002811115612c4c57612c4c61304f565b8152815460ff600160201b820481166020840152600160281b820481166040840152606090920191600160301b909104166005811115612c8e57612c8e61304f565b6005811115612c9f57612c9f61304f565b815260200160018201548152505090506003601c8560ff1660788110612cc757612cc761362e565b60020201805460ff60301b1916600160301b836005811115612ceb57612ceb61304f565b0217905550806080015160098460ff1660068110612d0b57612d0b61362e565b6003020160020160018282829054906101000a900460ff16612d2d91906136b4565b92506101000a81548160ff021916908360ff1602179055508060a0015160098360ff1660068110612d6057612d6061362e565b6003020160020160018282829054906101000a900460ff1661290091906136b4565b6040805161010081018252600080825260208201819052918101829052606081018290526080810182905260a0810182905260c0810182905260e081019190915290565b6040805161018081018252600080825260208201819052918101829052606081018290526080810182905260a0810182905260c0810182905260e0810182905261010081018290526101208101829052610140810182905261016081019190915290565b50611c5b9060f0810190612e48565b50611c5b906012810190612e72565b5b80821115612e6e57805466ffffffffffffff1916815560006001820155600201612e49565b5090565b5b80821115612e6e5780546001600160a01b03191681556000600182015560028101805469ffffffffffffffffffff19169055600301612e73565b6001600160b81b031981168114611c5b57600080fd5b634e487b7160e01b600052604160045260246000fd5b600067ffffffffffffffff80841115612ef457612ef4612ec3565b604051601f8501601f19908116603f01168101908282118183101715612f1c57612f1c612ec3565b81604052809350858152868686011115612f3557600080fd5b858560208301376000602087830101525050509392505050565b600082601f830112612f6057600080fd5b612f6f83833560208501612ed9565b9392505050565b60008060408385031215612f8957600080fd5b8235612f9481612ead565b9150602083013567ffffffffffffffff811115612fb057600080fd5b612fbc85828601612f4f565b9150509250929050565b600060e0820160ff8a168352602060ff8a16602085015260ff8916604085015260ff881660608501528660808501528560a085015260e060c08501528185518084526101008601915060208701935060005b8181101561303d5784516001600160a01b031683529383019391830191600101613018565b50909c9b505050505050505050505050565b634e487b7160e01b600052602160045260246000fd5b60038110611c5b57611c5b61304f565b6020810161308283613065565b91905290565b803560ff8116811461309957600080fd5b919050565b6000602082840312156130b057600080fd5b612f6f82613088565b60ff815116825260ff602082015116602083015260408101516130db81613065565b604083015260608101516130ee81613065565b8060608401525060ff608082015116608083015260ff60a08201511660a083015260c0810151600681106131245761312461304f565b60c083015260e090810151910152565b61010081016108bb82846130b9565b6020808252825182820181905260009190848201906040850190845b81811015613186576131728385516130b9565b92840192610100929092019160010161315f565b50909695505050505050565b600080604083850312156131a557600080fd5b6131ae83613088565b9150602083013567ffffffffffffffff8111156131ca57600080fd5b8301601f810185136131db57600080fd5b612fbc85823560208401612ed9565b6000806000606084860312156131ff57600080fd5b61320884613088565b925061321660208501613088565b9150604084013567ffffffffffffffff81111561323257600080fd5b61323e86828701612f4f565b9150509250925092565b60006020828403121561325a57600080fd5b813567ffffffffffffffff81111561327157600080fd5b61327d84828501612f4f565b949350505050565b80516001600160a01b031682526020810151602083015260408101516132b0604084018260ff169052565b5060608101516132c5606084018260ff169052565b5060808101516132da608084018260000b9052565b5060a08101516132ef60a084018260000b9052565b5060c081015161330460c084018260000b9052565b5060e081015161331960e084018260000b9052565b506101008181015160ff169083015261012080820151600081900b8285015250506101408082015161334f8285018260000b9052565b5050610160808201516133668285018260000b9052565b50505050565b6020808252825182820181905260009190848201906040850190845b818110156131865761339b838551613285565b928401926101809290920191600101613388565b80356001600160a01b038116811461309957600080fd5b60008060008060008060c087890312156133df57600080fd5b6133e887613088565b95506020870135945060408701359350613404606088016133af565b92506080870135915061341960a08801613088565b90509295509295509295565b61018081016108bb8284613285565b60008060006060848603121561344957600080fd5b8335925061345960208501613088565b915061346760408501613088565b90509250925092565b60006020828403121561348257600080fd5b5035919050565b60006020828403121561349b57600080fd5b612f6f826133af565b600080604083850312156134b757600080fd5b6134c083613088565b91506020830135600381106134d457600080fd5b809150509250929050565b634e487b7160e01b600052601160045260246000fd5b80820281158282048414176108bb576108bb6134df565b60005b8381101561352757818101518382015260200161350f565b50506000910152565b6001600160b81b031983168152815160009061355381600985016020870161350c565b919091016009019392505050565b60006020828403121561357357600080fd5b81518015158114612f6f57600080fd5b60006020828403121561359557600080fd5b8151612f6f81612ead565b6000606082840312156135b257600080fd5b82601f8301126135c157600080fd5b6040516060810181811067ffffffffffffffff821117156135e4576135e4612ec3565b6040528060608401858111156135f957600080fd5b845b81811015613623578051600081810b8214613614578081fd5b508352602092830192016135fb565b509195945050505050565b634e487b7160e01b600052603260045260246000fd5b6000815180845261365c81602086016020860161350c565b601f01601f19169290920160200192915050565b602081526000612f6f6020830184613644565b6001600160f81b03198316815281516000906136a681600185016020870161350c565b919091016001019392505050565b60ff82811682821603908111156108bb576108bb6134df565b60ff81811683821601908111156108bb576108bb6134df565b600060ff821660ff81036136fc576136fc6134df565b60010192915050565b60008160000b607f81036136fc576136fc6134df565b600081810b60808101613730576137306134df565b600019019291505056fea264697066735822122019d9400996f19c01516f44bb82acaae334a58b9136e0fc7684964c81773060b664736f6c63430008170033","linkReferences":{}},"methodIdentifiers":{"answerMatch(uint8,uint8)":"dc71e3b8","cancelMatch(uint8)":"3640f613","closeMatch(uint8,uint8,string)":"32648d7e","getBasicJoiningCost()":"0f9361c3","getDealer()":"9cf6d1af","getDuration()":"ad2e8c9b","getGameId()":"c0bd8351","getGameInfo()":"1746bd1b","getInitialHash()":"74cee9d1","getMatch(uint8)":"23d808da","getMatches()":"2c70120e","getNbrPlayers()":"fcada10a","getPlayerId(address)":"c4ae16a8","getPlayerState(uint8)":"a6d3571d","getPlayersState()":"525f5093","getState()":"1865c57d","isOpen()":"47535d7b","joinGame(string)":"3d536a2e","offerMatch(bytes32,uint8,uint8)":"b6b3b64e","resetGame(uint8,uint256,uint256,address,bytes32,uint8)":"6e328aab","setPlayerHand(uint8,bytes)":"3133888e","setSeed(uint256)":"c32a50f9","verifyDealerHonesty(bytes9,string)":"15822f44","verifyGame()":"b1055add","verifyPlayerHonesty(uint8)":"7bb05431","verifyPlayersHonesty()":"a1455b68"},"id":28}