{"abi":[{"type":"constructor","inputs":[{"name":"airnodeRrp","type":"address","internalType":"address"}],"stateMutability":"nonpayable"},{"type":"function","name":"airnodeRrp","inputs":[],"outputs":[{"name":"","type":"address","internalType":"contract IAirnodeRrpV0"}],"stateMutability":"view"},{"type":"function","name":"ban","inputs":[{"name":"user","type":"address","internalType":"address"}],"outputs":[],"stateMutability":"nonpayable"},{"type":"function","name":"createGame","inputs":[{"name":"initialHash","type":"bytes32","internalType":"bytes32"},{"name":"duration","type":"uint8","internalType":"uint8"}],"outputs":[{"name":"gameId","type":"uint8","internalType":"uint8"},{"name":"gameAddress","type":"address","internalType":"address"}],"stateMutability":"payable"},{"type":"function","name":"fulfillUint256","inputs":[{"name":"requestId","type":"bytes32","internalType":"bytes32"},{"name":"data","type":"bytes","internalType":"bytes"}],"outputs":[],"stateMutability":"nonpayable"},{"type":"function","name":"generateRandomNumberFromSeed","inputs":[{"name":"seed","type":"uint256","internalType":"uint256"},{"name":"range","type":"uint8","internalType":"uint8"}],"outputs":[{"name":"","type":"uint256","internalType":"uint256"}],"stateMutability":"pure"},{"type":"function","name":"getBasicJoiningCost","inputs":[],"outputs":[{"name":"","type":"uint256","internalType":"uint256"}],"stateMutability":"view"},{"type":"function","name":"getCard","inputs":[{"name":"deck","type":"bytes9","internalType":"bytes9"},{"name":"index","type":"uint8","internalType":"uint8"}],"outputs":[{"name":"","type":"uint8","internalType":"uint8"}],"stateMutability":"pure"},{"type":"function","name":"getGame","inputs":[{"name":"gameId","type":"uint256","internalType":"uint256"}],"outputs":[{"name":"","type":"address","internalType":"address"}],"stateMutability":"view"},{"type":"function","name":"getGames","inputs":[],"outputs":[{"name":"","type":"address[20]","internalType":"address[20]"}],"stateMutability":"view"},{"type":"function","name":"getNbrCardsOfPlayer","inputs":[{"name":"deck","type":"bytes9","internalType":"bytes9"},{"name":"playerId","type":"uint8","internalType":"uint8"}],"outputs":[{"name":"result","type":"int8[3]","internalType":"int8[3]"}],"stateMutability":"pure"},{"type":"function","name":"getOpenGames","inputs":[],"outputs":[{"name":"","type":"address[]","internalType":"address[]"}],"stateMutability":"view"},{"type":"function","name":"getRequestParameters","inputs":[],"outputs":[{"name":"","type":"address","internalType":"address"},{"name":"","type":"bytes32","internalType":"bytes32"},{"name":"","type":"address","internalType":"address"}],"stateMutability":"view"},{"type":"function","name":"isBanned","inputs":[{"name":"user","type":"address","internalType":"address"}],"outputs":[{"name":"","type":"bool","internalType":"bool"}],"stateMutability":"view"},{"type":"function","name":"isValidDeck","inputs":[{"name":"deck","type":"bytes9","internalType":"bytes9"}],"outputs":[{"name":"","type":"bool","internalType":"bool"}],"stateMutability":"pure"},{"type":"function","name":"owner","inputs":[],"outputs":[{"name":"","type":"address","internalType":"address"}],"stateMutability":"view"},{"type":"function","name":"renounceOwnership","inputs":[],"outputs":[],"stateMutability":"nonpayable"},{"type":"function","name":"requestToGameAddress","inputs":[{"name":"requestId","type":"bytes32","internalType":"bytes32"}],"outputs":[{"name":"gameAddress","type":"address","internalType":"address"}],"stateMutability":"view"},{"type":"function","name":"setCard","inputs":[{"name":"deck","type":"bytes9","internalType":"bytes9"},{"name":"index","type":"uint8","internalType":"uint8"},{"name":"card","type":"uint8","internalType":"uint8"}],"outputs":[{"name":"","type":"bytes9","internalType":"bytes9"}],"stateMutability":"pure"},{"type":"function","name":"setGameCreationFee","inputs":[{"name":"gameCreationFee","type":"uint256","internalType":"uint256"}],"outputs":[],"stateMutability":"nonpayable"},{"type":"function","name":"setRequestParameters","inputs":[{"name":"airnode","type":"address","internalType":"address"},{"name":"endpointId","type":"bytes32","internalType":"bytes32"},{"name":"sponsorWallet","type":"address","internalType":"address"}],"outputs":[],"stateMutability":"nonpayable"},{"type":"function","name":"setStarCost","inputs":[{"name":"starCost","type":"uint256","internalType":"uint256"}],"outputs":[],"stateMutability":"nonpayable"},{"type":"function","name":"setWinningsCut","inputs":[{"name":"winningsCut","type":"uint8","internalType":"uint8"}],"outputs":[],"stateMutability":"nonpayable"},{"type":"function","name":"shuffleDeck","inputs":[{"name":"deck","type":"bytes9","internalType":"bytes9"},{"name":"seed","type":"uint256","internalType":"uint256"}],"outputs":[{"name":"","type":"bytes9","internalType":"bytes9"}],"stateMutability":"pure"},{"type":"function","name":"transferOwnership","inputs":[{"name":"newOwner","type":"address","internalType":"address"}],"outputs":[],"stateMutability":"nonpayable"},{"type":"function","name":"unban","inputs":[{"name":"user","type":"address","internalType":"address"}],"outputs":[],"stateMutability":"nonpayable"},{"type":"function","name":"withdraw","inputs":[],"outputs":[],"stateMutability":"nonpayable"},{"type":"function","name":"withdrawGameCut","inputs":[{"name":"gameId","type":"uint8","internalType":"uint8"}],"outputs":[],"stateMutability":"nonpayable"},{"type":"event","name":"GameCreated","inputs":[{"name":"gameId","type":"uint256","indexed":true,"internalType":"uint256"},{"name":"gameAddress","type":"address","indexed":true,"internalType":"address"}],"anonymous":false},{"type":"event","name":"GameJoined","inputs":[{"name":"gameId","type":"uint256","indexed":true,"internalType":"uint256"},{"name":"player","type":"address","indexed":false,"internalType":"address"}],"anonymous":false},{"type":"event","name":"OwnershipTransferred","inputs":[{"name":"previousOwner","type":"address","indexed":true,"internalType":"address"},{"name":"newOwner","type":"address","indexed":true,"internalType":"address"}],"anonymous":false},{"type":"event","name":"ReceivedUint256","inputs":[{"name":"requestId","type":"bytes32","indexed":true,"internalType":"bytes32"},{"name":"response","type":"uint256","indexed":false,"internalType":"uint256"}],"anonymous":false},{"type":"event","name":"RequestedUint256","inputs":[{"name":"requestId","type":"bytes32","indexed":true,"internalType":"bytes32"}],"anonymous":false},{"type":"event","name":"WithdrawalRequested","inputs":[{"name":"airnode","type":"address","indexed":true,"internalType":"address"},{"name":"sponsorWallet","type":"address","indexed":true,"internalType":"address"}],"anonymous":false},{"type":"error","name":"GameDoesNotExist","inputs":[]},{"type":"error","name":"RestrictedRPSFactory_DurationTooLong","inputs":[]},{"type":"error","name":"RestrictedRPSFactory_InvalidGameId","inputs":[{"name":"gameId","type":"uint256","internalType":"uint256"}]},{"type":"error","name":"RestrictedRPSFactory_PlayerBanned","inputs":[{"name":"player","type":"address","internalType":"address"}]},{"type":"error","name":"RestrictedRPSFactory_SendMore","inputs":[]},{"type":"error","name":"RestrictedRPSFactory_TooManyOpenGames","inputs":[]}],"bytecode":{"object":"0x60a0604052600160058190556006805460ff1916821790556509184e72a00060078190556008556200003390601462000143565b601e805460ff191660ff929092169190911790553480156200005457600080fd5b506040516200612c3803806200612c833981016040819052620000779162000171565b80806200008433620000f3565b6001600160a01b0381166080819052604051632b77c09f60e21b81523060048201526001602482015263addf027c90604401600060405180830381600087803b158015620000d157600080fd5b505af1158015620000e6573d6000803e3d6000fd5b50505050505050620001a3565b600080546001600160a01b038381166001600160a01b0319831681178455604051919092169283917f8be0079c531659141344cd1fd0a4f28419497f9722a3daafe3b4186f6b6457e09190a35050565b60ff82811682821603908111156200016b57634e487b7160e01b600052601160045260246000fd5b92915050565b6000602082840312156200018457600080fd5b81516001600160a01b03811681146200019c57600080fd5b9392505050565b608051615f5f620001cd60003960008181610378015281816107b801526113e40152615f5f6000f3fe608060405260043610620001be5760003560e01c806381452f0611620000ff578063b9f145571162000095578063e75d7e3e116200006c578063e75d7e3e14620005d6578063f2fde38b14620005fd578063f3304bbf1462000622578063f6cca6e2146200064757600080fd5b8063b9f145571462000551578063c04c59471462000576578063e671cdae146200059d57600080fd5b806397c3ccd811620000d657806397c3ccd8146200048557806397f735d514620004aa578063a2f77bcc14620004f8578063a9c82606146200051d57600080fd5b806381452f0614620003fe57806381fea3b514620004235780638da5cb5b146200046557600080fd5b80635b282cba1162000175578063715018a6116200014c578063715018a6146200034c57806371bab666146200036457806371ca3053146200039a5780637bdf252514620003d957600080fd5b80635b282cba14620002af57806361ba206214620002d45780636e9b2dc0146200032757600080fd5b80630998537e14620001c35780630be7544914620001ea5780630f9361c3146200020f57806311aa10c7146200023a5780633718d90a14620002725780633ccfd60b1462000297575b600080fd5b348015620001d057600080fd5b50620001e8620001e23660046200150d565b6200066c565b005b348015620001f757600080fd5b50620001e8620002093660046200152b565b62000701565b3480156200021c57600080fd5b506200022762000710565b6040519081526020015b60405180910390f35b3480156200024757600080fd5b506200025f620002593660046200155e565b62000729565b60405160ff909116815260200162000231565b3480156200027f57600080fd5b50620001e86200029136600462001596565b620007ad565b348015620002a457600080fd5b50620001e86200090c565b348015620002bc57600080fd5b50620001e8620002ce3660046200150d565b62000954565b348015620002e157600080fd5b506200030e620002f33660046200152b565b6004602052600090815260409020546001600160a01b031681565b6040516001600160a01b03909116815260200162000231565b3480156200033457600080fd5b50620001e8620003463660046200152b565b62000974565b3480156200035957600080fd5b50620001e862000983565b3480156200037157600080fd5b506200030e7f000000000000000000000000000000000000000000000000000000000000000081565b348015620003a757600080fd5b50620003bf620003b936600462001617565b6200099b565b6040516001600160b81b0319909116815260200162000231565b348015620003e657600080fd5b50620001e8620003f836600462001679565b620009d8565b3480156200040b57600080fd5b50620003bf6200041d366004620016b1565b62000a16565b3480156200043057600080fd5b50600154600254600354604080516001600160a01b039485168152602081019390935292169181019190915260600162000231565b3480156200047257600080fd5b506000546001600160a01b03166200030e565b3480156200049257600080fd5b50620001e8620004a4366004620016de565b62000a9a565b348015620004b757600080fd5b50620004e7620004c9366004620016de565b6001600160a01b031660009081526009602052604090205460ff1690565b604051901515815260200162000231565b3480156200050557600080fd5b506200030e620005173660046200152b565b62000ac8565b3480156200052a57600080fd5b50620005426200053c3660046200155e565b62000af1565b604051620002319190620016fc565b3480156200055e57600080fd5b50620001e862000570366004620016de565b62000b8d565b3480156200058357600080fd5b506200058e62000bb8565b60405162000231919062001733565b620005b4620005ae36600462001770565b62000c01565b6040805160ff90931683526001600160a01b0390911660208301520162000231565b348015620005e357600080fd5b50620005ee62000f06565b60405162000231919062001796565b3480156200060a57600080fd5b50620001e86200061c366004620016de565b62001106565b3480156200062f57600080fd5b50620004e762000641366004620017e5565b62001182565b3480156200065457600080fd5b50620002276200066636600462001770565b62001296565b62000676620012d5565b6000600a8260ff166014811062000691576200069162001803565b0160009054906101000a90046001600160a01b03169050806001600160a01b0316633ccfd60b6040518163ffffffff1660e01b8152600401600060405180830381600087803b158015620006e457600080fd5b505af1158015620006f9573d6000803e3d6000fd5b505050505050565b6200070b620012d5565b600555565b60075460009062000724906003906200182f565b905090565b6000806200073a600260086200185f565b6200074690846200185f565b6200075390600862001884565b905060006002620007668160086200185f565b620007729086620018a0565b6200077e9190620018c5565b90508060ff16858360ff16600981106200079c576200079c62001803565b1a901c600316925050505b92915050565b336001600160a01b037f00000000000000000000000000000000000000000000000000000000000000001614620008245760405162461bcd60e51b8152602060048201526016602482015275043616c6c6572206e6f74204169726e6f6465205252560541b60448201526064015b60405180910390fd5b6000838152600460205260409020546001600160a01b0316806200085b57604051631fedf07560e01b815260040160405180910390fd5b60006200086b838501856200152b565b60405163c32a50f960e01b8152600481018290529091506001600160a01b0383169063c32a50f990602401600060405180830381600087803b158015620008b157600080fd5b505af1158015620008c6573d6000803e3d6000fd5b50505050847f1ca47bacd454c26163f84eff4aa514e291ba9fa67ad6029e39567c122bbed30f82604051620008fd91815260200190565b60405180910390a25050505050565b62000916620012d5565b600080546040516001600160a01b03909116914780156108fc02929091818181858888f1935050505015801562000951573d6000803e3d6000fd5b50565b6200095e620012d5565b6006805460ff191660ff92909216919091179055565b6200097e620012d5565b600755565b6200098d620012d5565b62000999600062001331565b565b600080620009ab600285620018c5565b600360b81b60ff9190911690811b199590951660b89390931b60ff60b81b1690941b919091179392505050565b620009e2620012d5565b600180546001600160a01b039485166001600160a01b03199182161790915560029290925560038054919093169116179055565b600060235b60ff81161562000a9257600062000a398462000666846001620018eb565b9050600062000a49868462000729565b9050600062000a59878462000729565b905062000a688785836200099b565b965062000a778784846200099b565b9650505050808062000a899062001907565b91505062000a1b565b509192915050565b62000aa4620012d5565b6001600160a01b03166000908152600960205260409020805460ff19166001179055565b6000600a826014811062000ae05762000ae062001803565b01546001600160a01b031692915050565b62000afb620014ab565b600062000b0a600684620018c5565b905060005b600660ff8216101562000b8557600062000b2a8284620018eb565b9050600062000b3a878362000729565b9050848160ff166003811062000b545762000b5462001803565b6020020180519062000b668262001927565b60000b90525082915062000b7c90508162001949565b91505062000b0f565b505092915050565b62000b97620012d5565b6001600160a01b03166000908152600960205260409020805460ff19169055565b62000bc2620014c9565b6040805161028081019182905290600a9060149082845b81546001600160a01b0316815260019091019060200180831162000bd9575050505050905090565b33600090815260096020526040812054819060ff161562000c3857604051634114689b60e11b81523360048201526024016200081b565b60055434101562000c5c5760405163e7781c5960e01b815260040160405180910390fd5b601e5460149062000c729060ff166001620018eb565b62000c7e9190620018a0565b9150600a8260ff166014811062000c995762000c9962001803565b01546001600160a01b03169050801562000dd957806005816001600160a01b0316631865c57d6040518163ffffffff1660e01b8152600401602060405180830381865afa15801562000cef573d6000803e3d6000fd5b505050506040513d601f19601f8201168201806040525081019062000d15919062001978565b600581111562000d295762000d2962001962565b1462000d4857604051630b37dc9160e01b815260040160405180910390fd5b600654600754600854604051636e328aab60e01b815260ff9384166004820152602481019290925260448201523360648201526084810187905290851660a48201526001600160a01b03821690636e328aab9060c401600060405180830381600087803b15801562000db957600080fd5b505af115801562000dce573d6000803e3d6000fd5b505050505062000eac565b60003083600660009054906101000a900460ff16600754600854338a8a60405162000e0490620014e8565b6001600160a01b03988916815260ff978816602082015295871660408701526060860194909452608085019290925290941660a083015260c0820193909352911660e082015261010001604051809103906000f08015801562000e6b573d6000803e3d6000fd5b50905080915081600a8460ff166014811062000e8b5762000e8b62001803565b0180546001600160a01b0319166001600160a01b0392909216919091179055505b601e805460ff191660ff841617905562000ec68162001381565b6040516001600160a01b0382169060ff8416907fc3e0f84839dc888c892a013d10c8f9d6dc05a21a879d0ce468ca558013e9121c90600090a39250929050565b6040805160148082526102a082019092526060916000919060208201610280803683370190505090506000805b601460ff8216101562001038576000600a8260ff166014811062000f5b5762000f5b62001803565b01546001600160a01b03169050801562001022576000819050806001600160a01b03166347535d7b6040518163ffffffff1660e01b8152600401602060405180830381865afa15801562000fb3573d6000803e3d6000fd5b505050506040513d601f19601f8201168201806040525081019062000fd99190620019b1565b15620010205781858560ff168151811062000ff85762000ff862001803565b6001600160a01b0390921660209283029190910190910152836200101c8162001949565b9450505b505b50806200102f8162001949565b91505062000f33565b5060008160ff1667ffffffffffffffff8111156200105a576200105a6200199b565b60405190808252806020026020018201604052801562001084578160200160208202803683370190505b50905060005b8260ff168160ff161015620010fe57838160ff1681518110620010b157620010b162001803565b6020026020010151828260ff1681518110620010d157620010d162001803565b6001600160a01b039092166020928302919091019091015280620010f58162001949565b9150506200108a565b509392505050565b62001110620012d5565b6001600160a01b038116620011775760405162461bcd60e51b815260206004820152602660248201527f4f776e61626c653a206e6577206f776e657220697320746865207a65726f206160448201526564647265737360d01b60648201526084016200081b565b620009518162001331565b60006200118e620014ab565b60005b6200119e600680620018c5565b60ff168160ff16101562001203576000620011ba858362000729565b9050828160ff1660038110620011d457620011d462001803565b60200201805190620011e68262001949565b60ff16905250819050620011fa8162001949565b91505062001191565b50600362001213600680620018c5565b6200121f91906200185f565b815160ff90811691161480156200125c5750600362001240600680620018c5565b6200124c91906200185f565b60ff16816001602002015160ff16145b80156200128f5750600362001273600680620018c5565b6200127f91906200185f565b60ff16816002602002015160ff16145b9392505050565b60008160ff1683604051602001620012b091815260200190565b6040516020818303038152906040528051906020012060001c6200128f9190620019d5565b6000546001600160a01b03163314620009995760405162461bcd60e51b815260206004820181905260248201527f4f776e61626c653a2063616c6c6572206973206e6f7420746865206f776e657260448201526064016200081b565b600080546001600160a01b038381166001600160a01b0319831681178455604051919092169283917f8be0079c531659141344cd1fd0a4f28419497f9722a3daafe3b4186f6b6457e09190a35050565b600154600254600354604051636e6be03f60e01b81526001600160a01b0393841660048201526024810192909252306044830181905290831660648301526084820152631b8c6c8560e11b60a482015260e060c4820152600060e48201819052917f00000000000000000000000000000000000000000000000000000000000000001690636e6be03f90610104016020604051808303816000875af11580156200142f573d6000803e3d6000fd5b505050506040513d601f19601f82011682018060405250810190620014559190620019ec565b60008181526004602052604080822080546001600160a01b0319166001600160a01b0387161790555191925082917fcba2da2f3c0c732a104019a3104936397dde7343964c1518ceb760052e4537b19190a25050565b60405180606001604052806003906020820280368337509192915050565b6040518061028001604052806014906020820280368337509192915050565b6145238062001a0783390190565b803560ff811681146200150857600080fd5b919050565b6000602082840312156200152057600080fd5b6200128f82620014f6565b6000602082840312156200153e57600080fd5b5035919050565b80356001600160b81b0319811681146200150857600080fd5b600080604083850312156200157257600080fd5b6200157d8362001545565b91506200158d60208401620014f6565b90509250929050565b600080600060408486031215620015ac57600080fd5b83359250602084013567ffffffffffffffff80821115620015cc57600080fd5b818601915086601f830112620015e157600080fd5b813581811115620015f157600080fd5b8760208285010111156200160457600080fd5b6020830194508093505050509250925092565b6000806000606084860312156200162d57600080fd5b620016388462001545565b92506200164860208501620014f6565b91506200165860408501620014f6565b90509250925092565b80356001600160a01b03811681146200150857600080fd5b6000806000606084860312156200168f57600080fd5b6200169a8462001661565b925060208401359150620016586040850162001661565b60008060408385031215620016c557600080fd5b620016d08362001545565b946020939093013593505050565b600060208284031215620016f157600080fd5b6200128f8262001661565b6060810181836000805b600381101562001729578251820b84526020938401939092019160010162001706565b5050505092915050565b6102808101818360005b6014811015620017675781516001600160a01b03168352602092830192909101906001016200173d565b50505092915050565b600080604083850312156200178457600080fd5b823591506200158d60208401620014f6565b6020808252825182820181905260009190848201906040850190845b81811015620017d95783516001600160a01b031683529284019291840191600101620017b2565b50909695505050505050565b600060208284031215620017f857600080fd5b6200128f8262001545565b634e487b7160e01b600052603260045260246000fd5b634e487b7160e01b600052601160045260246000fd5b8082028115828204841417620007a757620007a762001819565b634e487b7160e01b600052601260045260246000fd5b600060ff83168062001875576200187562001849565b8060ff84160491505092915050565b60ff8281168282160390811115620007a757620007a762001819565b600060ff831680620018b657620018b662001849565b8060ff84160691505092915050565b60ff8181168382160290811690818114620018e457620018e462001819565b5092915050565b60ff8181168382160190811115620007a757620007a762001819565b600060ff8216806200191d576200191d62001819565b6000190192915050565b60008160000b607f810362001940576200194062001819565b60010192915050565b600060ff821660ff810362001940576200194062001819565b634e487b7160e01b600052602160045260246000fd5b6000602082840312156200198b57600080fd5b8151600681106200128f57600080fd5b634e487b7160e01b600052604160045260246000fd5b600060208284031215620019c457600080fd5b815180151581146200128f57600080fd5b600082620019e757620019e762001849565b500690565b600060208284031215620019ff57600080fd5b505191905056fe60c06040523480156200001157600080fd5b50604051620045233803806200452383398101604081905262000034916200011f565b6001600160a01b03881660805260ff871660a0526200005886868686868662000066565b505050505050505062000208565b6000805460ff88811660ff1990921691909117825560018790556002869055600380546001600160a01b0387166001600160a01b031990911617905560048490556007805460059390935590831662ff00ff19909216821762010000179055620000d49062015180620001c2565b620000e59062ffffff1642620001ec565b600655505050505050565b80516001600160a01b03811681146200010857600080fd5b919050565b805160ff811681146200010857600080fd5b600080600080600080600080610100898b0312156200013d57600080fd5b6200014889620000f0565b97506200015860208a016200010d565b96506200016860408a016200010d565b955060608901519450608089015193506200018660a08a01620000f0565b925060c089015191506200019d60e08a016200010d565b90509295985092959890939650565b634e487b7160e01b600052601160045260246000fd5b62ffffff818116838216028082169190828114620001e457620001e4620001ac565b505092915050565b80820180821115620002025762000202620001ac565b92915050565b60805160a0516142c46200025f600039600081816104f40152610a7701526000818161065b015281816107520152818161080b01528181611532015281816115ba01528181611b9f015261274701526142c46000f3fe6080604052600436106101cd5760003560e01c80636e328aab116100f7578063a6d3571d11610095578063c32a50f911610064578063c32a50f914610518578063c4ae16a814610538578063dc71e3b81461056b578063fcada10a1461058b57600080fd5b8063a6d3571d14610480578063ad2e8c9b146104ad578063b6b3b64e146104c5578063c0bd8351146104e557600080fd5b80637c1b7f8a116100d15780637c1b7f8a1461040e5780638fd4aa05146104235780639cf6d1af146104435780639f05a36d1461046b57600080fd5b80636e328aab146103c457806374cee9d1146103e4578063786b844b146103f957600080fd5b806332648d7e1161016f5780633d536a2e1161013e5780633d536a2e1461035357806347535d7b14610378578063525f50931461038d5780635e7303d4146103af57600080fd5b806332648d7e146102e95780633640f6131461030957806339e7357c146103295780633ccfd60b1461033e57600080fd5b80631865c57d116101ab5780631865c57d1461025257806323d808da146102785780632c70120e146102a55780633133888e146102c757600080fd5b80630f9361c3146101d257806315822f44146101fa5780631746bd1b1461022a575b600080fd5b3480156101de57600080fd5b506101e76105a8565b6040519081526020015b60405180910390f35b34801561020657600080fd5b5061021a610215366004613a3c565b6105bf565b60405190151581526020016101f1565b34801561023657600080fd5b5061023f61098e565b6040516101f19796959493929190613a8c565b34801561025e57600080fd5b5060075462010000900460ff166040516101f19190613b39565b34801561028457600080fd5b50610298610293366004613b62565b610aba565b6040516101f19190613c03565b3480156102b157600080fd5b506102ba610bfb565b6040516101f19190613c12565b3480156102d357600080fd5b506102e76102e2366004613c61565b610dac565b005b3480156102f557600080fd5b506102e7610304366004613cb9565b610ea5565b34801561031557600080fd5b506102e7610324366004613b62565b6112b6565b34801561033557600080fd5b506005546101e7565b34801561034a57600080fd5b506102e7611527565b610366610361366004613d17565b611605565b60405160ff90911681526020016101f1565b34801561038457600080fd5b5061021a6119d0565b34801561039957600080fd5b506103a26119f6565b6040516101f19190613e49565b3480156103bb57600080fd5b506001546101e7565b3480156103d057600080fd5b506102e76103df366004613ea3565b611b94565b3480156103f057600080fd5b506004546101e7565b34801561040557600080fd5b506102e7611c5d565b34801561041a57600080fd5b506102e7611d1a565b34801561042f57600080fd5b506101e761043e366004613b62565b6120f4565b34801561044f57600080fd5b506003546040516001600160a01b0390911681526020016101f1565b34801561047757600080fd5b506006546101e7565b34801561048c57600080fd5b506104a061049b366004613b62565b61223b565b6040516101f19190613f02565b3480156104b957600080fd5b5060075460ff16610366565b3480156104d157600080fd5b506103666104e0366004613f11565b61236e565b3480156104f157600080fd5b507f0000000000000000000000000000000000000000000000000000000000000000610366565b34801561052457600080fd5b506102e7610533366004613f4d565b61273c565b34801561054457600080fd5b50610558610553366004613f66565b612808565b60405160009190910b81526020016101f1565b34801561057757600080fd5b506102e7610586366004613f81565b61287c565b34801561059757600080fd5b50600754610100900460ff16610366565b6001546000906105ba90600390613fd2565b905090565b6003546000906001600160a01b031633146105ed5760405163730d477360e11b815260040160405180910390fd5b6000838360405160200161060292919061400d565b604051602081830303815290604052805190602001209050806004541461063c5760405163a5ab2a5960e01b815260040160405180910390fd5b60405163f3304bbf60e01b81526001600160b81b0319851660048201527f00000000000000000000000000000000000000000000000000000000000000006001600160a01b03169063f3304bbf90602401602060405180830381865afa1580156106aa573d6000803e3d6000fd5b505050506040513d601f19601f820116820180604052508101906106ce919061403e565b610725576007805462ff00001916620200001790556003546040516001600160a01b03909116907ff06e016360df4c9b017c99214597c4e45c240c89602b99ee310848b7c630cbcc90600090a26000915050610988565b6005546040516340a2978360e11b81526001600160b81b03198616600482015260248101919091526000907f00000000000000000000000000000000000000000000000000000000000000006001600160a01b0316906381452f0690604401602060405180830381865afa1580156107a1573d6000803e3d6000fd5b505050506040513d601f19601f820116820180604052508101906107c59190614060565b905060005b60075460ff6101009091048116908216101561096f576040516354e4130360e11b81526001600160b81b03198316600482015260ff821660248201526000907f00000000000000000000000000000000000000000000000000000000000000006001600160a01b03169063a9c8260690604401606060405180830381865afa15801561085a573d6000803e3d6000fd5b505050506040513d601f19601f8201168201806040525081019061087e919061407d565b8051909150600860ff8416600681106108995761089961410b565b6004020160030160076101000a81548160ff021916908360000b60ff160217905550806001600381106108ce576108ce61410b565b602002015160088360ff16600681106108e9576108e961410b565b6004020160030160086101000a81548160ff021916908360000b60ff1602179055508060026003811061091e5761091e61410b565b602002015160088360ff16600681106109395761093961410b565b6004020160030160096101000a81548160ff021916908360000b60ff16021790555050808061096790614121565b9150506107ca565b50506007805462ff000019166203000017905550600190505b92915050565b60075460009081908190819081908190606090610100900460ff16828167ffffffffffffffff8111156109c3576109c3613989565b6040519080825280602002602001820160405280156109ec578160200160208202803683370190505b50905060005b8260ff168160ff161015610a685760088160ff1660068110610a1657610a1661410b565b600402015482516001600160a01b0390911690839060ff8416908110610a3e57610a3e61410b565b6001600160a01b039092166020928302919091019091015280610a6081614121565b9150506109f2565b506007546020546001546002547f00000000000000000000000000000000000000000000000000000000000000009d60ff610100860481169e509384169c509290931699509750909550909350915050565b610ac2613830565b602054829060ff90811690821610610aed576040516311eb888760e31b815260040160405180910390fd5b60218360ff1660788110610b0357610b0361410b565b604080516101008082018352600293840294909401805460ff8082168452958104861660208401529194909392850192620100009092041690811115610b4b57610b4b613b13565b6002811115610b5c57610b5c613b13565b815281546020909101906301000000900460ff166002811115610b8157610b81613b13565b6002811115610b9257610b92613b13565b8152815460ff600160201b820481166020840152600160281b820481166040840152606090920191600160301b909104166005811115610bd457610bd4613b13565b6005811115610be557610be5613b13565b8152602001600182015481525050915050919050565b60205460609060ff1660008167ffffffffffffffff811115610c1f57610c1f613989565b604051908082528060200260200182016040528015610c5857816020015b610c45613830565b815260200190600190039081610c3d5790505b50905060005b8260ff168160ff161015610da55760218160ff1660788110610c8257610c8261410b565b604080516101008082018352600293840294909401805460ff8082168452958104861660208401529194909392850192620100009092041690811115610cca57610cca613b13565b6002811115610cdb57610cdb613b13565b815281546020909101906301000000900460ff166002811115610d0057610d00613b13565b6002811115610d1157610d11613b13565b8152815460ff600160201b820481166020840152600160281b820481166040840152606090920191600160301b909104166005811115610d5357610d53613b13565b6005811115610d6457610d64613b13565b8152602001600182015481525050828260ff1681518110610d8757610d8761410b565b60200260200101819052508080610d9d90614121565b915050610c5e565b5092915050565b600754829060ff610100909104811690821610610ddc57604051630e0a2aa160e11b815260040160405180910390fd5b6003546001600160a01b03163314610e075760405163730d477360e11b815260040160405180910390fd5b600660088460ff1660068110610e1f57610e1f61410b565b6004020160030160026101000a81548160ff021916908360000b60ff16021790555060088360ff1660068110610e5757610e5761410b565b60040201546040516001600160a01b03909116907f675e261a416100b60f1c071c20fd8b07e1e242d28313ee7638d4d44614a2d4e690610e9890859061416c565b60405180910390a2505050565b602054839060ff90811690821610610ed0576040516311eb888760e31b815260040160405180910390fd5b600060218560ff1660788110610ee857610ee861410b565b604080516101008082018352600293840294909401805460ff8082168452958104861660208401529194909392850192620100009092041690811115610f3057610f30613b13565b6002811115610f4157610f41613b13565b815281546020909101906301000000900460ff166002811115610f6657610f66613b13565b6002811115610f7757610f77613b13565b8152815460ff600160201b820481166020840152600160281b820481166040840152606090920191600160301b909104166005811115610fb957610fb9613b13565b6005811115610fca57610fca613b13565b81526001918201546020909101529091508160c001516005811115610ff157610ff1613b13565b1461100f57604051633018e60760e21b815260040160405180910390fd5b60008460f81b8460405160200161102792919061417f565b604051602081830303815290604052805190602001209050808260e001511461106357604051633b74e52960e11b815260040160405180910390fd5b60008560ff16600281111561107a5761107a613b13565b90508060218860ff16607881106110935761109361410b565b6002020160000160026101000a81548160ff021916908360028111156110bb576110bb613b13565b0217905550606083015183516110d19083612b87565b6110df846020015182612b87565b600060028360028111156110f5576110f5613b13565b60ff161115611115576111118986600001518760200151612d08565b5060055b600282600281111561112957611129613b13565b60ff161115611149576111458986600001518760200151612fad565b5060045b81600281111561115b5761115b613b13565b83600281111561116d5761116d613b13565b0361118d576111858986600001518760200151613234565b506003611266565b60008360028111156111a1576111a1613b13565b1480156111bf575060028260028111156111bd576111bd613b13565b145b806111f7575060018360028111156111d9576111d9613b13565b1480156111f7575060008260028111156111f5576111f5613b13565b145b8061122f5750600283600281111561121157611211613b13565b14801561122f5750600182600281111561122d5761122d613b13565b145b1561124f576112478986600001518760200151612fad565b506004611266565b6112628986600001518760200151612d08565b5060055b80600581111561127857611278613b13565b60ff168960ff167f16ee0aa4913ca9b3502ba060565c5e7016a69fa5853154a2611b73f45f48383960405160405180910390a3505050505050505050565b602054819060ff908116908216106112e1576040516311eb888760e31b815260040160405180910390fd5b600060218360ff16607881106112f9576112f961410b565b604080516101008082018352600293840294909401805460ff808216845295810486166020840152919490939285019262010000909204169081111561134157611341613b13565b600281111561135257611352613b13565b815281546020909101906301000000900460ff16600281111561137757611377613b13565b600281111561138857611388613b13565b8152815460ff600160201b820481166020840152600160281b820481166040840152606090920191600160301b9091041660058111156113ca576113ca613b13565b60058111156113db576113db613b13565b815260019190910154602090910152805190915060006113fa33612808565b90508060000b8260000b14611422576040516334e24b8360e21b815260040160405180910390fd5b60c0830151600081600581111561143b5761143b613b13565b1461145957604051637021339d60e11b815260040160405180910390fd5b836080015160088460ff16600681106114745761147461410b565b6004020160030160018282829054906101000a900460ff1661149691906141b0565b92506101000a81548160ff021916908360ff160217905550600260218760ff16607881106114c6576114c661410b565b60020201805460ff60301b1916600160301b8360058111156114ea576114ea613b13565b0217905550604051339060ff8816907f34d66c87f348a9492b2a7fe1463b02de9cab509ca7872ee83878909d9805c3a890600090a3505050505050565b336001600160a01b037f0000000000000000000000000000000000000000000000000000000000000000161461157057604051633f9db83960e01b815260040160405180910390fd5b600560075462010000900460ff16600581111561158f5761158f613b13565b146115ad576040516368ac9bad60e01b815260040160405180910390fd5b6040516001600160a01b037f000000000000000000000000000000000000000000000000000000000000000016904780156108fc02916000818181858888f19350505050158015611602573d6000803e3d6000fd5b50565b6000336116106105a8565b3410156116305760405163e71ff98960e01b815260040160405180910390fd5b600060075462010000900460ff16600581111561164f5761164f613b13565b1461166d5760405163817b163760e01b815260040160405180910390fd5b6003546001600160a01b0380831691160361169b5760405163031ee3ed60e51b815260040160405180910390fd5b600754610100900460ff16915060066116b58360016141c9565b60ff1611156116d75760405163380d3cc160e11b815260040160405180910390fd5b60005b8260ff168160ff16101561174657816001600160a01b031660088260ff16600681106117085761170861410b565b60040201546001600160a01b03160361173457604051639bec841d60e01b815260040160405180910390fd5b8061173e81614121565b9150506116da565b5061174f613874565b6001600160a01b03821681526003606082015234602082015280600860ff85166006811061177f5761177f61410b565b6004020160008201518160000160006101000a8154816001600160a01b0302191690836001600160a01b03160217905550602082015181600101556040820151816002015560608201518160030160006101000a81548160ff021916908360ff16021790555060808201518160030160016101000a81548160ff021916908360ff16021790555060a08201518160030160026101000a81548160ff021916908360000b60ff16021790555060c08201518160030160036101000a81548160ff021916908360000b60ff16021790555060e08201518160030160046101000a81548160ff021916908360000b60ff1602179055506101008201518160030160056101000a81548160ff021916908360000b60ff1602179055506101208201518160030160066101000a81548160ff021916908360ff1602179055506101408201518160030160076101000a81548160ff021916908360000b60ff1602179055506101608201518160030160086101000a81548160ff021916908360000b60ff1602179055506101808201518160030160096101000a81548160ff021916908360000b60ff1602179055506101a082015181600301600a6101000a81548160ff0219169083151502179055509050506007600181819054906101000a900460ff168092919061196b90614121565b91906101000a81548160ff021916908360ff16021790555050816001600160a01b03168360ff167fdc70164a0afb7ca145a827fd238ec265b666c335c24a0afa2a33aab37362b4e1866040516119c1919061416c565b60405180910390a35050919050565b60008060075462010000900460ff1660058111156119f0576119f0613b13565b14905090565b600754606090610100900460ff1660008167ffffffffffffffff811115611a1f57611a1f613989565b604051908082528060200260200182016040528015611a5857816020015b611a45613874565b815260200190600190039081611a3d5790505b50905060005b8260ff168160ff161015610da55760088160ff1660068110611a8257611a8261410b565b604080516101c0810182526004929092029290920180546001600160a01b031682526001810154602083015260028101549282019290925260039091015460ff808216606084015261010080830482166080850152620100008304600090810b60a086015263010000008404810b60c0860152600160201b8404810b60e0860152600160281b8404810b91850191909152600160301b83048216610120850152600160381b8304810b610140850152600160401b8304810b610160850152600160481b8304900b610180840152600160501b909104811615156101a0830152835184918416908110611b7657611b7661410b565b60200260200101819052508080611b8c90614121565b915050611a5e565b336001600160a01b037f00000000000000000000000000000000000000000000000000000000000000001614611bdd57604051633f9db83960e01b815260040160405180910390fd5b600560075462010000900460ff166005811115611bfc57611bfc613b13565b14611c1a5760405163ad6418ff60e01b815260040160405180910390fd5b6020805460ff19169055611c30602160006138e8565b6007805461ff0019169055611c47600860006138f7565b611c55868686868686613411565b505050505050565b60075462010000900460ff166002816005811115611c7d57611c7d613b13565b1480611cb457506000816005811115611c9857611c98613b13565b148015611cb45750600654611cb090620151806141e2565b4210155b15611cd557611cc1613497565b506007805462ff0000191662050000179055565b600460075462010000900460ff166005811115611cf457611cf4613b13565b03611d0157611cc1613626565b60405163059546f560e21b815260040160405180910390fd5b600360075462010000900460ff166005811115611d3957611d39613b13565b14611d57576040516320ca0a1560e21b815260040160405180910390fd5b600754610100900460ff166000805b8260ff168160ff161015611f8957600060088260ff1660068110611d8c57611d8c61410b565b604080516101c0810182526004929092029290920180546001600160a01b031682526001810154602083015260028101549282019290925260039091015460ff808216606084015261010080830482166080850152620100008304600090810b60a0860181905263010000008504820b60c0870152600160201b8504820b60e0870152600160281b8504820b92860192909252600160301b84048316610120860152600160381b8404810b610140860152600160401b8404810b610160860152600160481b8404810b610180860152600160501b90930490911615156101a08401529192501380611e8b575080610140015160000b8160c0015160000b135b80611ea4575080610160015160000b8160e0015160000b135b80611ebe575080610180015160000b81610100015160000b135b15611f425780516040516001600160a01b03909116907f01c709aae484e2a477ef26450949077d5411b73db0d6b24d7db60381d60794cd90600090a282611f0481614121565b935050600160088360ff1660068110611f1f57611f1f61410b565b60040201600301600a6101000a81548160ff021916908315150217905550611f76565b611f548160a0015182606001516137b5565b60088360ff1660068110611f6a57611f6a61410b565b60040201600201819055505b5080611f8181614121565b915050611d66565b5060ff8116156120df5760005b8260ff168160ff1610156120dd57600060088260ff1660068110611fbc57611fbc61410b565b604080516101c0810182526004929092029290920180546001600160a01b031682526001810154602083015260028101549282019290925260039091015460ff808216606084015261010080830482166080850152620100008304600090810b60a086015263010000008404810b60c0860152600160201b8404810b60e0860152600160281b8404810b91850191909152600160301b83048216610120850152600160381b8304810b610140850152600160401b8304810b610160850152600160481b8304900b610180840152600160501b9091041615156101a082018190529091506120ca57806020015160088360ff16600681106120be576120be61410b565b60040201600201819055505b50806120d581614121565b915050611f96565b505b50506007805462ff0000191662040000179055565b600754600090829060ff61010090910481169082161061212757604051630e0a2aa160e11b815260040160405180910390fd5b600060088460ff166006811061213f5761213f61410b565b604080516101c0810182526004929092029290920180546001600160a01b031682526001810154602083015260028101549282019290925260039091015460ff8082166060840181905261010080840483166080860152620100008404600090810b60a0870181905263010000008604820b60c0880152600160201b8604820b60e0880152600160281b8604820b92870192909252600160301b85048416610120870152600160381b8504810b610140870152600160401b8504810b610160870152600160481b8504900b610180860152600160501b90930490911615156101a08401529192509061223182826137b5565b9695505050505050565b612243613874565b600754829060ff61010090910481169082161061227357604051630e0a2aa160e11b815260040160405180910390fd5b60088360ff16600681106122895761228961410b565b604080516101c0810182526004929092029290920180546001600160a01b031682526001810154602083015260028101549282019290925260039091015460ff808216606084015261010080830482166080850152620100008304600090810b60a086015263010000008404810b60c0860152600160201b8404810b60e0860152600160281b8404810b91850191909152600160301b83048216610120850152600160381b8304810b610140850152600160401b8304810b610160850152600160481b8304900b610180840152600160501b9091041615156101a08201529392505050565b6000612378613830565b600061238333612808565b90508060000b600019036123aa57604051637082284960e11b815260040160405180910390fd5b806000600860ff8316600681106123c3576123c361410b565b604080516101c0810182526004929092029290920180546001600160a01b0316825260018082015460208401526002820154938301939093526003015460ff808216606084015261010080830482166080850152620100008304600090810b60a086015263010000008404810b60c0860152600160201b8404810b60e0860152600160281b8404810b91850191909152600160301b830482166101208501819052600160381b8404820b610140860152600160401b8404820b610160860152600160481b8404820b610180860152600160501b90930490911615156101a084015291935090916124b391906141c9565b9050601460ff821611156124da57604051633fac4c7160e21b815260040160405180910390fd5b816060015160ff168260800151896124f291906141c9565b60ff16111561251457604051638ba4117960e01b815260040160405180910390fd5b60ff808416865260e086018a905287811660a08701528881166080870152602054169550846021876078811061254c5761254c61410b565b82516002918202929092018054602085015160ff9081166101000261ffff1990921694169390931792909217808355604084015191839162ff0000191690620100009084908111156125a0576125a0613b13565b021790555060608201518154829063ff000000191663010000008360028111156125cc576125cc613b13565b02179055506080820151815460a084015160ff908116600160281b0265ff00000000001991909316600160201b021665ffff0000000019909116171780825560c083015190829060ff60301b1916600160301b83600581111561263157612631613b13565b021790555060e091909101516001909101556020805460ff1690600061265683614121565b91906101000a81548160ff021916908360ff160217905550508060088460ff16600681106126865761268661410b565b6004020160030160066101000a81548160ff021916908360ff1602179055508760088460ff16600681106126bc576126bc61410b565b6004020160030160018282829054906101000a900460ff166126de91906141c9565b92506101000a81548160ff021916908360ff160217905550336001600160a01b03168660ff167f18a47d8df22f178f89e665cc0fccf4ee175e91434c7b749c4a7607ffa4d33a6760405160405180910390a350505050509392505050565b336001600160a01b037f0000000000000000000000000000000000000000000000000000000000000000161461278557604051633f9db83960e01b815260040160405180910390fd5b600160075462010000900460ff1660058111156127a4576127a4613b13565b146127c157604051620e2aed60e31b815260040160405180910390fd5b60058190556007805462ff0000191690556040518181527fbda2e5fc778edfbed22cb985a005e7314108766bd66e86798f58611dcb9fb8b99060200160405180910390a150565b60075460001990610100900460ff1660005b8160ff168160ff16101561287557836001600160a01b031660088260ff16600681106128485761284861410b565b60040201546001600160a01b03160361286357809250612875565b8061286d81614121565b91505061281a565b5050919050565b602054829060ff908116908216106128a7576040516311eb888760e31b815260040160405180910390fd5b60006128b233612808565b90508060000b600019036128d957604051637082284960e11b815260040160405180910390fd5b806000602160ff8716607881106128f2576128f261410b565b60020201805490915060ff9081169083160361292157604051631deda49760e01b815260040160405180910390fd5b60008154600160301b900460ff16600581111561294057612940613b13565b1461295e576040516317c9510160e01b815260040160405180910390fd5b600060088360ff16600681106129765761297661410b565b604080516101c0810182526004929092029290920180546001600160a01b031682526001810154602083015260028101549282019290925260039091015460ff80821660608401819052610100808404831660808601819052620100008504600090810b60a088015263010000008604810b60c0880152600160201b8604810b60e0880152600160281b808704820b93880193909352600160301b86048516610120880152600160381b8604810b610140880152600160401b8604810b610160880152600160481b8604900b610180870152600160501b909404831615156101a086015286549495509093612a6f9392919004166141c9565b60ff161115612a9157604051638ba4117960e01b815260040160405180910390fd5b815460ff84166101000261ff00198216811784558791849163ff000000191663ff00ff0019909116176301000000836002811115612ad157612ad1613b13565b0217905550815460ff60301b1916600160301b1780835560ff600160281b909104811690600890851660068110612b0a57612b0a61410b565b6004020160030160018282829054906101000a900460ff16612b2c91906141c9565b92506101000a81548160ff021916908360ff160217905550336001600160a01b03168760ff167f01b120bec3d4ba9705e9f5f6c7aa115993959878ac9533a84cb359ffe642823060405160405180910390a350505050505050565b6000816002811115612b9b57612b9b613b13565b03612bf65760088260ff1660068110612bb657612bb661410b565b60040201600390810180546301000000900460000b91612bd5836141f5565b91906101000a81548160ff021916908360000b60ff16021790555050612cb4565b6001816002811115612c0a57612c0a613b13565b03612c495760088260ff1660068110612c2557612c2561410b565b60040201600301600481819054906101000a900460000b80929190612bd5906141f5565b6002816002811115612c5d57612c5d613b13565b03612cb45760088260ff1660068110612c7857612c7861410b565b600402016003018054600160281b900460000b906005612c97836141f5565b91906101000a81548160ff021916908360000b60ff160217905550505b60088260ff1660068110612cca57612cca61410b565b60040201600301805462010000900460000b906002612ce88361420b565b91906101000a81548160ff021916908360000b60ff160217905550505050565b600060218460ff1660788110612d2057612d2061410b565b604080516101008082018352600293840294909401805460ff8082168452958104861660208401529194909392850192620100009092041690811115612d6857612d68613b13565b6002811115612d7957612d79613b13565b815281546020909101906301000000900460ff166002811115612d9e57612d9e613b13565b6002811115612daf57612daf613b13565b8152815460ff600160201b820481166020840152600160281b820481166040840152606090920191600160301b909104166005811115612df157612df1613b13565b6005811115612e0257612e02613b13565b81526020016001820154815250509050600560218560ff1660788110612e2a57612e2a61410b565b60020201805460ff60301b1916600160301b836005811115612e4e57612e4e613b13565b0217905550806080015160088460ff1660068110612e6e57612e6e61410b565b6004020160030160018282829054906101000a900460ff16612e9091906141b0565b92506101000a81548160ff021916908360ff160217905550806080015160088460ff1660068110612ec357612ec361410b565b6004020160030160008282829054906101000a900460ff16612ee591906141b0565b92506101000a81548160ff021916908360ff1602179055508060a0015160088360ff1660068110612f1857612f1861410b565b6004020160030160018282829054906101000a900460ff16612f3a91906141b0565b92506101000a81548160ff021916908360ff160217905550806080015160088360ff1660068110612f6d57612f6d61410b565b6004020160030160008282829054906101000a900460ff16612f8f91906141c9565b92506101000a81548160ff021916908360ff16021790555050505050565b600060218460ff1660788110612fc557612fc561410b565b604080516101008082018352600293840294909401805460ff808216845295810486166020840152919490939285019262010000909204169081111561300d5761300d613b13565b600281111561301e5761301e613b13565b815281546020909101906301000000900460ff16600281111561304357613043613b13565b600281111561305457613054613b13565b8152815460ff600160201b820481166020840152600160281b820481166040840152606090920191600160301b90910416600581111561309657613096613b13565b60058111156130a7576130a7613b13565b81526020016001820154815250509050600460218560ff16607881106130cf576130cf61410b565b60020201805460ff60301b1916600160301b8360058111156130f3576130f3613b13565b0217905550806080015160088460ff16600681106131135761311361410b565b6004020160030160018282829054906101000a900460ff1661313591906141b0565b92506101000a81548160ff021916908360ff1602179055508060a0015160088460ff16600681106131685761316861410b565b6004020160030160008282829054906101000a900460ff1661318a91906141c9565b92506101000a81548160ff021916908360ff1602179055508060a0015160088360ff16600681106131bd576131bd61410b565b6004020160030160018282829054906101000a900460ff166131df91906141b0565b92506101000a81548160ff021916908360ff1602179055508060a0015160088360ff16600681106132125761321261410b565b6004020160030160008282829054906101000a900460ff16612f8f91906141b0565b600060218460ff166078811061324c5761324c61410b565b604080516101008082018352600293840294909401805460ff808216845295810486166020840152919490939285019262010000909204169081111561329457613294613b13565b60028111156132a5576132a5613b13565b815281546020909101906301000000900460ff1660028111156132ca576132ca613b13565b60028111156132db576132db613b13565b8152815460ff600160201b820481166020840152600160281b820481166040840152606090920191600160301b90910416600581111561331d5761331d613b13565b600581111561332e5761332e613b13565b81526020016001820154815250509050600360218560ff16607881106133565761335661410b565b60020201805460ff60301b1916600160301b83600581111561337a5761337a613b13565b0217905550806080015160088460ff166006811061339a5761339a61410b565b6004020160030160018282829054906101000a900460ff166133bc91906141b0565b92506101000a81548160ff021916908360ff1602179055508060a0015160088360ff16600681106133ef576133ef61410b565b6004020160030160018282829054906101000a900460ff16612f8f91906141b0565b6000805460ff88811660ff1990921691909117825560018790556002869055600380546001600160a01b0387166001600160a01b031990911617905560048490556007805460059390935590831662ff00ff1990921682176201000017905561347d906201518061422a565b61348c9062ffffff16426141e2565b600655505050505050565b600754610100900460ff1660005b8160ff168160ff16101561362257600060088260ff16600681106134cb576134cb61410b565b604080516101c0810182526004929092029290920180546001600160a01b031680835260018201546020840181905260028301549484019490945260039091015460ff808216606085015261010080830482166080860152620100008304600090810b60a087015263010000008404810b60c0870152600160201b8404810b60e0870152600160281b8404810b91860191909152600160301b83048216610120860152600160381b8304810b610140860152600160401b8304810b610160860152600160481b8304810b610180860152600160501b909204811615156101a085015292945090916008908616600681106135c7576135c761410b565b6004020160010181905550806001600160a01b03166108fc839081150290604051600060405180830381858888f1935050505015801561360b573d6000803e3d6000fd5b50505050808061361a90614121565b9150506134a5565b5050565b600754610100900460ff1660005b8160ff168160ff16101561362257600060088260ff166006811061365a5761365a61410b565b604080516101c0810182526004929092029290920180546001600160a01b031680835260018201546020840152600282015493830184905260039091015460ff808216606085015261010080830482166080860152620100008304600090810b60a087015263010000008404810b60c0870152600160201b8404810b60e0870152600160281b8404810b91860191909152600160301b83048216610120860152600160381b8304810b610140860152600160401b8304810b610160860152600160481b8304810b610180860152600160501b909204811615156101a085015292945090916008908616600681106137535761375361410b565b6004020160020181905550600082111561379f576040516001600160a01b0382169083156108fc029084906000818181858888f1935050505015801561379d573d6000803e3d6000fd5b505b50505080806137ad90614121565b915050613634565b6000808360000b12156137ca57506000610988565b8260000b6000146137e65760048260ff1611156137e657600491505b60006001548360ff166137f99190613fd2565b6000549091506103e8906138109060ff1682614251565b61381e9061ffff1683613fd2565b613828919061426c565b949350505050565b6040805161010081018252600080825260208201819052918101829052606081018290526080810182905260a0810182905260c0810182905260e081019190915290565b604080516101c081018252600080825260208201819052918101829052606081018290526080810182905260a0810182905260c0810182905260e08101829052610100810182905261012081018290526101408101829052610160810182905261018081018290526101a081019190915290565b506116029060f0810190613906565b50611602906018810190613930565b5b8082111561392c57805466ffffffffffffff1916815560006001820155600201613907565b5090565b5b8082111561392c5780546001600160a01b031916815560006001820181905560028201556003810180546affffffffffffffffffffff19169055600401613931565b6001600160b81b03198116811461160257600080fd5b634e487b7160e01b600052604160045260246000fd5b600067ffffffffffffffff808411156139ba576139ba613989565b604051601f8501601f19908116603f011681019082821181831017156139e2576139e2613989565b816040528093508581528686860111156139fb57600080fd5b858560208301376000602087830101525050509392505050565b600082601f830112613a2657600080fd5b613a358383356020850161399f565b9392505050565b60008060408385031215613a4f57600080fd5b8235613a5a81613973565b9150602083013567ffffffffffffffff811115613a7657600080fd5b613a8285828601613a15565b9150509250929050565b600060e0820160ff8a168352602060ff8a168185015260ff8916604085015260ff881660608501528660808501528560a085015260e060c085015281855180845261010086019150828701935060005b81811015613b015784516001600160a01b031683529383019391830191600101613adc565b50909c9b505050505050505050505050565b634e487b7160e01b600052602160045260246000fd5b6006811061160257611602613b13565b60208101613b4683613b29565b91905290565b803560ff81168114613b5d57600080fd5b919050565b600060208284031215613b7457600080fd5b613a3582613b4c565b60038110613b8d57613b8d613b13565b9052565b60ff815116825260ff60208201511660208301526040810151613bb76040840182613b7d565b506060810151613bca6060840182613b7d565b5060ff608082015116608083015260ff60a08201511660a083015260c0810151613bf381613b29565b60c083015260e090810151910152565b61010081016109888284613b91565b6020808252825182820181905260009190848201906040850190845b81811015613c5557613c41838551613b91565b928401926101009290920191600101613c2e565b50909695505050505050565b60008060408385031215613c7457600080fd5b613c7d83613b4c565b9150602083013567ffffffffffffffff811115613c9957600080fd5b8301601f81018513613caa57600080fd5b613a828582356020840161399f565b600080600060608486031215613cce57600080fd5b613cd784613b4c565b9250613ce560208501613b4c565b9150604084013567ffffffffffffffff811115613d0157600080fd5b613d0d86828701613a15565b9150509250925092565b600060208284031215613d2957600080fd5b813567ffffffffffffffff811115613d4057600080fd5b61382884828501613a15565b80516001600160a01b0316825260208101516020830152604081015160408301526060810151613d81606084018260ff169052565b506080810151613d96608084018260ff169052565b5060a0810151613dab60a084018260000b9052565b5060c0810151613dc060c084018260000b9052565b5060e0810151613dd560e084018260000b9052565b5061010080820151613deb8285018260000b9052565b50506101208181015160ff169083015261014080820151600081900b82850152505061016080820151613e228285018260000b9052565b505061018080820151613e398285018260000b9052565b50506101a0908101511515910152565b6020808252825182820181905260009190848201906040850190845b81811015613c5557613e78838551613d4c565b928401926101c09290920191600101613e65565b80356001600160a01b0381168114613b5d57600080fd5b60008060008060008060c08789031215613ebc57600080fd5b613ec587613b4c565b95506020870135945060408701359350613ee160608801613e8c565b925060808701359150613ef660a08801613b4c565b90509295509295509295565b6101c081016109888284613d4c565b600080600060608486031215613f2657600080fd5b83359250613f3660208501613b4c565b9150613f4460408501613b4c565b90509250925092565b600060208284031215613f5f57600080fd5b5035919050565b600060208284031215613f7857600080fd5b613a3582613e8c565b60008060408385031215613f9457600080fd5b613f9d83613b4c565b9150602083013560038110613fb157600080fd5b809150509250929050565b634e487b7160e01b600052601160045260246000fd5b808202811582820484141761098857610988613fbc565b60005b83811015614004578181015183820152602001613fec565b50506000910152565b6001600160b81b0319831681528151600090614030816009850160208701613fe9565b919091016009019392505050565b60006020828403121561405057600080fd5b81518015158114613a3557600080fd5b60006020828403121561407257600080fd5b8151613a3581613973565b60006060828403121561408f57600080fd5b82601f83011261409e57600080fd5b6040516060810181811067ffffffffffffffff821117156140c1576140c1613989565b6040528060608401858111156140d657600080fd5b845b81811015614100578051600081810b82146140f1578081fd5b508352602092830192016140d8565b509195945050505050565b634e487b7160e01b600052603260045260246000fd5b600060ff821660ff810361413757614137613fbc565b60010192915050565b60008151808452614158816020860160208601613fe9565b601f01601f19169290920160200192915050565b602081526000613a356020830184614140565b6001600160f81b03198316815281516000906141a2816001850160208701613fe9565b919091016001019392505050565b60ff828116828216039081111561098857610988613fbc565b60ff818116838216019081111561098857610988613fbc565b8082018082111561098857610988613fbc565b60008160000b607f810361413757614137613fbc565b600081810b6080810161422057614220613fbc565b6000190192915050565b62ffffff81811683821602808216919082811461424957614249613fbc565b505092915050565b61ffff828116828216039080821115610da557610da5613fbc565b60008261428957634e487b7160e01b600052601260045260246000fd5b50049056fea2646970667358221220de2c0e83ba2979214bcfb35cc43170f51116b085aab4d150f6b77573bc068ba164736f6c63430008130033a26469706673582212209ab28f3391cfcb7d9f16bea1f6c1ae6c537a361ec125d04945478ade4007fbf264736f6c63430008130033","linkReferences":{}},"methodIdentifiers":{"airnodeRrp()":"71bab666","ban(address)":"97c3ccd8","createGame(bytes32,uint8)":"e671cdae","fulfillUint256(bytes32,bytes)":"3718d90a","generateRandomNumberFromSeed(uint256,uint8)":"f6cca6e2","getBasicJoiningCost()":"0f9361c3","getCard(bytes9,uint8)":"11aa10c7","getGame(uint256)":"a2f77bcc","getGames()":"c04c5947","getNbrCardsOfPlayer(bytes9,uint8)":"a9c82606","getOpenGames()":"e75d7e3e","getRequestParameters()":"81fea3b5","isBanned(address)":"97f735d5","isValidDeck(bytes9)":"f3304bbf","owner()":"8da5cb5b","renounceOwnership()":"715018a6","requestToGameAddress(bytes32)":"61ba2062","setCard(bytes9,uint8,uint8)":"71ca3053","setGameCreationFee(uint256)":"0be75449","setRequestParameters(address,bytes32,address)":"7bdf2525","setStarCost(uint256)":"6e9b2dc0","setWinningsCut(uint8)":"5b282cba","shuffleDeck(bytes9,uint256)":"81452f06","transferOwnership(address)":"f2fde38b","unban(address)":"b9f14557","withdraw()":"3ccfd60b","withdrawGameCut(uint8)":"0998537e"},"id":32}