{"abi":[{"type":"function","name":"checkAuthorizationStatus","inputs":[{"name":"authorizers","type":"address[]","internalType":"address[]"},{"name":"airnode","type":"address","internalType":"address"},{"name":"requestId","type":"bytes32","internalType":"bytes32"},{"name":"endpointId","type":"bytes32","internalType":"bytes32"},{"name":"sponsor","type":"address","internalType":"address"},{"name":"requester","type":"address","internalType":"address"}],"outputs":[{"name":"status","type":"bool","internalType":"bool"}],"stateMutability":"view"},{"type":"function","name":"checkAuthorizationStatuses","inputs":[{"name":"authorizers","type":"address[]","internalType":"address[]"},{"name":"airnode","type":"address","internalType":"address"},{"name":"requestIds","type":"bytes32[]","internalType":"bytes32[]"},{"name":"endpointIds","type":"bytes32[]","internalType":"bytes32[]"},{"name":"sponsors","type":"address[]","internalType":"address[]"},{"name":"requesters","type":"address[]","internalType":"address[]"}],"outputs":[{"name":"statuses","type":"bool[]","internalType":"bool[]"}],"stateMutability":"view"},{"type":"function","name":"createTemplate","inputs":[{"name":"airnode","type":"address","internalType":"address"},{"name":"endpointId","type":"bytes32","internalType":"bytes32"},{"name":"parameters","type":"bytes","internalType":"bytes"}],"outputs":[{"name":"templateId","type":"bytes32","internalType":"bytes32"}],"stateMutability":"nonpayable"},{"type":"function","name":"fail","inputs":[{"name":"requestId","type":"bytes32","internalType":"bytes32"},{"name":"airnode","type":"address","internalType":"address"},{"name":"fulfillAddress","type":"address","internalType":"address"},{"name":"fulfillFunctionId","type":"bytes4","internalType":"bytes4"},{"name":"errorMessage","type":"string","internalType":"string"}],"outputs":[],"stateMutability":"nonpayable"},{"type":"function","name":"fulfill","inputs":[{"name":"requestId","type":"bytes32","internalType":"bytes32"},{"name":"airnode","type":"address","internalType":"address"},{"name":"fulfillAddress","type":"address","internalType":"address"},{"name":"fulfillFunctionId","type":"bytes4","internalType":"bytes4"},{"name":"data","type":"bytes","internalType":"bytes"},{"name":"signature","type":"bytes","internalType":"bytes"}],"outputs":[{"name":"callSuccess","type":"bool","internalType":"bool"},{"name":"callData","type":"bytes","internalType":"bytes"}],"stateMutability":"nonpayable"},{"type":"function","name":"fulfillAddressMock","inputs":[],"outputs":[{"name":"","type":"address","internalType":"address"}],"stateMutability":"view"},{"type":"function","name":"fulfillFunctionIdMock","inputs":[],"outputs":[{"name":"","type":"bytes4","internalType":"bytes4"}],"stateMutability":"view"},{"type":"function","name":"fulfillWithdrawal","inputs":[{"name":"withdrawalRequestId","type":"bytes32","internalType":"bytes32"},{"name":"airnode","type":"address","internalType":"address"},{"name":"sponsor","type":"address","internalType":"address"}],"outputs":[],"stateMutability":"payable"},{"type":"function","name":"getTemplates","inputs":[{"name":"templateIds","type":"bytes32[]","internalType":"bytes32[]"}],"outputs":[{"name":"airnodes","type":"address[]","internalType":"address[]"},{"name":"endpointIds","type":"bytes32[]","internalType":"bytes32[]"},{"name":"parameters","type":"bytes[]","internalType":"bytes[]"}],"stateMutability":"view"},{"type":"function","name":"makeFullRequest","inputs":[{"name":"airnode","type":"address","internalType":"address"},{"name":"endpointId","type":"bytes32","internalType":"bytes32"},{"name":"sponsor","type":"address","internalType":"address"},{"name":"sponsorWallet","type":"address","internalType":"address"},{"name":"fulfillAddress","type":"address","internalType":"address"},{"name":"fulfillFunctionId","type":"bytes4","internalType":"bytes4"},{"name":"parameters","type":"bytes","internalType":"bytes"}],"outputs":[{"name":"requestId","type":"bytes32","internalType":"bytes32"}],"stateMutability":"nonpayable"},{"type":"function","name":"makeTemplateRequest","inputs":[{"name":"templateId","type":"bytes32","internalType":"bytes32"},{"name":"sponsor","type":"address","internalType":"address"},{"name":"sponsorWallet","type":"address","internalType":"address"},{"name":"fulfillAddress","type":"address","internalType":"address"},{"name":"fulfillFunctionId","type":"bytes4","internalType":"bytes4"},{"name":"parameters","type":"bytes","internalType":"bytes"}],"outputs":[{"name":"requestId","type":"bytes32","internalType":"bytes32"}],"stateMutability":"nonpayable"},{"type":"function","name":"requestIdMock","inputs":[],"outputs":[{"name":"","type":"bytes32","internalType":"bytes32"}],"stateMutability":"view"},{"type":"function","name":"requestIsAwaitingFulfillment","inputs":[{"name":"requestId","type":"bytes32","internalType":"bytes32"}],"outputs":[{"name":"isAwaitingFulfillment","type":"bool","internalType":"bool"}],"stateMutability":"view"},{"type":"function","name":"requestWithdrawal","inputs":[{"name":"airnode","type":"address","internalType":"address"},{"name":"sponsorWallet","type":"address","internalType":"address"}],"outputs":[],"stateMutability":"nonpayable"},{"type":"function","name":"requesterToRequestCountPlusOne","inputs":[{"name":"requester","type":"address","internalType":"address"}],"outputs":[{"name":"requestCountPlusOne","type":"uint256","internalType":"uint256"}],"stateMutability":"view"},{"type":"function","name":"setSponsorshipStatus","inputs":[{"name":"requester","type":"address","internalType":"address"},{"name":"sponsorshipStatus","type":"bool","internalType":"bool"}],"outputs":[],"stateMutability":"nonpayable"},{"type":"function","name":"sponsorToRequesterToSponsorshipStatus","inputs":[{"name":"sponsor","type":"address","internalType":"address"},{"name":"requester","type":"address","internalType":"address"}],"outputs":[{"name":"sponsorshipStatus","type":"bool","internalType":"bool"}],"stateMutability":"view"},{"type":"function","name":"sponsorToWithdrawalRequestCount","inputs":[{"name":"sponsor","type":"address","internalType":"address"}],"outputs":[{"name":"withdrawalRequestCount","type":"uint256","internalType":"uint256"}],"stateMutability":"view"},{"type":"function","name":"templates","inputs":[{"name":"templateId","type":"bytes32","internalType":"bytes32"}],"outputs":[{"name":"airnode","type":"address","internalType":"address"},{"name":"endpointId","type":"bytes32","internalType":"bytes32"},{"name":"parameters","type":"bytes","internalType":"bytes"}],"stateMutability":"view"},{"type":"event","name":"CreatedTemplate","inputs":[{"name":"templateId","type":"bytes32","indexed":true,"internalType":"bytes32"},{"name":"airnode","type":"address","indexed":false,"internalType":"address"},{"name":"endpointId","type":"bytes32","indexed":false,"internalType":"bytes32"},{"name":"parameters","type":"bytes","indexed":false,"internalType":"bytes"}],"anonymous":false},{"type":"event","name":"FailedRequest","inputs":[{"name":"airnode","type":"address","indexed":true,"internalType":"address"},{"name":"requestId","type":"bytes32","indexed":true,"internalType":"bytes32"},{"name":"errorMessage","type":"string","indexed":false,"internalType":"string"}],"anonymous":false},{"type":"event","name":"FulfilledRequest","inputs":[{"name":"airnode","type":"address","indexed":true,"internalType":"address"},{"name":"requestId","type":"bytes32","indexed":true,"internalType":"bytes32"},{"name":"data","type":"bytes","indexed":false,"internalType":"bytes"}],"anonymous":false},{"type":"event","name":"FulfilledWithdrawal","inputs":[{"name":"airnode","type":"address","indexed":true,"internalType":"address"},{"name":"sponsor","type":"address","indexed":true,"internalType":"address"},{"name":"withdrawalRequestId","type":"bytes32","indexed":true,"internalType":"bytes32"},{"name":"sponsorWallet","type":"address","indexed":false,"internalType":"address"},{"name":"amount","type":"uint256","indexed":false,"internalType":"uint256"}],"anonymous":false},{"type":"event","name":"MadeFullRequest","inputs":[{"name":"airnode","type":"address","indexed":true,"internalType":"address"},{"name":"requestId","type":"bytes32","indexed":true,"internalType":"bytes32"},{"name":"requesterRequestCount","type":"uint256","indexed":false,"internalType":"uint256"},{"name":"chainId","type":"uint256","indexed":false,"internalType":"uint256"},{"name":"requester","type":"address","indexed":false,"internalType":"address"},{"name":"endpointId","type":"bytes32","indexed":false,"internalType":"bytes32"},{"name":"sponsor","type":"address","indexed":false,"internalType":"address"},{"name":"sponsorWallet","type":"address","indexed":false,"internalType":"address"},{"name":"fulfillAddress","type":"address","indexed":false,"internalType":"address"},{"name":"fulfillFunctionId","type":"bytes4","indexed":false,"internalType":"bytes4"},{"name":"parameters","type":"bytes","indexed":false,"internalType":"bytes"}],"anonymous":false},{"type":"event","name":"MadeTemplateRequest","inputs":[{"name":"airnode","type":"address","indexed":true,"internalType":"address"},{"name":"requestId","type":"bytes32","indexed":true,"internalType":"bytes32"},{"name":"requesterRequestCount","type":"uint256","indexed":false,"internalType":"uint256"},{"name":"chainId","type":"uint256","indexed":false,"internalType":"uint256"},{"name":"requester","type":"address","indexed":false,"internalType":"address"},{"name":"templateId","type":"bytes32","indexed":false,"internalType":"bytes32"},{"name":"sponsor","type":"address","indexed":false,"internalType":"address"},{"name":"sponsorWallet","type":"address","indexed":false,"internalType":"address"},{"name":"fulfillAddress","type":"address","indexed":false,"internalType":"address"},{"name":"fulfillFunctionId","type":"bytes4","indexed":false,"internalType":"bytes4"},{"name":"parameters","type":"bytes","indexed":false,"internalType":"bytes"}],"anonymous":false},{"type":"event","name":"RequestedWithdrawal","inputs":[{"name":"airnode","type":"address","indexed":true,"internalType":"address"},{"name":"sponsor","type":"address","indexed":true,"internalType":"address"},{"name":"withdrawalRequestId","type":"bytes32","indexed":true,"internalType":"bytes32"},{"name":"sponsorWallet","type":"address","indexed":false,"internalType":"address"}],"anonymous":false},{"type":"event","name":"SetSponsorshipStatus","inputs":[{"name":"sponsor","type":"address","indexed":true,"internalType":"address"},{"name":"requester","type":"address","indexed":true,"internalType":"address"},{"name":"sponsorshipStatus","type":"bool","indexed":false,"internalType":"bool"}],"anonymous":false},{"type":"event","name":"fullfillMock","inputs":[{"name":"","type":"bool","indexed":true,"internalType":"bool"},{"name":"","type":"bytes","indexed":true,"internalType":"bytes"}],"anonymous":false}],"bytecode":{"object":"0x600160a0819052602060805260c06040527fb10e2d527612073b26eecdfd717e6a320cf44b4afac2b0732d9fcbe2b7fa0cf6905534801561003f57600080fd5b50610da48061004f6000396000f3fe6080604052600436106101145760003560e01c80636e6be03f116100a0578063acbe180011610064578063acbe18001461037d578063addf027c14610398578063ca31d586146103b3578063ed247b7d146103ec578063f8fa73a11461031757600080fd5b80636e6be03f1461028e57806376428c9b146102e15780637e7166f3146103175780638a33be0114610332578063a81e9f791461035a57600080fd5b80633c7fe5e3116100e75780633c7fe5e3146101d9578063414eebf8146101ec57806350743bb91461020257806352e41f991461023357806356d6dd151461025657600080fd5b80630a631576146101195780631d414cbd146101575780631decbf181461017857806332393f2b146101a6575b600080fd5b34801561012557600080fd5b5061013f610134366004610530565b506000908190606090565b60405161014e93929190610599565b60405180910390f35b34801561016357600080fd5b506101766101723660046105e5565b5050565b005b34801561018457600080fd5b50610198610193366004610679565b610426565b60405161014e929190610724565b3480156101b257600080fd5b506101cb6101c1366004610747565b6000949350505050565b60405190815260200161014e565b6101766101e73660046107a1565b505050565b3480156101f857600080fd5b506101cb60015481565b34801561020e57600080fd5b5061022361021d366004610530565b50600090565b604051901515815260200161014e565b34801561023f57600080fd5b5061017661024e3660046107dd565b505050505050565b34801561026257600080fd5b50600054610276906001600160a01b031681565b6040516001600160a01b03909116815260200161014e565b34801561029a57600080fd5b506101cb6102a936600461085c565b6000805460e085901c600160a01b026001600160c01b03199091166001600160a01b0387161717905560015498975050505050505050565b3480156102ed57600080fd5b506103086102fc36600461092d565b60608060609250925092565b60405161014e939291906109c4565b34801561032357600080fd5b506101cb61021d366004610a5b565b34801561033e57600080fd5b5061022361034d366004610a7d565b6000979650505050505050565b34801561036657600080fd5b506102236103753660046105e5565b600092915050565b34801561038957600080fd5b506101cb61034d366004610b06565b3480156103a457600080fd5b50610176610172366004610b96565b3480156103bf57600080fd5b506103df6103ce366004610bd2565b60609b9a5050505050505050505050565b60405161014e9190610cd6565b3480156103f857600080fd5b5060005461040d90600160a01b900460e01b81565b6040516001600160e01b0319909116815260200161014e565b600080546001546040516060926001600160a01b03811692600160a01b90910460e01b9161045b91908a908a90602401610d1c565b60408051601f198184030181529181526020820180516001600160e01b03166001600160e01b03199094169390931790925290516104999190610d52565b6000604051808303816000865af19150503d80600081146104d6576040519150601f19603f3d011682016040523d82523d6000602084013e6104db565b606091505b5060405191935091506104ef908290610d52565b60405190819003812090831515907faf0ac05de7890df3cb0861d7c70b929f30405c9e0f37bd54f43834d1083a621e90600090a39850989650505050505050565b60006020828403121561054257600080fd5b5035919050565b60005b8381101561056457818101518382015260200161054c565b50506000910152565b60008151808452610585816020860160208601610549565b601f01601f19169290920160200192915050565b60018060a01b03841681528260208201526060604082015260006105c0606083018461056d565b95945050505050565b80356001600160a01b03811681146105e057600080fd5b919050565b600080604083850312156105f857600080fd5b610601836105c9565b915061060f602084016105c9565b90509250929050565b80356001600160e01b0319811681146105e057600080fd5b60008083601f84011261064257600080fd5b50813567ffffffffffffffff81111561065a57600080fd5b60208301915083602082850101111561067257600080fd5b9250929050565b60008060008060008060008060c0898b03121561069557600080fd5b883597506106a560208a016105c9565b96506106b360408a016105c9565b95506106c160608a01610618565b9450608089013567ffffffffffffffff808211156106de57600080fd5b6106ea8c838d01610630565b909650945060a08b013591508082111561070357600080fd5b506107108b828c01610630565b999c989b5096995094979396929594505050565b821515815260406020820152600061073f604083018461056d565b949350505050565b6000806000806060858703121561075d57600080fd5b610766856105c9565b935060208501359250604085013567ffffffffffffffff81111561078957600080fd5b61079587828801610630565b95989497509550505050565b6000806000606084860312156107b657600080fd5b833592506107c6602085016105c9565b91506107d4604085016105c9565b90509250925092565b60008060008060008060a087890312156107f657600080fd5b86359550610806602088016105c9565b9450610814604088016105c9565b935061082260608801610618565b9250608087013567ffffffffffffffff81111561083e57600080fd5b61084a89828a01610630565b979a9699509497509295939492505050565b60008060008060008060008060e0898b03121561087857600080fd5b610881896105c9565b97506020890135965061089660408a016105c9565b95506108a460608a016105c9565b94506108b260808a016105c9565b93506108c060a08a01610618565b925060c089013567ffffffffffffffff8111156108dc57600080fd5b6107108b828c01610630565b60008083601f8401126108fa57600080fd5b50813567ffffffffffffffff81111561091257600080fd5b6020830191508360208260051b850101111561067257600080fd5b6000806020838503121561094057600080fd5b823567ffffffffffffffff81111561095757600080fd5b610963858286016108e8565b90969095509350505050565b600081518084526020808501808196508360051b8101915082860160005b858110156109b75782840389526109a584835161056d565b9885019893509084019060010161098d565b5091979650505050505050565b606080825284519082018190526000906020906080840190828801845b82811015610a065781516001600160a01b0316845292840192908401906001016109e1565b5050508381038285015285518082528683019183019060005b81811015610a3b57835183529284019291840191600101610a1f565b50508481036040860152610a4f818761096f565b98975050505050505050565b600060208284031215610a6d57600080fd5b610a76826105c9565b9392505050565b600080600080600080600060c0888a031215610a9857600080fd5b873567ffffffffffffffff811115610aaf57600080fd5b610abb8a828b016108e8565b9098509650610ace9050602089016105c9565b94506040880135935060608801359250610aea608089016105c9565b9150610af860a089016105c9565b905092959891949750929550565b600080600080600080600060c0888a031215610b2157600080fd5b87359650610b31602089016105c9565b9550610b3f604089016105c9565b9450610b4d606089016105c9565b9350610b5b60808901610618565b925060a088013567ffffffffffffffff811115610b7757600080fd5b610b838a828b01610630565b989b979a50959850939692959293505050565b60008060408385031215610ba957600080fd5b610bb2836105c9565b915060208301358015158114610bc757600080fd5b809150509250929050565b600080600080600080600080600080600060c08c8e031215610bf357600080fd5b67ffffffffffffffff808d351115610c0a57600080fd5b610c178e8e358f016108e8565b909c509a50610c2860208e016105c9565b99508060408e01351115610c3b57600080fd5b610c4b8e60408f01358f016108e8565b909950975060608d0135811015610c6157600080fd5b610c718e60608f01358f016108e8565b909750955060808d0135811015610c8757600080fd5b610c978e60808f01358f016108e8565b909550935060a08d0135811015610cad57600080fd5b50610cbe8d60a08e01358e016108e8565b81935080925050509295989b509295989b9093969950565b6020808252825182820181905260009190848201906040850190845b81811015610d10578351151583529284019291840191600101610cf2565b50909695505050505050565b83815260406020820152816040820152818360608301376000818301606090810191909152601f909201601f1916010192915050565b60008251610d64818460208701610549565b919091019291505056fea2646970667358221220fad73ba851014bc3f6afb16480fa6cc180eb283477f7792c6627e2d96b0c824364736f6c63430008130033","linkReferences":{}},"methodIdentifiers":{"checkAuthorizationStatus(address[],address,bytes32,bytes32,address,address)":"8a33be01","checkAuthorizationStatuses(address[],address,bytes32[],bytes32[],address[],address[])":"ca31d586","createTemplate(address,bytes32,bytes)":"32393f2b","fail(bytes32,address,address,bytes4,string)":"52e41f99","fulfill(bytes32,address,address,bytes4,bytes,bytes)":"1decbf18","fulfillAddressMock()":"56d6dd15","fulfillFunctionIdMock()":"ed247b7d","fulfillWithdrawal(bytes32,address,address)":"3c7fe5e3","getTemplates(bytes32[])":"76428c9b","makeFullRequest(address,bytes32,address,address,address,bytes4,bytes)":"6e6be03f","makeTemplateRequest(bytes32,address,address,address,bytes4,bytes)":"acbe1800","requestIdMock()":"414eebf8","requestIsAwaitingFulfillment(bytes32)":"50743bb9","requestWithdrawal(address,address)":"1d414cbd","requesterToRequestCountPlusOne(address)":"7e7166f3","setSponsorshipStatus(address,bool)":"addf027c","sponsorToRequesterToSponsorshipStatus(address,address)":"a81e9f79","sponsorToWithdrawalRequestCount(address)":"f8fa73a1","templates(bytes32)":"0a631576"},"id":36}