{"abi":[{"type":"constructor","inputs":[{"name":"owner","type":"address","internalType":"address"},{"name":"airnodeRrp","type":"address","internalType":"address"}],"stateMutability":"nonpayable"},{"type":"function","name":"airnodeRrp","inputs":[],"outputs":[{"name":"","type":"address","internalType":"contract IAirnodeRrpV0"}],"stateMutability":"view"},{"type":"function","name":"ban","inputs":[{"name":"_user","type":"address","internalType":"address"}],"outputs":[],"stateMutability":"nonpayable"},{"type":"function","name":"createGame","inputs":[{"name":"_initialHash","type":"bytes32","internalType":"bytes32"},{"name":"_duration","type":"uint8","internalType":"uint8"}],"outputs":[],"stateMutability":"payable"},{"type":"function","name":"fulfillUint256","inputs":[{"name":"requestId","type":"bytes32","internalType":"bytes32"},{"name":"data","type":"bytes","internalType":"bytes"}],"outputs":[],"stateMutability":"nonpayable"},{"type":"function","name":"generateRandomNumberFromSeed","inputs":[{"name":"_seed","type":"uint256","internalType":"uint256"},{"name":"range","type":"uint8","internalType":"uint8"}],"outputs":[{"name":"","type":"uint256","internalType":"uint256"}],"stateMutability":"pure"},{"type":"function","name":"getBasicJoiningCost","inputs":[],"outputs":[{"name":"","type":"uint256","internalType":"uint256"}],"stateMutability":"view"},{"type":"function","name":"getCard","inputs":[{"name":"_deck","type":"bytes9","internalType":"bytes9"},{"name":"_index","type":"uint8","internalType":"uint8"}],"outputs":[{"name":"","type":"uint8","internalType":"uint8"}],"stateMutability":"pure"},{"type":"function","name":"getGame","inputs":[{"name":"_gameId","type":"uint256","internalType":"uint256"}],"outputs":[{"name":"","type":"address","internalType":"address"}],"stateMutability":"view"},{"type":"function","name":"getGames","inputs":[],"outputs":[{"name":"","type":"address[100]","internalType":"address[100]"}],"stateMutability":"view"},{"type":"function","name":"getNbrCardsOfPlayer","inputs":[{"name":"_deck","type":"bytes9","internalType":"bytes9"},{"name":"_playerId","type":"uint8","internalType":"uint8"}],"outputs":[{"name":"result","type":"int8[3]","internalType":"int8[3]"}],"stateMutability":"pure"},{"type":"function","name":"getOpenGames","inputs":[],"outputs":[{"name":"","type":"address[]","internalType":"address[]"}],"stateMutability":"view"},{"type":"function","name":"isBanned","inputs":[{"name":"_user","type":"address","internalType":"address"}],"outputs":[{"name":"","type":"bool","internalType":"bool"}],"stateMutability":"view"},{"type":"function","name":"isValidDeck","inputs":[{"name":"_deck","type":"bytes9","internalType":"bytes9"}],"outputs":[{"name":"","type":"bool","internalType":"bool"}],"stateMutability":"pure"},{"type":"function","name":"owner","inputs":[],"outputs":[{"name":"","type":"address","internalType":"address"}],"stateMutability":"view"},{"type":"function","name":"renounceOwnership","inputs":[],"outputs":[],"stateMutability":"nonpayable"},{"type":"function","name":"resetGame","inputs":[{"name":"_gameId","type":"uint8","internalType":"uint8"}],"outputs":[],"stateMutability":"nonpayable"},{"type":"function","name":"setCard","inputs":[{"name":"_deck","type":"bytes9","internalType":"bytes9"},{"name":"_index","type":"uint8","internalType":"uint8"},{"name":"_card","type":"uint8","internalType":"uint8"}],"outputs":[{"name":"","type":"bytes9","internalType":"bytes9"}],"stateMutability":"pure"},{"type":"function","name":"setGameCreationFee","inputs":[{"name":"_gameCreationFee","type":"uint256","internalType":"uint256"}],"outputs":[],"stateMutability":"nonpayable"},{"type":"function","name":"setGameJoiningFee","inputs":[{"name":"_winningsCut","type":"uint8","internalType":"uint8"}],"outputs":[],"stateMutability":"nonpayable"},{"type":"function","name":"setRequestParameters","inputs":[{"name":"airnode","type":"address","internalType":"address"},{"name":"endpointId","type":"bytes32","internalType":"bytes32"},{"name":"sponsorWallet","type":"address","internalType":"address"}],"outputs":[],"stateMutability":"nonpayable"},{"type":"function","name":"setStarCost","inputs":[{"name":"_starCost","type":"uint256","internalType":"uint256"}],"outputs":[],"stateMutability":"nonpayable"},{"type":"function","name":"shuffleDeck","inputs":[{"name":"_deck","type":"bytes9","internalType":"bytes9"},{"name":"_seed","type":"uint256","internalType":"uint256"}],"outputs":[{"name":"","type":"bytes9","internalType":"bytes9"}],"stateMutability":"pure"},{"type":"function","name":"transferOwnership","inputs":[{"name":"newOwner","type":"address","internalType":"address"}],"outputs":[],"stateMutability":"nonpayable"},{"type":"function","name":"unban","inputs":[{"name":"_user","type":"address","internalType":"address"}],"outputs":[],"stateMutability":"nonpayable"},{"type":"function","name":"verifyAndCloseGame","inputs":[],"outputs":[],"stateMutability":"nonpayable"},{"type":"event","name":"GameCreated","inputs":[{"name":"gameId","type":"uint256","indexed":true,"internalType":"uint256"},{"name":"gameAddress","type":"address","indexed":true,"internalType":"address"}],"anonymous":false},{"type":"event","name":"GameJoined","inputs":[{"name":"gameId","type":"uint256","indexed":true,"internalType":"uint256"},{"name":"player","type":"address","indexed":false,"internalType":"address"}],"anonymous":false},{"type":"event","name":"OwnershipTransferred","inputs":[{"name":"previousOwner","type":"address","indexed":true,"internalType":"address"},{"name":"newOwner","type":"address","indexed":true,"internalType":"address"}],"anonymous":false},{"type":"error","name":"GameDoesNotExist","inputs":[]},{"type":"error","name":"OwnableInvalidOwner","inputs":[{"name":"owner","type":"address","internalType":"address"}]},{"type":"error","name":"OwnableUnauthorizedAccount","inputs":[{"name":"account","type":"address","internalType":"address"}]},{"type":"error","name":"RestrictedRPSFactory_DurationTooLong","inputs":[]},{"type":"error","name":"RestrictedRPSFactory_InvalidGameId","inputs":[{"name":"gameId","type":"uint256","internalType":"uint256"}]},{"type":"error","name":"RestrictedRPSFactory_PlayerBanned","inputs":[{"name":"player","type":"address","internalType":"address"}]},{"type":"error","name":"RestrictedRPSFactory_SendMore","inputs":[]},{"type":"error","name":"RestrictedRPSFactory_TooManyOpenGames","inputs":[]}],"bytecode":{"object":"0x60a060405260006005556006805460ff1916600a179055655af3107a40006007819055600855620000336001606462000177565b606f805460ff191660ff929092169190911790553480156200005457600080fd5b50604051620052bc380380620052bc8339810160408190526200007791620001c2565b818180826001600160a01b038116620000aa57604051631e4fbdf760e01b81526000600482015260240160405180910390fd5b620000b58162000127565b506001600160a01b0381166080819052604051632b77c09f60e21b81523060048201526001602482015263addf027c90604401600060405180830381600087803b1580156200010357600080fd5b505af115801562000118573d6000803e3d6000fd5b505050505050505050620001fa565b600080546001600160a01b038381166001600160a01b0319831681178455604051919092169283917f8be0079c531659141344cd1fd0a4f28419497f9722a3daafe3b4186f6b6457e09190a35050565b60ff82811682821603908111156200019f57634e487b7160e01b600052601160045260246000fd5b92915050565b80516001600160a01b0381168114620001bd57600080fd5b919050565b60008060408385031215620001d657600080fd5b620001e183620001a5565b9150620001f160208401620001a5565b90509250929050565b60805161509862000224600039600081816102a101528181610615015261113601526150986000f3fe608060405260043610620001845760003560e01c806397c3ccd811620000e2578063c04c59471162000095578063e75d7e3e116200006c578063e75d7e3e14620004fe578063f2fde38b1462000525578063f3304bbf146200054a578063f6cca6e2146200056f57600080fd5b8063c04c5947146200049b578063d763797c14620004c2578063e671cdae14620004e757600080fd5b806397c3ccd8146200038557806397f735d514620003aa578063a2f77bcc14620003f8578063a9c82606146200041d578063b5df9f831462000451578063b9f14557146200047657600080fd5b8063715018a6116200013b578063715018a6146200027557806371bab666146200028d57806371ca305314620002dc5780637bdf2525146200031b57806381452f0614620003405780638da5cb5b146200036557600080fd5b80630be7544914620001895780630f9361c314620001b057806311aa10c714620001db5780633718d90a146200021357806362119d7a14620002385780636e9b2dc01462000250575b600080fd5b3480156200019657600080fd5b50620001ae620001a836600462001222565b62000594565b005b348015620001bd57600080fd5b50620001c8620005a3565b6040519081526020015b60405180910390f35b348015620001e857600080fd5b5062000200620001fa3660046200126c565b620005bc565b60405160ff9091168152602001620001d2565b3480156200022057600080fd5b50620001ae62000232366004620012a4565b6200060a565b3480156200024557600080fd5b50620001ae6200072e565b3480156200025d57600080fd5b50620001ae6200026f36600462001222565b6200075e565b3480156200028257600080fd5b50620001ae6200076d565b3480156200029a57600080fd5b50620002c37f000000000000000000000000000000000000000000000000000000000000000081565b6040516001600160a01b039091168152602001620001d2565b348015620002e957600080fd5b5062000301620002fb36600462001325565b62000785565b6040516001600160b81b03199091168152602001620001d2565b3480156200032857600080fd5b50620001ae6200033a36600462001387565b620007dc565b3480156200034d57600080fd5b50620003016200035f366004620013bf565b6200081a565b3480156200037257600080fd5b506000546001600160a01b0316620002c3565b3480156200039257600080fd5b50620001ae620003a4366004620013ec565b6200089e565b348015620003b757600080fd5b50620003e7620003c9366004620013ec565b6001600160a01b03166000908152600a602052604090205460ff1690565b6040519015158152602001620001d2565b3480156200040557600080fd5b50620002c36200041736600462001222565b620008cc565b3480156200042a57600080fd5b50620004426200043c3660046200126c565b620008f5565b604051620001d291906200140a565b3480156200045e57600080fd5b50620001ae6200047036600462001441565b62000983565b3480156200048357600080fd5b50620001ae62000495366004620013ec565b62000990565b348015620004a857600080fd5b50620004b3620009bb565b604051620001d291906200145f565b348015620004cf57600080fd5b50620001ae620004e136600462001441565b62000a04565b620001ae620004f83660046200149c565b62000a24565b3480156200050b57600080fd5b506200051662000d5e565b604051620001d29190620014c2565b3480156200053257600080fd5b50620001ae62000544366004620013ec565b62000ecd565b3480156200055757600080fd5b50620003e76200056936600462001511565b62000f0e565b3480156200057c57600080fd5b50620001c86200058e3660046200149c565b62001015565b6200059e62001054565b600555565b600754600090620005b79060039062001545565b905090565b6000806002620005ce81600862001575565b620005da90856200159a565b620005e69190620015bf565b90508060ff168460b81c68ffffffffffffffffff16901c6003169150505b92915050565b336001600160a01b037f00000000000000000000000000000000000000000000000000000000000000001614620006815760405162461bcd60e51b8152602060048201526016602482015275043616c6c6572206e6f74204169726e6f6465205252560541b60448201526064015b60405180910390fd5b6000838152600460205260409020546001600160a01b031680620006b857604051631fedf07560e01b815260040160405180910390fd5b6000620006c88385018562001222565b60405163c32a50f960e01b8152600481018290529091506001600160a01b0383169063c32a50f990602401600060405180830381600087803b1580156200070e57600080fd5b505af115801562000723573d6000803e3d6000fd5b505050505050505050565b6009805460ff169060006200074383620015e5565b91906101000a81548160ff021916908360ff16021790555050565b6200076862001054565b600755565b6200077762001054565b62000783600062001083565b565b60008060026200079781600862001575565b620007a390866200159a565b620007af9190620015bf565b600360b81b60ff9190911690811b199590951660b89390931b60ff60b81b1690941b919091179392505050565b620007e662001054565b600180546001600160a01b039485166001600160a01b03199182161790915560029290925560038054919093169116179055565b600060235b60ff811615620008965760006200083d846200058e84600162001605565b905060006200084d8684620005bc565b905060006200085d8784620005bc565b90506200086c87858362000785565b96506200087b87848462000785565b965050505080806200088d90620015e5565b9150506200081f565b509192915050565b620008a862001054565b6001600160a01b03166000908152600a60205260409020805460ff19166001179055565b6000600b8260648110620008e457620008e462001621565b01546001600160a01b031692915050565b620008ff620011d7565b60006200090e600684620015bf565b905060005b600660ff821610156200097b5760006200092e828462001605565b905060006200093e8783620005bc565b9050848160ff166003811062000958576200095862001621565b602002018051906200096a8262001637565b60000b905250505060010162000913565b505092915050565b6200098d62001054565b50565b6200099a62001054565b6001600160a01b03166000908152600a60205260409020805460ff19169055565b620009c5620011f5565b60408051610c8081019182905290600b9060649082845b81546001600160a01b03168152600190910190602001808311620009dc575050505050905090565b62000a0e62001054565b6006805460ff191660ff92909216919091179055565b336000908152600a602052604090205460ff161562000a5957604051634114689b60e11b815233600482015260240162000678565b60055434101562000a7d5760405163e7781c5960e01b815260040160405180910390fd5b606f5460009060649062000a969060ff16600162001605565b62000aa291906200159a565b90506000600b8260ff166064811062000abf5762000abf62001621565b01546001600160a01b03169050801562000bff57806000816001600160a01b0316631865c57d6040518163ffffffff1660e01b8152600401602060405180830381865afa15801562000b15573d6000803e3d6000fd5b505050506040513d601f19601f8201168201806040525081019062000b3b91906200166f565b600281111562000b4f5762000b4f62001659565b0362000b6e57604051630b37dc9160e01b815260040160405180910390fd5b600654600754600854604051636e328aab60e01b815260ff9384166004820152602481019290925260448201523360648201526084810187905290851660a48201526001600160a01b03821690636e328aab9060c401600060405180830381600087803b15801562000bdf57600080fd5b505af115801562000bf4573d6000803e3d6000fd5b505050505062000cd2565b60003083600660009054906101000a900460ff16600754600854338a8a60405162000c2a9062001214565b6001600160a01b03988916815260ff978816602082015295871660408701526060860194909452608085019290925290941660a083015260c0820193909352911660e082015261010001604051809103906000f08015801562000c91573d6000803e3d6000fd5b50905080915081600b8460ff166064811062000cb15762000cb162001621565b0180546001600160a01b0319166001600160a01b0392909216919091179055505b606f805460ff191660ff848116919091179091556009805490911690600062000cfb8362001692565b91906101000a81548160ff021916908360ff1602179055505062000d1f81620010d3565b6040516001600160a01b0382169060ff8416907fc3e0f84839dc888c892a013d10c8f9d6dc05a21a879d0ce468ca558013e9121c90600090a350505050565b60095460609060ff1660008167ffffffffffffffff81111562000d855762000d85620016ab565b60405190808252806020026020018201604052801562000daf578160200160208202803683370190505b5090506000805b606460ff8216101562000ec4576000600b8260ff166064811062000dde5762000dde62001621565b01546001600160a01b03169050801562000eba576000819050806001600160a01b03166347535d7b6040518163ffffffff1660e01b8152600401602060405180830381865afa15801562000e36573d6000803e3d6000fd5b505050506040513d601f19601f8201168201806040525081019062000e5c9190620016c1565b1562000eb85781858560ff168151811062000e7b5762000e7b62001621565b6001600160a01b03909216602092830291909101909101528362000e9f8162001692565b9450508560ff168460ff161062000eb857505062000ec4565b505b5060010162000db6565b50909392505050565b62000ed762001054565b6001600160a01b03811662000f0357604051631e4fbdf760e01b81526000600482015260240162000678565b6200098d8162001083565b600062000f1a620011d7565b60005b62000f2a600680620015bf565b60ff168160ff16101562000f8257600062000f468583620005bc565b9050828160ff166003811062000f605762000f6062001621565b6020020180519062000f728262001692565b60ff169052505060010162000f1d565b50600362000f92600680620015bf565b62000f9e919062001575565b815160ff908116911614801562000fdb5750600362000fbf600680620015bf565b62000fcb919062001575565b60ff16816001602002015160ff16145b80156200100e5750600362000ff2600680620015bf565b62000ffe919062001575565b60ff16816002602002015160ff16145b9392505050565b60008160ff16836040516020016200102f91815260200190565b6040516020818303038152906040528051906020012060001c6200100e9190620016e5565b6000546001600160a01b03163314620007835760405163118cdaa760e01b815233600482015260240162000678565b600080546001600160a01b038381166001600160a01b0319831681178455604051919092169283917f8be0079c531659141344cd1fd0a4f28419497f9722a3daafe3b4186f6b6457e09190a35050565b600154600254600354604051636e6be03f60e01b81526001600160a01b0393841660048201526024810192909252306044830181905290831660648301526084820152631b8c6c8560e11b60a482015260e060c4820152600060e48201819052917f00000000000000000000000000000000000000000000000000000000000000001690636e6be03f90610104016020604051808303816000875af115801562001181573d6000803e3d6000fd5b505050506040513d601f19601f82011682018060405250810190620011a79190620016fc565b600090815260046020526040902080546001600160a01b0319166001600160a01b03939093169290921790915550565b60405180606001604052806003906020820280368337509192915050565b60405180610c8001604052806064906020820280368337509192915050565b61394c806200171783390190565b6000602082840312156200123557600080fd5b5035919050565b80356001600160b81b0319811681146200125557600080fd5b919050565b803560ff811681146200125557600080fd5b600080604083850312156200128057600080fd5b6200128b836200123c565b91506200129b602084016200125a565b90509250929050565b600080600060408486031215620012ba57600080fd5b83359250602084013567ffffffffffffffff80821115620012da57600080fd5b818601915086601f830112620012ef57600080fd5b813581811115620012ff57600080fd5b8760208285010111156200131257600080fd5b6020830194508093505050509250925092565b6000806000606084860312156200133b57600080fd5b62001346846200123c565b925062001356602085016200125a565b915062001366604085016200125a565b90509250925092565b80356001600160a01b03811681146200125557600080fd5b6000806000606084860312156200139d57600080fd5b620013a8846200136f565b92506020840135915062001366604085016200136f565b60008060408385031215620013d357600080fd5b620013de836200123c565b946020939093013593505050565b600060208284031215620013ff57600080fd5b6200100e826200136f565b6060810181836000805b600381101562001437578251820b84526020938401939092019160010162001414565b5050505092915050565b6000602082840312156200145457600080fd5b6200100e826200125a565b610c808101818360005b6064811015620014935781516001600160a01b031683526020928301929091019060010162001469565b50505092915050565b60008060408385031215620014b057600080fd5b823591506200129b602084016200125a565b6020808252825182820181905260009190848201906040850190845b81811015620015055783516001600160a01b031683529284019291840191600101620014de565b50909695505050505050565b6000602082840312156200152457600080fd5b6200100e826200123c565b634e487b7160e01b600052601160045260246000fd5b80820281158282048414176200060457620006046200152f565b634e487b7160e01b600052601260045260246000fd5b600060ff8316806200158b576200158b6200155f565b8060ff84160491505092915050565b600060ff831680620015b057620015b06200155f565b8060ff84160691505092915050565b60ff8181168382160290811690818114620015de57620015de6200152f565b5092915050565b600060ff821680620015fb57620015fb6200152f565b6000190192915050565b60ff81811683821601908111156200060457620006046200152f565b634e487b7160e01b600052603260045260246000fd5b60008160000b607f81036200165057620016506200152f565b60010192915050565b634e487b7160e01b600052602160045260246000fd5b6000602082840312156200168257600080fd5b8151600381106200100e57600080fd5b600060ff821660ff81036200165057620016506200152f565b634e487b7160e01b600052604160045260246000fd5b600060208284031215620016d457600080fd5b815180151581146200100e57600080fd5b600082620016f757620016f76200155f565b500690565b6000602082840312156200170f57600080fd5b505191905056fe60c06040526000805461ff001916610a0017905560018055655af3107a40006002553480156200002e57600080fd5b506040516200394c3803806200394c833981016040819052620000519162000106565b6001600160a01b0388811660805260ff88811660a0526000805460018981556002899055600380549589166001600160a01b031990961695909517909455600486905560088054600584905586851662ff00ff19909116176201000017905561ffff19169189166101000260ff1916919091179091179055505050505050505062000193565b80516001600160a01b0381168114620000ef57600080fd5b919050565b805160ff81168114620000ef57600080fd5b600080600080600080600080610100898b0312156200012457600080fd5b6200012f89620000d7565b97506200013f60208a01620000f4565b96506200014f60408a01620000f4565b955060608901519450608089015193506200016d60a08a01620000d7565b925060c089015191506200018460e08a01620000f4565b90509295985092959890939650565b60805160a051613770620001dc6000396000818161044b01526109a00152600081816105b201528181610698015281816107510152818161197e015261212c01526137706000f3fe6080604052600436106101815760003560e01c806374cee9d1116100d1578063b1055add1161008a578063c32a50f911610064578063c32a50f91461046f578063c4ae16a81461048f578063dc71e3b8146104c2578063fcada10a146104e257600080fd5b8063b1055add14610410578063b6b3b64e1461041c578063c0bd83511461043c57600080fd5b806374cee9d1146103595780637bb054311461036e5780639cf6d1af1461038e578063a1455b68146103b6578063a6d3571d146103cb578063ad2e8c9b146103f857600080fd5b80633133888e1161013e5780633d536a2e116101185780633d536a2e146102dd57806347535d7b14610302578063525f5093146103175780636e328aab1461033957600080fd5b80633133888e1461027b57806332648d7e1461029d5780633640f613146102bd57600080fd5b80630f9361c31461018657806315822f44146101ae5780631746bd1b146101de5780631865c57d1461020657806323d808da1461022c5780632c70120e14610259575b600080fd5b34801561019257600080fd5b5061019b6104ff565b6040519081526020015b60405180910390f35b3480156101ba57600080fd5b506101ce6101c9366004612f76565b610516565b60405190151581526020016101a5565b3480156101ea57600080fd5b506101f36108c1565b6040516101a59796959493929190612fc6565b34801561021257600080fd5b5060085462010000900460ff166040516101a59190613075565b34801561023857600080fd5b5061024c61024736600461309e565b6109e3565b6040516101a59190613134565b34801561026557600080fd5b5061026e610b25565b6040516101a59190613143565b34801561028757600080fd5b5061029b610296366004613192565b610ccb565b005b3480156102a957600080fd5b5061029b6102b83660046131ea565b610dc4565b3480156102c957600080fd5b5061029b6102d836600461309e565b6111d5565b6102f06102eb366004613248565b611446565b60405160ff90911681526020016101a5565b34801561030e57600080fd5b506101ce6117d5565b34801561032357600080fd5b5061032c6117fb565b6040516101a5919061336c565b34801561034557600080fd5b5061029b6103543660046133c6565b611973565b34801561036557600080fd5b5060045461019b565b34801561037a57600080fd5b506101ce61038936600461309e565b611a99565b34801561039a57600080fd5b506003546040516001600160a01b0390911681526020016101a5565b3480156103c257600080fd5b5061029b611c30565b3480156103d757600080fd5b506103eb6103e636600461309e565b611c5e565b6040516101a59190613425565b34801561040457600080fd5b5060085460ff166102f0565b34801561029b57600080fd5b34801561042857600080fd5b506102f0610437366004613434565b611d72565b34801561044857600080fd5b507f00000000000000000000000000000000000000000000000000000000000000006102f0565b34801561047b57600080fd5b5061029b61048a366004613470565b612121565b34801561049b57600080fd5b506104af6104aa366004613489565b6121d1565b60405160009190910b81526020016101a5565b3480156104ce57600080fd5b5061029b6104dd3660046134a4565b61223b565b3480156104ee57600080fd5b50600854610100900460ff166102f0565b600154600090610511906003906134f5565b905090565b6003546000906001600160a01b031633146105445760405163730d477360e11b815260040160405180910390fd5b60008383604051602001610559929190613530565b60405160208183030381529060405280519060200120905080600454146105935760405163a5ab2a5960e01b815260040160405180910390fd5b60405163f3304bbf60e01b81526001600160b81b0319851660048201527f00000000000000000000000000000000000000000000000000000000000000006001600160a01b03169063f3304bbf90602401602060405180830381865afa158015610601573d6000803e3d6000fd5b505050506040513d601f19601f820116820180604052508101906106259190613561565b61066b576003546040516001600160a01b03909116907ff06e016360df4c9b017c99214597c4e45c240c89602b99ee310848b7c630cbcc90600090a260009150506108bb565b6005546040516340a2978360e11b81526001600160b81b03198616600482015260248101919091526000907f00000000000000000000000000000000000000000000000000000000000000006001600160a01b0316906381452f0690604401602060405180830381865afa1580156106e7573d6000803e3d6000fd5b505050506040513d601f19601f8201168201806040525081019061070b9190613583565b905060005b60085460ff610100909104811690821610156108b3576040516354e4130360e11b81526001600160b81b03198316600482015260ff821660248201526000907f00000000000000000000000000000000000000000000000000000000000000006001600160a01b03169063a9c8260690604401606060405180830381865afa1580156107a0573d6000803e3d6000fd5b505050506040513d601f19601f820116820180604052508101906107c491906135a0565b8051909150600960ff8416600681106107df576107df61362e565b6003020160020160076101000a81548160ff021916908360000b60ff160217905550806001600381106108145761081461362e565b602002015160098360ff166006811061082f5761082f61362e565b6003020160020160086101000a81548160ff021916908360000b60ff160217905550806001600381106108645761086461362e565b602002015160098360ff166006811061087f5761087f61362e565b60030201600201805469ff0000000000000000001916600160481b60ff939093169290920291909117905550600101610710565b506001925050505b92915050565b60085460009081908190819081908190606090610100900460ff16828167ffffffffffffffff8111156108f6576108f6612ec3565b60405190808252806020026020018201604052801561091f578160200160208202803683370190505b50905060005b8260ff168160ff1610156109915760098160ff16600681106109495761094961362e565b600302015482516001600160a01b0390911690839060ff84169081106109715761097161362e565b6001600160a01b0390921660209283029190910190910152600101610925565b50600854601b546001546002547f00000000000000000000000000000000000000000000000000000000000000009d60ff610100860481169e509384169c509290931699509750909550909350915050565b6109eb612d82565b601b54829060ff90811690821610610a16576040516311eb888760e31b815260040160405180910390fd5b601c8360ff1660788110610a2c57610a2c61362e565b604080516101008082018352600293840294909401805460ff8082168452958104861660208401529194909392850192620100009092041690811115610a7457610a7461304f565b6002811115610a8557610a8561304f565b815281546020909101906301000000900460ff166002811115610aaa57610aaa61304f565b6002811115610abb57610abb61304f565b8152815460ff600160201b820481166020840152600160281b820481166040840152606090920191600160301b909104166005811115610afd57610afd61304f565b6005811115610b0e57610b0e61304f565b815260200160018201548152505091505b50919050565b601b5460609060ff1660008167ffffffffffffffff811115610b4957610b49612ec3565b604051908082528060200260200182016040528015610b8257816020015b610b6f612d82565b815260200190600190039081610b675790505b50905060005b8260ff168160ff161015610cc457601c8160ff1660788110610bac57610bac61362e565b604080516101008082018352600293840294909401805460ff8082168452958104861660208401529194909392850192620100009092041690811115610bf457610bf461304f565b6002811115610c0557610c0561304f565b815281546020909101906301000000900460ff166002811115610c2a57610c2a61304f565b6002811115610c3b57610c3b61304f565b8152815460ff600160201b820481166020840152600160281b820481166040840152606090920191600160301b909104166005811115610c7d57610c7d61304f565b6005811115610c8e57610c8e61304f565b8152602001600182015481525050828260ff1681518110610cb157610cb161362e565b6020908102919091010152600101610b88565b5092915050565b600854829060ff610100909104811690821610610cfb57604051630e0a2aa160e11b815260040160405180910390fd5b6003546001600160a01b03163314610d265760405163730d477360e11b815260040160405180910390fd5b600660098460ff1660068110610d3e57610d3e61362e565b6003020160020160026101000a81548160ff021916908360000b60ff16021790555060098360ff1660068110610d7657610d7661362e565b60030201546040516001600160a01b03909116907f675e261a416100b60f1c071c20fd8b07e1e242d28313ee7638d4d44614a2d4e690610db7908590613670565b60405180910390a2505050565b601b54839060ff90811690821610610def576040516311eb888760e31b815260040160405180910390fd5b6000601c8560ff1660788110610e0757610e0761362e565b604080516101008082018352600293840294909401805460ff8082168452958104861660208401529194909392850192620100009092041690811115610e4f57610e4f61304f565b6002811115610e6057610e6061304f565b815281546020909101906301000000900460ff166002811115610e8557610e8561304f565b6002811115610e9657610e9661304f565b8152815460ff600160201b820481166020840152600160281b820481166040840152606090920191600160301b909104166005811115610ed857610ed861304f565b6005811115610ee957610ee961304f565b81526001918201546020909101529091508160c001516005811115610f1057610f1061304f565b14610f2e57604051633018e60760e21b815260040160405180910390fd5b60008460f81b84604051602001610f46929190613683565b604051602081830303815290604052805190602001209050808260e0015114610f8257604051633b74e52960e11b815260040160405180910390fd5b60008560ff166002811115610f9957610f9961304f565b905080601c8860ff1660788110610fb257610fb261362e565b6002020160000160026101000a81548160ff02191690836002811115610fda57610fda61304f565b021790555060608301518351610ff090836124f8565b610ffe8460200151826124f8565b600060028360028111156110145761101461304f565b60ff161115611034576110308986600001518760200151612679565b5060055b60028260028111156110485761104861304f565b60ff16111561106857611064898660000151876020015161291e565b5060045b81600281111561107a5761107a61304f565b83600281111561108c5761108c61304f565b036110ac576110a48986600001518760200151612ba5565b506003611185565b60008360028111156110c0576110c061304f565b1480156110de575060028260028111156110dc576110dc61304f565b145b80611116575060018360028111156110f8576110f861304f565b148015611116575060008260028111156111145761111461304f565b145b8061114e575060028360028111156111305761113061304f565b14801561114e5750600182600281111561114c5761114c61304f565b145b1561116e57611166898660000151876020015161291e565b506004611185565b6111818986600001518760200151612679565b5060055b8060058111156111975761119761304f565b60ff168960ff167f16ee0aa4913ca9b3502ba060565c5e7016a69fa5853154a2611b73f45f48383960405160405180910390a3505050505050505050565b601b54819060ff90811690821610611200576040516311eb888760e31b815260040160405180910390fd5b6000601c8360ff16607881106112185761121861362e565b604080516101008082018352600293840294909401805460ff80821684529581048616602084015291949093928501926201000090920416908111156112605761126061304f565b60028111156112715761127161304f565b815281546020909101906301000000900460ff1660028111156112965761129661304f565b60028111156112a7576112a761304f565b8152815460ff600160201b820481166020840152600160281b820481166040840152606090920191600160301b9091041660058111156112e9576112e961304f565b60058111156112fa576112fa61304f565b81526001919091015460209091015280519091506000611319336121d1565b90508060000b8260000b14611341576040516334e24b8360e21b815260040160405180910390fd5b60c0830151600081600581111561135a5761135a61304f565b1461137857604051637021339d60e11b815260040160405180910390fd5b836080015160098460ff16600681106113935761139361362e565b6003020160020160018282829054906101000a900460ff166113b591906136b4565b92506101000a81548160ff021916908360ff1602179055506002601c8760ff16607881106113e5576113e561362e565b60020201805460ff60301b1916600160301b8360058111156114095761140961304f565b0217905550604051339060ff8816907f34d66c87f348a9492b2a7fe1463b02de9cab509ca7872ee83878909d9805c3a890600090a3505050505050565b6000336114516104ff565b3410156114715760405163e71ff98960e01b815260040160405180910390fd5b600060085462010000900460ff1660028111156114905761149061304f565b146114ae5760405163817b163760e01b815260040160405180910390fd5b6003546001600160a01b038083169116036114dc5760405163031ee3ed60e51b815260040160405180910390fd5b600854610100900460ff16915060066114f68360016136cd565b60ff1611156115185760405163380d3cc160e11b815260040160405180910390fd5b60005b8260ff168160ff16101561157d57816001600160a01b031660098260ff16600681106115495761154961362e565b60030201546001600160a01b03160361157557604051639bec841d60e01b815260040160405180910390fd5b60010161151b565b50611586612dc6565b6001600160a01b03821681526003604082015280600960ff8516600681106115b0576115b061362e565b6003020160008201518160000160006101000a8154816001600160a01b0302191690836001600160a01b031602179055506020820151816001015560408201518160020160006101000a81548160ff021916908360ff16021790555060608201518160020160016101000a81548160ff021916908360ff16021790555060808201518160020160026101000a81548160ff021916908360000b60ff16021790555060a08201518160020160036101000a81548160ff021916908360000b60ff16021790555060c08201518160020160046101000a81548160ff021916908360000b60ff16021790555060e08201518160020160056101000a81548160ff021916908360000b60ff1602179055506101008201518160020160066101000a81548160ff021916908360ff1602179055506101208201518160020160076101000a81548160ff021916908360000b60ff1602179055506101408201518160020160086101000a81548160ff021916908360000b60ff1602179055506101608201518160020160096101000a81548160ff021916908360000b60ff1602179055509050506008600181819054906101000a900460ff1680929190611770906136e6565b91906101000a81548160ff021916908360ff16021790555050816001600160a01b03168360ff167fdc70164a0afb7ca145a827fd238ec265b666c335c24a0afa2a33aab37362b4e1866040516117c69190613670565b60405180910390a35050919050565b60008060085462010000900460ff1660028111156117f5576117f561304f565b14905090565b600854606090610100900460ff1660008167ffffffffffffffff81111561182457611824612ec3565b60405190808252806020026020018201604052801561185d57816020015b61184a612dc6565b8152602001906001900390816118425790505b50905060005b8260ff168160ff161015610cc45760098160ff16600681106118875761188761362e565b60408051610180810182526003929092029290920180546001600160a01b03168252600181015460208301526002015460ff8082169383019390935261010080820484166060840152620100008204600090810b608085015263010000008304810b60a0850152600160201b8304810b60c0850152600160281b8304810b60e0850152600160301b8304851691840191909152600160381b8204810b610120840152600160401b8204810b610140840152600160481b909104900b6101608201528351909184919084169081106119605761196061362e565b6020908102919091010152600101611863565b336001600160a01b037f000000000000000000000000000000000000000000000000000000000000000016146119bc57604051633f9db83960e01b815260040160405180910390fd5b600060085462010000900460ff1660028111156119db576119db61304f565b036119f95760405163ad6418ff60e01b815260040160405180910390fd5b601b805460ff19169055611a0f601c6000612e2a565b6008805461ff0019169055611a2660096000612e39565b6000805460018781556002879055600380546001600160a01b0388166001600160a01b0319909116179055600485905560088054600585905560ff80871662ff00ff1990921691909117620100001790915561ffff199092169189166101000260ff191691909117179055505050505050565b600854600090829060ff610100909104811690821610611acc57604051630e0a2aa160e11b815260040160405180910390fd5b600060098460ff1660068110611ae457611ae461362e565b60408051610180810182526003929092029290920180546001600160a01b03168252600181015460208301526002015460ff8082169383019390935261010080820484166060840152620100008204600090810b608085015263010000008304810b60a08501819052600160201b8404820b60c0860152600160281b8404820b60e0860152600160301b840490951691840191909152600160381b8204810b6101208401819052600160401b8304820b610140850152600160481b909204900b6101608301529092501280611bc7575080610140015160000b8160c0015160000b135b80611be0575080610160015160000b8160e0015160000b135b15611c265780516040516001600160a01b03909116907f01c709aae484e2a477ef26450949077d5411b73db0d6b24d7db60381d60794cd90600090a26000925050610b1f565b5060019392505050565b60005b60085460ff61010090910481169082161015611c5b57611c5281611a99565b50600101611c33565b50565b611c66612dc6565b600854829060ff610100909104811690821610611c9657604051630e0a2aa160e11b815260040160405180910390fd5b60098360ff1660068110611cac57611cac61362e565b60408051610180810182526003929092029290920180546001600160a01b03168252600181015460208301526002015460ff8082169383019390935261010080820484166060840152620100008204600090810b608085015263010000008304810b60a0850152600160201b8304810b60c0850152600160281b8304810b60e0850152600160301b830490941690830152600160381b8104830b610120830152600160401b8104830b610140830152600160481b900490910b6101608201529392505050565b6000611d7c612d82565b6000611d87336121d1565b90508060000b60001903611dae57604051637082284960e11b815260040160405180910390fd5b806000600960ff831660068110611dc757611dc761362e565b60408051610180810182526003929092029290920180546001600160a01b03168252600180820154602084015260029091015460ff8082169484019490945261010080820485166060850152620100008204600090810b608086015263010000008304810b60a0860152600160201b8304810b60c0860152600160281b8304810b60e0860152600160301b8304909516908401819052600160381b8204850b610120850152600160401b8204850b610140850152600160481b909104840b610160840152919350611e9891906136cd565b9050601460ff82161115611ebf57604051633fac4c7160e21b815260040160405180910390fd5b816040015160ff16826060015189611ed791906136cd565b60ff161115611ef957604051638ba4117960e01b815260040160405180910390fd5b60ff808416865260e086018a905287811660a08701528881166080870152601b5416955084601c8760788110611f3157611f3161362e565b82516002918202929092018054602085015160ff9081166101000261ffff1990921694169390931792909217808355604084015191839162ff000019169062010000908490811115611f8557611f8561304f565b021790555060608201518154829063ff00000019166301000000836002811115611fb157611fb161304f565b02179055506080820151815460a084015160ff908116600160281b0265ff00000000001991909316600160201b021665ffff0000000019909116171780825560c083015190829060ff60301b1916600160301b8360058111156120165761201661304f565b021790555060e09190910151600190910155601b805460ff1690600061203b836136e6565b91906101000a81548160ff021916908360ff160217905550508060098460ff166006811061206b5761206b61362e565b6003020160020160066101000a81548160ff021916908360ff1602179055508760098460ff16600681106120a1576120a161362e565b6003020160020160018282829054906101000a900460ff166120c391906136cd565b92506101000a81548160ff021916908360ff160217905550336001600160a01b03168660ff167f18a47d8df22f178f89e665cc0fccf4ee175e91434c7b749c4a7607ffa4d33a6760405160405180910390a350505050509392505050565b336001600160a01b037f0000000000000000000000000000000000000000000000000000000000000000161461216a57604051633f9db83960e01b815260040160405180910390fd5b60005460ff1661218c57604051620e2aed60e31b815260040160405180910390fd5b60058190556000805460ff191690556040518181527fbda2e5fc778edfbed22cb985a005e7314108766bd66e86798f58611dcb9fb8b99060200160405180910390a150565b60085460001990610100900460ff1660005b8160ff168160ff16101561223457836001600160a01b031660098260ff16600681106122115761221161362e565b60030201546001600160a01b03160361222c57809250612234565b6001016121e3565b5050919050565b601b54829060ff90811690821610612266576040516311eb888760e31b815260040160405180910390fd5b6000612271336121d1565b90508060000b6000190361229857604051637082284960e11b815260040160405180910390fd5b806000601c60ff8716607881106122b1576122b161362e565b60020201905060008154600160301b900460ff1660058111156122d6576122d661304f565b146122f4576040516317c9510160e01b815260040160405180910390fd5b600060098360ff166006811061230c5761230c61362e565b60408051610180810182526003929092029290920180546001600160a01b03168252600181015460208301526002015460ff808216938301849052610100808304821660608501819052620100008404600090810b608087015263010000008504810b60a0870152600160201b8504810b60c0870152600160281b808604820b60e0880152600160301b8604851693870193909352600160381b8504810b610120870152600160401b8504810b610140870152600160481b90940490930b61016085015286549395506123e09304166136cd565b60ff16111561240257604051638ba4117960e01b815260040160405180910390fd5b815460ff84166101000261ff00198216811784558791849163ff000000191663ff00ff00199091161763010000008360028111156124425761244261304f565b0217905550815460ff60301b1916600160301b1780835560ff600160281b90910481169060099085166006811061247b5761247b61362e565b6003020160020160018282829054906101000a900460ff1661249d91906136cd565b92506101000a81548160ff021916908360ff160217905550336001600160a01b03168760ff167f01b120bec3d4ba9705e9f5f6c7aa115993959878ac9533a84cb359ffe642823060405160405180910390a350505050505050565b600081600281111561250c5761250c61304f565b0361256c5760098260ff16600681106125275761252761362e565b60030201600201600381819054906101000a900460000b8092919061254b90613705565b91906101000a81548160ff021916908360000b60ff16021790555050612625565b60018160028111156125805761258061304f565b036125ba5760098260ff166006811061259b5761259b61362e565b600302016002018054600160201b900460000b90600461254b83613705565b60028160028111156125ce576125ce61304f565b036126255760098260ff16600681106125e9576125e961362e565b600302016002018054600160281b900460000b90600561260883613705565b91906101000a81548160ff021916908360000b60ff160217905550505b60098260ff166006811061263b5761263b61362e565b600302016002908101805462010000900460000b916126598361371b565b91906101000a81548160ff021916908360000b60ff160217905550505050565b6000601c8460ff16607881106126915761269161362e565b604080516101008082018352600293840294909401805460ff80821684529581048616602084015291949093928501926201000090920416908111156126d9576126d961304f565b60028111156126ea576126ea61304f565b815281546020909101906301000000900460ff16600281111561270f5761270f61304f565b60028111156127205761272061304f565b8152815460ff600160201b820481166020840152600160281b820481166040840152606090920191600160301b9091041660058111156127625761276261304f565b60058111156127735761277361304f565b815260200160018201548152505090506005601c8560ff166078811061279b5761279b61362e565b60020201805460ff60301b1916600160301b8360058111156127bf576127bf61304f565b0217905550806080015160098460ff16600681106127df576127df61362e565b6003020160020160018282829054906101000a900460ff1661280191906136b4565b92506101000a81548160ff021916908360ff160217905550806080015160098460ff16600681106128345761283461362e565b6003020160020160008282829054906101000a900460ff1661285691906136b4565b92506101000a81548160ff021916908360ff1602179055508060a0015160098360ff16600681106128895761288961362e565b6003020160020160018282829054906101000a900460ff166128ab91906136b4565b92506101000a81548160ff021916908360ff160217905550806080015160098360ff16600681106128de576128de61362e565b6003020160020160008282829054906101000a900460ff1661290091906136cd565b92506101000a81548160ff021916908360ff16021790555050505050565b6000601c8460ff16607881106129365761293661362e565b604080516101008082018352600293840294909401805460ff808216845295810486166020840152919490939285019262010000909204169081111561297e5761297e61304f565b600281111561298f5761298f61304f565b815281546020909101906301000000900460ff1660028111156129b4576129b461304f565b60028111156129c5576129c561304f565b8152815460ff600160201b820481166020840152600160281b820481166040840152606090920191600160301b909104166005811115612a0757612a0761304f565b6005811115612a1857612a1861304f565b815260200160018201548152505090506004601c8560ff1660788110612a4057612a4061362e565b60020201805460ff60301b1916600160301b836005811115612a6457612a6461304f565b0217905550806080015160098460ff1660068110612a8457612a8461362e565b6003020160020160018282829054906101000a900460ff16612aa691906136b4565b92506101000a81548160ff021916908360ff1602179055508060a0015160098460ff1660068110612ad957612ad961362e565b6003020160020160008282829054906101000a900460ff16612afb91906136cd565b92506101000a81548160ff021916908360ff1602179055508060a0015160098360ff1660068110612b2e57612b2e61362e565b6003020160020160018282829054906101000a900460ff16612b5091906136b4565b92506101000a81548160ff021916908360ff1602179055508060a0015160098360ff1660068110612b8357612b8361362e565b6003020160020160008282829054906101000a900460ff1661290091906136b4565b6000601c8460ff1660788110612bbd57612bbd61362e565b604080516101008082018352600293840294909401805460ff8082168452958104861660208401529194909392850192620100009092041690811115612c0557612c0561304f565b6002811115612c1657612c1661304f565b815281546020909101906301000000900460ff166002811115612c3b57612c3b61304f565b6002811115612c4c57612c4c61304f565b8152815460ff600160201b820481166020840152600160281b820481166040840152606090920191600160301b909104166005811115612c8e57612c8e61304f565b6005811115612c9f57612c9f61304f565b815260200160018201548152505090506003601c8560ff1660788110612cc757612cc761362e565b60020201805460ff60301b1916600160301b836005811115612ceb57612ceb61304f565b0217905550806080015160098460ff1660068110612d0b57612d0b61362e565b6003020160020160018282829054906101000a900460ff16612d2d91906136b4565b92506101000a81548160ff021916908360ff1602179055508060a0015160098360ff1660068110612d6057612d6061362e565b6003020160020160018282829054906101000a900460ff1661290091906136b4565b6040805161010081018252600080825260208201819052918101829052606081018290526080810182905260a0810182905260c0810182905260e081019190915290565b6040805161018081018252600080825260208201819052918101829052606081018290526080810182905260a0810182905260c0810182905260e0810182905261010081018290526101208101829052610140810182905261016081019190915290565b50611c5b9060f0810190612e48565b50611c5b906012810190612e72565b5b80821115612e6e57805466ffffffffffffff1916815560006001820155600201612e49565b5090565b5b80821115612e6e5780546001600160a01b03191681556000600182015560028101805469ffffffffffffffffffff19169055600301612e73565b6001600160b81b031981168114611c5b57600080fd5b634e487b7160e01b600052604160045260246000fd5b600067ffffffffffffffff80841115612ef457612ef4612ec3565b604051601f8501601f19908116603f01168101908282118183101715612f1c57612f1c612ec3565b81604052809350858152868686011115612f3557600080fd5b858560208301376000602087830101525050509392505050565b600082601f830112612f6057600080fd5b612f6f83833560208501612ed9565b9392505050565b60008060408385031215612f8957600080fd5b8235612f9481612ead565b9150602083013567ffffffffffffffff811115612fb057600080fd5b612fbc85828601612f4f565b9150509250929050565b600060e0820160ff8a168352602060ff8a16602085015260ff8916604085015260ff881660608501528660808501528560a085015260e060c08501528185518084526101008601915060208701935060005b8181101561303d5784516001600160a01b031683529383019391830191600101613018565b50909c9b505050505050505050505050565b634e487b7160e01b600052602160045260246000fd5b60038110611c5b57611c5b61304f565b6020810161308283613065565b91905290565b803560ff8116811461309957600080fd5b919050565b6000602082840312156130b057600080fd5b612f6f82613088565b60ff815116825260ff602082015116602083015260408101516130db81613065565b604083015260608101516130ee81613065565b8060608401525060ff608082015116608083015260ff60a08201511660a083015260c0810151600681106131245761312461304f565b60c083015260e090810151910152565b61010081016108bb82846130b9565b6020808252825182820181905260009190848201906040850190845b81811015613186576131728385516130b9565b92840192610100929092019160010161315f565b50909695505050505050565b600080604083850312156131a557600080fd5b6131ae83613088565b9150602083013567ffffffffffffffff8111156131ca57600080fd5b8301601f810185136131db57600080fd5b612fbc85823560208401612ed9565b6000806000606084860312156131ff57600080fd5b61320884613088565b925061321660208501613088565b9150604084013567ffffffffffffffff81111561323257600080fd5b61323e86828701612f4f565b9150509250925092565b60006020828403121561325a57600080fd5b813567ffffffffffffffff81111561327157600080fd5b61327d84828501612f4f565b949350505050565b80516001600160a01b031682526020810151602083015260408101516132b0604084018260ff169052565b5060608101516132c5606084018260ff169052565b5060808101516132da608084018260000b9052565b5060a08101516132ef60a084018260000b9052565b5060c081015161330460c084018260000b9052565b5060e081015161331960e084018260000b9052565b506101008181015160ff169083015261012080820151600081900b8285015250506101408082015161334f8285018260000b9052565b5050610160808201516133668285018260000b9052565b50505050565b6020808252825182820181905260009190848201906040850190845b818110156131865761339b838551613285565b928401926101809290920191600101613388565b80356001600160a01b038116811461309957600080fd5b60008060008060008060c087890312156133df57600080fd5b6133e887613088565b95506020870135945060408701359350613404606088016133af565b92506080870135915061341960a08801613088565b90509295509295509295565b61018081016108bb8284613285565b60008060006060848603121561344957600080fd5b8335925061345960208501613088565b915061346760408501613088565b90509250925092565b60006020828403121561348257600080fd5b5035919050565b60006020828403121561349b57600080fd5b612f6f826133af565b600080604083850312156134b757600080fd5b6134c083613088565b91506020830135600381106134d457600080fd5b809150509250929050565b634e487b7160e01b600052601160045260246000fd5b80820281158282048414176108bb576108bb6134df565b60005b8381101561352757818101518382015260200161350f565b50506000910152565b6001600160b81b031983168152815160009061355381600985016020870161350c565b919091016009019392505050565b60006020828403121561357357600080fd5b81518015158114612f6f57600080fd5b60006020828403121561359557600080fd5b8151612f6f81612ead565b6000606082840312156135b257600080fd5b82601f8301126135c157600080fd5b6040516060810181811067ffffffffffffffff821117156135e4576135e4612ec3565b6040528060608401858111156135f957600080fd5b845b81811015613623578051600081810b8214613614578081fd5b508352602092830192016135fb565b509195945050505050565b634e487b7160e01b600052603260045260246000fd5b6000815180845261365c81602086016020860161350c565b601f01601f19169290920160200192915050565b602081526000612f6f6020830184613644565b6001600160f81b03198316815281516000906136a681600185016020870161350c565b919091016001019392505050565b60ff82811682821603908111156108bb576108bb6134df565b60ff81811683821601908111156108bb576108bb6134df565b600060ff821660ff81036136fc576136fc6134df565b60010192915050565b60008160000b607f81036136fc576136fc6134df565b600081810b60808101613730576137306134df565b600019019291505056fea264697066735822122019d9400996f19c01516f44bb82acaae334a58b9136e0fc7684964c81773060b664736f6c63430008170033a2646970667358221220ca101959d48c7aeede686b592b08ea77b4cf0a0a99027abe448e54e25899a76a64736f6c63430008170033","linkReferences":{}},"methodIdentifiers":{"airnodeRrp()":"71bab666","ban(address)":"97c3ccd8","createGame(bytes32,uint8)":"e671cdae","fulfillUint256(bytes32,bytes)":"3718d90a","generateRandomNumberFromSeed(uint256,uint8)":"f6cca6e2","getBasicJoiningCost()":"0f9361c3","getCard(bytes9,uint8)":"11aa10c7","getGame(uint256)":"a2f77bcc","getGames()":"c04c5947","getNbrCardsOfPlayer(bytes9,uint8)":"a9c82606","getOpenGames()":"e75d7e3e","isBanned(address)":"97f735d5","isValidDeck(bytes9)":"f3304bbf","owner()":"8da5cb5b","renounceOwnership()":"715018a6","resetGame(uint8)":"b5df9f83","setCard(bytes9,uint8,uint8)":"71ca3053","setGameCreationFee(uint256)":"0be75449","setGameJoiningFee(uint8)":"d763797c","setRequestParameters(address,bytes32,address)":"7bdf2525","setStarCost(uint256)":"6e9b2dc0","shuffleDeck(bytes9,uint256)":"81452f06","transferOwnership(address)":"f2fde38b","unban(address)":"b9f14557","verifyAndCloseGame()":"62119d7a"},"id":27}