{"abi":[{"type":"constructor","inputs":[],"stateMutability":"nonpayable"},{"type":"function","name":"ban","inputs":[{"name":"_user","type":"address","internalType":"address"}],"outputs":[],"stateMutability":"nonpayable"},{"type":"function","name":"createGame","inputs":[{"name":"_initialHash","type":"bytes32","internalType":"bytes32"},{"name":"_duration","type":"uint8","internalType":"uint8"}],"outputs":[{"name":"","type":"uint8","internalType":"uint8"},{"name":"","type":"address","internalType":"address"}],"stateMutability":"payable"},{"type":"function","name":"generateRandomNumberFromSeed","inputs":[{"name":"_seed","type":"uint256","internalType":"uint256"},{"name":"range","type":"uint8","internalType":"uint8"}],"outputs":[{"name":"","type":"uint256","internalType":"uint256"}],"stateMutability":"pure"},{"type":"function","name":"getBasicJoiningCost","inputs":[],"outputs":[{"name":"","type":"uint256","internalType":"uint256"}],"stateMutability":"view"},{"type":"function","name":"getCard","inputs":[{"name":"_deck","type":"bytes9","internalType":"bytes9"},{"name":"_index","type":"uint8","internalType":"uint8"}],"outputs":[{"name":"","type":"uint8","internalType":"uint8"}],"stateMutability":"pure"},{"type":"function","name":"getGame","inputs":[{"name":"_gameId","type":"uint256","internalType":"uint256"}],"outputs":[{"name":"","type":"address","internalType":"address"}],"stateMutability":"view"},{"type":"function","name":"getGames","inputs":[],"outputs":[{"name":"","type":"address[100]","internalType":"address[100]"}],"stateMutability":"view"},{"type":"function","name":"getNbrCardsOfPlayer","inputs":[{"name":"_deck","type":"bytes9","internalType":"bytes9"},{"name":"_playerId","type":"uint8","internalType":"uint8"}],"outputs":[{"name":"result","type":"int8[3]","internalType":"int8[3]"}],"stateMutability":"pure"},{"type":"function","name":"getOpenGames","inputs":[],"outputs":[{"name":"","type":"address[]","internalType":"address[]"}],"stateMutability":"view"},{"type":"function","name":"isBanned","inputs":[{"name":"_user","type":"address","internalType":"address"}],"outputs":[{"name":"","type":"bool","internalType":"bool"}],"stateMutability":"view"},{"type":"function","name":"isValidDeck","inputs":[{"name":"_deck","type":"bytes9","internalType":"bytes9"}],"outputs":[{"name":"","type":"bool","internalType":"bool"}],"stateMutability":"pure"},{"type":"function","name":"resetGame","inputs":[{"name":"_gameId","type":"uint8","internalType":"uint8"}],"outputs":[],"stateMutability":"nonpayable"},{"type":"function","name":"setCard","inputs":[{"name":"_deck","type":"bytes9","internalType":"bytes9"},{"name":"_index","type":"uint8","internalType":"uint8"},{"name":"_card","type":"uint8","internalType":"uint8"}],"outputs":[{"name":"","type":"bytes9","internalType":"bytes9"}],"stateMutability":"pure"},{"type":"function","name":"setGameCreationFee","inputs":[{"name":"_gameCreationFee","type":"uint256","internalType":"uint256"}],"outputs":[],"stateMutability":"nonpayable"},{"type":"function","name":"setGameJoiningFee","inputs":[{"name":"_winningsCut","type":"uint8","internalType":"uint8"}],"outputs":[],"stateMutability":"nonpayable"},{"type":"function","name":"setStarCost","inputs":[{"name":"_starCost","type":"uint256","internalType":"uint256"}],"outputs":[],"stateMutability":"nonpayable"},{"type":"function","name":"shuffleDeck","inputs":[{"name":"_deck","type":"bytes9","internalType":"bytes9"},{"name":"_seed","type":"uint256","internalType":"uint256"}],"outputs":[{"name":"","type":"bytes9","internalType":"bytes9"}],"stateMutability":"pure"},{"type":"function","name":"unban","inputs":[{"name":"_user","type":"address","internalType":"address"}],"outputs":[],"stateMutability":"nonpayable"},{"type":"function","name":"verifyAndCloseGame","inputs":[],"outputs":[],"stateMutability":"nonpayable"},{"type":"event","name":"GameCreated","inputs":[{"name":"gameId","type":"uint256","indexed":true,"internalType":"uint256"},{"name":"gameAddress","type":"address","indexed":true,"internalType":"address"}],"anonymous":false},{"type":"event","name":"GameJoined","inputs":[{"name":"gameId","type":"uint256","indexed":true,"internalType":"uint256"},{"name":"player","type":"address","indexed":false,"internalType":"address"}],"anonymous":false},{"type":"error","name":"RestrictedRPSFactory_DurationTooLong","inputs":[]},{"type":"error","name":"RestrictedRPSFactory_InvalidGameId","inputs":[{"name":"gameId","type":"uint256","internalType":"uint256"}]},{"type":"error","name":"RestrictedRPSFactory_PlayerBanned","inputs":[{"name":"player","type":"address","internalType":"address"}]},{"type":"error","name":"RestrictedRPSFactory_SendMore","inputs":[]},{"type":"error","name":"RestrictedRPSFactory_TooManyOpenGames","inputs":[]}],"bytecode":{"object":"0x6080604052600080556001805460ff1916600a17815566038d7ea4c680006002819055600355610030906064610056565b606a805460ff191660ff9290921691909117905534801561005057600080fd5b50610083565b60ff828116828216039081111561007d57634e487b7160e01b600052601160045260246000fd5b92915050565b614a93806100926000396000f3fe6080604052600436106200012b5760003560e01c8063a2f77bcc11620000ad578063d763797c116200006c578063d763797c14620003e5578063e671cdae146200041a578063e75d7e3e1462000453578063f3304bbf146200047a578063f6cca6e2146200049f57600080fd5b8063a2f77bcc14620002ea578063a9c826061462000328578063b5df9f83146200035c578063b9f14557146200037e578063c04c594714620003be57600080fd5b80636e9b2dc011620000fa5780636e9b2dc014620001d157806371ca305314620001f557806381452f06146200023457806397c3ccd8146200025957806397f735d5146200029c57600080fd5b80630be7544914620001305780630f9361c3146200015657806311aa10c7146200018157806362119d7a14620001b9575b600080fd5b3480156200013d57600080fd5b50620001546200014f36600462000d97565b600055565b005b3480156200016357600080fd5b506200016e620004c4565b6040519081526020015b60405180910390f35b3480156200018e57600080fd5b50620001a6620001a036600462000de1565b620004dd565b60405160ff909116815260200162000178565b348015620001c657600080fd5b50620001546200052b565b348015620001de57600080fd5b5062000154620001f036600462000d97565b600255565b3480156200020257600080fd5b506200021a6200021436600462000e19565b6200055b565b6040516001600160b81b0319909116815260200162000178565b3480156200024157600080fd5b506200021a6200025336600462000e63565b620005b2565b3480156200026657600080fd5b50620001546200027836600462000e90565b6001600160a01b03166000908152600560205260409020805460ff19166001179055565b348015620002a957600080fd5b50620002d9620002bb36600462000e90565b6001600160a01b031660009081526005602052604090205460ff1690565b604051901515815260200162000178565b348015620002f757600080fd5b506200030f6200030936600462000d97565b62000636565b6040516001600160a01b03909116815260200162000178565b3480156200033557600080fd5b506200034d6200034736600462000de1565b6200065f565b60405162000178919062000ebb565b3480156200036957600080fd5b50620001546200037b36600462000ef2565b50565b3480156200038b57600080fd5b50620001546200039d36600462000e90565b6001600160a01b03166000908152600560205260409020805460ff19169055565b348015620003cb57600080fd5b50620003d6620006fb565b60405162000178919062000f10565b348015620003f257600080fd5b50620001546200040436600462000ef2565b6001805460ff191660ff92909216919091179055565b620004316200042b36600462000f4d565b62000744565b6040805160ff90931683526001600160a01b0390911660208301520162000178565b3480156200046057600080fd5b506200046b62000a7e565b60405162000178919062000f73565b3480156200048757600080fd5b50620002d96200049936600462000fc2565b62000bf9565b348015620004ac57600080fd5b506200016e620004be36600462000f4d565b62000d0d565b600254600090620004d89060039062000ff6565b905090565b6000806002620004ef81600862001026565b620004fb90856200104b565b62000507919062001070565b90508060ff168460b81c68ffffffffffffffffff16901c6003169150505b92915050565b6004805460ff16906000620005408362001096565b91906101000a81548160ff021916908360ff16021790555050565b60008060026200056d81600862001026565b6200057990866200104b565b62000585919062001070565b600360b81b60ff9190911690811b199590951660b89390931b60ff60b81b1690941b919091179392505050565b600060235b60ff8116156200062e576000620005d584620004be846001620010b6565b90506000620005e58684620004dd565b90506000620005f58784620004dd565b9050620006048785836200055b565b9650620006138784846200055b565b96505050508080620006259062001096565b915050620005b7565b509192915050565b6000600682606481106200064e576200064e620010d2565b01546001600160a01b031692915050565b6200066962000d4c565b60006200067860068462001070565b905060005b600660ff82161015620006f3576000620006988284620010b6565b90506000620006a88783620004dd565b9050848160ff1660038110620006c257620006c2620010d2565b60200201805190620006d482620010e8565b60000b905250829150620006ea9050816200110a565b9150506200067d565b505092915050565b6200070562000d6a565b60408051610c808101918290529060069060649082845b81546001600160a01b031681526001909101906020018083116200071c575050505050905090565b33600090815260056020526040812054819060ff16156200077e57604051634114689b60e11b815233600482015260240160405180910390fd5b600054341015620007a25760405163e7781c5960e01b815260040160405180910390fd5b606a54600090606490620007bb9060ff166001620010b6565b620007c791906200104b565b9050600060068260ff1660648110620007e457620007e4620010d2565b01546001600160a01b0316905080156200092457806000816001600160a01b0316631865c57d6040518163ffffffff1660e01b8152600401602060405180830381865afa1580156200083a573d6000803e3d6000fd5b505050506040513d601f19601f8201168201806040525081019062000860919062001139565b600281111562000874576200087462001123565b036200089357604051630b37dc9160e01b815260040160405180910390fd5b600154600254600354604051636e328aab60e01b815260ff9384166004820152602481019290925260448201523360648201526084810189905290871660a48201526001600160a01b03821690636e328aab9060c401600060405180830381600087803b1580156200090457600080fd5b505af115801562000919573d6000803e3d6000fd5b5050505050620009f7565b60003083600160009054906101000a900460ff16600254600354338c8c6040516200094f9062000d89565b6001600160a01b03988916815260ff978816602082015295871660408701526060860194909452608085019290925290941660a083015260c0820193909352911660e082015261010001604051809103906000f080158015620009b6573d6000803e3d6000fd5b5090508091508160068460ff1660648110620009d657620009d6620010d2565b0180546001600160a01b0319166001600160a01b0392909216919091179055505b606a805460ff191660ff848116919091179091556004805490911690600062000a20836200110a565b91906101000a81548160ff021916908360ff16021790555050806001600160a01b03168260ff167fc3e0f84839dc888c892a013d10c8f9d6dc05a21a879d0ce468ca558013e9121c60405160405180910390a3909590945092505050565b60045460609060ff1660008167ffffffffffffffff81111562000aa55762000aa56200115c565b60405190808252806020026020018201604052801562000acf578160200160208202803683370190505b5090506000805b606460ff8216101562000bf057600060068260ff166064811062000afe5762000afe620010d2565b01546001600160a01b03169050801562000bda576000819050806001600160a01b03166347535d7b6040518163ffffffff1660e01b8152600401602060405180830381865afa15801562000b56573d6000803e3d6000fd5b505050506040513d601f19601f8201168201806040525081019062000b7c919062001172565b1562000bd85781858560ff168151811062000b9b5762000b9b620010d2565b6001600160a01b03909216602092830291909101909101528362000bbf816200110a565b9450508560ff168460ff161062000bd857505062000bf0565b505b508062000be7816200110a565b91505062000ad6565b50909392505050565b600062000c0562000d4c565b60005b62000c1560068062001070565b60ff168160ff16101562000c7a57600062000c318583620004dd565b9050828160ff166003811062000c4b5762000c4b620010d2565b6020020180519062000c5d826200110a565b60ff1690525081905062000c71816200110a565b91505062000c08565b50600362000c8a60068062001070565b62000c96919062001026565b815160ff908116911614801562000cd35750600362000cb760068062001070565b62000cc3919062001026565b60ff16816001602002015160ff16145b801562000d065750600362000cea60068062001070565b62000cf6919062001026565b60ff16816002602002015160ff16145b9392505050565b60008160ff168360405160200162000d2791815260200190565b6040516020818303038152906040528051906020012060001c62000d06919062001196565b60405180606001604052806003906020820280368337509192915050565b60405180610c8001604052806064906020820280368337509192915050565b6138b080620011ae83390190565b60006020828403121562000daa57600080fd5b5035919050565b80356001600160b81b03198116811462000dca57600080fd5b919050565b803560ff8116811462000dca57600080fd5b6000806040838503121562000df557600080fd5b62000e008362000db1565b915062000e106020840162000dcf565b90509250929050565b60008060006060848603121562000e2f57600080fd5b62000e3a8462000db1565b925062000e4a6020850162000dcf565b915062000e5a6040850162000dcf565b90509250925092565b6000806040838503121562000e7757600080fd5b62000e828362000db1565b946020939093013593505050565b60006020828403121562000ea357600080fd5b81356001600160a01b038116811462000d0657600080fd5b6060810181836000805b600381101562000ee8578251820b84526020938401939092019160010162000ec5565b5050505092915050565b60006020828403121562000f0557600080fd5b62000d068262000dcf565b610c808101818360005b606481101562000f445781516001600160a01b031683526020928301929091019060010162000f1a565b50505092915050565b6000806040838503121562000f6157600080fd5b8235915062000e106020840162000dcf565b6020808252825182820181905260009190848201906040850190845b8181101562000fb65783516001600160a01b03168352928401929184019160010162000f8f565b50909695505050505050565b60006020828403121562000fd557600080fd5b62000d068262000db1565b634e487b7160e01b600052601160045260246000fd5b808202811582820484141762000525576200052562000fe0565b634e487b7160e01b600052601260045260246000fd5b600060ff8316806200103c576200103c62001010565b8060ff84160491505092915050565b600060ff83168062001061576200106162001010565b8060ff84160691505092915050565b60ff81811683821602908116908181146200108f576200108f62000fe0565b5092915050565b600060ff821680620010ac57620010ac62000fe0565b6000190192915050565b60ff818116838216019081111562000525576200052562000fe0565b634e487b7160e01b600052603260045260246000fd5b60008160000b607f810362001101576200110162000fe0565b60010192915050565b600060ff821660ff810362001101576200110162000fe0565b634e487b7160e01b600052602160045260246000fd5b6000602082840312156200114c57600080fd5b81516003811062000d0657600080fd5b634e487b7160e01b600052604160045260246000fd5b6000602082840312156200118557600080fd5b8151801515811462000d0657600080fd5b600082620011a857620011a862001010565b50069056fe60c06040526000805460ff1916600a17905560018055655af3107a40006002553480156200002c57600080fd5b50604051620038b0380380620038b08339810160408190526200004f91620000ef565b6001600160a01b0388811660805260ff88811660a0526000805460ff191689831617815560018890556002879055600380546001600160a01b0319169387169390931790925560048490556008805460059390935562ff00ff1990921690831617905550505050505050506200017c565b80516001600160a01b0381168114620000d857600080fd5b919050565b805160ff81168114620000d857600080fd5b600080600080600080600080610100898b0312156200010d57600080fd5b6200011889620000c0565b97506200012860208a01620000dd565b96506200013860408a01620000dd565b955060608901519450608089015193506200015660a08a01620000c0565b925060c089015191506200016d60e08a01620000dd565b90509295985092959890939650565b60805160a0516136f2620001be6000396000818161044b01526109ac0152600081816105b20152818161069801528181610751015261197901526136f26000f3fe6080604052600436106101815760003560e01c806374cee9d1116100d1578063b1055add1161008a578063c32a50f911610064578063c32a50f91461046f578063c4ae16a81461048f578063dc71e3b8146104c2578063fcada10a146104e257600080fd5b8063b1055add14610410578063b6b3b64e1461041c578063c0bd83511461043c57600080fd5b806374cee9d1146103595780637bb054311461036e5780639cf6d1af1461038e578063a1455b68146103b6578063a6d3571d146103cb578063ad2e8c9b146103f857600080fd5b80633133888e1161013e5780633d536a2e116101185780633d536a2e146102dd57806347535d7b14610302578063525f5093146103175780636e328aab1461033957600080fd5b80633133888e1461027b57806332648d7e1461029d5780633640f613146102bd57600080fd5b80630f9361c31461018657806315822f44146101ae5780631746bd1b146101de5780631865c57d1461020657806323d808da1461022c5780632c70120e14610259575b600080fd5b34801561019257600080fd5b5061019b6104ff565b6040519081526020015b60405180910390f35b3480156101ba57600080fd5b506101ce6101c9366004612efa565b610516565b60405190151581526020016101a5565b3480156101ea57600080fd5b506101f36108c3565b6040516101a59796959493929190612f4a565b34801561021257600080fd5b5060085462010000900460ff166040516101a59190612ff7565b34801561023857600080fd5b5061024c610247366004613020565b6109ef565b6040516101a591906130b6565b34801561026557600080fd5b5061026e610b31565b6040516101a591906130c5565b34801561028757600080fd5b5061029b610296366004613114565b610ce2565b005b3480156102a957600080fd5b5061029b6102b836600461316c565b610ddb565b3480156102c957600080fd5b5061029b6102d8366004613020565b6111bb565b6102f06102eb3660046131ca565b61142c565b60405160ff90911681526020016101a5565b34801561030e57600080fd5b506101ce6117c5565b34801561032357600080fd5b5061032c6117eb565b6040516101a591906132ee565b34801561034557600080fd5b5061029b610354366004613348565b61196e565b34801561036557600080fd5b5060045461019b565b34801561037a57600080fd5b506101ce610389366004613020565b611a7e565b34801561039a57600080fd5b506003546040516001600160a01b0390911681526020016101a5565b3480156103c257600080fd5b5061029b611c15565b3480156103d757600080fd5b506103eb6103e6366004613020565b611c4d565b6040516101a591906133a7565b34801561040457600080fd5b5060085460ff166102f0565b34801561029b57600080fd5b34801561042857600080fd5b506102f06104373660046133b6565b611d61565b34801561044857600080fd5b507f00000000000000000000000000000000000000000000000000000000000000006102f0565b34801561047b57600080fd5b5061029b61048a3660046133f2565b612110565b34801561049b57600080fd5b506104af6104aa36600461340b565b61214b565b60405160009190910b81526020016101a5565b3480156104ce57600080fd5b5061029b6104dd366004613426565b6121bf565b3480156104ee57600080fd5b50600854610100900460ff166102f0565b60015460009061051190600390613477565b905090565b6003546000906001600160a01b031633146105445760405163730d477360e11b815260040160405180910390fd5b600083836040516020016105599291906134b2565b60405160208183030381529060405280519060200120905080600454146105935760405163a5ab2a5960e01b815260040160405180910390fd5b60405163f3304bbf60e01b81526001600160b81b0319851660048201527f00000000000000000000000000000000000000000000000000000000000000006001600160a01b03169063f3304bbf90602401602060405180830381865afa158015610601573d6000803e3d6000fd5b505050506040513d601f19601f8201168201806040525081019061062591906134e3565b61066b576003546040516001600160a01b03909116907ff06e016360df4c9b017c99214597c4e45c240c89602b99ee310848b7c630cbcc90600090a260009150506108bd565b6005546040516340a2978360e11b81526001600160b81b03198616600482015260248101919091526000907f00000000000000000000000000000000000000000000000000000000000000006001600160a01b0316906381452f0690604401602060405180830381865afa1580156106e7573d6000803e3d6000fd5b505050506040513d601f19601f8201168201806040525081019061070b9190613505565b905060005b60085460ff610100909104811690821610156108b5576040516354e4130360e11b81526001600160b81b03198316600482015260ff821660248201526000907f00000000000000000000000000000000000000000000000000000000000000006001600160a01b03169063a9c8260690604401606060405180830381865afa1580156107a0573d6000803e3d6000fd5b505050506040513d601f19601f820116820180604052508101906107c49190613522565b8051909150600960ff8416600681106107df576107df6135b0565b6003020160020160076101000a81548160ff021916908360000b60ff16021790555080600160038110610814576108146135b0565b602002015160098360ff166006811061082f5761082f6135b0565b6003020160020160086101000a81548160ff021916908360000b60ff16021790555080600160038110610864576108646135b0565b602002015160098360ff166006811061087f5761087f6135b0565b6003020160020160096101000a81548160ff021916908360000b60ff1602179055505080806108ad906135c6565b915050610710565b506001925050505b92915050565b60085460009081908190819081908190606090610100900460ff16828167ffffffffffffffff8111156108f8576108f8612e47565b604051908082528060200260200182016040528015610921578160200160208202803683370190505b50905060005b8260ff168160ff16101561099d5760098160ff166006811061094b5761094b6135b0565b600302015482516001600160a01b0390911690839060ff8416908110610973576109736135b0565b6001600160a01b039092166020928302919091019091015280610995816135c6565b915050610927565b50600854601b546001546002547f00000000000000000000000000000000000000000000000000000000000000009d60ff610100860481169e509384169c509290931699509750909550909350915050565b6109f7612d06565b601b54829060ff90811690821610610a22576040516311eb888760e31b815260040160405180910390fd5b601c8360ff1660788110610a3857610a386135b0565b604080516101008082018352600293840294909401805460ff8082168452958104861660208401529194909392850192620100009092041690811115610a8057610a80612fd1565b6002811115610a9157610a91612fd1565b815281546020909101906301000000900460ff166002811115610ab657610ab6612fd1565b6002811115610ac757610ac7612fd1565b8152815460ff600160201b820481166020840152600160281b820481166040840152606090920191600160301b909104166005811115610b0957610b09612fd1565b6005811115610b1a57610b1a612fd1565b815260200160018201548152505091505b50919050565b601b5460609060ff1660008167ffffffffffffffff811115610b5557610b55612e47565b604051908082528060200260200182016040528015610b8e57816020015b610b7b612d06565b815260200190600190039081610b735790505b50905060005b8260ff168160ff161015610cdb57601c8160ff1660788110610bb857610bb86135b0565b604080516101008082018352600293840294909401805460ff8082168452958104861660208401529194909392850192620100009092041690811115610c0057610c00612fd1565b6002811115610c1157610c11612fd1565b815281546020909101906301000000900460ff166002811115610c3657610c36612fd1565b6002811115610c4757610c47612fd1565b8152815460ff600160201b820481166020840152600160281b820481166040840152606090920191600160301b909104166005811115610c8957610c89612fd1565b6005811115610c9a57610c9a612fd1565b8152602001600182015481525050828260ff1681518110610cbd57610cbd6135b0565b60200260200101819052508080610cd3906135c6565b915050610b94565b5092915050565b600854829060ff610100909104811690821610610d1257604051630e0a2aa160e11b815260040160405180910390fd5b6003546001600160a01b03163314610d3d5760405163730d477360e11b815260040160405180910390fd5b600660098460ff1660068110610d5557610d556135b0565b6003020160020160026101000a81548160ff021916908360000b60ff16021790555060098360ff1660068110610d8d57610d8d6135b0565b60030201546040516001600160a01b03909116907f675e261a416100b60f1c071c20fd8b07e1e242d28313ee7638d4d44614a2d4e690610dce908590613611565b60405180910390a2505050565b601b54839060ff90811690821610610e06576040516311eb888760e31b815260040160405180910390fd5b6000601c8560ff1660788110610e1e57610e1e6135b0565b604080516101008082018352600293840294909401805460ff8082168452958104861660208401529194909392850192620100009092041690811115610e6657610e66612fd1565b6002811115610e7757610e77612fd1565b815281546020909101906301000000900460ff166002811115610e9c57610e9c612fd1565b6002811115610ead57610ead612fd1565b8152815460ff600160201b820481166020840152600160281b820481166040840152606090920191600160301b909104166005811115610eef57610eef612fd1565b6005811115610f0057610f00612fd1565b81526001918201546020909101529091508160c001516005811115610f2757610f27612fd1565b14610f4557604051633018e60760e21b815260040160405180910390fd5b60008460f81b84604051602001610f5d929190613624565b604051602081830303815290604052805190602001209050808260e0015114610f9957604051633b74e52960e11b815260040160405180910390fd5b60008560ff166002811115610fb057610fb0612fd1565b905080601c8860ff1660788110610fc957610fc96135b0565b6002020160000160026101000a81548160ff02191690836002811115610ff157610ff1612fd1565b021790555060608301518351611007908361247c565b61101584602001518261247c565b600282600281111561102957611029612fd1565b60ff1611156110455761104588856000015186602001516125fd565b600281600281111561105957611059612fd1565b60ff1611156110755761107588856000015186602001516128a2565b80600281111561108757611087612fd1565b82600281111561109957611099612fd1565b036110b6576110b18885600001518660200151612b29565b611183565b60008260028111156110ca576110ca612fd1565b1480156110e8575060028160028111156110e6576110e6612fd1565b145b806111205750600182600281111561110257611102612fd1565b1480156111205750600081600281111561111e5761111e612fd1565b145b806111585750600282600281111561113a5761113a612fd1565b1480156111585750600181600281111561115657611156612fd1565b145b15611170576110b188856000015186602001516128a2565b61118388856000015186602001516125fd565b60405160ff8916907f7727bf3ad5db9c2c6c2cc2b086e5579bf2e4fd88a0c6b1abbaf783fc609565c990600090a25050505050505050565b601b54819060ff908116908216106111e6576040516311eb888760e31b815260040160405180910390fd5b6000601c8360ff16607881106111fe576111fe6135b0565b604080516101008082018352600293840294909401805460ff808216845295810486166020840152919490939285019262010000909204169081111561124657611246612fd1565b600281111561125757611257612fd1565b815281546020909101906301000000900460ff16600281111561127c5761127c612fd1565b600281111561128d5761128d612fd1565b8152815460ff600160201b820481166020840152600160281b820481166040840152606090920191600160301b9091041660058111156112cf576112cf612fd1565b60058111156112e0576112e0612fd1565b815260019190910154602090910152805190915060006112ff3361214b565b90508060000b8260000b14611327576040516334e24b8360e21b815260040160405180910390fd5b60c0830151600081600581111561134057611340612fd1565b1461135e57604051637021339d60e11b815260040160405180910390fd5b836080015160098460ff1660068110611379576113796135b0565b6003020160020160018282829054906101000a900460ff1661139b9190613655565b92506101000a81548160ff021916908360ff1602179055506002601c8760ff16607881106113cb576113cb6135b0565b60020201805460ff60301b1916600160301b8360058111156113ef576113ef612fd1565b0217905550604051339060ff8816907f34d66c87f348a9492b2a7fe1463b02de9cab509ca7872ee83878909d9805c3a890600090a3505050505050565b6000336114376104ff565b3410156114575760405163e71ff98960e01b815260040160405180910390fd5b600060085462010000900460ff16600281111561147657611476612fd1565b146114945760405163817b163760e01b815260040160405180910390fd5b6003546001600160a01b038083169116036114c25760405163031ee3ed60e51b815260040160405180910390fd5b600854610100900460ff16915060066114dc83600161366e565b60ff1611156114fe5760405163380d3cc160e11b815260040160405180910390fd5b60005b8260ff168160ff16101561156d57816001600160a01b031660098260ff166006811061152f5761152f6135b0565b60030201546001600160a01b03160361155b57604051639bec841d60e01b815260040160405180910390fd5b80611565816135c6565b915050611501565b50611576612d4a565b6001600160a01b03821681526003604082015280600960ff8516600681106115a0576115a06135b0565b6003020160008201518160000160006101000a8154816001600160a01b0302191690836001600160a01b031602179055506020820151816001015560408201518160020160006101000a81548160ff021916908360ff16021790555060608201518160020160016101000a81548160ff021916908360ff16021790555060808201518160020160026101000a81548160ff021916908360000b60ff16021790555060a08201518160020160036101000a81548160ff021916908360000b60ff16021790555060c08201518160020160046101000a81548160ff021916908360000b60ff16021790555060e08201518160020160056101000a81548160ff021916908360000b60ff1602179055506101008201518160020160066101000a81548160ff021916908360ff1602179055506101208201518160020160076101000a81548160ff021916908360000b60ff1602179055506101408201518160020160086101000a81548160ff021916908360000b60ff1602179055506101608201518160020160096101000a81548160ff021916908360000b60ff1602179055509050506008600181819054906101000a900460ff1680929190611760906135c6565b91906101000a81548160ff021916908360ff16021790555050816001600160a01b03168360ff167fdc70164a0afb7ca145a827fd238ec265b666c335c24a0afa2a33aab37362b4e1866040516117b69190613611565b60405180910390a35050919050565b60008060085462010000900460ff1660028111156117e5576117e5612fd1565b14905090565b600854606090610100900460ff1660008167ffffffffffffffff81111561181457611814612e47565b60405190808252806020026020018201604052801561184d57816020015b61183a612d4a565b8152602001906001900390816118325790505b50905060005b8260ff168160ff161015610cdb5760098160ff1660068110611877576118776135b0565b60408051610180810182526003929092029290920180546001600160a01b03168252600181015460208301526002015460ff8082169383019390935261010080820484166060840152620100008204600090810b608085015263010000008304810b60a0850152600160201b8304810b60c0850152600160281b8304810b60e0850152600160301b8304851691840191909152600160381b8204810b610120840152600160401b8204810b610140840152600160481b909104900b610160820152835190918491908416908110611950576119506135b0565b60200260200101819052508080611966906135c6565b915050611853565b336001600160a01b037f000000000000000000000000000000000000000000000000000000000000000016146119b757604051633f9db83960e01b815260040160405180910390fd5b600060085462010000900460ff1660028111156119d6576119d6612fd1565b036119f45760405163ad6418ff60e01b815260040160405180910390fd5b601b805460ff19169055611a0a601c6000612dae565b6008805461ff0019169055611a2160096000612dbd565b6000805460ff191660ff88811691909117825560018790556002869055600380546001600160a01b0319166001600160a01b03871617905560048490556008805460059390935562ff00ff19909216908316179055505050505050565b600854600090829060ff610100909104811690821610611ab157604051630e0a2aa160e11b815260040160405180910390fd5b600060098460ff1660068110611ac957611ac96135b0565b60408051610180810182526003929092029290920180546001600160a01b03168252600181015460208301526002015460ff8082169383019390935261010080820484166060840152620100008204600090810b608085015263010000008304810b60a08501819052600160201b8404820b60c0860152600160281b8404820b60e0860152600160301b840490951691840191909152600160381b8204810b6101208401819052600160401b8304820b610140850152600160481b909204900b6101608301529092501280611bac575080610140015160000b8160c0015160000b135b80611bc5575080610160015160000b8160e0015160000b135b15611c0b5780516040516001600160a01b03909116907f01c709aae484e2a477ef26450949077d5411b73db0d6b24d7db60381d60794cd90600090a26000925050610b2b565b5060019392505050565b60005b60085460ff61010090910481169082161015611c4a57611c3781611a7e565b5080611c42816135c6565b915050611c18565b50565b611c55612d4a565b600854829060ff610100909104811690821610611c8557604051630e0a2aa160e11b815260040160405180910390fd5b60098360ff1660068110611c9b57611c9b6135b0565b60408051610180810182526003929092029290920180546001600160a01b03168252600181015460208301526002015460ff8082169383019390935261010080820484166060840152620100008204600090810b608085015263010000008304810b60a0850152600160201b8304810b60c0850152600160281b8304810b60e0850152600160301b830490941690830152600160381b8104830b610120830152600160401b8104830b610140830152600160481b900490910b6101608201529392505050565b6000611d6b612d06565b6000611d763361214b565b90508060000b60001903611d9d57604051637082284960e11b815260040160405180910390fd5b806000600960ff831660068110611db657611db66135b0565b60408051610180810182526003929092029290920180546001600160a01b03168252600180820154602084015260029091015460ff8082169484019490945261010080820485166060850152620100008204600090810b608086015263010000008304810b60a0860152600160201b8304810b60c0860152600160281b8304810b60e0860152600160301b8304909516908401819052600160381b8204850b610120850152600160401b8204850b610140850152600160481b909104840b610160840152919350611e87919061366e565b9050601460ff82161115611eae57604051633fac4c7160e21b815260040160405180910390fd5b816040015160ff16826060015189611ec6919061366e565b60ff161115611ee857604051638ba4117960e01b815260040160405180910390fd5b60ff808416865260e086018a905287811660a08701528881166080870152601b5416955084601c8760788110611f2057611f206135b0565b82516002918202929092018054602085015160ff9081166101000261ffff1990921694169390931792909217808355604084015191839162ff000019169062010000908490811115611f7457611f74612fd1565b021790555060608201518154829063ff00000019166301000000836002811115611fa057611fa0612fd1565b02179055506080820151815460a084015160ff908116600160281b0265ff00000000001991909316600160201b021665ffff0000000019909116171780825560c083015190829060ff60301b1916600160301b83600581111561200557612005612fd1565b021790555060e09190910151600190910155601b805460ff1690600061202a836135c6565b91906101000a81548160ff021916908360ff160217905550508060098460ff166006811061205a5761205a6135b0565b6003020160020160066101000a81548160ff021916908360ff1602179055508760098460ff1660068110612090576120906135b0565b6003020160020160018282829054906101000a900460ff166120b2919061366e565b92506101000a81548160ff021916908360ff160217905550336001600160a01b03168660ff167f18a47d8df22f178f89e665cc0fccf4ee175e91434c7b749c4a7607ffa4d33a6760405160405180910390a350505050509392505050565b60058190556040518181527fbda2e5fc778edfbed22cb985a005e7314108766bd66e86798f58611dcb9fb8b99060200160405180910390a150565b60085460001990610100900460ff1660005b8160ff168160ff1610156121b857836001600160a01b031660098260ff166006811061218b5761218b6135b0565b60030201546001600160a01b0316036121a6578092506121b8565b806121b0816135c6565b91505061215d565b5050919050565b601b54829060ff908116908216106121ea576040516311eb888760e31b815260040160405180910390fd5b60006121f53361214b565b90508060000b6000190361221c57604051637082284960e11b815260040160405180910390fd5b806000601c60ff871660788110612235576122356135b0565b60020201905060008154600160301b900460ff16600581111561225a5761225a612fd1565b14612278576040516317c9510160e01b815260040160405180910390fd5b600060098360ff1660068110612290576122906135b0565b60408051610180810182526003929092029290920180546001600160a01b03168252600181015460208301526002015460ff808216938301849052610100808304821660608501819052620100008404600090810b608087015263010000008504810b60a0870152600160201b8504810b60c0870152600160281b808604820b60e0880152600160301b8604851693870193909352600160381b8504810b610120870152600160401b8504810b610140870152600160481b90940490930b610160850152865493955061236493041661366e565b60ff16111561238657604051638ba4117960e01b815260040160405180910390fd5b815460ff84166101000261ff00198216811784558791849163ff000000191663ff00ff00199091161763010000008360028111156123c6576123c6612fd1565b0217905550815460ff60301b1916600160301b1780835560ff600160281b9091048116906009908516600681106123ff576123ff6135b0565b6003020160020160018282829054906101000a900460ff16612421919061366e565b92506101000a81548160ff021916908360ff160217905550336001600160a01b03168760ff167f01b120bec3d4ba9705e9f5f6c7aa115993959878ac9533a84cb359ffe642823060405160405180910390a350505050505050565b600081600281111561249057612490612fd1565b036124f05760098260ff16600681106124ab576124ab6135b0565b60030201600201600381819054906101000a900460000b809291906124cf90613687565b91906101000a81548160ff021916908360000b60ff160217905550506125a9565b600181600281111561250457612504612fd1565b0361253e5760098260ff166006811061251f5761251f6135b0565b600302016002018054600160201b900460000b9060046124cf83613687565b600281600281111561255257612552612fd1565b036125a95760098260ff166006811061256d5761256d6135b0565b600302016002018054600160281b900460000b90600561258c83613687565b91906101000a81548160ff021916908360000b60ff160217905550505b60098260ff16600681106125bf576125bf6135b0565b600302016002908101805462010000900460000b916125dd8361369d565b91906101000a81548160ff021916908360000b60ff160217905550505050565b6000601c8460ff1660788110612615576126156135b0565b604080516101008082018352600293840294909401805460ff808216845295810486166020840152919490939285019262010000909204169081111561265d5761265d612fd1565b600281111561266e5761266e612fd1565b815281546020909101906301000000900460ff16600281111561269357612693612fd1565b60028111156126a4576126a4612fd1565b8152815460ff600160201b820481166020840152600160281b820481166040840152606090920191600160301b9091041660058111156126e6576126e6612fd1565b60058111156126f7576126f7612fd1565b815260200160018201548152505090506005601c8560ff166078811061271f5761271f6135b0565b60020201805460ff60301b1916600160301b83600581111561274357612743612fd1565b0217905550806080015160098460ff1660068110612763576127636135b0565b6003020160020160018282829054906101000a900460ff166127859190613655565b92506101000a81548160ff021916908360ff160217905550806080015160098460ff16600681106127b8576127b86135b0565b6003020160020160008282829054906101000a900460ff166127da9190613655565b92506101000a81548160ff021916908360ff1602179055508060a0015160098360ff166006811061280d5761280d6135b0565b6003020160020160018282829054906101000a900460ff1661282f9190613655565b92506101000a81548160ff021916908360ff160217905550806080015160098360ff1660068110612862576128626135b0565b6003020160020160008282829054906101000a900460ff16612884919061366e565b92506101000a81548160ff021916908360ff16021790555050505050565b6000601c8460ff16607881106128ba576128ba6135b0565b604080516101008082018352600293840294909401805460ff808216845295810486166020840152919490939285019262010000909204169081111561290257612902612fd1565b600281111561291357612913612fd1565b815281546020909101906301000000900460ff16600281111561293857612938612fd1565b600281111561294957612949612fd1565b8152815460ff600160201b820481166020840152600160281b820481166040840152606090920191600160301b90910416600581111561298b5761298b612fd1565b600581111561299c5761299c612fd1565b815260200160018201548152505090506004601c8560ff16607881106129c4576129c46135b0565b60020201805460ff60301b1916600160301b8360058111156129e8576129e8612fd1565b0217905550806080015160098460ff1660068110612a0857612a086135b0565b6003020160020160018282829054906101000a900460ff16612a2a9190613655565b92506101000a81548160ff021916908360ff1602179055508060a0015160098460ff1660068110612a5d57612a5d6135b0565b6003020160020160008282829054906101000a900460ff16612a7f919061366e565b92506101000a81548160ff021916908360ff1602179055508060a0015160098360ff1660068110612ab257612ab26135b0565b6003020160020160018282829054906101000a900460ff16612ad49190613655565b92506101000a81548160ff021916908360ff1602179055508060a0015160098360ff1660068110612b0757612b076135b0565b6003020160020160008282829054906101000a900460ff166128849190613655565b6000601c8460ff1660788110612b4157612b416135b0565b604080516101008082018352600293840294909401805460ff8082168452958104861660208401529194909392850192620100009092041690811115612b8957612b89612fd1565b6002811115612b9a57612b9a612fd1565b815281546020909101906301000000900460ff166002811115612bbf57612bbf612fd1565b6002811115612bd057612bd0612fd1565b8152815460ff600160201b820481166020840152600160281b820481166040840152606090920191600160301b909104166005811115612c1257612c12612fd1565b6005811115612c2357612c23612fd1565b815260200160018201548152505090506003601c8560ff1660788110612c4b57612c4b6135b0565b60020201805460ff60301b1916600160301b836005811115612c6f57612c6f612fd1565b0217905550806080015160098460ff1660068110612c8f57612c8f6135b0565b6003020160020160018282829054906101000a900460ff16612cb19190613655565b92506101000a81548160ff021916908360ff1602179055508060a0015160098360ff1660068110612ce457612ce46135b0565b6003020160020160018282829054906101000a900460ff166128849190613655565b6040805161010081018252600080825260208201819052918101829052606081018290526080810182905260a0810182905260c0810182905260e081019190915290565b6040805161018081018252600080825260208201819052918101829052606081018290526080810182905260a0810182905260c0810182905260e0810182905261010081018290526101208101829052610140810182905261016081019190915290565b50611c4a9060f0810190612dcc565b50611c4a906012810190612df6565b5b80821115612df257805466ffffffffffffff1916815560006001820155600201612dcd565b5090565b5b80821115612df25780546001600160a01b03191681556000600182015560028101805469ffffffffffffffffffff19169055600301612df7565b6001600160b81b031981168114611c4a57600080fd5b634e487b7160e01b600052604160045260246000fd5b600067ffffffffffffffff80841115612e7857612e78612e47565b604051601f8501601f19908116603f01168101908282118183101715612ea057612ea0612e47565b81604052809350858152868686011115612eb957600080fd5b858560208301376000602087830101525050509392505050565b600082601f830112612ee457600080fd5b612ef383833560208501612e5d565b9392505050565b60008060408385031215612f0d57600080fd5b8235612f1881612e31565b9150602083013567ffffffffffffffff811115612f3457600080fd5b612f4085828601612ed3565b9150509250929050565b600060e0820160ff8a168352602060ff8a168185015260ff8916604085015260ff881660608501528660808501528560a085015260e060c085015281855180845261010086019150828701935060005b81811015612fbf5784516001600160a01b031683529383019391830191600101612f9a565b50909c9b505050505050505050505050565b634e487b7160e01b600052602160045260246000fd5b60038110611c4a57611c4a612fd1565b6020810161300483612fe7565b91905290565b803560ff8116811461301b57600080fd5b919050565b60006020828403121561303257600080fd5b612ef38261300a565b60ff815116825260ff6020820151166020830152604081015161305d81612fe7565b6040830152606081015161307081612fe7565b8060608401525060ff608082015116608083015260ff60a08201511660a083015260c0810151600681106130a6576130a6612fd1565b60c083015260e090810151910152565b61010081016108bd828461303b565b6020808252825182820181905260009190848201906040850190845b81811015613108576130f483855161303b565b9284019261010092909201916001016130e1565b50909695505050505050565b6000806040838503121561312757600080fd5b6131308361300a565b9150602083013567ffffffffffffffff81111561314c57600080fd5b8301601f8101851361315d57600080fd5b612f4085823560208401612e5d565b60008060006060848603121561318157600080fd5b61318a8461300a565b92506131986020850161300a565b9150604084013567ffffffffffffffff8111156131b457600080fd5b6131c086828701612ed3565b9150509250925092565b6000602082840312156131dc57600080fd5b813567ffffffffffffffff8111156131f357600080fd5b6131ff84828501612ed3565b949350505050565b80516001600160a01b03168252602081015160208301526040810151613232604084018260ff169052565b506060810151613247606084018260ff169052565b50608081015161325c608084018260000b9052565b5060a081015161327160a084018260000b9052565b5060c081015161328660c084018260000b9052565b5060e081015161329b60e084018260000b9052565b506101008181015160ff169083015261012080820151600081900b828501525050610140808201516132d18285018260000b9052565b5050610160808201516132e88285018260000b9052565b50505050565b6020808252825182820181905260009190848201906040850190845b818110156131085761331d838551613207565b92840192610180929092019160010161330a565b80356001600160a01b038116811461301b57600080fd5b60008060008060008060c0878903121561336157600080fd5b61336a8761300a565b9550602087013594506040870135935061338660608801613331565b92506080870135915061339b60a0880161300a565b90509295509295509295565b61018081016108bd8284613207565b6000806000606084860312156133cb57600080fd5b833592506133db6020850161300a565b91506133e96040850161300a565b90509250925092565b60006020828403121561340457600080fd5b5035919050565b60006020828403121561341d57600080fd5b612ef382613331565b6000806040838503121561343957600080fd5b6134428361300a565b915060208301356003811061345657600080fd5b809150509250929050565b634e487b7160e01b600052601160045260246000fd5b80820281158282048414176108bd576108bd613461565b60005b838110156134a9578181015183820152602001613491565b50506000910152565b6001600160b81b03198316815281516000906134d581600985016020870161348e565b919091016009019392505050565b6000602082840312156134f557600080fd5b81518015158114612ef357600080fd5b60006020828403121561351757600080fd5b8151612ef381612e31565b60006060828403121561353457600080fd5b82601f83011261354357600080fd5b6040516060810181811067ffffffffffffffff8211171561356657613566612e47565b60405280606084018581111561357b57600080fd5b845b818110156135a5578051600081810b8214613596578081fd5b5083526020928301920161357d565b509195945050505050565b634e487b7160e01b600052603260045260246000fd5b600060ff821660ff81036135dc576135dc613461565b60010192915050565b600081518084526135fd81602086016020860161348e565b601f01601f19169290920160200192915050565b602081526000612ef360208301846135e5565b6001600160f81b031983168152815160009061364781600185016020870161348e565b919091016001019392505050565b60ff82811682821603908111156108bd576108bd613461565b60ff81811683821601908111156108bd576108bd613461565b60008160000b607f81036135dc576135dc613461565b600081810b608081016136b2576136b2613461565b600019019291505056fea2646970667358221220179685ca457dbe5b07ace14af4656aad558caefc2404252aee7bbc04e2c0d07164736f6c63430008130033a2646970667358221220d7827b88ad57399d2323c0288273fd57aa4de16506c4ddef28eeb41a0b1f823f64736f6c63430008130033","linkReferences":{}},"methodIdentifiers":{"ban(address)":"97c3ccd8","createGame(bytes32,uint8)":"e671cdae","generateRandomNumberFromSeed(uint256,uint8)":"f6cca6e2","getBasicJoiningCost()":"0f9361c3","getCard(bytes9,uint8)":"11aa10c7","getGame(uint256)":"a2f77bcc","getGames()":"c04c5947","getNbrCardsOfPlayer(bytes9,uint8)":"a9c82606","getOpenGames()":"e75d7e3e","isBanned(address)":"97f735d5","isValidDeck(bytes9)":"f3304bbf","resetGame(uint8)":"b5df9f83","setCard(bytes9,uint8,uint8)":"71ca3053","setGameCreationFee(uint256)":"0be75449","setGameJoiningFee(uint8)":"d763797c","setStarCost(uint256)":"6e9b2dc0","shuffleDeck(bytes9,uint256)":"81452f06","unban(address)":"b9f14557","verifyAndCloseGame()":"62119d7a"},"id":23}