{"abi":[{"type":"constructor","inputs":[{"name":"_factory","type":"address","internalType":"address"},{"name":"_gameId","type":"uint8","internalType":"uint8"},{"name":"_winningsCut","type":"uint8","internalType":"uint8"},{"name":"_starCost","type":"uint256","internalType":"uint256"},{"name":"_1MCashCost","type":"uint256","internalType":"uint256"},{"name":"_dealer","type":"address","internalType":"address"},{"name":"_initialHash","type":"bytes32","internalType":"bytes32"},{"name":"_duration","type":"uint8","internalType":"uint8"}],"stateMutability":"nonpayable"},{"type":"function","name":"answerMatch","inputs":[{"name":"_matchId","type":"uint8","internalType":"uint8"},{"name":"_card","type":"uint8","internalType":"enum RestrictedRPSGame.Card"}],"outputs":[],"stateMutability":"nonpayable"},{"type":"function","name":"cancelMatch","inputs":[{"name":"_matchId","type":"uint8","internalType":"uint8"}],"outputs":[],"stateMutability":"nonpayable"},{"type":"function","name":"closeMatch","inputs":[{"name":"_matchId","type":"uint8","internalType":"uint8"},{"name":"_card","type":"uint8","internalType":"uint8"},{"name":"_secret","type":"string","internalType":"string"}],"outputs":[],"stateMutability":"nonpayable"},{"type":"function","name":"getBasicJoiningCost","inputs":[],"outputs":[{"name":"","type":"uint256","internalType":"uint256"}],"stateMutability":"view"},{"type":"function","name":"getDealer","inputs":[],"outputs":[{"name":"","type":"address","internalType":"address"}],"stateMutability":"view"},{"type":"function","name":"getDuration","inputs":[],"outputs":[{"name":"","type":"uint8","internalType":"uint8"}],"stateMutability":"view"},{"type":"function","name":"getGameId","inputs":[],"outputs":[{"name":"","type":"uint8","internalType":"uint8"}],"stateMutability":"view"},{"type":"function","name":"getGameInfo","inputs":[],"outputs":[{"name":"","type":"uint8","internalType":"uint8"},{"name":"","type":"uint8","internalType":"uint8"},{"name":"","type":"uint8","internalType":"uint8"},{"name":"","type":"uint8","internalType":"uint8"},{"name":"","type":"uint256","internalType":"uint256"},{"name":"","type":"uint256","internalType":"uint256"},{"name":"","type":"address[]","internalType":"address[]"}],"stateMutability":"view"},{"type":"function","name":"getInitialHash","inputs":[],"outputs":[{"name":"","type":"bytes32","internalType":"bytes32"}],"stateMutability":"view"},{"type":"function","name":"getMatch","inputs":[{"name":"_matchId","type":"uint8","internalType":"uint8"}],"outputs":[{"name":"","type":"tuple","internalType":"struct RestrictedRPSGame.Match","components":[{"name":"player1","type":"uint8","internalType":"uint8"},{"name":"player2","type":"uint8","internalType":"uint8"},{"name":"player1Card","type":"uint8","internalType":"enum RestrictedRPSGame.Card"},{"name":"player2Card","type":"uint8","internalType":"enum RestrictedRPSGame.Card"},{"name":"player1Bet","type":"uint8","internalType":"uint8"},{"name":"player2Bet","type":"uint8","internalType":"uint8"},{"name":"result","type":"uint8","internalType":"enum RestrictedRPSGame.MatchState"},{"name":"player1Hash","type":"bytes32","internalType":"bytes32"}]}],"stateMutability":"view"},{"type":"function","name":"getMatches","inputs":[],"outputs":[{"name":"","type":"tuple[]","internalType":"struct RestrictedRPSGame.Match[]","components":[{"name":"player1","type":"uint8","internalType":"uint8"},{"name":"player2","type":"uint8","internalType":"uint8"},{"name":"player1Card","type":"uint8","internalType":"enum RestrictedRPSGame.Card"},{"name":"player2Card","type":"uint8","internalType":"enum RestrictedRPSGame.Card"},{"name":"player1Bet","type":"uint8","internalType":"uint8"},{"name":"player2Bet","type":"uint8","internalType":"uint8"},{"name":"result","type":"uint8","internalType":"enum RestrictedRPSGame.MatchState"},{"name":"player1Hash","type":"bytes32","internalType":"bytes32"}]}],"stateMutability":"view"},{"type":"function","name":"getNbrPlayers","inputs":[],"outputs":[{"name":"","type":"uint8","internalType":"uint8"}],"stateMutability":"view"},{"type":"function","name":"getPlayerId","inputs":[{"name":"playerAddress","type":"address","internalType":"address"}],"outputs":[{"name":"playerId","type":"int8","internalType":"int8"}],"stateMutability":"view"},{"type":"function","name":"getPlayerState","inputs":[{"name":"_playerId","type":"uint8","internalType":"uint8"}],"outputs":[{"name":"","type":"tuple","internalType":"struct RestrictedRPSGame.PlayerState","components":[{"name":"player","type":"address","internalType":"address"},{"name":"encryptedHand","type":"bytes32","internalType":"bytes32"},{"name":"nbrStars","type":"uint8","internalType":"uint8"},{"name":"nbrStarsLocked","type":"uint8","internalType":"uint8"},{"name":"nbrCards","type":"int8","internalType":"int8"},{"name":"nbrRockUsed","type":"int8","internalType":"int8"},{"name":"nbrPaperUsed","type":"int8","internalType":"int8"},{"name":"nbrScissorsUsed","type":"int8","internalType":"int8"},{"name":"nbrOfferedMatches","type":"uint8","internalType":"uint8"},{"name":"initialNbrRocks","type":"int8","internalType":"int8"},{"name":"initialNbrPapers","type":"int8","internalType":"int8"},{"name":"initialNbrScissors","type":"int8","internalType":"int8"}]}],"stateMutability":"view"},{"type":"function","name":"getPlayersState","inputs":[],"outputs":[{"name":"","type":"tuple[]","internalType":"struct RestrictedRPSGame.PlayerState[]","components":[{"name":"player","type":"address","internalType":"address"},{"name":"encryptedHand","type":"bytes32","internalType":"bytes32"},{"name":"nbrStars","type":"uint8","internalType":"uint8"},{"name":"nbrStarsLocked","type":"uint8","internalType":"uint8"},{"name":"nbrCards","type":"int8","internalType":"int8"},{"name":"nbrRockUsed","type":"int8","internalType":"int8"},{"name":"nbrPaperUsed","type":"int8","internalType":"int8"},{"name":"nbrScissorsUsed","type":"int8","internalType":"int8"},{"name":"nbrOfferedMatches","type":"uint8","internalType":"uint8"},{"name":"initialNbrRocks","type":"int8","internalType":"int8"},{"name":"initialNbrPapers","type":"int8","internalType":"int8"},{"name":"initialNbrScissors","type":"int8","internalType":"int8"}]}],"stateMutability":"view"},{"type":"function","name":"getState","inputs":[],"outputs":[{"name":"","type":"uint8","internalType":"enum RestrictedRPSGame.GameState"}],"stateMutability":"view"},{"type":"function","name":"isOpen","inputs":[],"outputs":[{"name":"","type":"bool","internalType":"bool"}],"stateMutability":"view"},{"type":"function","name":"joinGame","inputs":[{"name":"pub","type":"string","internalType":"string"}],"outputs":[{"name":"playerId","type":"uint8","internalType":"uint8"}],"stateMutability":"payable"},{"type":"function","name":"offerMatch","inputs":[{"name":"_hashedCard","type":"bytes32","internalType":"bytes32"},{"name":"_player1Bet","type":"uint8","internalType":"uint8"},{"name":"_player2Bet","type":"uint8","internalType":"uint8"}],"outputs":[{"name":"matchId","type":"uint8","internalType":"uint8"}],"stateMutability":"nonpayable"},{"type":"function","name":"resetGame","inputs":[{"name":"_winningsCut","type":"uint8","internalType":"uint8"},{"name":"_starCost","type":"uint256","internalType":"uint256"},{"name":"_1MCashCost","type":"uint256","internalType":"uint256"},{"name":"_dealer","type":"address","internalType":"address"},{"name":"_initialHash","type":"bytes32","internalType":"bytes32"},{"name":"_duration","type":"uint8","internalType":"uint8"}],"outputs":[],"stateMutability":"nonpayable"},{"type":"function","name":"setPlayerHand","inputs":[{"name":"_playerId","type":"uint8","internalType":"uint8"},{"name":"encryptedHand","type":"bytes","internalType":"bytes"}],"outputs":[],"stateMutability":"nonpayable"},{"type":"function","name":"setSeed","inputs":[{"name":"seed","type":"uint256","internalType":"uint256"}],"outputs":[],"stateMutability":"nonpayable"},{"type":"function","name":"verifyDealerHonesty","inputs":[{"name":"_initialDeck","type":"bytes9","internalType":"bytes9"},{"name":"_secret","type":"string","internalType":"string"}],"outputs":[{"name":"","type":"bool","internalType":"bool"}],"stateMutability":"nonpayable"},{"type":"function","name":"verifyGame","inputs":[],"outputs":[],"stateMutability":"nonpayable"},{"type":"function","name":"verifyPlayerHonesty","inputs":[{"name":"_playerId","type":"uint8","internalType":"uint8"}],"outputs":[{"name":"","type":"bool","internalType":"bool"}],"stateMutability":"nonpayable"},{"type":"function","name":"verifyPlayersHonesty","inputs":[],"outputs":[],"stateMutability":"nonpayable"},{"type":"event","name":"DealerCheated","inputs":[{"name":"","type":"address","indexed":true,"internalType":"address"}],"anonymous":false},{"type":"event","name":"GameJoined","inputs":[{"name":"playerId","type":"uint8","indexed":true,"internalType":"uint8"},{"name":"player","type":"address","indexed":true,"internalType":"address"},{"name":"","type":"string","indexed":false,"internalType":"string"}],"anonymous":false},{"type":"event","name":"GameStarted","inputs":[],"anonymous":false},{"type":"event","name":"MatchAnswered","inputs":[{"name":"matchId","type":"uint256","indexed":true,"internalType":"uint256"},{"name":"player","type":"address","indexed":true,"internalType":"address"}],"anonymous":false},{"type":"event","name":"MatchCancelled","inputs":[{"name":"matchId","type":"uint256","indexed":true,"internalType":"uint256"},{"name":"player","type":"address","indexed":true,"internalType":"address"}],"anonymous":false},{"type":"event","name":"MatchClosed","inputs":[{"name":"matchId","type":"uint256","indexed":true,"internalType":"uint256"},{"name":"state","type":"uint8","indexed":true,"internalType":"uint8"}],"anonymous":false},{"type":"event","name":"MatchCreated","inputs":[{"name":"matchId","type":"uint256","indexed":true,"internalType":"uint256"},{"name":"player","type":"address","indexed":true,"internalType":"address"}],"anonymous":false},{"type":"event","name":"PlayerCheated","inputs":[{"name":"","type":"address","indexed":true,"internalType":"address"}],"anonymous":false},{"type":"event","name":"PlayerWasGivenHand","inputs":[{"name":"player","type":"address","indexed":true,"internalType":"address"},{"name":"encryptedHand","type":"bytes","indexed":false,"internalType":"bytes"}],"anonymous":false},{"type":"event","name":"SeedSet","inputs":[{"name":"seed","type":"uint256","indexed":false,"internalType":"uint256"}],"anonymous":false},{"type":"error","name":"RestrictedRPS_AnsweredMatchCannotBeCancelled","inputs":[]},{"type":"error","name":"RestrictedRPS_CannotResetOpenGame","inputs":[]},{"type":"error","name":"RestrictedRPS_DealerCannotJoin","inputs":[]},{"type":"error","name":"RestrictedRPS_DeckAndSecretNotMatchingInitialHash","inputs":[]},{"type":"error","name":"RestrictedRPS_GameFull","inputs":[]},{"type":"error","name":"RestrictedRPS_GameNotOpen","inputs":[]},{"type":"error","name":"RestrictedRPS_InvalidMatchId","inputs":[]},{"type":"error","name":"RestrictedRPS_InvalidPlayerId","inputs":[]},{"type":"error","name":"RestrictedRPS_MatchAlreadyPlayed","inputs":[]},{"type":"error","name":"RestrictedRPS_MatchNotAnswered","inputs":[]},{"type":"error","name":"RestrictedRPS_NotAPlayer","inputs":[]},{"type":"error","name":"RestrictedRPS_NotEnoughAvailableStars","inputs":[]},{"type":"error","name":"RestrictedRPS_NotTheRightPlayer","inputs":[]},{"type":"error","name":"RestrictedRPS_OnlyDealer","inputs":[]},{"type":"error","name":"RestrictedRPS_OnlyFactory","inputs":[]},{"type":"error","name":"RestrictedRPS_PlayerAlreadyJoined","inputs":[]},{"type":"error","name":"RestrictedRPS_PlayerBanned","inputs":[]},{"type":"error","name":"RestrictedRPS_PlayerHasOfferedTooManyMatches","inputs":[]},{"type":"error","name":"RestrictedRPS_SendMore","inputs":[]},{"type":"error","name":"RestrictedRPS_WrongCardHash","inputs":[]}],"bytecode":{"object":"0x60c06040526000805460ff1916600a17905560018055655af3107a40006002553480156200002c57600080fd5b50604051620038e1380380620038e18339810160408190526200004f91620000ef565b6001600160a01b0388811660805260ff88811660a0526000805460ff191689831617815560018890556002879055600380546001600160a01b0319169387169390931790925560048490556008805460059390935562ff00ff1990921690831617905550505050505050506200017c565b80516001600160a01b0381168114620000d857600080fd5b919050565b805160ff81168114620000d857600080fd5b600080600080600080600080610100898b0312156200010d57600080fd5b6200011889620000c0565b97506200012860208a01620000dd565b96506200013860408a01620000dd565b955060608901519450608089015193506200015660a08a01620000c0565b925060c089015191506200016d60e08a01620000dd565b90509295985092959890939650565b60805160a051613723620001be6000396000818161044b01526109ac0152600081816105b2015281816106980152818161075101526119aa01526137236000f3fe6080604052600436106101815760003560e01c806374cee9d1116100d1578063b1055add1161008a578063c32a50f911610064578063c32a50f91461046f578063c4ae16a81461048f578063dc71e3b8146104c2578063fcada10a146104e257600080fd5b8063b1055add14610410578063b6b3b64e1461041c578063c0bd83511461043c57600080fd5b806374cee9d1146103595780637bb054311461036e5780639cf6d1af1461038e578063a1455b68146103b6578063a6d3571d146103cb578063ad2e8c9b146103f857600080fd5b80633133888e1161013e5780633d536a2e116101185780633d536a2e146102dd57806347535d7b14610302578063525f5093146103175780636e328aab1461033957600080fd5b80633133888e1461027b57806332648d7e1461029d5780633640f613146102bd57600080fd5b80630f9361c31461018657806315822f44146101ae5780631746bd1b146101de5780631865c57d1461020657806323d808da1461022c5780632c70120e14610259575b600080fd5b34801561019257600080fd5b5061019b6104ff565b6040519081526020015b60405180910390f35b3480156101ba57600080fd5b506101ce6101c9366004612f2b565b610516565b60405190151581526020016101a5565b3480156101ea57600080fd5b506101f36108c3565b6040516101a59796959493929190612f7b565b34801561021257600080fd5b5060085462010000900460ff166040516101a59190613028565b34801561023857600080fd5b5061024c610247366004613051565b6109ef565b6040516101a591906130e7565b34801561026557600080fd5b5061026e610b31565b6040516101a591906130f6565b34801561028757600080fd5b5061029b610296366004613145565b610ce2565b005b3480156102a957600080fd5b5061029b6102b836600461319d565b610ddb565b3480156102c957600080fd5b5061029b6102d8366004613051565b6111ec565b6102f06102eb3660046131fb565b61145d565b60405160ff90911681526020016101a5565b34801561030e57600080fd5b506101ce6117f6565b34801561032357600080fd5b5061032c61181c565b6040516101a5919061331f565b34801561034557600080fd5b5061029b610354366004613379565b61199f565b34801561036557600080fd5b5060045461019b565b34801561037a57600080fd5b506101ce610389366004613051565b611aaf565b34801561039a57600080fd5b506003546040516001600160a01b0390911681526020016101a5565b3480156103c257600080fd5b5061029b611c46565b3480156103d757600080fd5b506103eb6103e6366004613051565b611c7e565b6040516101a591906133d8565b34801561040457600080fd5b5060085460ff166102f0565b34801561029b57600080fd5b34801561042857600080fd5b506102f06104373660046133e7565b611d92565b34801561044857600080fd5b507f00000000000000000000000000000000000000000000000000000000000000006102f0565b34801561047b57600080fd5b5061029b61048a366004613423565b612141565b34801561049b57600080fd5b506104af6104aa36600461343c565b61217c565b60405160009190910b81526020016101a5565b3480156104ce57600080fd5b5061029b6104dd366004613457565b6121f0565b3480156104ee57600080fd5b50600854610100900460ff166102f0565b600154600090610511906003906134a8565b905090565b6003546000906001600160a01b031633146105445760405163730d477360e11b815260040160405180910390fd5b600083836040516020016105599291906134e3565b60405160208183030381529060405280519060200120905080600454146105935760405163a5ab2a5960e01b815260040160405180910390fd5b60405163f3304bbf60e01b81526001600160b81b0319851660048201527f00000000000000000000000000000000000000000000000000000000000000006001600160a01b03169063f3304bbf90602401602060405180830381865afa158015610601573d6000803e3d6000fd5b505050506040513d601f19601f820116820180604052508101906106259190613514565b61066b576003546040516001600160a01b03909116907ff06e016360df4c9b017c99214597c4e45c240c89602b99ee310848b7c630cbcc90600090a260009150506108bd565b6005546040516340a2978360e11b81526001600160b81b03198616600482015260248101919091526000907f00000000000000000000000000000000000000000000000000000000000000006001600160a01b0316906381452f0690604401602060405180830381865afa1580156106e7573d6000803e3d6000fd5b505050506040513d601f19601f8201168201806040525081019061070b9190613536565b905060005b60085460ff610100909104811690821610156108b5576040516354e4130360e11b81526001600160b81b03198316600482015260ff821660248201526000907f00000000000000000000000000000000000000000000000000000000000000006001600160a01b03169063a9c8260690604401606060405180830381865afa1580156107a0573d6000803e3d6000fd5b505050506040513d601f19601f820116820180604052508101906107c49190613553565b8051909150600960ff8416600681106107df576107df6135e1565b6003020160020160076101000a81548160ff021916908360000b60ff16021790555080600160038110610814576108146135e1565b602002015160098360ff166006811061082f5761082f6135e1565b6003020160020160086101000a81548160ff021916908360000b60ff16021790555080600160038110610864576108646135e1565b602002015160098360ff166006811061087f5761087f6135e1565b6003020160020160096101000a81548160ff021916908360000b60ff1602179055505080806108ad906135f7565b915050610710565b506001925050505b92915050565b60085460009081908190819081908190606090610100900460ff16828167ffffffffffffffff8111156108f8576108f8612e78565b604051908082528060200260200182016040528015610921578160200160208202803683370190505b50905060005b8260ff168160ff16101561099d5760098160ff166006811061094b5761094b6135e1565b600302015482516001600160a01b0390911690839060ff8416908110610973576109736135e1565b6001600160a01b039092166020928302919091019091015280610995816135f7565b915050610927565b50600854601b546001546002547f00000000000000000000000000000000000000000000000000000000000000009d60ff610100860481169e509384169c509290931699509750909550909350915050565b6109f7612d37565b601b54829060ff90811690821610610a22576040516311eb888760e31b815260040160405180910390fd5b601c8360ff1660788110610a3857610a386135e1565b604080516101008082018352600293840294909401805460ff8082168452958104861660208401529194909392850192620100009092041690811115610a8057610a80613002565b6002811115610a9157610a91613002565b815281546020909101906301000000900460ff166002811115610ab657610ab6613002565b6002811115610ac757610ac7613002565b8152815460ff600160201b820481166020840152600160281b820481166040840152606090920191600160301b909104166005811115610b0957610b09613002565b6005811115610b1a57610b1a613002565b815260200160018201548152505091505b50919050565b601b5460609060ff1660008167ffffffffffffffff811115610b5557610b55612e78565b604051908082528060200260200182016040528015610b8e57816020015b610b7b612d37565b815260200190600190039081610b735790505b50905060005b8260ff168160ff161015610cdb57601c8160ff1660788110610bb857610bb86135e1565b604080516101008082018352600293840294909401805460ff8082168452958104861660208401529194909392850192620100009092041690811115610c0057610c00613002565b6002811115610c1157610c11613002565b815281546020909101906301000000900460ff166002811115610c3657610c36613002565b6002811115610c4757610c47613002565b8152815460ff600160201b820481166020840152600160281b820481166040840152606090920191600160301b909104166005811115610c8957610c89613002565b6005811115610c9a57610c9a613002565b8152602001600182015481525050828260ff1681518110610cbd57610cbd6135e1565b60200260200101819052508080610cd3906135f7565b915050610b94565b5092915050565b600854829060ff610100909104811690821610610d1257604051630e0a2aa160e11b815260040160405180910390fd5b6003546001600160a01b03163314610d3d5760405163730d477360e11b815260040160405180910390fd5b600660098460ff1660068110610d5557610d556135e1565b6003020160020160026101000a81548160ff021916908360000b60ff16021790555060098360ff1660068110610d8d57610d8d6135e1565b60030201546040516001600160a01b03909116907f675e261a416100b60f1c071c20fd8b07e1e242d28313ee7638d4d44614a2d4e690610dce908590613642565b60405180910390a2505050565b601b54839060ff90811690821610610e06576040516311eb888760e31b815260040160405180910390fd5b6000601c8560ff1660788110610e1e57610e1e6135e1565b604080516101008082018352600293840294909401805460ff8082168452958104861660208401529194909392850192620100009092041690811115610e6657610e66613002565b6002811115610e7757610e77613002565b815281546020909101906301000000900460ff166002811115610e9c57610e9c613002565b6002811115610ead57610ead613002565b8152815460ff600160201b820481166020840152600160281b820481166040840152606090920191600160301b909104166005811115610eef57610eef613002565b6005811115610f0057610f00613002565b81526001918201546020909101529091508160c001516005811115610f2757610f27613002565b14610f4557604051633018e60760e21b815260040160405180910390fd5b60008460f81b84604051602001610f5d929190613655565b604051602081830303815290604052805190602001209050808260e0015114610f9957604051633b74e52960e11b815260040160405180910390fd5b60008560ff166002811115610fb057610fb0613002565b905080601c8860ff1660788110610fc957610fc96135e1565b6002020160000160026101000a81548160ff02191690836002811115610ff157610ff1613002565b02179055506060830151835161100790836124ad565b6110158460200151826124ad565b6000600283600281111561102b5761102b613002565b60ff16111561104b57611047898660000151876020015161262e565b5060055b600282600281111561105f5761105f613002565b60ff16111561107f5761107b89866000015187602001516128d3565b5060045b81600281111561109157611091613002565b8360028111156110a3576110a3613002565b036110c3576110bb8986600001518760200151612b5a565b50600361119c565b60008360028111156110d7576110d7613002565b1480156110f5575060028260028111156110f3576110f3613002565b145b8061112d5750600183600281111561110f5761110f613002565b14801561112d5750600082600281111561112b5761112b613002565b145b806111655750600283600281111561114757611147613002565b1480156111655750600182600281111561116357611163613002565b145b156111855761117d89866000015187602001516128d3565b50600461119c565b611198898660000151876020015161262e565b5060055b8060058111156111ae576111ae613002565b60ff168960ff167f16ee0aa4913ca9b3502ba060565c5e7016a69fa5853154a2611b73f45f48383960405160405180910390a3505050505050505050565b601b54819060ff90811690821610611217576040516311eb888760e31b815260040160405180910390fd5b6000601c8360ff166078811061122f5761122f6135e1565b604080516101008082018352600293840294909401805460ff808216845295810486166020840152919490939285019262010000909204169081111561127757611277613002565b600281111561128857611288613002565b815281546020909101906301000000900460ff1660028111156112ad576112ad613002565b60028111156112be576112be613002565b8152815460ff600160201b820481166020840152600160281b820481166040840152606090920191600160301b90910416600581111561130057611300613002565b600581111561131157611311613002565b815260019190910154602090910152805190915060006113303361217c565b90508060000b8260000b14611358576040516334e24b8360e21b815260040160405180910390fd5b60c0830151600081600581111561137157611371613002565b1461138f57604051637021339d60e11b815260040160405180910390fd5b836080015160098460ff16600681106113aa576113aa6135e1565b6003020160020160018282829054906101000a900460ff166113cc9190613686565b92506101000a81548160ff021916908360ff1602179055506002601c8760ff16607881106113fc576113fc6135e1565b60020201805460ff60301b1916600160301b83600581111561142057611420613002565b0217905550604051339060ff8816907f34d66c87f348a9492b2a7fe1463b02de9cab509ca7872ee83878909d9805c3a890600090a3505050505050565b6000336114686104ff565b3410156114885760405163e71ff98960e01b815260040160405180910390fd5b600060085462010000900460ff1660028111156114a7576114a7613002565b146114c55760405163817b163760e01b815260040160405180910390fd5b6003546001600160a01b038083169116036114f35760405163031ee3ed60e51b815260040160405180910390fd5b600854610100900460ff169150600661150d83600161369f565b60ff16111561152f5760405163380d3cc160e11b815260040160405180910390fd5b60005b8260ff168160ff16101561159e57816001600160a01b031660098260ff1660068110611560576115606135e1565b60030201546001600160a01b03160361158c57604051639bec841d60e01b815260040160405180910390fd5b80611596816135f7565b915050611532565b506115a7612d7b565b6001600160a01b03821681526003604082015280600960ff8516600681106115d1576115d16135e1565b6003020160008201518160000160006101000a8154816001600160a01b0302191690836001600160a01b031602179055506020820151816001015560408201518160020160006101000a81548160ff021916908360ff16021790555060608201518160020160016101000a81548160ff021916908360ff16021790555060808201518160020160026101000a81548160ff021916908360000b60ff16021790555060a08201518160020160036101000a81548160ff021916908360000b60ff16021790555060c08201518160020160046101000a81548160ff021916908360000b60ff16021790555060e08201518160020160056101000a81548160ff021916908360000b60ff1602179055506101008201518160020160066101000a81548160ff021916908360ff1602179055506101208201518160020160076101000a81548160ff021916908360000b60ff1602179055506101408201518160020160086101000a81548160ff021916908360000b60ff1602179055506101608201518160020160096101000a81548160ff021916908360000b60ff1602179055509050506008600181819054906101000a900460ff1680929190611791906135f7565b91906101000a81548160ff021916908360ff16021790555050816001600160a01b03168360ff167fdc70164a0afb7ca145a827fd238ec265b666c335c24a0afa2a33aab37362b4e1866040516117e79190613642565b60405180910390a35050919050565b60008060085462010000900460ff16600281111561181657611816613002565b14905090565b600854606090610100900460ff1660008167ffffffffffffffff81111561184557611845612e78565b60405190808252806020026020018201604052801561187e57816020015b61186b612d7b565b8152602001906001900390816118635790505b50905060005b8260ff168160ff161015610cdb5760098160ff16600681106118a8576118a86135e1565b60408051610180810182526003929092029290920180546001600160a01b03168252600181015460208301526002015460ff8082169383019390935261010080820484166060840152620100008204600090810b608085015263010000008304810b60a0850152600160201b8304810b60c0850152600160281b8304810b60e0850152600160301b8304851691840191909152600160381b8204810b610120840152600160401b8204810b610140840152600160481b909104900b610160820152835190918491908416908110611981576119816135e1565b60200260200101819052508080611997906135f7565b915050611884565b336001600160a01b037f000000000000000000000000000000000000000000000000000000000000000016146119e857604051633f9db83960e01b815260040160405180910390fd5b600060085462010000900460ff166002811115611a0757611a07613002565b03611a255760405163ad6418ff60e01b815260040160405180910390fd5b601b805460ff19169055611a3b601c6000612ddf565b6008805461ff0019169055611a5260096000612dee565b6000805460ff191660ff88811691909117825560018790556002869055600380546001600160a01b0319166001600160a01b03871617905560048490556008805460059390935562ff00ff19909216908316179055505050505050565b600854600090829060ff610100909104811690821610611ae257604051630e0a2aa160e11b815260040160405180910390fd5b600060098460ff1660068110611afa57611afa6135e1565b60408051610180810182526003929092029290920180546001600160a01b03168252600181015460208301526002015460ff8082169383019390935261010080820484166060840152620100008204600090810b608085015263010000008304810b60a08501819052600160201b8404820b60c0860152600160281b8404820b60e0860152600160301b840490951691840191909152600160381b8204810b6101208401819052600160401b8304820b610140850152600160481b909204900b6101608301529092501280611bdd575080610140015160000b8160c0015160000b135b80611bf6575080610160015160000b8160e0015160000b135b15611c3c5780516040516001600160a01b03909116907f01c709aae484e2a477ef26450949077d5411b73db0d6b24d7db60381d60794cd90600090a26000925050610b2b565b5060019392505050565b60005b60085460ff61010090910481169082161015611c7b57611c6881611aaf565b5080611c73816135f7565b915050611c49565b50565b611c86612d7b565b600854829060ff610100909104811690821610611cb657604051630e0a2aa160e11b815260040160405180910390fd5b60098360ff1660068110611ccc57611ccc6135e1565b60408051610180810182526003929092029290920180546001600160a01b03168252600181015460208301526002015460ff8082169383019390935261010080820484166060840152620100008204600090810b608085015263010000008304810b60a0850152600160201b8304810b60c0850152600160281b8304810b60e0850152600160301b830490941690830152600160381b8104830b610120830152600160401b8104830b610140830152600160481b900490910b6101608201529392505050565b6000611d9c612d37565b6000611da73361217c565b90508060000b60001903611dce57604051637082284960e11b815260040160405180910390fd5b806000600960ff831660068110611de757611de76135e1565b60408051610180810182526003929092029290920180546001600160a01b03168252600180820154602084015260029091015460ff8082169484019490945261010080820485166060850152620100008204600090810b608086015263010000008304810b60a0860152600160201b8304810b60c0860152600160281b8304810b60e0860152600160301b8304909516908401819052600160381b8204850b610120850152600160401b8204850b610140850152600160481b909104840b610160840152919350611eb8919061369f565b9050601460ff82161115611edf57604051633fac4c7160e21b815260040160405180910390fd5b816040015160ff16826060015189611ef7919061369f565b60ff161115611f1957604051638ba4117960e01b815260040160405180910390fd5b60ff808416865260e086018a905287811660a08701528881166080870152601b5416955084601c8760788110611f5157611f516135e1565b82516002918202929092018054602085015160ff9081166101000261ffff1990921694169390931792909217808355604084015191839162ff000019169062010000908490811115611fa557611fa5613002565b021790555060608201518154829063ff00000019166301000000836002811115611fd157611fd1613002565b02179055506080820151815460a084015160ff908116600160281b0265ff00000000001991909316600160201b021665ffff0000000019909116171780825560c083015190829060ff60301b1916600160301b83600581111561203657612036613002565b021790555060e09190910151600190910155601b805460ff1690600061205b836135f7565b91906101000a81548160ff021916908360ff160217905550508060098460ff166006811061208b5761208b6135e1565b6003020160020160066101000a81548160ff021916908360ff1602179055508760098460ff16600681106120c1576120c16135e1565b6003020160020160018282829054906101000a900460ff166120e3919061369f565b92506101000a81548160ff021916908360ff160217905550336001600160a01b03168660ff167f18a47d8df22f178f89e665cc0fccf4ee175e91434c7b749c4a7607ffa4d33a6760405160405180910390a350505050509392505050565b60058190556040518181527fbda2e5fc778edfbed22cb985a005e7314108766bd66e86798f58611dcb9fb8b99060200160405180910390a150565b60085460001990610100900460ff1660005b8160ff168160ff1610156121e957836001600160a01b031660098260ff16600681106121bc576121bc6135e1565b60030201546001600160a01b0316036121d7578092506121e9565b806121e1816135f7565b91505061218e565b5050919050565b601b54829060ff9081169082161061221b576040516311eb888760e31b815260040160405180910390fd5b60006122263361217c565b90508060000b6000190361224d57604051637082284960e11b815260040160405180910390fd5b806000601c60ff871660788110612266576122666135e1565b60020201905060008154600160301b900460ff16600581111561228b5761228b613002565b146122a9576040516317c9510160e01b815260040160405180910390fd5b600060098360ff16600681106122c1576122c16135e1565b60408051610180810182526003929092029290920180546001600160a01b03168252600181015460208301526002015460ff808216938301849052610100808304821660608501819052620100008404600090810b608087015263010000008504810b60a0870152600160201b8504810b60c0870152600160281b808604820b60e0880152600160301b8604851693870193909352600160381b8504810b610120870152600160401b8504810b610140870152600160481b90940490930b610160850152865493955061239593041661369f565b60ff1611156123b757604051638ba4117960e01b815260040160405180910390fd5b815460ff84166101000261ff00198216811784558791849163ff000000191663ff00ff00199091161763010000008360028111156123f7576123f7613002565b0217905550815460ff60301b1916600160301b1780835560ff600160281b909104811690600990851660068110612430576124306135e1565b6003020160020160018282829054906101000a900460ff16612452919061369f565b92506101000a81548160ff021916908360ff160217905550336001600160a01b03168760ff167f01b120bec3d4ba9705e9f5f6c7aa115993959878ac9533a84cb359ffe642823060405160405180910390a350505050505050565b60008160028111156124c1576124c1613002565b036125215760098260ff16600681106124dc576124dc6135e1565b60030201600201600381819054906101000a900460000b80929190612500906136b8565b91906101000a81548160ff021916908360000b60ff160217905550506125da565b600181600281111561253557612535613002565b0361256f5760098260ff1660068110612550576125506135e1565b600302016002018054600160201b900460000b906004612500836136b8565b600281600281111561258357612583613002565b036125da5760098260ff166006811061259e5761259e6135e1565b600302016002018054600160281b900460000b9060056125bd836136b8565b91906101000a81548160ff021916908360000b60ff160217905550505b60098260ff16600681106125f0576125f06135e1565b600302016002908101805462010000900460000b9161260e836136ce565b91906101000a81548160ff021916908360000b60ff160217905550505050565b6000601c8460ff1660788110612646576126466135e1565b604080516101008082018352600293840294909401805460ff808216845295810486166020840152919490939285019262010000909204169081111561268e5761268e613002565b600281111561269f5761269f613002565b815281546020909101906301000000900460ff1660028111156126c4576126c4613002565b60028111156126d5576126d5613002565b8152815460ff600160201b820481166020840152600160281b820481166040840152606090920191600160301b90910416600581111561271757612717613002565b600581111561272857612728613002565b815260200160018201548152505090506005601c8560ff1660788110612750576127506135e1565b60020201805460ff60301b1916600160301b83600581111561277457612774613002565b0217905550806080015160098460ff1660068110612794576127946135e1565b6003020160020160018282829054906101000a900460ff166127b69190613686565b92506101000a81548160ff021916908360ff160217905550806080015160098460ff16600681106127e9576127e96135e1565b6003020160020160008282829054906101000a900460ff1661280b9190613686565b92506101000a81548160ff021916908360ff1602179055508060a0015160098360ff166006811061283e5761283e6135e1565b6003020160020160018282829054906101000a900460ff166128609190613686565b92506101000a81548160ff021916908360ff160217905550806080015160098360ff1660068110612893576128936135e1565b6003020160020160008282829054906101000a900460ff166128b5919061369f565b92506101000a81548160ff021916908360ff16021790555050505050565b6000601c8460ff16607881106128eb576128eb6135e1565b604080516101008082018352600293840294909401805460ff808216845295810486166020840152919490939285019262010000909204169081111561293357612933613002565b600281111561294457612944613002565b815281546020909101906301000000900460ff16600281111561296957612969613002565b600281111561297a5761297a613002565b8152815460ff600160201b820481166020840152600160281b820481166040840152606090920191600160301b9091041660058111156129bc576129bc613002565b60058111156129cd576129cd613002565b815260200160018201548152505090506004601c8560ff16607881106129f5576129f56135e1565b60020201805460ff60301b1916600160301b836005811115612a1957612a19613002565b0217905550806080015160098460ff1660068110612a3957612a396135e1565b6003020160020160018282829054906101000a900460ff16612a5b9190613686565b92506101000a81548160ff021916908360ff1602179055508060a0015160098460ff1660068110612a8e57612a8e6135e1565b6003020160020160008282829054906101000a900460ff16612ab0919061369f565b92506101000a81548160ff021916908360ff1602179055508060a0015160098360ff1660068110612ae357612ae36135e1565b6003020160020160018282829054906101000a900460ff16612b059190613686565b92506101000a81548160ff021916908360ff1602179055508060a0015160098360ff1660068110612b3857612b386135e1565b6003020160020160008282829054906101000a900460ff166128b59190613686565b6000601c8460ff1660788110612b7257612b726135e1565b604080516101008082018352600293840294909401805460ff8082168452958104861660208401529194909392850192620100009092041690811115612bba57612bba613002565b6002811115612bcb57612bcb613002565b815281546020909101906301000000900460ff166002811115612bf057612bf0613002565b6002811115612c0157612c01613002565b8152815460ff600160201b820481166020840152600160281b820481166040840152606090920191600160301b909104166005811115612c4357612c43613002565b6005811115612c5457612c54613002565b815260200160018201548152505090506003601c8560ff1660788110612c7c57612c7c6135e1565b60020201805460ff60301b1916600160301b836005811115612ca057612ca0613002565b0217905550806080015160098460ff1660068110612cc057612cc06135e1565b6003020160020160018282829054906101000a900460ff16612ce29190613686565b92506101000a81548160ff021916908360ff1602179055508060a0015160098360ff1660068110612d1557612d156135e1565b6003020160020160018282829054906101000a900460ff166128b59190613686565b6040805161010081018252600080825260208201819052918101829052606081018290526080810182905260a0810182905260c0810182905260e081019190915290565b6040805161018081018252600080825260208201819052918101829052606081018290526080810182905260a0810182905260c0810182905260e0810182905261010081018290526101208101829052610140810182905261016081019190915290565b50611c7b9060f0810190612dfd565b50611c7b906012810190612e27565b5b80821115612e2357805466ffffffffffffff1916815560006001820155600201612dfe565b5090565b5b80821115612e235780546001600160a01b03191681556000600182015560028101805469ffffffffffffffffffff19169055600301612e28565b6001600160b81b031981168114611c7b57600080fd5b634e487b7160e01b600052604160045260246000fd5b600067ffffffffffffffff80841115612ea957612ea9612e78565b604051601f8501601f19908116603f01168101908282118183101715612ed157612ed1612e78565b81604052809350858152868686011115612eea57600080fd5b858560208301376000602087830101525050509392505050565b600082601f830112612f1557600080fd5b612f2483833560208501612e8e565b9392505050565b60008060408385031215612f3e57600080fd5b8235612f4981612e62565b9150602083013567ffffffffffffffff811115612f6557600080fd5b612f7185828601612f04565b9150509250929050565b600060e0820160ff8a168352602060ff8a168185015260ff8916604085015260ff881660608501528660808501528560a085015260e060c085015281855180845261010086019150828701935060005b81811015612ff05784516001600160a01b031683529383019391830191600101612fcb565b50909c9b505050505050505050505050565b634e487b7160e01b600052602160045260246000fd5b60038110611c7b57611c7b613002565b6020810161303583613018565b91905290565b803560ff8116811461304c57600080fd5b919050565b60006020828403121561306357600080fd5b612f248261303b565b60ff815116825260ff6020820151166020830152604081015161308e81613018565b604083015260608101516130a181613018565b8060608401525060ff608082015116608083015260ff60a08201511660a083015260c0810151600681106130d7576130d7613002565b60c083015260e090810151910152565b61010081016108bd828461306c565b6020808252825182820181905260009190848201906040850190845b818110156131395761312583855161306c565b928401926101009290920191600101613112565b50909695505050505050565b6000806040838503121561315857600080fd5b6131618361303b565b9150602083013567ffffffffffffffff81111561317d57600080fd5b8301601f8101851361318e57600080fd5b612f7185823560208401612e8e565b6000806000606084860312156131b257600080fd5b6131bb8461303b565b92506131c96020850161303b565b9150604084013567ffffffffffffffff8111156131e557600080fd5b6131f186828701612f04565b9150509250925092565b60006020828403121561320d57600080fd5b813567ffffffffffffffff81111561322457600080fd5b61323084828501612f04565b949350505050565b80516001600160a01b03168252602081015160208301526040810151613263604084018260ff169052565b506060810151613278606084018260ff169052565b50608081015161328d608084018260000b9052565b5060a08101516132a260a084018260000b9052565b5060c08101516132b760c084018260000b9052565b5060e08101516132cc60e084018260000b9052565b506101008181015160ff169083015261012080820151600081900b828501525050610140808201516133028285018260000b9052565b5050610160808201516133198285018260000b9052565b50505050565b6020808252825182820181905260009190848201906040850190845b818110156131395761334e838551613238565b92840192610180929092019160010161333b565b80356001600160a01b038116811461304c57600080fd5b60008060008060008060c0878903121561339257600080fd5b61339b8761303b565b955060208701359450604087013593506133b760608801613362565b9250608087013591506133cc60a0880161303b565b90509295509295509295565b61018081016108bd8284613238565b6000806000606084860312156133fc57600080fd5b8335925061340c6020850161303b565b915061341a6040850161303b565b90509250925092565b60006020828403121561343557600080fd5b5035919050565b60006020828403121561344e57600080fd5b612f2482613362565b6000806040838503121561346a57600080fd5b6134738361303b565b915060208301356003811061348757600080fd5b809150509250929050565b634e487b7160e01b600052601160045260246000fd5b80820281158282048414176108bd576108bd613492565b60005b838110156134da5781810151838201526020016134c2565b50506000910152565b6001600160b81b03198316815281516000906135068160098501602087016134bf565b919091016009019392505050565b60006020828403121561352657600080fd5b81518015158114612f2457600080fd5b60006020828403121561354857600080fd5b8151612f2481612e62565b60006060828403121561356557600080fd5b82601f83011261357457600080fd5b6040516060810181811067ffffffffffffffff8211171561359757613597612e78565b6040528060608401858111156135ac57600080fd5b845b818110156135d6578051600081810b82146135c7578081fd5b508352602092830192016135ae565b509195945050505050565b634e487b7160e01b600052603260045260246000fd5b600060ff821660ff810361360d5761360d613492565b60010192915050565b6000815180845261362e8160208601602086016134bf565b601f01601f19169290920160200192915050565b602081526000612f246020830184613616565b6001600160f81b03198316815281516000906136788160018501602087016134bf565b919091016001019392505050565b60ff82811682821603908111156108bd576108bd613492565b60ff81811683821601908111156108bd576108bd613492565b60008160000b607f810361360d5761360d613492565b600081810b608081016136e3576136e3613492565b600019019291505056fea26469706673582212207bfd89d3edcc11dde24a3a04a0430b7190c4e6b08f43a391245c3aec68a0d3da64736f6c63430008130033","linkReferences":{}},"methodIdentifiers":{"answerMatch(uint8,uint8)":"dc71e3b8","cancelMatch(uint8)":"3640f613","closeMatch(uint8,uint8,string)":"32648d7e","getBasicJoiningCost()":"0f9361c3","getDealer()":"9cf6d1af","getDuration()":"ad2e8c9b","getGameId()":"c0bd8351","getGameInfo()":"1746bd1b","getInitialHash()":"74cee9d1","getMatch(uint8)":"23d808da","getMatches()":"2c70120e","getNbrPlayers()":"fcada10a","getPlayerId(address)":"c4ae16a8","getPlayerState(uint8)":"a6d3571d","getPlayersState()":"525f5093","getState()":"1865c57d","isOpen()":"47535d7b","joinGame(string)":"3d536a2e","offerMatch(bytes32,uint8,uint8)":"b6b3b64e","resetGame(uint8,uint256,uint256,address,bytes32,uint8)":"6e328aab","setPlayerHand(uint8,bytes)":"3133888e","setSeed(uint256)":"c32a50f9","verifyDealerHonesty(bytes9,string)":"15822f44","verifyGame()":"b1055add","verifyPlayerHonesty(uint8)":"7bb05431","verifyPlayersHonesty()":"a1455b68"},"id":24}